:0400000032EF00F0EB
:100008005B82FACF03F0FBCF04F00E01C2AB0FEF17
:1000180000F011EF00F01CEF00F0CAAB16EF00F093
:1000280018EF00F01CEF00F0A6ECD5F02CEF00F074
:10003800C2A921EF00F023EF00F02CEF00F0CAA9CD
:1000480028EF00F02AEF00F02CEF00F035ECD5F0A7
:1000580004C0FBFF03C0FAFF5B92110095EFCEF0DE
:10FEA00000809A45418E418F804545454949498E9C
:10FEB0008F9092924F994F555559999A9B9C9D9E20
:10FEC0009F41494F55A5A5A6A7A8A9AAABACADAE21
:10FED000AFB0B1B2B3B4B5B6B7B8B9BABBBCBDBEBA
:10FEE000BFC0C1C2C3C4C5C6C7C8C9CACBCCCDCEAA
:10FEF000CFD0D1D2D3D4D5D6D7D8D9DADBDCDDDE9A
:10FF0000DFE0E1E2E3E4E5E6E7E8E9EAEBECEDEE89
:10FF1000EFF0F1F2F3F4F5F6F7F8F9FAFBFCFDFE79
:10FF2000FF22AB01DEAA01CEAA015C8D013893014C
:10FF300016AB016899018EAB0186AB017EAB0176F1
:10FF4000AB016EAB0166AB015EAB010AAB01769E05
:10FF5000010A409F0000409F002B2E2C3B3D5B5D23
:10FF60002F5C222A3A3C3E3F7C7F004A616E466508
:10FF7000624D61724170724D61794A756E4A756C5D
:10FF80004175675365704F63744E6F7644656300C7
:10FF900053756E4D6F6E547565576564546875463C
:10FFA00072695361740025313273202D20256C75E0
:10FFB00020627974657300222A2B2C3A3B3C3D3E2B
:10FFC0003F5B5D7C7F002A566F6C756D65202D2030
:10FFD00025732A00256C75204B6942206672656581
:10FFE0000048454C4C4F2E5458540046415433322F
:10FFF000006C6C7300464154006C7500303A000090
:020000040001F9
:1000000062C0D9FF63C0DAFF000EDE6E000EDD6E47
:1000100060C005F061C006F0E2ECB2F005C08DF002
:1000200006C08EF000018EBF1AEF80F018EF80F04E
:100030001DEF80F00B0E41EF86F0D8908D35D96E14
:100040008E35DA6E4A0ED926010EDA22DECFA5F001
:10005000DDCFA6F0A551A611D8A431EF80F033EF83
:1000600080F036EF80F00C0E41EF86F062C0D9FFD1
:1000700063C0DAFFA5C0DEFFA6C0DDFF6491A5C0A6
:10008000D9FFA6C0DAFFDF50D8B449EF80F04BEFBC
:1000900080F072EF80F020EE01F0A551D926A65134
:1000A000DA22DF5031ECCDF00001956F95B15BEFB6
:1000B00080F05DEF80F072EF80F06451D8B463EFB0
:1000C00080F065EF80F06FEF80F095A56AEF80F02B
:1000D0006CEF80F06FEF80F00A0E41EF86F0000EBB
:1000E00041EF86F0A5C0D9FFA6C0DAFF000EDF6E93
:1000F00020EE01F0A551D926A651DA228DC0DFFFEE
:1001000020EE01F0A551D926A651DA22DF50F6ECF7
:10011000D0F00001956F95A190EF80F092EF80F004
:1001200095EF80F0030E41EF86F06451D8B49BEF59
:1001300080F09DEF80F0A6EF80F095A5A2EF80F013
:10014000A4EF80F0A6EF80F06CEF80F0000E9E6FC1
:10015000000E9F6F000EA06F000EA16FA5C04CF0A7
:10016000A6C04DF09EC04EF09FC04FF0A0C050F012
:10017000A1C051F020ECBBF00001A46F020EA41945
:10018000D8B4C5EF80F0C7EF80F0C9EF80F09DEFE5
:1001900081F0000EA36F000EA26FA35109E1040EBF
:1001A000A25DD8A0D6EF80F0D8EF80F0DAEF80F033
:1001B0003AEF81F0A2C065F0A3C066F0653B663BF4
:1001C000F00E661765510F0B6613F00E6517A5C08C
:1001D00067F0A6C068F06551672766516823F10E85
:1001E0006725876F010E6821886F20EE04F0875124
:1001F000D9268851DA22DF50D8A401EF81F003EF2D
:1002000081F00DEF81F0000E7D6F000E7E6F000E0D
:100210007F6F000E806F1DEF81F0080E8725056E41
:10022000000E8821066E39ECC8F005C07DF006C0CE
:100230007EF007C07FF008C080F06D0E0001656F92
:10024000000E666FD890A235D96EA335DA6ED890BD
:10025000D936DA366551D9266651DA227DC0DEFFFD
:100260007EC0DEFF7FC0DEFF80C0DEFFA24BA32B7F
:10027000CDEF80F0000EA36F000EA26FA251A3116C
:10028000D8B445EF81F047EF81F04AEF81F0A20743
:10029000D8A0A3076D0E656F000E666FD890A235CB
:1002A000D96EA335DA6ED890D936DA366551D926AB
:1002B0006651DA22DECF9EF0DECF9FF0DECFA0F0D7
:1002C000DECFA1F09E519F11A011A111D8A46BEF18
:1002D00081F06DEF81F073EF81F0000E826F030EFD
:1002E000816F86EF81F0A5C04CF0A6C04DF09EC096
:1002F0004EF09FC04FF0A0C050F0A1C051F020ECD4
:10030000BBF00001656F6551816F826B81C0A4F005
:10031000010EA4658EEF81F090EF81F09DEF81F0EA
:10032000A24BA32BA35109E1040EA25DD8A09BEF21
:1003300081F09DEF81F04AEF81F0040EA419D8A45A
:10034000A4EF81F0A6EF81F0A9EF81F0010E41EF5B
:1003500086F0010EA465AFEF81F0B1EF81F0B4EF4C
:1003600081F00D0E41EF86F03E0EA525056E000EC4
:10037000A621066E25ECD3F0020E06180510D8B49F
:10038000C4EF81F0C6EF81F0C8EF81F0B1EF81F0EA
:10039000490E0001A525056E000EA621066E25EC6E
:1003A000D3F005C09AF006C09BF000019C6B9D6BDA
:1003B0009A519B119C119D11D8A4E1EF81F0E3EFBC
:1003C00081F0F3EF81F0570EA525056E000EA621F2
:1003D000066E39ECC8F005C09AF006C09BF007C065
:1003E0009CF008C09DF0000120EE1BF0A551D9261D
:1003F000A651DA229AC0DEFF9BC0DEFF9CC0DEFF62
:100400009DC0DEFF20EE43F0A551D926A651DA2289
:1004100010EE02F0A551E126A651E222DFCFE7FF60
:1004200020EE02F0A551D926A651DA22DE04D8B476
:100430001CEF82F01EEF82F02FEF82F020EE02F030
:10044000A551D926A651DA22020EDE18D8B42BEF18
:1004500082F02DEF82F02FEF82F0B1EF81F09AC0A1
:1004600005F09BC006F09CC007F09DC008F020EE90
:1004700002F0A551D926A651DA22DF50656F6551E9
:10048000096E0A6A0B6A0C6AA6ECCFF005C09AF0F6
:1004900006C09BF007C09CF008C09DF0000120EE54
:1004A00040F0A551D926A651DA22DF50656F666B60
:1004B00020EE09F0A551D926A651DA2265C0DEFF4B
:1004C00066C0DDFF20EE09F0A551D926A651DA223B
:1004D000DE50DE10D8B46FEF82F071EF82F0B1EF32
:1004E00081F020EE09F0A551D926A651DA22DECFFF
:1004F00065F0DDCF66F0FF0E676FFF0E686F20EED0
:1005000009F0A551D926A651DA22DECF69F0DDCF58
:100510006AF06751692768516A2365516917665106
:100520006A1769516A11D8B498EF82F09AEF82F095
:100530009CEF82F0B1EF81F0440EA525056E000E10
:10054000A621066E25ECD3F0000120EE07F0A551A0
:10055000D926A651DA2205C0DEFF06C0DDFF20EE57
:1005600007F0A551D926A651DA22DECF65F0DDCFFE
:1005700066F00F0E6517000E661765516611D8B448
:10058000C4EF82F0C6EF82F0C8EF82F0B1EF81F0E5
:10059000460EA525056E000EA621066E25ECD3F0AD
:1005A00005C091F006C092F00001936B946B9151DD
:1005B000921193119411D8A4E0EF82F0E2EF82F04F
:1005C000F2EF82F0530EA525056E000EA621066EF1
:1005D00039ECC8F005C091F006C092F007C093F066
:1005E00008C094F0410E0001A525056E000EA6215D
:1005F000066E25ECD3F005C08FF006C090F0000128
:100600008F519011D8A407EF83F009EF83F00BEF1F
:1006100083F0B1EF81F020EE07F0A551D926A65165
:10062000DA22DECF65F0DDCF66F0040E676FD8907A
:1006300066336533672F17EF83F08F516525686F39
:1006400090516621696F6A6BD8B06A2B6B6B9A51B7
:100650006825896F9B5169218A6F9C516A218B6F34
:100660009D516B218C6F8951915D8A5192598B51AB
:1006700093598C519459D8B040EF83F042EF83F0F6
:1006800044EF83F0B1EF81F08951915D056E8A519D
:100690009259066E8B519359076E8C519459086E7E
:1006A00020EE09F0A551D926A651DA22DECF65F059
:1006B000DDCF66F065C009F066C00AF00B6A0C6A0F
:1006C000F0ECC9F005C096F006C097F007C098F0AE
:1006D00008C099F000019651971198119911D8A46A
:1006E00074EF83F076EF83F078EF83F0B1EF81F071
:1006F000000EA46FF60E965DFF0E9759FF0E9859E7
:100700000F0E9959D8B087EF83F089EF83F08BEF04
:1007100083F0030EA46F9951981109E1F60E965DCE
:10072000FF0E9759D8B097EF83F099EF83F09BEFC6
:1007300083F0020EA46F9951981109E1F60E965DAF
:100740000F0E9759D8B0A7EF83F0A9EF83F0ABEF66
:1007500083F0010EA46FA451D8A4B1EF83F0B3EFDE
:1007600083F0B5EF83F0B1EF81F0020E9625656F4F
:10077000000E9721666F000E9821676F000E992179
:10078000686F20EE17F0A551D926A651DA2265C070
:10079000DEFF66C0DEFF67C0DEFF68C0DEFF20EE62
:1007A0001FF0A551D926A651DA229EC0DEFF9FC0B8
:1007B000DEFFA0C0DEFFA1C0DEFF8F519E25656F6A
:1007C00090519F21666F000EA021676F000EA1213E
:1007D000686F20EE23F0A551D926A651DA2265C014
:1007E000DEFF66C0DEFF67C0DEFF68C0DEFF895146
:1007F0009E25656F8A519F21666F8B51A021676F7F
:100800008C51A121686F20EE2BF0A551D926A6515D
:10081000DA2265C0DEFF66C0DEFF67C0DEFF68C0AB
:10082000DEFF030EA419D8A418EF84F01AEF84F0A9
:1008300077EF84F05D0EA525056E000EA621066EED
:1008400025ECD3F005500610D8B429EF84F02BEF37
:1008500084F02DEF84F0B1EF81F0000120EE07F07D
:10086000A551D926A651DA22DE50DE10D8B43BEFCE
:1008700084F03DEF84F03FEF84F0B1EF81F05F0E44
:10088000A525056E000EA621066E39ECC8F0000104
:1008900020EE27F0A551D926A651DA2205C0DEFFA9
:1008A00006C0DEFF07C0DEFF08C0DEFF20EE17F047
:1008B000A551D926A651DA22DECF65F0DECF66F04B
:1008C000DECF67F0DECF68F0020ED890653766376E
:1008D00067376837E82E65EF84F065C083F066C03F
:1008E00084F067C085F068C086F016EF85F020EED2
:1008F00007F0A551D926A651DA22DE50DE10D8A481
:1009000084EF84F086EF84F088EF84F0B1EF81F01B
:1009100020EE23F0A551D926A651DA22DECF65F0CC
:10092000DECF66F0DECF67F0DECF68F09A51652546
:10093000696F9B5166216A6F9C5167216B6F9D5156
:1009400068216C6F20EE27F0A551D926A651DA2236
:1009500069C0DEFF6AC0DEFF6BC0DEFF6CC0DEFF79
:10096000020EA419D8B4B7EF84F0B9EF84F0FFEF0A
:1009700084F020EE17F0A551D926A651DA22DECF59
:1009800065F0DECF66F0DECF67F0DECF68F0010EF7
:100990006515696F000E66156A6F000E67156B6F3F
:1009A000000E68156C6F20EE17F0A551D926A651E0
:1009B000DA22DECF05F0DECF06F0DECF07F0DECFA5
:1009C00008F0030E096E000E0A6E000E0B6E000E8C
:1009D0000C6EA6ECCFF0D890083207320632053202
:1009E000000169510524836F6A510620846F6B51A1
:1009F0000720856F6C510820866F16EF85F020EE7A
:100A000017F0A551D926A651DA22DECF65F0DECF48
:100A100066F0DECF67F0DECF68F0D8906535836F83
:100A20006635846F6735856F6835866FFF0E832561
:100A3000656F010E8421666F000E8521676F000EC1
:100A40008621686F0A0E2AEF85F0D89068336733E5
:100A500066336533E82E25EF85F020EE1BF0A551B7
:100A6000D926A651DA226551DE5C6651DE586751FF
:100A7000DE586851DE58D8B040EF85F042EF85F07F
:100A800044EF85F0B1EF81F020EE0FF0A551D926AB
:100A9000A651DA22FF0EDE6EFF0EDE6EFF0EDE6E58
:100AA000FF0EDD6EDD52DD5210EE0BF0A551E1269A
:100AB000A651E222DECFE6FFDECFE6FFDECFE6FF85
:100AC000DECFE6FF20EE04F0A551D926A651DA22AA
:100AD000800EDF6E030EA419D8A471EF85F073EFBA
:100AE00085F021EF86F0630EA525056E000EA62188
:100AF000066E25ECD3F005040610D8A482EF85F02D
:100B000084EF85F021EF86F0A5C041F0A6C042F049
:100B1000010E00019E25436E000E9F21446E000EC3
:100B2000A021456E000EA121466ED7ECC7F000094A
:100B3000D8A49DEF85F09FEF85F021EF86F00001AE
:100B400020EE04F0A551D926A651DA22000EDF6E60
:100B5000310EA525056E020EA621066E25ECD3F0FA
:100B6000550E051807E1AA0E0618D8A4BAEF85F0AD
:100B7000BCEF85F021EF86F0330E0001A525056E50
:100B8000000EA621066E39ECC8F0520E05180DE1D4
:100B9000520E06180AE1610E071807E1410E081807
:100BA000D8A4D5EF85F0D7EF85F021EF86F0170EAA
:100BB0000001A525056E020EA621066E39ECC8F0CF
:100BC000720E05180DE1720E06180AE1410E0718A3
:100BD00007E1610E0818D8A4F0EF85F0F2EF85F078
:100BE00021EF86F01B0E0001A525056E020EA62141
:100BF000066E39ECC8F0000120EE0FF0A551D926A1
:100C0000A651DA2205C0DEFF06C0DEFF07C0DEFF08
:100C100008C0DEFF1F0EA525056E020EA621066E7A
:100C200039ECC8F0000120EE0BF0A551D926A651F1
:100C3000DA2205C0DEFF06C0DEFF07C0DEFF08C007
:100C4000DEFFA5C0D9FFA6C0DAFFA4C0DFFF010107
:100C5000484B492B000120EE05F0A551D926A6519D
:100C6000DA2248C1DEFF49C1DDFF20EE13F0A551B5
:100C7000D926A651DA22DE6ADE6ADE6ADD6A6FEF05
:100C800080F01200C2C0D9F0C3C0DAF0C6C0D9FFEC
:100C9000C7C0DAFF000EDE6E000EDD6EC0C009F0C8
:100CA000C1C00AF0E90E0B6E000E0C6E44ECC2F0EF
:100CB0000001D86FD851D8A460EF86F062EF86F0BB
:100CC00081EF8AF020EE0FF0C051D926C151DA220F
:100CD000DF50D86FD851D8B470EF86F072EF86F03D
:100CE00074EF86F081EF8AF020EE0EF0C051D92625
:100CF000C151DA22DFB27FEF86F081EF86F083EF19
:100D000086F081EF8AF020EE10F0C051D926C15153
:100D1000DA2210EE10F0C051E126C151E222E6CFF6
:100D2000CCF0E6CFCDF0E6CFCEF0E6CFCFF0C45199
:100D3000CC25D06FC551CD21D16F000ECE21D26F01
:100D4000000ECF21D36FDE50D05DDE50D159DE5082
:100D5000D259DE50D359D8B0B0EF86F0B2EF86F05A
:100D600070EF8AF020EE10F0C051D926C151DA227E
:100D7000DECFC8F0DDCFC9F0C81DC46FC91DC56F77
:100D800070EF8AF020EE10F0C051D926C151DA225E
:100D9000FF0EDE14C86F010EDE14C96F000EDE14E4
:100DA000CA6F000EDE14CB6FC851C911CA11CB1126
:100DB000D8A4DDEF86F0DFEF86F0B0EF89F020EE0B
:100DC00010F0C051D926C151DA22DECFC8F0DECFF3
:100DD000C9F0DECFCAF0DECFCBF00A0EF5EF86F019
:100DE000D890CB33CA33C933C833E82EF0EF86F03E
:100DF000FF0ECC6FFF0ECD6F20EE09F0E951D92622
:100E0000EA51DA22DECFCEF0DDCFCFF0CC51CE27C3
:100E1000CD51CF23C851CE15DB6FC951CF15DC6F33
:100E2000DB51DC11D8A417EF87F019EF87F0DFEF63
:100E300087F020EE10F0C051D926C151DA22DE50E1
:100E4000DE10DE10DE10D8A428EF87F02AEF87F03E
:100E50005BEF87F020EE06F0C051D926C151DA22AF
:100E6000DECFDFF0DECFE0F0DECFE1F0DECFE2F08C
:100E7000DF51E011E111E211D8A441EF87F043EF17
:100E800087F077EF87F0C0C0A3F0C1C0A4F0000ED8
:100E9000A56F000EA66F000EA76F000EA86FF2ECF4
:100EA00091F0A3C0DFF0A4C0E0F0A5C0E1F0A6C0BF
:100EB000E2F077EF87F0C0C0A3F0C1C0A4F020EE4D
:100EC00014F0C051D926C151DA22DECFA5F0DECF11
:100ED000A6F0DECFA7F0DECFA8F0F2EC91F0A3C031
:100EE000DFF0A4C0E0F0A5C0E1F0A6C0E2F0000190
:100EF000DF51E011E111E211D8A481EF87F083EF17
:100F000087F085EF87F079EF8AF0DF05E011E111D6
:100F1000E211D8A48EEF87F090EF87F09AEF87F078
:100F200020EE0FF0C051D926C151DA22020EDF6E39
:100F300081EF8AF0DF290AE1E02908E1E12906E1F1
:100F4000E229D8A4A6EF87F0A8EF87F0B2EF87F0E8
:100F500020EE0FF0C051D926C151DA22010EDF6E0A
:100F600081EF8AF020EE14F0C051D926C151DA2267
:100F7000DFC0DEFFE0C0DEFFE1C0DEFFE2C0DEFF7B
:100F800020EE06F0C051D926C151DA22DE50DE1023
:100F9000DE10DE10D8A4CFEF87F0D1EF87F0DFEFBF
:100FA00087F020EE06F0C051D926C151DA22DFC009
:100FB000DEFFE0C0DEFFE1C0DEFFE2C0DEFF20EECC
:100FC0000EF0C051D926C151DA22DFAEEAEF87F028
:100FD000ECEF87F029EF88F0220EC025226E000E7C
:100FE000C121236E20EE18F0C051D926C151DA225A
:100FF000DECF24F0DECF25F0DECF26F0DECF27F0E7
:10100000000E296E010E286E20EE01F0E951D9265E
:10101000EA51DA22DF5021ECCEF00009D8B413EF08
:1010200088F015EF88F020EF88F0000120EE0FF037
:10103000C051D926C151DA22010EDF6E81EF8AF04C
:10104000000120EE0EF0C051D926C151DA227F0EE8
:10105000DF16E9C011F0EAC012F020EE14F0C05122
:10106000D926C151DA22DECF13F0DECF14F0DECF65
:1010700015F0DECF16F0E3ECC5F011C0E5F012C0BC
:10108000E6F013C0E7F014C0E8F00001E551E61106
:10109000E711E811D8A44FEF88F051EF88F05BEF2B
:1010A00088F020EE0FF0C051D926C151DA22020E8D
:1010B000DF6E81EF8AF0DB51E527DC51E623000E7D
:1010C000E723000EE823C4C0C8F0C5C0C9F0090E6C
:1010D000CA6FD890C933C833CA2F69EF88F0C8C027
:1010E000DDF0C9C0DEF0DD51DE11D8B47AEF88F052
:1010F0007CEF88F040EF89F0DD51DB25C86FDE51D1
:10110000DC21C96F20EE09F0E951D926EA51DA2233
:10111000C851DE5CC951DE58D8B091EF88F093EF2A
:1011200088F0A3EF88F020EE09F0E951D926EA51C2
:10113000DA22DECFC8F0DDCFC9F0DB51C85DDD6F4C
:10114000DC51C959DE6FD9C022F0DAC023F0E5C006
:1011500024F0E6C025F0E7C026F0E8C027F0DDC0A7
:1011600028F0DEC029F020EE01F0E951D926EA513D
:10117000DA22DF5021ECCEF00009D8B4C2EF88F0BB
:10118000C4EF88F0CFEF88F0000120EE0FF0C051DF
:10119000D926C151DA22010EDF6E81EF8AF00001FB
:1011A000DD51C86FDE51C96FCA6BCB6B20EE18F0F2
:1011B000C051D926C151DA22DECFCCF0DECFCDF03E
:1011C000DECFCEF0DECFCFF0E551CC5DD06FE65173
:1011D000CD59D16FE751CE59D26FE851CF59D36F66
:1011E000C851D05DC951D159CA51D259CB51D359E7
:1011F000D8B0FDEF88F0FFEF88F02FEF89F0220ED6
:10120000C025056E000EC121066E20EE18F0C051FB
:10121000D926C151DA22DECFC8F0DDCFC9F0E551C1
:10122000C85FE651C95B090ED890C837C937E82EA8
:1012300014EF89F0C851D925076EC951DA21086E1B
:10124000020E0A6E000E096ECAECD0F0000120EE0C
:101250000EF0C051D926C151DA227F0EDF16DDC053
:10126000C8F0DEC0C9F0090ED890C837C937E82EDB
:1012700034EF89F0C8C0E3F0C9C0E4F00CEF8AF0A5
:1012800020EE18F0C051D926C151DA22E551DE18FE
:101290000FE1E651DE180CE1E751DE1809E1E851F3
:1012A000DE18D8B456EF89F058EF89F0A1EF89F035
:1012B00020EE0AF0C051D926C151DA2210EE10F00A
:1012C000C051E126C151E222DE50E65CDE50E65814
:1012D000DE50E658DE50E658D8B071EF89F073EF73
:1012E00089F0A1EF89F0220EC025206E000EC121E9
:1012F000216EE5C022F0E6C023F0E7C024F0E8C08C
:1013000025F0000E276E010E266E20EE01F0E95149
:10131000D926EA51DA22DF505BECCEF00009D8B4CE
:1013200094EF89F096EF89F0A1EF89F0000120EEAB
:101330000FF0C051D926C151DA22010EDF6E81EFC4
:101340008AF0000120EE18F0C051D926C151DA22EE
:10135000E5C0DEFFE6C0DEFFE7C0DEFFE8C0DEFF7F
:10136000FF0EC86F010EC96F20EE10F0C051D926D4
:10137000C151DA22DECFCAF0DDCFCBF0C851CA1797
:10138000C951CB17CA510008E36FCB51D8A0E82A46
:101390000208E46FE351C45DE451C559D8B0D3EFFE
:1013A00089F0D5EF89F0D9EF89F0C4C0E3F0C5C06A
:1013B000E4F0FF0EC86F010EC96F20EE10F0C051AF
:1013C000D926C151DA22DECFCAF0DDCFCBF0C85129
:1013D000CA17C951CB17C0C0CCF0C1C0CDF0CA519B
:1013E000CC27CB51CD23220ECC25056E000ECD216E
:1013F000066ED9C007F0DAC008F0E3C009F0E4C017
:101400000AF0CAECD0F0000120EE0EF0C051D9264F
:10141000C151DA22000EDB8EE351C45FE451C55B9B
:10142000C6C0D9FFC7C0DAFFE351DE26E451DD2292
:10143000E351D927E451DA2320EE10F0C051D92628
:10144000C151DA22E351DE26E451DE22000EDE2213
:10145000DE2220EE10F0C051D926C151DA2210EE62
:101460000AF0C051E126C151E222DE50E65CDE50B6
:10147000E658DE50E658DE50E658D8A042EF8AF033
:1014800044EF8AF054EF8AF020EE0AF0C051D926DA
:10149000C151DA22DECFD4F0DECFD5F0DECFD6F0E8
:1014A000DECFD7F062EF8AF020EE10F0C051D926DF
:1014B000C151DA22DECFD4F0DECFD5F0DECFD6F0C8
:1014C000DECFD7F020EE0AF0C051D926C151DA2282
:1014D000D4C0DEFFD5C0DEFFD6C0DEFFD7C0DEFF42
:1014E000C451C511D8A477EF8AF079EF8AF0C2EF22
:1014F00086F020EE0EF0C051D926C151DA22000E3E
:10150000DB8C12000001EE51EF11D8A48AEF8AF0B3
:101510008CEF8AF08FEF8AF0090E65EF8EF03F0EA8
:10152000F217F00E606F000E616F860E626F010E93
:10153000636FF2C064F000EC80F00101886F8851A5
:10154000D8A4A5EF8AF0A7EF8AF053EF8EF086C1FA
:1015500089F187C18AF1890E0001E06F010EE16F08
:10156000F0C0E2F0F1C0E3F07CECA5F00101886F7F
:101570008851D8A4BEEF8AF0C0EF8AF0C9EF8AF094
:10158000B0AFC5EF8AF0C7EF8AF0C9EF8AF0060E58
:10159000886FF2C0F3F01C0E0001F317D8B4D3EF3C
:1015A0008AF0D5EF8AF0EEEF8BF001018851D8B4C4
:1015B000DCEF8AF0DEEF8AF0F4EF8AF0040E88198F
:1015C000D8A4E5EF8AF0E7EF8AF0F0EF8AF0890E11
:1015D0000001E36F010EE46F2FECC4F00101886F8E
:1015E0000001F2870FEF8BF08DC1F3F0110E0001B7
:1015F000F317D8B4FEEF8AF000EF8BF005EF8BF015
:10160000070E0101886F0FEF8BF0F2A50AEF8BF048
:101610000CEF8BF00FEF8BF0080E0101886F0101CA
:101620008851D8A416EF8BF018EF8BF014EF8CF0E4
:101630000001F2A71EEF8BF020EF8BF014EF8CF07F
:1016400086C10CF087C10DF0A3C10EF0A4C10FF04C
:1016500074ECCCF00CC07AF10DC07BF10EC07CF1C3
:101660000FC07DF10E0E0101A32500017C6F000E5D
:101670000101A42100017D6FE9ECD1F060C07EF092
:1016800061C07FF062C080F063C081F0CEECCEF02C
:10169000010120EE0BF0A351D926A451DA22200E2D
:1016A000DF6E86C109F087C10AF0A3C10BF0A4C1A7
:1016B0000CF0000E0D6E000E0E6E000E0F6E000E82
:1016C000106EC3ECD1F01C0E0101A32500017C6F4C
:1016D000000E0101A42100017D6F000E7E6F000E3F
:1016E0007F6F000E806F000E816FCEECCEF0010197
:1016F00020EE03F08651D9268751DA22010EDF6EE3
:101700007A517B117C117D11D8B489EF8BF08BEF6E
:101710008BF014EF8CF020EE2FF08651D9268751F4
:10172000DA22DECF6EF1DECF6FF1DECF70F1DECFE9
:1017300071F1890E0001A36F010EA46F7AC1A5F0AB
:101740007BC1A6F07CC1A7F07DC1A8F0000EA96FF7
:10175000000EAA6F000EAB6F000EAC6FDDECABF0AD
:101760000101886F8851D8A4B8EF8BF0BAEF8BF0E5
:1017700014EF8CF086C141F087C142F06EC143F096
:101780006FC144F070C145F071C146F0D7ECC7F0AD
:101790000101886FFF0E7A250001F36FFF0E010132
:1017A0007B210001F46FFF0E01017C210001F56F28
:1017B000FF0E01017D210001F66F010120EE0BF00B
:1017C0008651D9268751DA22F3C0DEFFF4C0DEFF4E
:1017D000F5C0DEFFF6C0DEFF14EF8CF0010188518A
:1017E000D8A4F5EF8BF0F7EF8BF014EF8CF08DA908
:1017F000FCEF8BF0FEEF8BF002EF8CF0040E886FA5
:1018000014EF8CF00001F2A308EF8CF00AEF8CF0DB
:1018100014EF8CF001018DA110EF8CF012EF8CF021
:1018200014EF8CF0070E886F01018851D8A41BEFCC
:101830008CF01DEF8CF046EF8CF00001F2A723EF47
:101840008CF025EF8CF026EF8CF0F28D010120EE6C
:101850002FF08651D9268751DA22000110EE1CF0B4
:10186000EE51E126EF51E222DECFE6FFDECFE6FFCA
:10187000DECFE6FFDECFE6FF20EE20F0EE51D926E8
:10188000EF51DA22A3C1DEFFA4C1DDFF01018851BF
:10189000D8A44DEF8CF04FEF8CF053EF8EF086C153
:1018A0000CF087C10DF0A3C10EF0A4C10FF074ECD1
:1018B000CCF0000120EE06F0EE51D926EF51DA22ED
:1018C0000CC0DEFF0DC0DEFF0EC0DEFF0FC0DEFF6E
:1018D0001C0E0101A325056E000EA421066E39EC35
:1018E000C8F0000120EE0AF0EE51D926EF51DA22BD
:1018F00005C0DEFF06C0DEFF07C0DEFF08C0DEFF5A
:10190000EEC0D9FFEFC0DAFF86C1DEFF87C1DDFF81
:10191000010120EE05F08651D9268751DA22000117
:1019200010EE02F0EE51E126EF51E222DECFE6FFAB
:10193000DDCFE5FF20EE0EF0EE51D926EF51DA2291
:10194000F2C0DFFF20EE0FF0EE51D926EF51DA2280
:10195000000EDF6E20EE18F0EE51D926EF51DA229C
:10196000DE6ADE6ADE6ADD6A20EE10F0EE51D9260C
:10197000EF51DA22DE6ADE6ADE6ADD6A220EEE25C9
:10198000056E000EEF21066E000E086E000E076E4B
:10199000020E0A6E000E096E90ECD3F00001F2AB5D
:1019A000D4EF8CF0D6EF8CF053EF8EF020EE0AF0EF
:1019B000EE51D926EF51DA22DE50DE10DE10DE10B5
:1019C000D8B4E5EF8CF0E7EF8CF053EF8EF020EE1B
:1019D0000AF0EE51D926EF51DA2210EE10F0EE5156
:1019E000E126EF51E222DECFE6FFDECFE6FFDECFDB
:1019F000E6FFDECFE6FF010120EE09F08651D92691
:101A00008751DA22DECFF3F0DDCFF4F00001F3519D
:101A1000F56FF451F66FF76BF86B090ED890F53748
:101A2000F637F737F837E82E0EEF8DF0F5C076F180
:101A3000F6C077F1F7C078F1F8C079F120EE06F042
:101A4000EE51D926EF51DA22DECF82F1DECF83F1DB
:101A5000DECF84F1DECF85F120EE0AF0EE51D926FB
:101A6000EF51DA22DECF7EF1DECF7FF1DECF80F1E3
:101A7000DECF81F17AEF8DF0EEC04CF0EFC04DF08B
:101A800082C14EF083C14FF084C150F085C151F046
:101A9000D2EC99F04CC082F14DC083F14EC084F17C
:101AA0004FC085F1010185518411831107E1020EB8
:101AB000825DD8B05EEF8DF060EF8DF062EF8DF05B
:101AC000020E886F82290AE1832908E1842906E150
:101AD0008529D8A46EEF8DF070EF8DF072EF8DF048
:101AE000010E886F76517E5F77517F5B7851805B06
:101AF0007951815B01018851D8A481EF8DF083EF8A
:101B00008DF092EF8DF07E51765D7F517759805147
:101B1000785981517959D8A090EF8DF092EF8DF0DE
:101B20003CEF8DF0000120EE14F0EE51D926EF517C
:101B3000DA2282C1DEFF83C1DEFF84C1DEFF85C100
:101B4000DEFF01018851D8A4A8EF8DF0AAEF8DF037
:101B500053EF8EF0FF0E7E150001F36F010E0101B1
:101B60007F150001F46F000E010180150001F56F73
:101B7000000E010181150001F66FF351F411F5110A
:101B8000F611D8B4C6EF8DF0C8EF8DF053EF8EF09C
:101B900086C111F087C112F082C113F083C114F025
:101BA00084C115F085C116F0E3ECC5F011C072F1E7
:101BB00012C073F113C074F114C075F101017251B8
:101BC000731174117511D8A4E8EF8DF0EAEF8DF060
:101BD000EEEF8DF0020E886F53EF8EF07EC1F3F0C2
:101BE0007FC1F4F080C1F5F081C1F6F00A0EFFEF7D
:101BF0008DF00001D890F633F533F433F333E82E4B
:101C0000F9EF8DF0010172510001F325F76F010129
:101C100073510001F421F86F010174510001F521A5
:101C2000F96F010175510001F621FA6F20EE18F0ED
:101C3000EE51D926EF51DA22F7C0DEFFF8C0DEFF01
:101C4000F9C0DEFFFAC0DEFF220EEE25206E000E88
:101C5000EF21216E20EE18F0EE51D926EF51DA2255
:101C6000DECF22F0DECF23F0DECF24F0DECF25F072
:101C7000000E276E010E266E010120EE01F0865146
:101C8000D9268751DA22DF505BECCEF00009D8B4B8
:101C90004CEF8EF04EEF8EF053EF8EF0010E0101FF
:101CA000886F53EF8EF001018851D8B45AEF8EF04F
:101CB0005CEF8EF064EF8EF0EEC0D9FFEFC0DAFF7C
:101CC000000EDE6E000EDD6E8851120077C092F0BD
:101CD00078C093F07BC0D9FF7CC0DAFF000EDE6EC7
:101CE000000EDD6E75C009F076C00AF09E0E0B6E18
:101CF000000E0C6E44ECC2F00001896F8951D8A42B
:101D000084EF8EF086EF8EF0F1EF91F020EE0FF081
:101D10007551D9267651DA22DF50896F8951D8B4AE
:101D200094EF8EF096EF8EF098EF8EF0F1EF91F049
:101D300020EE0EF07551D9267651DA22DFB0A3EFEE
:101D40008EF0A5EF8EF0A7EF8EF0F1EF91F020EE80
:101D500010F07551D9267651DA22DECF7DF0DECF34
:101D60007EF0DECF7FF0DECF80F020EE0AF07551FE
:101D7000D9267651DA22DECF81F0DECF82F0DECFB7
:101D800083F0DECF84F07D51815D8A6F7E51825970
:101D90008B6F7F5183598C6F805184598D6F79512E
:101DA0007D6F7A517E6F7F6B806B7D518A5D7E5136
:101DB0008B597F518C5980518D59D8B0E2EF8EF0FC
:101DC000E4EF8EF0E8EF91F08AC079F08BC07AF002
:101DD000E8EF91F020EE10F07551D9267651DA2215
:101DE000FF0EDE147D6F010EDE147E6F000EDE141A
:101DF0007F6F000EDE14806F7D517E117F11801188
:101E0000D8A405EF8FF007EF8FF077EF91F020EE79
:101E100010F07551D9267651DA22DECF7DF0DECF73
:101E20007EF0DECF7FF0DECF80F00A0E1DEF8FF068
:101E3000D89080337F337E337D33E82E18EF8FF0D8
:101E4000FF0E816FFF0E826F20EE09F09E51D926A2
:101E50009F51DA22DECF83F0DDCF84F081518327DA
:101E6000825184237D518315946F7E518415956F23
:101E700094519511D8A43FEF8FF041EF8FF0BCEF54
:101E80008FF020EE10F07551D9267651DA22DE500F
:101E9000DE10DE10DE10D8A450EF8FF052EF8FF07E
:101EA00062EF8FF020EE06F07551D9267651DA22D6
:101EB000DECF8EF0DECF8FF0DECF90F0DECF91F070
:101EC0007EEF8FF075C04CF076C04DF020EE14F030
:101ED0007551D9267651DA22DECF4EF0DECF4FF0A3
:101EE000DECF50F0DECF51F0D2EC99F04CC08EF046
:101EF0004DC08FF04EC090F04FC091F00001915155
:101F000090118F1107E1020E8E5DD8B08AEF8FF02D
:101F10008CEF8FF096EF8FF020EE0FF07551D926F1
:101F20007651DA22020EDF6EF1EF91F08E290AE18E
:101F30008F2908E1902906E19129D8A4A2EF8FF01A
:101F4000A4EF8FF0AEEF8FF020EE0FF07551D92691
:101F50007651DA22010EDF6EF1EF91F020EE14F0EF
:101F60007551D9267651DA228EC0DEFF8FC0DEFF92
:101F700090C0DEFF91C0DEFF9EC011F09FC012F046
:101F800020EE14F07551D9267651DA22DECF13F007
:101F9000DECF14F0DECF15F0DECF16F0E3ECC5F0A7
:101FA00011C09AF012C09BF013C09CF014C09DF0B9
:101FB00000019A519B119C119D11D8A4E2EF8FF062
:101FC000E4EF8FF0EEEF8FF020EE0FF07551D92691
:101FD0007651DA22020EDF6EF1EF91F094519A27DA
:101FE00095519B23000E9C23000E9D2379C07DF00C
:101FF0007AC07EF0090E7F6FD8907E337D337F2FBD
:10200000FCEF8FF07DC096F07EC097F0965197114F
:10201000D8B40DEF90F00FEF90F0D8EF90F096510C
:1020200094257D6F975195217E6F20EE09F09E518A
:10203000D9269F51DA227D51DE5C7E51DE58D8B020
:1020400024EF90F026EF90F036EF90F020EE09F0BC
:102050009E51D9269F51DA22DECF7DF0DDCF7EF072
:1020600094517D5D966F95517E59976F92C020F087
:1020700093C021F09AC022F09BC023F09CC024F0B2
:102080009DC025F096C026F097C027F020EE01F005
:102090009E51D9269F51DA22DF505BECCEF0000929
:1020A000D8B455EF90F057EF90F062EF90F0000148
:1020B00020EE0FF07551D9267651DA22010EDF6E2F
:1020C000F1EF91F0000120EE0EF07551D926765116
:1020D000DA22DFAE6EEF90F070EF90F0C6EF90F086
:1020E00096517D6F97517E6F7F6B806B20EE18F05D
:1020F0007551D9267651DA22DECF81F0DECF82F01B
:10210000DECF83F0DECF84F09A51815D856F9B51E5
:102110008259866F9C518359876F9D518459886F6E
:102120007D51855D7E5186597F51875980518859EF
:10213000D8B09DEF90F09FEF90F0C6EF90F020EEBA
:1021400018F07551D9267651DA22DECF7DF0DDCF39
:102150007EF09A517D5F9B517E5B090ED8907D3752
:102160007E37E82EAEEF90F07D519225056E7E51C0
:102170009321066E220E7525076E000E7621086EDD
:10218000020E0A6E000E096ECAECD0F096C07DF009
:1021900097C07EF0090ED89000017D377E37E82E7B
:1021A000CBEF90F07DC098F07EC099F0CAEF91F02F
:1021B00020EE18F07551D9267651DA229A51DE18A0
:1021C0000FE19B51DE180CE19C51DE1809E19D5195
:1021D000DE18D8B4EEEF90F0F0EF90F068EF91F0E9
:1021E00020EE0EF07551D9267651DA22DFAEFBEFE4
:1021F00090F0FDEF90F03AEF91F0220E7525226EEF
:10220000000E7621236E20EE18F07551D9267651F6
:10221000DA22DECF24F0DECF25F0DECF26F0DECFCF
:1022200027F0000E296E010E286E20EE01F09E515F
:10223000D9269F51DA22DF5021ECCEF00009D8B424
:1022400024EF91F026EF91F031EF91F0000120EEB4
:102250000FF07551D9267651DA22010EDF6EF1EFBB
:1022600091F0000120EE0EF07551D9267651DA2258
:102270007F0EDF16220E7525206E000E7621216E50
:102280009AC022F09BC023F09CC024F09DC025F092
:10229000000E276E010E266E20EE01F09E51D9260B
:1022A0009F51DA22DF505BECCEF00009D8B45BEF2F
:1022B00091F05DEF91F068EF91F0000120EE0FF0EA
:1022C0007551D9267651DA22010EDF6EF1EF91F0C9
:1022D000000120EE18F07551D9267651DA229AC005
:1022E000DEFF9BC0DEFF9CC0DEFF9DC0DEFFFF0E59
:1022F0007D6F010E7E6F20EE10F07551D92676515C
:10230000DA22DECF7FF0DDCF80F07D517F177E5166
:1023100080177F510008986F8051D8A0E82A0208E2
:10232000996F9851795D99517A59D8B09AEF91F097
:102330009CEF91F0A0EF91F079C098F07AC099F0FD
:1023400092C005F093C006F0FF0E7D6F010E7E6F08
:1023500020EE10F07551D9267651DA22DECF7FF0CB
:10236000DDCF80F07D517F177E51801775C081F0E1
:1023700076C082F07F51812780518223220E8125F1
:10238000076E000E8221086E98C009F099C00AF00D
:10239000CAECD0F000019851795F99517A5B7BC00B
:1023A000D9FF7CC0DAFF9851DE269951DD22985181
:1023B00092279951932320EE10F07551D92676512A
:1023C000DA229851DE269951DE22000EDE22DE222C
:1023D00079517A11D8A4EFEF91F0F1EF91F0EAEF93
:1023E0008EF01200A3C0D9FFA4C0DAFFDECFBAF08E
:1023F000DDCFBBF00001A551A611A711A811D8A4EB
:1024000004EF92F006EF92F03EEF92F020EE0BF028
:10241000BA51D926BB51DA22DECFB2F0DECFB3F00B
:10242000DECFB4F0DECFB5F0B251B311B411B511B7
:10243000D8B41DEF92F01FEF92F034EF92F020EE3F
:1024400017F0BA51D926BB51DA22DE50B25DDE5008
:10245000B359DE50B459DE50B559D8A032EF92F0DE
:1024600034EF92F0A3EF92F0010EB26F000EB36F53
:10247000000EB46F000EB56FA3EF92F0A3C04CF046
:10248000A4C04DF0A5C04EF0A6C04FF0A7C050F0BC
:10249000A8C051F0D2EC99F04CC0BCF04DC0BDF0DA
:1024A0004EC0BEF04FC0BFF00001BF51BE11BD1104
:1024B00007E1020EBC5DD8B060EF92F062EF92F0DF
:1024C0006CEF92F0010EA36F000EA46F000EA56FCB
:1024D000000EA66FC9EF94F0BC290AE1BD2908E1FE
:1024E000BE2906E1BF29D8A478EF92F07AEF92F0E6
:1024F00084EF92F0BCC0A3F0BDC0A4F0BEC0A5F0B4
:10250000BFC0A6F0C9EF94F020EE17F0BA51D9265B
:10251000BB51DA22DE50BC5DDE50BD59DE50BE59E3
:10252000DE50BF59D8B097EF92F099EF92F09BEF41
:1025300092F07AEF92F0A5C0B2F0A6C0B3F0A7C0B7
:10254000B4F0A8C0B5F020EE0FF0BA51D926BB51B7
:10255000DA22DE50DE10DE10DE10D8A4B2EF92F0E8
:10256000B4EF92F0BEEF92F0000EA36F000EA46FD6
:10257000000EA56F000EA66FC9EF94F0000EB66FA7
:10258000000EB76F000EB86F000EB96FA551B219EB
:102590000DE1A651B3190AE1A751B41907E1A851F9
:1025A000B519D8A4D6EF92F0D8EF92F07EEF93F061
:1025B000010EB225B66F000EB321B76F000EB42125
:1025C000B86F000EB521B96F20EE17F0BA51D926B9
:1025D000BB51DA22DE50B65DDE50B759DE50B85935
:1025E000DE50B959D8A0F7EF92F0F9EF92F001EF71
:1025F00093F0020EB66F000EB76F000EB86F000EAC
:10260000B96FA3C04CF0A4C04DF0B6C04EF0B7C037
:102610004FF0B8C050F0B9C051F0D2EC99F04CC0B6
:10262000BCF04DC0BDF04EC0BEF04FC0BFF00001C9
:10263000BC05BD11BE11BF11D8B421EF93F023EF3B
:1026400093F07AEF92F0BC290AE1BD2908E1BE2996
:1026500006E1BF29D8A42FEF93F031EF93F033EFC9
:1026600093F07AEF92F0BC51BD11BE11BF11D8B4F6
:102670003CEF93F03EEF93F07EEF93F020EE0BF003
:10268000BA51D926BB51DA22DECFBCF0DECFBDF085
:10269000DECFBEF0DECFBFF0BF51BE11BD1109E1EC
:1026A000020EBC5DD8A057EF93F059EF93F076EF90
:1026B00093F020EE17F0BA51D926BB51DA22DE5042
:1026C000BC5DDE50BD59DE50BE59DE50BF59D8B09A
:1026D0006CEF93F06EEF93F076EF93F0BCC0B2F036
:1026E000BDC0B3F0BEC0B4F0BFC0B5F0000EB66F51
:1026F000000EB76F000EB86F000EB96FB651B7116C
:10270000B811B911D8A487EF93F089EF93F016EFC1
:1027100094F0B2C0B6F0B3C0B7F0B4C0B8F0B5C072
:10272000B9F0010EB627000EB723B823B92320EE67
:1027300017F0BA51D926BB51DA22DE50B65DDE5011
:10274000B759DE50B859DE50B959D8A0AAEF93F066
:10275000ACEF93F0C3EF93F0020EB66F000EB76FBD
:10276000000EB86F000EB96FB551B411B31107E187
:10277000020EB25DD8B0BFEF93F0C1EF93F0C3EF9C
:1027800093F0B4EF92F0A3C04CF0A4C04DF0B6C0EB
:102790004EF0B7C04FF0B8C050F0B9C051F0D2EC15
:1027A00099F04CC0BCF04DC0BDF04EC0BEF04FC063
:1027B000BFF00001BC51BD11BE11BF11D8A4E3EFA1
:1027C00093F0E5EF93F0E7EF93F016EF94F0BC058C
:1027D000BD11BE11BF11D8B4F0EF93F0F2EF93F03A
:1027E0007AEF92F0BC290AE1BD2908E1BE2906E191
:1027F000BF29D8A4FEEF93F000EF94F002EF94F01D
:102800007AEF92F0B251B6190DE1B351B7190AE15E
:10281000B451B81907E1B551B919D8A412EF94F021
:1028200014EF94F091EF93F0B4EF92F0BAC082F00D
:10283000BBC083F0B6C084F0B7C085F0B8C086F0E6
:10284000B9C087F0FF0E886FFF0E896FFF0E8A6F89
:10285000FF0E8B6FCAEC94F00001B16FB151D8A498
:1028600034EF94F036EF94F059EF94F0A551A6119F
:10287000A711A811D8B43FEF94F041EF94F059EFAD
:1028800094F0BAC082F0BBC083F0A5C084F0A6C0AB
:1028900085F0A7C086F0A8C087F0B6C088F0B7C0A2
:1028A00089F0B8C08AF0B9C08BF0CAEC94F000018E
:1028B000B16FB151D8A45FEF94F061EF94F0ABEF3A
:1028C00094F020EE0BF0BA51D926BB51DA22B6C0F3
:1028D000DEFFB7C0DEFFB8C0DEFFB9C0DEFF20EE0E
:1028E0000FF0BA51D926BB51DA2210EE17F0BA51C7
:1028F000E126BB51E222FE0EE624AD6FFF0EE6207C
:10290000AE6FFF0EE620AF6FFF0EE620B06FDE5019
:10291000AD5DDE50AE59DE50AF59DE50B059D8A093
:1029200094EF94F096EF94F0A1EF94F020EE0FF076
:10293000BA51D926BB51DA22DE06000EDE5ADE5A23
:10294000DE5A20EE04F0BA51D926BB51DA22000E2D
:10295000DB80C1EF94F0B105D8B4B1EF94F0B3EFE0
:1029600094F0BDEF94F0010EB66F000EB76F000E3D
:10297000B86F000EB96FC1EF94F0B669B769B86966
:10298000B969B6C0A3F0B7C0A4F0B8C0A5F0B9C08B
:10299000A6F01200020E0001A26F87518611851168
:1029A00009E1020E845DD8A0D8EF94F0DAEF94F03C
:1029B00064EF97F020EE17F08251D9268351DA2286
:1029C000DE50845DDE508559DE508659DE508759D1
:1029D000D8B0EDEF94F0EFEF94F064EF97F047EF9D
:1029E00097F084C0A0F085C0A1F0D890A1318D6F80
:1029F000A0318C6F8C51A0278D51A12382C041F052
:102A000083C042F020EE23F08251D9268351DA228E
:102A1000DECF8CF0DECF8DF0DECF8EF0DECF8FF00C
:102A2000A0C090F0A1C091F0090E926FD8909133A0
:102A30009033922F16EF95F090518C25436E915163
:102A40008D21446E000E8E21456E000E8F21466E44
:102A5000D7ECC7F00001A26FA251D8B432EF95F0C5
:102A600034EF95F036EF95F064EF97F0FF0E8C6F32
:102A7000010E8D6FA0C08EF0A1C08FF08C518E170B
:102A80008D518F1782C090F083C091F08E519027A6
:102A90008F519123330E90259E6F000E91219F6FD1
:102AA000A04BA12B84B157EF95F059EF95F05EEF55
:102AB00095F088C09AF09B6B78EF95F088518C6FF9
:102AC0008D6B8C3B8D3BF00E8D178C510F0B8D1346
:102AD000F00E8C179EC0D9FF9FC0DAFFDF500F0B9E
:102AE0008E6F8F6B8C518E119A6F8D518F119B6FE2
:102AF0009EC0D9FF9FC0DAFF9AC0DFFF20EE03F02F
:102B00008251D9268351DA22010EDF6E82C041F054
:102B100083C042F020EE23F08251D9268351DA227D
:102B2000DECF8CF0DECF8DF0DECF8EF0DECF8FF0FB
:102B3000A0C090F0A1C091F0090E926FD89091338F
:102B40009033922F9EEF95F090518C25436E9151CA
:102B50008D21446E000E8E21456E000E8F21466E33
:102B6000D7ECC7F00001A26FA251D8B4BAEF95F02C
:102B7000BCEF95F0BEEF95F064EF97F0FF0E8C6F11
:102B8000010E8D6FA0C08EF0A1C08FF08C518E17FA
:102B90008D518F1782C090F083C091F08E51902795
:102BA0008F519123330E90259E6F000E91219F6FC0
:102BB00084B1DDEF95F0DFEF95F0FDEF95F088C083
:102BC0008CF089C08DF08AC08EF08BC08FF08DC0E4
:102BD0008CF08EC08DF08FC08EF08F6B0F0E8C1727
:102BE0009EC0D9FF9FC0DAFFDF50F00B8C11906FB1
:102BF00090519C6F9D6B13EF96F088C08CF089C04C
:102C00008DF08AC08EF08BC08FF0050E0DEF96F020
:102C1000D8908F338E338D338C33E82E08EF96F0B7
:102C20008C519C6F9D6B9EC0D9FF9FC0DAFF9CC0EA
:102C3000DFFF20EE03F08251D9268351DA22010E04
:102C4000DF6E64EF97F082C041F083C042F020EE67
:102C500023F08251D9268351DA22DECF8CF0DECFE9
:102C60008DF0DECF8EF0DECF8FF084C090F085C087
:102C700091F086C092F087C093F091C090F092C01E
:102C800091F093C092F0936B8C519025436E8D51CF
:102C90009121446E8E519221456E8F519321466E43
:102CA000D7ECC7F00001A26FA251D8B45AEF96F04A
:102CB0005CEF96F05EEF96F064EF97F0FF0E8C6F8E
:102CC000010E8D6F84C08EF085C08FF0D8908E3746
:102CD0008F378C518E178D518F1782C090F083C023
:102CE00091F08E5190278F519123330E9025056ED0
:102CF000000E9121066E88C007F089C008F038ECFC
:102D0000D4F0000120EE03F08251D9268351DA225B
:102D1000010EDF6E64EF97F082C041F083C042F095
:102D200020EE23F08251D9268351DA22DECF8CF0B7
:102D3000DECF8DF0DECF8EF0DECF8FF084C090F04E
:102D400085C091F086C092F087C093F0080EAEEF78
:102D500096F0D8909333923391339033E82EA9EFC5
:102D600096F08C519025436E8D519121446E8E5179
:102D70009221456E8F519321466ED7ECC7F000012A
:102D8000A26FA251D8B4C7EF96F0C9EF96F0CBEF7F
:102D900096F064EF97F0FF0E8C6F010E8D6F84C07C
:102DA0008EF085C08FF0D8908E378F37D8908E37C1
:102DB0008F378C518E178D518F1782C090F083C042
:102DC00091F08E5190278F519123330E9025056EEF
:102DD000000E9121066E39ECC8F0000E05140001BA
:102DE000926F000E0614936F000E0714946FF00E8E
:102DF0000814956FFF0E8815966FFF0E8915976F53
:102E0000FF0E8A15986F0F0E8B15996F92519611C0
:102E1000886F93519711896F945198118A6F9551CA
:102E200099118B6FFF0E8C6F010E8D6F84C08EF029
:102E300085C08FF0D8908E378F37D8908E378F37E8
:102E40008C518E178D518F1782C090F083C091F0F6
:102E50008E5190278F519123330E90257C6F000E59
:102E600091217D6F88C07EF089C07FF08AC080F09C
:102E70008BC081F0CEECCEF0000120EE03F0825149
:102E8000D9268351DA22010EDF6E64EF97F082C0FB
:102E9000D9FF83C0DAFFDF508C6F8D6B8D51000A34
:102EA000D8B455EF97F064EF97F08C51010AD8B47D
:102EB000F1EF94F0030AD8B423EF96F0010AD8B4E6
:102EC0008CEF96F064EF97F0A25112000FC0D9FF7B
:102ED00010C0DAFFDECF1CF0DDCF1DF01C0E0D247C
:102EE000206E000E0E20216E20C005F021C006F0DD
:102EF000000E086E200E076E000E0A6E0B0E096E95
:102F000090ECD3F0000E1F6E000E1E6E1EC022F05D
:102F10001FC023F0000E1B6E080E1A6E22501C24D8
:102F2000116E23501D20126E11C0F6FF12C0F7FF64
:102F3000000EF86E0E0EF76403D00800F55005D0B1
:102F4000F6CFE9FFF7CFEAFFEF502E0AD8A4ABEF98
:102F500097F0ADEF97F031EF98F022501C24116EEE
:102F600023501D20126E11C0F6FF12C0F7FF000E95
:102F7000F86E0E0EF76403D00800F55005D0F6CFBA
:102F8000E9FFF7CFEAFFEF50246E224A232A2E0EE4
:102F90002418D8A4CEEF97F0D0EF97F0E9EF97F090
:102FA000235009E1030E225CD8A0D9EF97F0DBEFA4
:102FB00097F0DDEF97F0E9EF97F01E502024D96EDF
:102FC0001F502120DA6E24C0DFFF1E4A1F2AADEFFA
:102FD00097F02F0E2418D8B4F0EF97F0F2EF97F097
:102FE00006EF98F05C0E2418D8B4F9EF97F0FBEFD9
:102FF00097F006EF98F0200E246401EF98F003EFAD
:1030000098F006EF98F0060ED1EF99F022501C24AC
:10301000116E23501D20126E0FC0D9FF10C0DAFFB1
:1030200011C0DEFF12C0DDFF200E24641AEF98F0FD
:103030001CEF98F022EF98F0000E166E200E156E21
:1030400026EF98F0000E166E240E156E20EE0BF093
:103050002050D9262150DA2215C0DFFF000ED1EF13
:1030600099F022501C24116E23501D20126E11C0A5
:10307000F6FF12C0F7FF000EF86E0E0EF76403D0D5
:103080000800F55005D0F6CFE9FFF7CFEAFFEF5083
:10309000246E224A232A210E246051EF98F053EF28
:1030A00098F055EF98F089EF99F02F0E2418D8B4C6
:1030B0005CEF98F05EEF98F06BEF98F05C0E2418E0
:1030C000D8A465EF98F067EF98F0ABEF98F06BEF4E
:1030D00098F0224A232A22501C24116E23501D20CE
:1030E000126E11C0F6FF12C0F7FF000EF86E0E0E42
:1030F000F76403D00800F55005D0F6CFE9FFF7CF0D
:10310000EAFFEF502F0AD8B488EF98F08AEF98F0D2
:1031100069EF98F022501C24116E23501D20126E6E
:1031200011C0F6FF12C0F7FF000EF86E0E0EF76426
:1031300003D00800F55005D0F6CFE9FFF7CFEAFF3E
:10314000EF505C0AD8B4A7EF98F0A9EF98F069EFB8
:1031500098F089EF99F02E0E2418D8B4B2EF98F0B9
:10316000B4EF98F0BFEF98F01A501E5C1B501F5838
:10317000D8A0BDEF98F0BFEF98F0DEEF98F00B0EFF
:103180001A181B10D8B4C7EF98F0C9EF98F003EFE6
:1031900098F02E0E2418D8B4D0EF98F0D2EF98F013
:1031A000D4EF98F003EF98F0000E1F6E080E1E6E1D
:1031B000000E1B6E0B0E1A6E31EF98F07F0E24641A
:1031C000E4EF98F0E6EF98F0F6EF98F024507F0BDC
:1031D000116E126AA10E1124F66EFE0E1220F76E09
:1031E000F86A000EF8220800F5CF24F024509CEC79
:1031F000D5F005500610D8B400EF99F002EF99F021
:1032000057EF99F022501C24116E23501D20126E8E
:1032100011C0F6FF12C0F7FF000EF86E0E0EF76435
:1032200003D00800F55005D0F6CFE9FFF7CFEAFF4D
:10323000EF50196E224A232A195097ECD5F0055009
:103240000610D8B426EF99F028EF99F003EF98F024
:10325000FF0E116EFF0E126E1AC013F01BC014F099
:10326000115013261250142213501E5C14501F5874
:10327000D8A03DEF99F03FEF99F041EF99F003EFBF
:1032800098F01E502024D96E1F502120DA6E24C0E1
:10329000DFFF1E4A1F2A1E502024D96E1F502120F6
:1032A000DA6E19C0DFFF1E4A1F2A31EF98F0B70E01
:1032B000056EFF0E066E24C007F0086A71ECCFF0B1
:1032C00005500610D8B467EF99F069EF99F06BEFED
:1032D00099F003EF98F0600E246471EF99F073EFAA
:1032E00099F07DEF99F07B0E246079EF99F07BEFF8
:1032F00099F07DEF99F0200E245E1E502024D96EA7
:103300001F502120DA6E24C0DFFF1E4A1F2A31EF32
:1033100098F022501C24116E23501D20126E0FC0F5
:10332000D9FF10C0DAFF11C0DEFF12C0DDFF1E5052
:103330001F10D8A49EEF99F0A0EF99F0A2EF99F09A
:1033400003EF98F020C0D9FF21C0DAFFE50EDE18A8
:10335000D8A4ADEF99F0AFEF99F0B5EF99F020C098
:10336000D9FF21C0DAFF050EDF6E200E2464BBEF0B
:1033700099F0BDEF99F0C3EF99F0000E186E000EB2
:10338000176EC7EF99F0000E186E040E176E20EE40
:103390000BF02050D9262150DA2217C0DFFF2EEF84
:1033A00098F012004CC0D9FF4DC0DAFFDECF73F0A9
:1033B000DDCF74F0515050104F1009E1020E4E5CF9
:1033C000D8A0E5EF99F0E7EF99F0FDEF99F0000153
:1033D00020EE17F07351D9267451DA22DE504E5C7C
:1033E000DE504F58DE505058DE505158D8A0FBEFF9
:1033F00099F0FDEF99F008EF9AF0010E00016D6F62
:10340000000E6E6F000E6F6F000E706FE2EF9BF09C
:103410006D696E696F697069C5EF9BF04EC071F0A0
:103420004FC072F0D8907231616F7131606F60512E
:1034300071276151722373C041F074C042F020EED5
:1034400023F07351D9267451DA22DECF60F0DECF3B
:1034500061F0DECF62F0DECF63F071C064F072C065
:1034600065F0090E666FD89065336433662F33EFCD
:103470009AF064516025436E65516121446E000EDF
:103480006221456E000E6321466ED7ECC7F000093D
:10349000D8B44DEF9AF04FEF9AF051EF9AF0E2EF77
:1034A0009BF0FF0E0001606F010E616F71C062F052
:1034B00072C063F0605162176151631773C064F0AA
:1034C00074C065F06251642763516523330E64252F
:1034D000D96E000E6521DA6EDF50666F66516B6F34
:1034E0006C6B714B722B73C041F074C042F020EED4
:1034F00023F07351D9267451DA22DECF60F0DECF8B
:1035000061F0DECF62F0DECF63F071C064F072C0B4
:1035100065F0090E666FD89065336433662F8BEFC4
:103520009AF064516025436E65516121446E000E2E
:103530006221456E000E6321466ED7ECC7F000098C
:10354000D8B4A5EF9AF0A7EF9AF0A9EF9AF0E2EFBE
:103550009BF0FF0E0001606F010E616F71C062F0A1
:1035600072C063F0605162176151631773C064F0F9
:1035700074C065F06251642763516523330E64257E
:10358000D96E000E6521DA6EDF50666F6651686F86
:10359000676B67516B1368516C134EB0D2EF9AF0A2
:1035A000D4EF9AF0DCEF9AF0FF0E6B15696F0F0EF7
:1035B0006C156A6FECEF9AF06BC060F06CC061F054
:1035C000040E626FD89061336033622FE2EF9AF09D
:1035D00060C069F061C06AF069C06DF06AC06EF0E9
:1035E0006F6B706BE2EF9BF073C041F074C042F000
:1035F00020EE23F07351D9267451DA22DECF60F029
:10360000DECF61F0DECF62F0DECF63F04EC064F05B
:103610004FC065F050C066F051C067F065C064F0FF
:1036200066C065F067C066F0676B60516425436EE5
:1036300061516521446E62516621456E6351672177
:10364000466ED7ECC7F00009D8B429EF9BF02BEFFA
:103650009BF02DEF9BF0E2EF9BF0FF0E0001606FFF
:10366000010E616F4EC062F04FC063F0D8906237B8
:103670006337605162176151631773C064F074C09F
:1036800065F06251642763516523330E6425056E2E
:10369000000E6521066E25ECD3F005C06DF006C066
:1036A0006EF000016F6B706BE2EF9BF073C041F046
:1036B00074C042F020EE23F07351D9267451DA22FF
:1036C000DECF60F0DECF61F0DECF62F0DECF63F000
:1036D0004EC064F04FC065F050C066F051C067F056
:1036E000080E78EF9BF0D890673366336533643308
:1036F000E82E73EF9BF060516425436E61516521A4
:10370000446E62516621456E63516721466ED7EC67
:10371000C7F00009D8B48FEF9BF091EF9BF093EFC7
:103720009BF0E2EF9BF0FF0E0001606F010E616FF6
:103730004EC062F04FC063F0D89062376337D890C4
:1037400062376337605162176151631773C064F069
:1037500074C065F06251642763516523330E64259C
:10376000056E000E6521066E39ECC8F0FF0E0514DB
:1037700000016D6FFF0E06146E6FFF0E07146F6F62
:103780000F0E0814706FE2EF9BF073C0D9FF74C086
:10379000DAFFDF50606F616B6151000AD8B4D3EF7C
:1037A0009BF0FDEF99F06051010AD8B40EEF9AF04A
:1037B000030AD8B4F4EF9AF0010AD8B456EF9BF09C
:1037C000FDEF99F06DC04CF06EC04DF06FC04EF043
:1037D00070C04FF01200C0C0D9FFC1C0DAFFDECF09
:1037E000D4F0DDCFD5F0000120EE0EF0C051D92687
:1037F000C151DA22DECFC4F0DECFC5F0DECFC6F095
:10380000DECFC7F0200EC425D06F000EC521D16FCA
:10381000000EC621D26F000EC721D36F20EE16F026
:10382000C051D926C151DA22DE50DE10DE10DE1082
:10383000D8B41DEF9CF01FEF9CF02AEF9CF0D35101
:1038400009E1200ED25DD8A028EF9CF02AEF9CF071
:103850002DEF9CF0040EFFEF9DF0FF0ED015C46F0E
:10386000010ED115C56F000ED215C66F000ED3150F
:10387000C76FC451C511C611C711D8A442EF9CF03F
:1038800044EF9CF0CEEF9DF020EE16F0C051D9260B
:10389000C151DA22DE2A000EDE22DE22DE2220EEF6
:1038A00012F0C051D926C151DA22DE50DE10DE10EE
:1038B000DE10D8A45EEF9CF060EF9CF09EEF9CF0D1
:1038C00020EE07F0D451D926D551DA22DECFC4F04C
:1038D000DDCFC5F0C451C66FC551C76FC86BC96B8A
:1038E000D0C0CAF0D1C0CBF0D2C0CCF0D3C0CDF0A4
:1038F000060E80EF9CF0D890CD33CC33CB33CA3357
:10390000E82E7BEF9CF0C651CA5DC751CB59C85118
:10391000CC59C951CD59D8A090EF9CF092EF9CF0B2
:10392000CEEF9DF020EE16F0C051D926C151DA221B
:10393000DE6ADE6ADE6ADD6A2AEF9CF0FF0EC46F83
:10394000FF0EC56F20EE09F0D451D926D551DA22E9
:10395000DECFC6F0DDCFC7F0C451C627C551C7239F
:10396000D0C0C8F0D1C0C9F0D2C0CAF0D3C0CBF02B
:103970000A0EC0EF9CF0D890CB33CA33C933C8339A
:10398000E82EBBEF9CF0C651C815CC6FC751C915C6
:10399000CD6F000ECA15CE6F000ECB15CF6FCC5178
:1039A000CD11CE11CF11D8A4D8EF9CF0DAEF9CF056
:1039B000CEEF9DF0C0C04CF0C1C04DF020EE12F033
:1039C000C051D926C151DA22DECF4EF0DECF4FF002
:1039D000DECF50F0DECF51F0D2EC99F04CC0D6F0F3
:1039E0004DC0D7F04EC0D8F04FC0D9F00001D9512A
:1039F000D811D71107E1020ED65DD8B002EF9DF0C5
:103A000004EF9DF007EF9DF0020EFFEF9DF0D62929
:103A10000AE1D72908E1D82906E1D929D8A413EF6A
:103A20009DF015EF9DF018EF9DF0010EFFEF9DF05A
:103A300020EE17F0D451D926D551DA22DE50D65DCA
:103A4000DE50D759DE50D859DE50D959D8A02BEFC7
:103A50009DF02DEF9DF0A2EF9DF0C251C311D8A4AF
:103A600034EF9DF036EF9DF042EF9DF020EE16F022
:103A7000C051D926C151DA22DE6ADE6ADE6ADD6A09
:103A80002AEF9CF0C0C0A3F0C1C0A4F020EE12F059
:103A9000C051D926C151DA22DECFA5F0DECFA6F083
:103AA000DECFA7F0DECFA8F0F2EC91F0A3C0D6F005
:103AB000A4C0D7F0A5C0D8F0A6C0D9F00001D65157
:103AC000D711D811D911D8A468EF9DF06AEF9DF0F5
:103AD0006DEF9DF0070EFFEF9DF0D605D711D811C1
:103AE000D911D8A476EF9DF078EF9DF07AEF9DF094
:103AF00004EF9DF0D6290AE1D72908E1D82906E18B
:103B0000D929D8A486EF9DF088EF9DF08AEF9DF02B
:103B100015EF9DF0D4C041F0D5C042F0D6C043F0BF
:103B2000D7C044F0D8C045F0D9C046F0BFECBDF0D6
:103B30000009D8B49EEF9DF0A0EF9DF0A2EF9DF09C
:103B400015EF9DF0000120EE12F0C051D926C151B1
:103B5000DA22D6C0DEFFD7C0DEFFD8C0DEFFD9C074
:103B6000DEFFD4C011F0D5C012F0D6C013F0D7C01C
:103B700014F0D8C015F0D9C016F0E3ECC5F0000180
:103B800020EE16F0C051D926C151DA2211C0DEFF55
:103B900012C0DEFF13C0DEFF14C0DEFF20EE0EF009
:103BA000C051D926C151DA22D0C0DEFFD1C0DEFF1C
:103BB000D2C0DEFFD3C0DEFFFF0EC46F010EC56FA3
:103BC000D0C0C6F0D1C0C7F0C451C617C551C71781
:103BD000D4C0C8F0D5C0C9F0C651C827C751C92341
:103BE000330EC827000EC92320EE1AF0C051D92683
:103BF000C151DA22C8C0DEFFC9C0DDFF000E1200CD
:103C000042C0D9FF43C0DAFFDECFF6FFDDCFF7FFBA
:103C1000000EF86E0800F550250AD8A412EF9EF0A9
:103C200014EF9EF0EEEF9FF042C0D9FF43C0DAFFE1
:103C3000DE2A000EDD22000E0101396F000E386F02
:103C400038C13CF139C13DF13A693B6942C0D9FF05
:103C500043C0DAFFDECFF6FFDDCFF7FF000EF86ED0
:103C60000800F5502A0AD8A438EF9EF03AEF9EF0EB
:103C700063EF9EF042C0D9FF43C0DAFFDE2A000E98
:103C8000DD2244C0D9FF45C0DAFFDFCF46F0020E87
:103C9000DE26DFCF47F0000EDD2246C0D9FF47C049
:103CA000DAFFDECF38F1DDCF39F139BF5CEF9EF0BE
:103CB0005AEF9EF09BEF9EF03C81386D391FD8B0D3
:103CC000392B9BEF9EF042C0D9FF43C0DAFFDECF15
:103CD0000CF0DDCF0DF009ECB9F00CC038F10DC0DF
:103CE00039F17AEF9EF042C0D9FF43C0DAFFDE2AF5
:103CF000000EDD22D00E466EFF0E476E42C0D9FF89
:103D000043C0DAFFDECFF6FFDDCFF7FF000EF86E1F
:103D10000800F550486E496A4650482647504922E7
:103D2000495009E10A0E485CD8A099EF9EF09BEF3C
:103D30009EF073EF9EF042C0D9FF43C0DAFFDECFA2
:103D4000F6FFDDCFF7FF000EF86E0800F550730A9E
:103D5000D8B4ADEF9EF0AFEF9EF0CAEF9EF042C038
:103D6000D9FF43C0DAFFDECF05F0DDCF06F0F10E5C
:103D7000076EFF0E086E000E0A6E030E096EC3EC8E
:103D8000C2F005500610D8A4C8EF9EF0CAEF9EF00E
:103D900016EF9FF042C0D9FF43C0DAFFDECFF6FF37
:103DA000DDCFF7FF000EF86E0800F550730AD8B4A7
:103DB000DCEF9EF0DEEF9EF0E5EF9EF0000E0001DE
:103DC000636F030E626FEAEF9EF0000E0001636FF7
:103DD000010E626F42C0D9FF43C0DAFF6251DE2696
:103DE0006351DD2244C0D9FF45C0DAFFDFCF46F082
:103DF000020EDE26DFCF47F0000EDD2246C0D9FFDF
:103E000047C0DAFFDECF60F0DDCF61F040C00EF0DA
:103E100041C00FF060C010F061C011F052ECB5F07D
:103E20000EC040F00FC041F00BEFA0F042C0D9FF30
:103E300043C0DAFFDECFF6FFDDCFF7FF000EF86EEE
:103E40000800F550750AD8A428EF9FF02AEF9FF0DC
:103E50006CEF9FF042C0D9FF43C0DAFFDE2A000EAC
:103E6000DD2244C0D9FF45C0DAFFDFCF46F0020EA5
:103E7000DE26DFCF47F0000EDD2246C0D9FF47C067
:103E8000DAFFDECF48F0DDCF49F048C064F049C02A
:103E900065F00001666B676B686B696B6A6B6B6BD7
:103EA00040C020F041C021F064C022F065C023F082
:103EB00066C024F067C025F068C026F069C027F00E
:103EC0006AC028F06BC029F011ECB0F020C040F0BF
:103ED00021C041F00BEFA0F042C0D9FF43C0DAFF90
:103EE000DECF05F0DDCF06F0F90E076EFF0E086E8F
:103EF000000E0A6E020E096EC3ECC2F005500610E9
:103F0000D8A485EF9FF087EF9FF0B6EF9FF0020EE9
:103F100042C0D9FF43C0DAFFDE26000EDD2244C0D6
:103F2000D9FF45C0DAFFDFCF46F0040EDE26DFCF33
:103F300047F0000EDD2246C0D9FF47C0DAFFDECFD2
:103F400048F0DECF49F0DECF4AF0DECF4BF04850EC
:103F50000001646F4950656F4A50666F4B50676F40
:103F6000686B696B6A6B6B6B50EF9FF042C0D9FF57
:103F700043C0DAFFDECFF6FFDDCFF7FF000EF86EAD
:103F80000800F550250AD8A4C8EF9FF0CAEF9FF0AB
:103F9000E1EF9FF042C0D9FF43C0DAFFDE2A000EF6
:103FA000DD22000E066E250E056E40C007F041C0F2
:103FB00008F049ECC6F0000E416E010E406E0BEFAA
:103FC000A0F042C0D9FF43C0DAFFDE2A000EDD2296
:103FD000000E416E000E406E0BEFA0F042C0D9FF04
:103FE00043C0DAFFDECFF6FFDDCFF7FF000EF86E3D
:103FF0000800F550056E066A40C007F041C008F0A1
:1040000049ECC6F042C0D9FF43C0DAFFDE2A000EF9
:10401000DD22DBEF9FF0120054ECD5F00009D8B49C
:1040200014EFA0F016EFA0F0EAEFA1F0000E0001EF
:10403000A76F050EA86FFC0EA96FFF0EAA6F010EE9
:10404000AB6F0FECC5F00009D8A429EFA0F02BEF5F
:10405000A0F0EAEFA1F022EE00F0FF0EDE6AE80623
:10406000FDE223EE84F0210EDE6AE806FDE2000E9A
:104070000001FE6F000EFD6F220EEE6F030EEF6F5C
:10408000D30EF06FFF0EF16FD7ECB6F0220E0001E9
:10409000E76F030EE86F6C0EE96F030EEA6FA0EC9A
:1040A000C4F003017551D8A458EFA0F05AEFA0F066
:1040B0005CEFA0F06CEFA0F06C516D116E116F1100
:1040C000D8A465EFA0F067EFA0F069EFA0F06CEF67
:1040D000A0F00001FD4BFE2B03017551D8A473EF36
:1040E000A0F075EFA0F046EFA0F0220E0001E76F00
:1040F000030EE86F000EE96F000EEA6FA0ECC4F04B
:10410000060E0001FD25196E000EFE211A6E73ECDD
:10411000D4F0D30E096EFF0E0A6E000E0C6E010E67
:104120000B6EACECC0F0D30E0001E76FFF0EE86F32
:10413000840EE96F030EEA6F000EEB6F000EEC6F5A
:1041400038ECA8F0000E0001726F020E736FC60EFD
:10415000746FFF0E756F840E766F030E776F20EC11
:10416000D1F0000E096E020E0A6E000E056E020EF0
:10417000066E41ECD3F0010E05240B6E000E0620F6
:104180000C6EACECC0F0D30E096EFF0E0A6E000E82
:104190000C6E010E0B6EACECC0F0220E0001E76F4E
:1041A000030EE86F6C0EE96F030EEA6FA0ECC4F02B
:1041B00003017551D8A4DFEFA0F0E1EFA0F0E3EF29
:1041C000A0F027EFA1F06C516D116E116F11D8A402
:1041D000ECEFA0F0EEEFA0F0F0EFA0F027EFA1F0F1
:1041E000000E056E020E066E000E086E000E076EC3
:1041F000010E0A6E000E096E98ECB7F0000E000179
:10420000726F020E736FA60E746FFF0E756F750ED0
:10421000766F030E776F6CC378F06DC379F06EC361
:104220007AF06FC37BF020ECD1F0000E096E020E25
:104230000A6E000E056E020E066E41ECD3F0010E02
:1042400005240B6E000E06200C6EACECC0F00301D2
:104250007551D8A42EEFA1F030EFA1F0CDEFA0F072
:10426000D30E096EFF0E0A6E000E0C6E010E0B6E61
:10427000ACECC0F0000E056E020E066E000E086E6D
:10428000000E076E010E0A6E000E096E98ECB7F074
:10429000D30E0001A76FFF0EA86FA10EA96F010E2C
:1042A000AA6F820EAB6F030EAC6FBEECA3F00301DE
:1042B00020EE17F08251D9268351DA22FE0EDE2439
:1042C000056EFF0EDE20066EFF0EDE20076EFF0E6F
:1042D000DE20086E20EE09F08251D9268351DA22C1
:1042E000DECFF5F0DDCFF6F0F5C009F0F6C00AF04C
:1042F0000B6A0C6AA6ECCFF0030120EE09F08251A4
:10430000D9268351DA22DECFF5F0DDCFF6F0F5C005
:1043100005F0F6C006F0076A086AA1C109F0A2C15B
:104320000AF0A3C10BF0A4C10CF0A6ECCFF005C0BD
:10433000F9F006C0FAF007C0FBF008C0FCF0000E70
:104340000001726F020E736FD40E746FFF0E756FE3
:10435000F9C0F5F0FAC0F6F0FBC0F7F0FCC0F8F0D9
:10436000D890F833F733F633F533F5C076F0F6C06E
:1043700077F0F7C078F0F8C079F020ECD1F0000EBB
:10438000096E020E0A6E000E056E020E066E41ECFC
:10439000D3F0010E05240B6E000E06200C6EACEC63
:1043A000C0F0D30E096EFF0E0A6E000E0C6E010EE9
:1043B0000B6EACECC0F0000E0001A76F000EA86FF2
:1043C000FC0EA96FFF0EAA6F000EAB6F0FECC5F0CD
:1043D000F0EFA1F0000E1A6E000E196E73ECD4F01F
:1043E000120075C0D9FF76C0DAFFDECF8DF0DDCFC9
:1043F0008EF000017A5107E1200E795DD8B003EF0D
:10440000A2F005EFA2F01CEFA2F01F0E77157B6F54
:10441000000E78157C6F000E79157D6F000E7A15F1
:104420007E6F7B517C117D117E11D8B41AEFA2F002
:104430001CEFA2F01FEFA2F0020EBDEFA3F020EEE2
:104440000EF07551D9267651DA2277C0DEFF78C09A
:10445000DEFF79C0DEFF7AC0DEFF20EE06F0755188
:10446000D9267651DA22DECF89F0DECF8AF0DECF90
:104470008BF0DECF8CF089518A118B118C11D8A46E
:1044800044EFA2F046EFA2F060EFA2F08DC0D9FF9A
:104490008EC0DAFF020EDF6450EFA2F052EFA2F0FE
:1044A00060EFA2F020EE27F08D51D9268E51DA224E
:1044B000DECF89F0DECF8AF0DECF8BF0DECF8CF05E
:1044C00089518A118B118C11D8A469EFA2F06BEF7E
:1044D000A2F0B5EFA2F020EE07F08D51D9268E5153
:1044E000DA22DECF7BF0DDCF7CF07B517D6F7C511B
:1044F0007E6F7F6B806B77C081F078C082F079C06F
:1045000083F07AC084F0060E8BEFA2F0D89084334B
:10451000833382338133E82E86EFA2F07D51815DB3
:104520007E5182597F51835980518459D8A09BEF85
:10453000A2F09DEFA2F09FEFA2F01CEFA2F020EE00
:1045400027F08D51D9268E51DA2210EE16F07551D2
:10455000E1267651E222DECFE6FFDECFE6FFDECFB8
:10456000E6FFDECFE6FF58EFA3F020EE09F08D5115
:10457000D9268E51DA22DECF7BF0DDCF7CF07B5165
:104580007D6F7C517E6F7F6B806B090ED8907D377D
:104590007E377F378037E82EC6EFA2F07DC085F0EA
:1045A0007EC086F07FC087F080C088F02CEFA3F03B
:1045B00075C04CF076C04DF089C04EF08AC04FF007
:1045C0008BC050F08CC051F0D2EC99F04CC089F007
:1045D0004DC08AF04EC08BF04FC08CF0000189298D
:1045E0000AE18A2908E18B2906E18C29D8A4FBEF8E
:1045F000A2F0FDEFA2F000EFA3F0010EBDEFA3F0DB
:104600008C518B118A1109E1020E895DD8A00BEF44
:10461000A3F00DEFA3F01CEFA2F020EE17F08D51E8
:10462000D9268E51DA22DE50895DDE508A59DE505D
:104630008B59DE508C59D8A020EFA3F022EFA3F0C5
:1046400024EFA3F01CEFA2F08551775F8651785BD1
:104650008751795B88517A5B8551775D86517859AE
:104660008751795988517A59D8B039EFA3F03BEF87
:10467000A3F0D8EFA2F08DC011F08EC012F089C067
:1046800013F08AC014F08BC015F08CC016F0E3EC68
:10469000C5F0000120EE16F07551D9267651DA22C8
:1046A00011C0DEFF12C0DEFF13C0DEFF14C0DEFF4C
:1046B00020EE12F07551D9267651DA2289C0DEFF3C
:1046C0008AC0DEFF8BC0DEFF8CC0DEFF20EE16F05E
:1046D0007551D9267651DA22DE50DE10DE10DE105A
:1046E000D8A475EFA3F077EFA3F079EFA3F01CEF58
:1046F000A2F077C07BF078C07CF079C07DF07AC002
:104700007EF00A0E89EFA3F0D8907E337D337C33A0
:104710007B33E82E84EFA3F020EE16F07551D926F6
:104720007651DA227B51DE267C51DE227D51DE225B
:104730007E51DE22FF0E7B6F010E7C6F77C07DF015
:1047400078C07EF07B517D177C517E178DC07FF045
:104750008EC080F07D517F277E518023330E7F27CE
:10476000000E802320EE1AF07551D9267651DA22F8
:104770007FC0DEFF80C0DDFF000E1200A70E00012B
:10478000606F000E616FD60E626F000E636F000ED9
:10479000646F00EC80F00001D36FD351D8A4D3EF45
:1047A000A3F0D5EFA3F07BEFA5F0ABC0D9FFACC071
:1047B000DAFFD6C0DEFFD7C0DDFF20EE0FF0D65106
:1047C000D926D751DA2210EE17F0D651E126D7516B
:1047D000E222FE0EE624B16FFF0EE620B26FFF0E5E
:1047E000E620B36FFF0EE620B46FDE50B15DDE5001
:1047F000B259DE50B359DE50B459D8A002EFA4F03C
:1048000004EFA4F018EFA4F020EE0FF0D651D92653
:10481000D751DA22A9C0E1FFAAC0E2FFDECFE6FF4E
:10482000DECFE6FFDECFE6FFDECFE6FF7BEFA5F0D3
:10483000000EC76F000EC86F000EC96F000ECA6F62
:10484000D6C0D9FFD7C0DAFFDE04D8A42AEFA4F07F
:104850002CEFA4F09AEFA4F0020ECF6F000ED06FF1
:10486000000ED16F000ED26FD6C0B5F0D7C0B6F033
:10487000B50E4C6E000E4D6ECFC04EF0D0C04FF056
:10488000D1C050F0D2C051F0D2EC99F04CC0CBF076
:104890004DC0CCF04EC0CDF04FC0CEF00001CB29C2
:1048A0000AE1CC2908E1CD2906E1CE29D8A45BEFA5
:1048B000A4F05DEFA4F05FEFA4F059EFA5F0CB05F5
:1048C000CC11CD11CE11D8A468EFA4F06AEFA4F0FA
:1048D0006CEFA4F059EFA5F0CB51CC11CD11CE1156
:1048E000D8A475EFA4F077EFA4F07DEFA4F0010E4B
:1048F000C727000EC823C923CA2320EE17F0D651BC
:10490000D926D751DA22010ECF27000ED023D1238A
:10491000D223DE50CF5DDE50D059DE50D159DE506B
:10492000D259D8A096EFA4F098EFA4F038EFA4F0F5
:1049300059EFA5F020EE17F0D651D926D751DA223B
:10494000DECFCFF0DECFD0F0DECFD1F0DECFD2F0B1
:1049500020EE23F0D651D926D751DA22DECFC3F08C
:10496000DECFC4F0DECFC5F0DECFC6F0000ED56FCF
:10497000000ED46FD451D511D8A4C1EFA4F0C3EF69
:10498000A4F0E3EFA4F0D6C041F0D7C042F0C3C01A
:1049900043F0C4C044F0C5C045F0C6C046F0D7ECF3
:1049A000C7F00001D36F010EC327000EC423C52337
:1049B000C623D351D8B4DFEFA4F0E1EFA4F0E3EFC6
:1049C000A4F059EFA5F0D6C0D9FFD7C0DAFF020E88
:1049D000DE18D8A4EEEFA4F0F0EFA4F015EFA5F0E8
:1049E000D451D625AD6FD551D721AE6F330EAD253D
:1049F000056E000EAE21066E25ECD3F005500610B4
:104A0000D8A405EFA5F007EFA5F00EEFA5F0010E75
:104A10000001C727000EC823C923CA23020E0001C4
:104A2000D427000ED52345EFA5F0D451D625AD6F80
:104A3000D551D721AE6F330EAD25056E000EAE21D8
:104A4000066E39ECC8F0FF0E05140001AF6FFF0EC3
:104A50000614B06FFF0E0714B16F0F0E0814B26F7B
:104A6000AF51B011B111B211D8A439EFA5F03BEF9D
:104A7000A5F041EFA5F0010EC727000EC823C923FA
:104A8000CA23040ED427000ED523FF0ED417010E1F
:104A9000D517CF07000ED05BD15BD25BCF51D011C1
:104AA000D111D211D8A457EFA5F059EFA5F0BAEF64
:104AB000A4F0A9C0D9FFAAC0DAFFC7C0DEFFC8C0F2
:104AC000DEFFC9C0DEFFCAC0DEFF20EE0FF0D65108
:104AD000D926D751DA22C7C0DEFFC8C0DEFFC9C061
:104AE000DEFFCAC0DEFF20EE04F0D651D926D75132
:104AF000DA22000EDB801200E0C0D9FFE1C0DAFF4D
:104B0000DECFEAF0DDCFEBF0E2C0F6FFE3C0F7FF67
:104B1000000EF86E0E0EF76403D00800F55005D0B5
:104B2000F6CFE9FFF7CFEAFFEF502F0AD8B49BEF9B
:104B3000A5F09DEFA5F0D0EFA5F0E2C0F6FFE3C031
:104B4000F7FF000EF86E0E0EF76403D00800F55064
:104B500005D0F6CFE9FFF7CFEAFFEF505C0AD8B4F3
:104B6000B4EFA5F0B6EFA5F0D0EFA5F0000120EE70
:104B700013F0EA51D926EB51DA2210EE06F0E0519B
:104B8000E126E151E222DECFE6FFDECFE6FFDECF17
:104B9000E6FFDECFE6FF0DEFA6F00001E24BE32BD0
:104BA000E2C0F6FFE3C0F7FF000EF86E0E0EF764EA
:104BB00003D00800F55005D0F6CFE9FFF7CFEAFFA4
:104BC000EF502F0AD8B4E7EFA5F0E9EFA5F0CDEF4D
:104BD000A5F0E2C0F6FFE3C0F7FF000EF86E0E0E80
:104BE000F76403D00800F55005D0F6CFE9FFF7CF02
:104BF000EAFFEF505C0AD8B400EFA6F002EFA6F08F
:104C0000CDEFA5F0000120EE06F0E051D926E151EC
:104C1000DA22DE6ADE6ADE6ADD6AE2C0F6FFE3C03F
:104C2000F7FF000EF86E0E0EF76403D00800F55083
:104C300005D0F6CFE9FFF7CFEAFFEF500001E46FB0
:104C4000200EE46126EFA6F028EFA6F042EFA6F0D2
:104C500020EE27F0E051D926E151DA22800EDF6EF6
:104C6000E0C075F0E1C076F0000E776F000E786F4F
:104C7000000E796F000E7A6FF1ECA1F00001ED6F7C
:104C8000EFEFA6F0E0C00DF0E1C00EF0E20E0F6E07
:104C9000000E106E66EC97F00001ED6FED51D8B488
:104CA00054EFA6F056EFA6F058EFA6F0EFEFA6F0FF
:104CB000E0C0DAF0E1C0DBF015ECB6F00001ED6F1A
:104CC00020EE27F0E051D926E151DA22DF50EC6FD7
:104CD000ED51D8B46EEFA6F070EFA6F0A0EFA6F0FD
:104CE000040EED19D8A477EFA6F079EFA6F0EFEF58
:104CF000A6F0ECAB7EEFA6F080EFA6F095EFA6F065
:104D0000ECB585EFA6F087EFA6F089EFA6F042EFAD
:104D1000A6F020EE27F0E051D926E151DA22800EEC
:104D2000DF6E000EED6FEFEFA6F0ECB59AEFA6F098
:104D30009CEFA6F0EFEFA6F0050EED6FEFEFA6F0FB
:104D4000ECA5A5EFA6F0A7EFA6F0A9EFA6F0EFEF70
:104D5000A6F020EE04F0E051D926E151DA22DFB8C6
:104D6000B4EFA6F0B6EFA6F0B8EFA6F09CEFA6F071
:104D7000EAC00CF0EBC00DF0FF0EE46F010EE56F22
:104D800020EE0EF0E051D926E151DA22DECFE6F036
:104D9000DDCFE7F0E451E617E551E717EAC0E8F0A8
:104DA000EBC0E9F0E651E827E751E923330EE825A7
:104DB0000E6E000EE9210F6E74ECCCF0000120EEB7
:104DC00006F0E051D926E151DA220CC0DEFF0DC019
:104DD000DEFF0EC0DEFF0FC0DEFF42EFA6F0ED519A
:104DE000120054ECD5F00009D8A4F9EFA6F0FBEFBF
:104DF000A6F0FEEFA6F0000E37EFA8F0000E45EC8F
:104E0000C9F00A0E1D6E09EFA7F0FF0EF5ECD4F005
:104E10001D061D50D8A40FEFA7F011EFA7F005EF66
:104E2000A7F0000E1C6E000E0D6E000E0E6E000E32
:104E30000F6E000E106E000E3EECC3F0E806D8A414
:104E400024EFA7F026EFA7F01FEFA8F0030E5A6E8D
:104E5000E80E596EAA0E0D6E010E0E6E000E0F6E4C
:104E6000000E106E080E3EECC3F0E806D8A43BEF2F
:104E7000A7F03DEFA7F0C5EFA7F0000E1D6E150ED1
:104E80001D24D96EDA6A000EDA22FF0EF5ECD4F09A
:104E9000DF6E1D2A030E1D6450EFA7F052EFA7F03E
:104EA0003FEFA7F01704D8A458EFA7F05AEFA7F0E8
:104EB0001FEFA8F0AA0E1818D8A461EFA7F063EFAF
:104EC000A7F01FEFA8F059505A10D8B46AEFA7F016
:104ED0006CEFA7F07FEFA7F0000E0D6E000E0E6EC8
:104EE000000E0F6E400E106EA90E3EECC3F00009CE
:104EF000D8A47DEFA7F07FEFA7F063EFA7F059509C
:104F00005A10D8B486EFA7F088EFA7F01FEFA8F0EB
:104F1000000E0D6E000E0E6E000E0F6E000E106E67
:104F20003A0E3EECC3F00009D8A499EFA7F09BEF2E
:104F3000A7F01FEFA8F0000E1D6E150E1D24D96EF0
:104F4000DA6A000EDA22FF0EF5ECD4F0DF6E1D2ACD
:104F5000030E1D64AEEFA7F0B0EFA7F09DEFA7F032
:104F600015BCB5EFA7F0B7EFA7F0BDEFA7F0000EA7
:104F70001A6E040E196EC1EFA7F0000E1A6E0C0E19
:104F8000196E19C01CF01FEFA8F0000E0D6E000E78
:104F90000E6E000E0F6E000E106EA90E3EECC3F0EA
:104FA000146E020E1460D7EFA7F0D9EFA7F0DFEF71
:104FB000A7F0020E1C6EA90E1B6EE3EFA7F0010E08
:104FC0001C6E010E1B6E59505A10D8B4EAEFA7F0B0
:104FD000ECEFA7F0FFEFA7F0000E0D6E000E0E6EC7
:104FE000000E0F6E000E106E1B503EECC3F0000959
:104FF000D8A4FDEFA7F0FFEFA7F0E3EFA7F059501B
:105000005A10D8B406EFA8F008EFA8F01BEFA8F0EC
:10501000000E0D6E020E0E6E000E0F6E000E106E64
:10502000100E3EECC3F00009D8B419EFA8F01BEF46
:10503000A8F01FEFA8F0000E1C6E1FEFA8F01CC018
:105040004CF101014D6BA1ECD5F01C50D8B42BEF05
:10505000A8F02DEFA8F033EFA8F0010E0101526F78
:10506000010E37EFA8F0E1ECD5F0FBEFA6F012004F
:10507000E70E0001606F000E616F740E626F010E2B
:10508000636F000E646F00EC80F00101766F765163
:10509000D8A44DEFA8F04FEFA8F003EFA9F000015E
:1050A000E951EA11D8B457EFA8F059EFA8F003EF8F
:1050B000A9F074C177F175C178F1000E01017D6F1F
:1050C000000E7E6F000E7F6F000E806F770E000166
:1050D000756F010E766F000E776F000E786F000E01
:1050E000796F000E7A6FF1ECA1F00101766F7651C5
:1050F000D8A47DEFA8F07FEFA8F0F1EFA8F0770E2D
:105100000001DA6F010EDB6F000EDD6F010EDC6F48
:1051100010ECB2F00101766F7651D8A492EFA8F0AE
:1051200094EFA8F0F1EFA8F0000E736F000E726F0D
:1051300072C170F173C171F1B9EFA8F0705191258E
:10514000D96E71519221DA6EDF50546E54506E6FE9
:105150006F6B704B712B72510001E925D96E010103
:1051600073510001EA21DA6E6EC1DFFF0101724B5B
:10517000732B715109E10B0E705DD8A0C2EFA8F03E
:10518000C4EFA8F09EEFA8F0010172510001E925DB
:10519000D96E010173510001EA21DA6E000EDF6E53
:1051A000010172517311D8A4D8EFA8F0DAEFA8F07A
:1051B000DCEFA8F0F1EFA8F07207D8A073077251E6
:1051C0000001E925D96E010173510001EA21DA6E6F
:1051D000200EDE18D8B4EFEFA8F0F1EFA8F0C4EF7E
:1051E000A8F0040E01017619D8A4F9EFA8F0FBEF9E
:1051F000A8F003EFA9F0E9C0D9FFEAC0DAFF000E7A
:10520000DF6E000E766F01017651D8A40AEFA9F087
:105210000CEFA9F07CEFA9F00001EB51EC11D8B430
:1052200014EFA9F016EFA9F07CEFA9F074C141F0DA
:1052300075C142F0010120EE1FF07451D92675515D
:10524000DA22DECF43F0DECF44F0DECF45F0DECF12
:1052500046F0D7ECC7F00101766F7651D8A433EF52
:10526000A9F035EFA9F07CEFA9F049EFA9F0000E05
:10527000736F640E726F62EFA9F0000E736F430ECE
:10528000726F62EFA9F0000E736F270E726F62EFFC
:10529000A9F074C1D9FF75C1DAFFDF50546E556AA9
:1052A0005550000AD8B457EFA9F043EFA9F0545075
:1052B000030AD8B43DEFA9F0070AD8B437EFA9F034
:1052C00043EFA9F072517425546E73517521556ED8
:1052D000330E5424056E000E5520066E39ECC8F0CE
:1052E000EBC0D9FFECC0DAFF05C0DEFF06C0DEFF71
:1052F00007C0DEFF08C0DEFF1200000E176E000EB2
:10530000186E000E0D6E000E0E6E000E116E000E69
:10531000126E57505810D8A490EFA9F092EFA9F050
:1053200098EFA9F0000E056E000E066EB9EFAAF018
:1053300057C015F058C016F01EEFAAF015C0D9FFDF
:1053400016C0DAFF0550DE1807E10650DE18D8A4B3
:10535000ACEFA9F0AEEFA9F0DBEFA9F011501210FD
:10536000D8B4B5EFA9F0B7EFA9F0C9EFA9F020EED6
:1053700002F01550D9261650DA2210EE02F0115024
:10538000E1261250E222DECFE6FFDDCFE5FFD3EFCC
:10539000A9F020EE02F01550D9261650DA22DECF01
:1053A00057F0DDCF58F0020E1524056E000E1620C2
:1053B000066EB9EFAAF015C0D9FF16C0DAFFDE50AD
:1053C000055CDE500658D8B0E8EFA9F0EAEFA9F086
:1053D00010EFAAF017501810D8B4F1EFA9F0F3EFBE
:1053E000A9F008EFAAF017C0D9FF18C0DAFF15C05E
:1053F000E1FF16C0E2FFDE50E65CDE50E658D8A0C2
:1054000004EFAAF006EFAAF008EFAAF010EFAAF056
:1054100015C017F016C018F011C00DF012C00EF034
:1054200015C011F016C012F020EE02F01550D9266A
:105430001650DA22DECF15F0DDCF16F0155016101B
:10544000D8A425EFAAF027EFAAF09EEFA9F01750F5
:105450001810D8B42EEFAAF030EFAAF092EFA9F00E
:1054600020EE02F01750D9261850DA22DECF13F0C2
:10547000DDCF14F017C0D9FF18C0DAFFDECF07F078
:10548000DDCF08F00550075E0650085A085009E1C4
:10549000050E075CD8A04FEFAAF051EFAAF097EFE6
:1054A000AAF017C0D9FF18C0DAFFDECF07F0DDCFB2
:1054B00008F00550075E0650085AFE0E07240B6ED2
:1054C000FF0E08200C6E17C0D9FF18C0DAFF05C008
:1054D000DEFF06C0DDFF17C0D9FF18C0DAFFDECF40
:1054E00007F0DDCF08F017C009F018C00AF0075028
:1054F000092608500A22020E09240F6E000E0A2007
:10550000106E0FC0D9FF10C0DAFF0BC0DEFF0CC059
:10551000DDFF20EE02F00F50D9261050DA2213C022
:10552000DEFF14C0DDFF0FC013F010C014F01750E1
:10553000571807E118505818D8A4A1EFAAF0A3EF04
:10554000AAF0A9EFAAF013C057F014C058F0B3EFB7
:10555000AAF020EE02F00D50D9260E50DA2213C028
:10556000DEFF14C0DDFF020E1724056E000E1820AA
:10557000066E120020EE0CF01250D9261350DA22DB
:10558000DECF05F0DDCF06F0000E086E030E076ECD
:1055900060ECD4F0900E0524166EFF0E0620176EF8
:1055A000530E186E010E196E16C0F6FF17C0F7FFE6
:1055B000000EF86E18C0D9FF19C0DAFF0800F5CF49
:1055C000DFFF164A172A184A192A16C0F6FF17C015
:1055D000F7FF000EF86E18C0D9FF19C0DAFF0800F7
:1055E000F5CFDFFF164A172A184A192A16C0F6FF08
:1055F00017C0F7FF000EF86E18C0D9FF19C0DAFF08
:105600000800F5CFDFFF184A192A18C0D9FF19C0C2
:10561000DAFF200EDF6E184A192A20EE08F0125029
:10562000D9261350DA22DECF05F0DDCF06F0000ECA
:10563000086E030E076E60ECD4F06B0E0524166E38
:10564000FF0E0620176E16C0F6FF17C0F7FF000EFC
:10565000F86E18C0D9FF19C0DAFF0800F5CFDFFFD8
:10566000164A172A184A192A16C0F6FF17C0F7FF5C
:10567000000EF86E18C0D9FF19C0DAFF0800F5CF88
:10568000DFFF164A172A184A192A16C0F6FF17C054
:10569000F7FF000EF86E18C0D9FF19C0DAFF080036
:1056A000F5CFDFFF200E01015A6F5D0E0D6E010E6A
:1056B0000E6E20EE06F01250D9261350DA22DF507B
:1056C0000F6E200E106E200E116EAEECCBF0600E41
:1056D0000D6E010E0E6E20EE04F01250D9261350FE
:1056E000DA22DF500F6E300E106E3A0E116EAEECF5
:1056F000CBF0630E0D6E010E0E6E20EE02F0125016
:10570000D9261350DA22DF500F6E300E106E3A0E8B
:10571000116EAEECCBF0660E0D6E010E0E6E12C069
:10572000D9FF13C0DAFFDF500F6E300E106E200E5F
:10573000116EAEECCBF020EE0AF01250D9261350C9
:10574000DA22DECF05F0DDCF06F0000E086E640E23
:10575000076E75ECC7F00550130F146E690E0D6ED1
:10576000010E0E6E14C00FF0200E106E000E116EA2
:10577000AEECCBF020EE0AF01250D9261350DA220C
:10578000DECF05F0DDCF06F0000E086E640E076E6A
:1057900095ECC8F00550156E6B0E0D6E010E0E6E79
:1057A00015C00FF0300E106E0A0E116EAEECCBF07D
:1057B000530E126E010E136E1200A3C0D9FFA4C0C7
:1057C000DAFFDECFBAF0DDCFBBF00001A851A711A0
:1057D000A61109E1020EA55DD8A0F1EFABF0F3EF41
:1057E000ABF008EFACF020EE17F0BA51D926BB5160
:1057F000DA22DE50A55DDE50A659DE50A759DE50F4
:10580000A859D8A006EFACF008EFACF00BEFACF065
:10581000020EF5EFACF0A951AA11AB11AC11D8B43E
:1058200014EFACF016EFACF039EFACF0BAC082F088
:10583000BBC083F0A9C084F0AAC085F0ABC086F0DD
:10584000ACC087F0FF0E886FFF0E896FFF0E8A6F66
:10585000FF0E8B6FCAEC94F00001B96FB951D8B448
:1058600034EFACF036EFACF039EFACF0B951F5EF06
:10587000ACF0A3C04CF0A4C04DF0A5C04EF0A6C043
:105880004FF0A7C050F0A8C051F0D2EC99F04CC036
:10589000B5F04DC0B6F04EC0B7F04FC0B8F0000143
:1058A000B551B611B711B811D8A459EFACF05BEFF0
:1058B000ACF05DEFACF0F4EFACF0B505B611B7119C
:1058C000B811D8A466EFACF068EFACF06AEFACF0BA
:1058D00008EFACF0B5290AE1B62908E1B72906E1DD
:1058E000B829D8A476EFACF078EFACF07BEFACF051
:1058F000010EF5EFACF0BAC082F0BBC083F0A5C0DA
:1059000084F0A6C085F0A7C086F0A8C087F0000E7E
