:0400000032EF00F0EB
:100008005B82FACF03F0FBCF04F00E01C2AB0FEF17
:1000180000F011EF00F01CEF00F0CAAB16EF00F093
:1000280018EF00F01CEF00F03AECC1F02CEF00F0F4
:10003800C2A921EF00F023EF00F02CEF00F0CAA9CD
:1000480028EF00F02AEF00F02CEF00F0C9ECC0F028
:1000580004C0FBFF03C0FAFF5B9211000AEFBBF07C
:10FEA00000809A45418E418F804545454949498E9C
:10FEB0008F9092924F994F555559999A9B9C9D9E20
:10FEC0009F41494F55A5A5A6A7A8A9AAABACADAE21
:10FED000AFB0B1B2B3B4B5B6B7B8B9BABBBCBDBEBA
:10FEE000BFC0C1C2C3C4C5C6C7C8C9CACBCCCDCEAA
:10FEF000CFD0D1D2D3D4D5D6D7D8D9DADBDCDDDE9A
:10FF0000DFE0E1E2E3E4E5E6E7E8E9EAEBECEDEE89
:10FF1000EFF0F1F2F3F4F5F6F7F8F9FAFBFCFDFE79
:10FF2000FF4A8201068201F68101806401066B01AD
:10FF30003E8201D67101B68201AE8201A682019E87
:10FF400082019682018E8201868201328201F276DE
:10FF5000010A409F0000409F002B2E2C3B3D5B5D23
:10FF60002F5C222A3A3C3E3F7C7F004A616E466508
:10FF7000624D61724170724D61794A756E4A756C5D
:10FF80004175675365704F63744E6F7644656300C7
:10FF900053756E4D6F6E547565576564546875463C
:10FFA00072695361740025313273202D20256C75E0
:10FFB00020627974657300222A2B2C3A3B3C3D3E2B
:10FFC0003F5B5D7C7F002A566F6C756D65202D2030
:10FFD00025732A00256C75204B6942206672656581
:10FFE0000048454C4C4F2E5458540046415433322F
:10FFF000006C6C7300464154006C7500303A000090
:020000040001F9
:1000000062C0D9FF63C0DAFF000EDE6E000EDD6E47
:1000100060C005F061C006F09BECAAF005C08DF051
:1000200006C08EF000018EBF1AEF80F018EF80F04E
:100030001DEF80F00B0E41EF86F0D8908D35D96E14
:100040008E35DA6E4A0ED926020EDA22DECFA5F000
:10005000DDCFA6F0A551A611D8A431EF80F033EF83
:1000600080F036EF80F00C0E41EF86F062C0D9FFD1
:1000700063C0DAFFA5C0DEFFA6C0DDFF6491A5C0A6
:10008000D9FFA6C0DAFFDF50D8B449EF80F04BEFBC
:1000900080F072EF80F020EE01F0A551D926A65134
:1000A000DA22DF50A6ECB9F00001956F95B15BEF55
:1000B00080F05DEF80F072EF80F06451D8B463EFB0
:1000C00080F065EF80F06FEF80F095A56AEF80F02B
:1000D0006CEF80F06FEF80F00A0E41EF86F0000EBB
:1000E00041EF86F0A5C0D9FFA6C0DAFF000EDF6E93
:1000F00020EE01F0A551D926A651DA228DC0DFFFEE
:1001000020EE01F0A551D926A651DA22DF50E2EC0B
:10011000BCF00001956F95A190EF80F092EF80F018
:1001200095EF80F0030E41EF86F06451D8B49BEF59
:1001300080F09DEF80F0A6EF80F095A5A2EF80F013
:10014000A4EF80F0A6EF80F06CEF80F0000E9E6FC1
:10015000000E9F6F000EA06F000EA16FA5C04CF0A7
:10016000A6C04DF09EC04EF09FC04FF0A0C050F012
:10017000A1C051F0EFECA9F00001A46F020EA41988
:10018000D8B4C5EF80F0C7EF80F0C9EF80F09DEFE5
:1001900081F0000EA36F000EA26FA35109E1040EBF
:1001A000A25DD8A0D6EF80F0D8EF80F0DAEF80F033
:1001B0003AEF81F0A2C065F0A3C066F0653B663BF4
:1001C000F00E661765510F0B6613F00E6517A5C08C
:1001D00067F0A6C068F06551672766516823F10E85
:1001E0006725876F010E6821886F20EE04F0875124
:1001F000D9268851DA22DF50D8A401EF81F003EF2D
:1002000081F00DEF81F0000E7D6F000E7E6F000E0D
:100210007F6F000E806F1DEF81F0080E8725056E41
:10022000000E8821066ECBECB3F005C07DF006C051
:100230007EF007C07FF008C080F06D0E0001656F92
:10024000000E666FD890A235D96EA335DA6ED890BD
:10025000D936DA366551D9266651DA227DC0DEFFFD
:100260007EC0DEFF7FC0DEFF80C0DEFFA24BA32B7F
:10027000CDEF80F0000EA36F000EA26FA251A3116C
:10028000D8B445EF81F047EF81F04AEF81F0A20743
:10029000D8A0A3076D0E656F000E666FD890A235CB
:1002A000D96EA335DA6ED890D936DA366551D926AB
:1002B0006651DA22DECF9EF0DECF9FF0DECFA0F0D7
:1002C000DECFA1F09E519F11A011A111D8A46BEF18
:1002D00081F06DEF81F073EF81F0000E826F030EFD
:1002E000816F86EF81F0A5C04CF0A6C04DF09EC096
:1002F0004EF09FC04FF0A0C050F0A1C051F0EFEC05
:10030000A9F00001656F6551816F826B81C0A4F017
:10031000010EA4658EEF81F090EF81F09DEF81F0EA
:10032000A24BA32BA35109E1040EA25DD8A09BEF21
:1003300081F09DEF81F04AEF81F0040EA419D8A45A
:10034000A4EF81F0A6EF81F0A9EF81F0010E41EF5B
:1003500086F0010EA465AFEF81F0B1EF81F0B4EF4C
:1003600081F00D0E41EF86F03E0EA525056E000EC4
:10037000A621066EC7ECBEF0020E06180510D8B412
:10038000C4EF81F0C6EF81F0C8EF81F0B1EF81F0EA
:10039000490E0001A525056E000EA621066EC7ECCC
:1003A000BEF005C09AF006C09BF000019C6B9D6BEF
:1003B0009A519B119C119D11D8A4E1EF81F0E3EFBC
:1003C00081F0F3EF81F0570EA525056E000EA621F2
:1003D000066ECBECB3F005C09AF006C09BF007C0E8
:1003E0009CF008C09DF0000120EE1BF0A551D9261D
:1003F000A651DA229AC0DEFF9BC0DEFF9CC0DEFF62
:100400009DC0DEFF20EE43F0A551D926A651DA2289
:1004100010EE02F0A551E126A651E222DFCFE7FF60
:1004200020EE02F0A551D926A651DA22DE04D8B476
:100430001CEF82F01EEF82F02FEF82F020EE02F030
:10044000A551D926A651DA22020EDE18D8B42BEF18
:1004500082F02DEF82F02FEF82F0B1EF81F09AC0A1
:1004600005F09BC006F09CC007F09DC008F020EE90
:1004700002F0A551D926A651DA22DF50656F6551E9
:10048000096E0A6A0B6A0C6A1AECBCF005C09AF095
:1004900006C09BF007C09CF008C09DF0000120EE54
:1004A00040F0A551D926A651DA22DF50656F666B60
:1004B00020EE09F0A551D926A651DA2265C0DEFF4B
:1004C00066C0DDFF20EE09F0A551D926A651DA223B
:1004D000DE50DE10D8B46FEF82F071EF82F0B1EF32
:1004E00081F020EE09F0A551D926A651DA22DECFFF
:1004F00065F0DDCF66F0FF0E676FFF0E686F20EED0
:1005000009F0A551D926A651DA22DECF69F0DDCF58
:100510006AF06751692768516A2365516917665106
:100520006A1769516A11D8B498EF82F09AEF82F095
:100530009CEF82F0B1EF81F0440EA525056E000E10
:10054000A621066EC7ECBEF0000120EE07F0A55113
:10055000D926A651DA2205C0DEFF06C0DDFF20EE57
:1005600007F0A551D926A651DA22DECF65F0DDCFFE
:1005700066F00F0E6517000E661765516611D8B448
:10058000C4EF82F0C6EF82F0C8EF82F0B1EF81F0E5
:10059000460EA525056E000EA621066EC7ECBEF020
:1005A00005C091F006C092F00001936B946B9151DD
:1005B000921193119411D8A4E0EF82F0E2EF82F04F
:1005C000F2EF82F0530EA525056E000EA621066EF1
:1005D000CBECB3F005C091F006C092F007C093F0E9
:1005E00008C094F0410E0001A525056E000EA6215D
:1005F000066EC7ECBEF005C08FF006C090F000019B
:100600008F519011D8A407EF83F009EF83F00BEF1F
:1006100083F0B1EF81F020EE07F0A551D926A65165
:10062000DA22DECF65F0DDCF66F0040E676FD8907A
:1006300066336533672F17EF83F08F516525686F39
:1006400090516621696F6A6BD8B06A2B6B6B9A51B7
:100650006825896F9B5169218A6F9C516A218B6F34
:100660009D516B218C6F8951915D8A5192598B51AB
:1006700093598C519459D8B040EF83F042EF83F0F6
:1006800044EF83F0B1EF81F08951915D056E8A519D
:100690009259066E8B519359076E8C519459086E7E
:1006A00020EE09F0A551D926A651DA22DECF65F059
:1006B000DDCF66F065C009F066C00AF00B6A0C6A0F
:1006C000D7ECB5F005C096F006C097F007C098F0DB
:1006D00008C099F000019651971198119911D8A46A
:1006E00074EF83F076EF83F078EF83F0B1EF81F071
:1006F000000EA46FF60E965DFF0E9759FF0E9859E7
:100700000F0E9959D8B087EF83F089EF83F08BEF04
:1007100083F0030EA46F9951981109E1F60E965DCE
:10072000FF0E9759D8B097EF83F099EF83F09BEFC6
:1007300083F0020EA46F9951981109E1F60E965DAF
:100740000F0E9759D8B0A7EF83F0A9EF83F0ABEF66
:1007500083F0010EA46FA451D8A4B1EF83F0B3EFDE
:1007600083F0B5EF83F0B1EF81F0020E9625656F4F
:10077000000E9721666F000E9821676F000E992179
:10078000686F20EE17F0A551D926A651DA2265C070
:10079000DEFF66C0DEFF67C0DEFF68C0DEFF20EE62
:1007A0001FF0A551D926A651DA229EC0DEFF9FC0B8
:1007B000DEFFA0C0DEFFA1C0DEFF8F519E25656F6A
:1007C00090519F21666F000EA021676F000EA1213E
:1007D000686F20EE23F0A551D926A651DA2265C014
:1007E000DEFF66C0DEFF67C0DEFF68C0DEFF895146
:1007F0009E25656F8A519F21666F8B51A021676F7F
:100800008C51A121686F20EE2BF0A551D926A6515D
:10081000DA2265C0DEFF66C0DEFF67C0DEFF68C0AB
:10082000DEFF030EA419D8A418EF84F01AEF84F0A9
:1008300077EF84F05D0EA525056E000EA621066EED
:10084000C7ECBEF005500610D8B429EF84F02BEFAA
:1008500084F02DEF84F0B1EF81F0000120EE07F07D
:10086000A551D926A651DA22DE50DE10D8B43BEFCE
:1008700084F03DEF84F03FEF84F0B1EF81F05F0E44
:10088000A525056E000EA621066ECBECB3F0000187
:1008900020EE27F0A551D926A651DA2205C0DEFFA9
:1008A00006C0DEFF07C0DEFF08C0DEFF20EE17F047
:1008B000A551D926A651DA22DECF65F0DECF66F04B
:1008C000DECF67F0DECF68F0020ED890653766376E
:1008D00067376837E82E65EF84F065C083F066C03F
:1008E00084F067C085F068C086F016EF85F020EED2
:1008F00007F0A551D926A651DA22DE50DE10D8A481
:1009000084EF84F086EF84F088EF84F0B1EF81F01B
:1009100020EE23F0A551D926A651DA22DECF65F0CC
:10092000DECF66F0DECF67F0DECF68F09A51652546
:10093000696F9B5166216A6F9C5167216B6F9D5156
:1009400068216C6F20EE27F0A551D926A651DA2236
:1009500069C0DEFF6AC0DEFF6BC0DEFF6CC0DEFF79
:10096000020EA419D8B4B7EF84F0B9EF84F0FFEF0A
:1009700084F020EE17F0A551D926A651DA22DECF59
:1009800065F0DECF66F0DECF67F0DECF68F0010EF7
:100990006515696F000E66156A6F000E67156B6F3F
:1009A000000E68156C6F20EE17F0A551D926A651E0
:1009B000DA22DECF05F0DECF06F0DECF07F0DECFA5
:1009C00008F0030E096E000E0A6E000E0B6E000E8C
:1009D0000C6E1AECBCF0D8900832073206320532A1
:1009E000000169510524836F6A510620846F6B51A1
:1009F0000720856F6C510820866F16EF85F020EE7A
:100A000017F0A551D926A651DA22DECF65F0DECF48
:100A100066F0DECF67F0DECF68F0D8906535836F83
:100A20006635846F6735856F6835866FFF0E832561
:100A3000656F010E8421666F000E8521676F000EC1
:100A40008621686F0A0E2AEF85F0D89068336733E5
:100A500066336533E82E25EF85F020EE1BF0A551B7
:100A6000D926A651DA226551DE5C6651DE586751FF
:100A7000DE586851DE58D8B040EF85F042EF85F07F
:100A800044EF85F0B1EF81F020EE0FF0A551D926AB
:100A9000A651DA22FF0EDE6EFF0EDE6EFF0EDE6E58
:100AA000FF0EDD6EDD52DD5210EE0BF0A551E1269A
:100AB000A651E222DECFE6FFDECFE6FFDECFE6FF85
:100AC000DECFE6FF20EE04F0A551D926A651DA22AA
:100AD000800EDF6E030EA419D8A471EF85F073EFBA
:100AE00085F021EF86F0630EA525056E000EA62188
:100AF000066EC7ECBEF005040610D8A482EF85F0A0
:100B000084EF85F021EF86F0A5C041F0A6C042F049
:100B1000010E00019E25436E000E9F21446E000EC3
:100B2000A021456E000EA121466E69ECB3F00009CC
:100B3000D8A49DEF85F09FEF85F021EF86F00001AE
:100B400020EE04F0A551D926A651DA22000EDF6E60
:100B5000310EA525056E020EA621066EC7ECBEF06D
:100B6000550E051807E1AA0E0618D8A4BAEF85F0AD
:100B7000BCEF85F021EF86F0330E0001A525056E50
:100B8000000EA621066ECBECB3F0520E05180DE157
:100B9000520E06180AE1610E071807E1410E081807
:100BA000D8A4D5EF85F0D7EF85F021EF86F0170EAA
:100BB0000001A525056E020EA621066ECBECB3F052
:100BC000720E05180DE1720E06180AE1410E0718A3
:100BD00007E1610E0818D8A4F0EF85F0F2EF85F078
:100BE00021EF86F01B0E0001A525056E020EA62141
:100BF000066ECBECB3F0000120EE0FF0A551D92624
:100C0000A651DA2205C0DEFF06C0DEFF07C0DEFF08
:100C100008C0DEFF1F0EA525056E020EA621066E7A
:100C2000CBECB3F0000120EE0BF0A551D926A65174
:100C3000DA2205C0DEFF06C0DEFF07C0DEFF08C007
:100C4000DEFFA5C0D9FFA6C0DAFFA4C0DFFF020106
:100C5000484B492B000120EE05F0A551D926A6519D
:100C6000DA2248C2DEFF49C2DDFF20EE13F0A551B3
:100C7000D926A651DA22DE6ADE6ADE6ADD6A6FEF05
:100C800080F0120077C0D9FF78C0DAFFDECF8EF097
:100C9000DDCF8FF0000179517A117B117C11D8A43E
:100CA00054EF86F056EF86F08EEF86F020EE0BF0D4
:100CB0008E51D9268F51DA22DECF86F0DECF87F033
:100CC000DECF88F0DECF89F0865187118811891137
:100CD000D8B46DEF86F06FEF86F084EF86F020EEEB
:100CE00017F08E51D9268F51DA22DE50865DDE5004
:100CF0008759DE508859DE508959D8A082EF86F096
:100D000084EF86F0F3EF86F0010E866F000E876F9A
:100D1000000E886F000E896FF3EF86F077C04CF0FD
:100D200078C04DF079C04EF07AC04FF07BC050F0E3
:100D30007CC051F0EBEC8DF04CC090F04DC091F0C8
:100D40004EC092F04FC093F0000193519211911157
:100D500007E1020E905DD8B0B0EF86F0B2EF86F0FA
:100D6000BCEF86F0010E776F000E786F000E796F82
:100D7000000E7A6F19EF89F090290AE1912908E1B4
:100D8000922906E19329D8A4C8EF86F0CAEF86F02D
:100D9000D4EF86F090C077F091C078F092C079F0EF
:100DA00093C07AF019EF89F020EE17F08E51D92612
:100DB0008F51DA22DE50905DDE509159DE5092590B
:100DC000DE509359D8B0E7EF86F0E9EF86F0EBEF0D
:100DD00086F0CAEF86F079C086F07AC087F07BC0D3
:100DE00088F07CC089F020EE0FF08E51D9268F510B
:100DF000DA22DE50DE10DE10DE10D8A402EF87F01B
:100E000004EF87F00EEF87F0000E776F000E786F1B
:100E1000000E796F000E7A6F19EF89F0000E8A6F5D
:100E2000000E8B6F000E8C6F000E8D6F795186193E
:100E30000DE17A5187190AE17B51881907E17C514C
:100E40008919D8A426EF87F028EF87F0CEEF87F036
:100E5000010E86258A6F000E87218B6F000E882178
:100E60008C6F000E89218D6F20EE17F08E51D926E0
:100E70008F51DA22DE508A5DDE508B59DE508C595C
:100E8000DE508D59D8A047EF87F049EF87F051EF3A
:100E900087F0020E8A6F000E8B6F000E8C6F000EB3
:100EA0008D6F77C04CF078C04DF08AC04EF08BC08B
:100EB0004FF08CC050F08DC051F0EBEC8DF04CC079
:100EC00090F04DC091F04EC092F04FC093F00001F1
:100ED0009005911192119311D8B471EF87F073EFCF
:100EE00087F0CAEF86F090290AE1912908E192295A
:100EF00006E19329D8A47FEF87F081EF87F083EF95
:100F000087F0CAEF86F09051911192119311D8B4E5
:100F10008CEF87F08EEF87F0CEEF87F020EE0BF0AE
:100F20008E51D9268F51DA22DECF90F0DECF91F0AC
:100F3000DECF92F0DECF93F093519211911109E13F
:100F4000020E905DD8A0A7EF87F0A9EF87F0C6EF5B
:100F500087F020EE17F08E51D9268F51DA22DE501D
:100F6000905DDE509159DE509259DE509359D8B0C1
:100F7000BCEF87F0BEEF87F0C6EF87F090C086F039
:100F800091C087F092C088F093C089F0000E8A6FFC
:100F9000000E8B6F000E8C6F000E8D6F8A518B11BF
:100FA0008C118D11D8A4D7EF87F0D9EF87F066EFB9
:100FB00088F086C08AF087C08BF088C08CF089C02A
:100FC0008DF0010E8A27000E8B238C238D2320EEBB
:100FD00017F08E51D9268F51DA22DE508A5DDE500D
:100FE0008B59DE508C59DE508D59D8A0FAEF87F01E
:100FF000FCEF87F013EF88F0020E8A6F000E8B6F04
:10100000000E8C6F000E8D6F89518811871107E1DA
:10101000020E865DD8B00FEF88F011EF88F013EF65
:1010200088F004EF87F077C04CF078C04DF08AC0AC
:101030004EF08BC04FF08CC050F08DC051F0EBECF7
:101040008DF04CC090F04DC091F04EC092F04FC06A
:1010500093F000019051911192119311D8A433EFA4
:1010600088F035EF88F037EF88F066EF88F090056C
:10107000911192119311D8B440EF88F042EF88F0AB
:10108000CAEF86F090290AE1912908E1922906E148
:101090009329D8A44EEF88F050EF88F052EF88F0F3
:1010A000CAEF86F086518A190DE187518B190AE142
:1010B00088518C1907E189518D19D8A462EF88F005
:1010C00064EF88F0E1EF87F004EF87F08EC04CF01A
:1010D0008FC04DF08AC04EF08BC04FF08CC050F0E6
:1010E0008DC051F0FF0E526EFF0E536EFF0E546E08
:1010F000FF0E556E1AEC89F00001856F8551D8A45A
:1011000084EF88F086EF88F0A9EF88F079517A11A2
:101110007B117C11D8B48FEF88F091EF88F0A9EFA4
:1011200088F08EC04CF08FC04DF079C04EF07AC080
:101130004FF07BC050F07CC051F08AC052F08BC0A1
:1011400053F08CC054F08DC055F01AEC89F00001BA
:10115000856F8551D8A4AFEF88F0B1EF88F0FBEF31
:1011600088F020EE0BF08E51D9268F51DA228AC0FA
:10117000DEFF8BC0DEFF8CC0DEFF8DC0DEFF20EE09
:101180000FF08E51D9268F51DA2210EE17F08E51C2
:10119000E1268F51E222FE0EE624816FFF0EE6204B
:1011A000826FFF0EE620836FFF0EE620846FDE5015
:1011B000815DDE508259DE508359DE508459D8A0BB
:1011C000E4EF88F0E6EF88F0F1EF88F020EE0FF022
:1011D0008E51D9268F51DA22DE06000EDE5ADE5AF3
:1011E000DE5A20EE04F08E51D9268F51DA22000EFD
:1011F000DB8011EF89F08505D8B401EF89F003EFAA
:1012000089F00DEF89F0010E8A6F000E8B6F000ED2
:101210008C6F000E8D6F11EF89F08A698B698C6974
:101220008D698AC077F08BC078F08CC079F08DC062
:101230007AF01200020E0001766F515050104F10DC
:1012400009E1020E4E5CD8A028EF89F02AEF89F060
:10125000B2EF8BF020EE17F04C50D9264D50DA2229
:10126000DE504E5CDE504F58DE505058DE50515824
:10127000D8B03DEF89F03FEF89F0B2EF8BF095EFFA
:101280008BF04EC074F04FC075F0D8907531616F1F
:101290007431606F60517427615175234CC041F007
:1012A0004DC042F020EE23F04C50D9264D50DA22AA
:1012B000DECF60F0DECF61F0DECF62F0DECF63F034
:1012C00074C064F075C065F0090E666FD890653320
:1012D0006433662F66EF89F064516025436E655173
:1012E0006121446E000E6221456E000E6321466E40
:1012F00069ECB3F00001766F7651D8B482EF89F0D3
:1013000084EF89F086EF89F0B2EF8BF0FF0E606F0B
:10131000010E616F74C062F075C063F060516217B6
:10132000615163174CC064F04DC065F06251642791
:1013300063516523330E6425726F000E6521736F50
:10134000744B752B4EB0A7EF89F0A9EF89F0AEEF83
:1013500089F052C06EF06F6BC8EF89F05250606F29
:10136000616B603B613BF00E611760510F0B6113C5
:10137000F00E601772C0D9FF73C0DAFFDF500F0B99
:10138000626F636B605162116E6F615163116F6FB9
:1013900072C0D9FF73C0DAFF6EC0DFFF20EE03F02A
:1013A0004C50D9264D50DA22010EDF6E4CC041F070
:1013B0004DC042F020EE23F04C50D9264D50DA2299
:1013C000DECF60F0DECF61F0DECF62F0DECF63F023
:1013D00074C064F075C065F0090E666FD89065330F
:1013E0006433662FEEEF89F064516025436E6551DA
:1013F0006121446E000E6221456E000E6321466E2F
:1014000069ECB3F00001766F7651D8B40AEF8AF038
:101410000CEF8AF00EEF8AF0B2EF8BF0FF0E606FE8
:10142000010E616F74C062F075C063F060516217A5
:10143000615163174CC064F04DC065F06251642780
:1014400063516523330E6425726F000E6521736F3F
:101450004EB02DEF8AF02FEF8AF04DEF8AF052C098
:1014600060F053C061F054C062F055C063F061C0D9
:1014700060F062C061F063C062F0636B0F0E6017D2
:1014800072C0D9FF73C0DAFFDF50F00B6011646FD8
:101490006451706F716B63EF8AF052C060F053C09B
:1014A00061F054C062F055C063F0050E5DEF8AF044
:1014B000D8906333623361336033E82E58EF8AF09B
:1014C0006051706F716B72C0D9FF73C0DAFF70C06A
:1014D000DFFF20EE03F04C50D9264D50DA22010EEA
:1014E000DF6EB2EF8BF04CC041F04DC042F020EE09
:1014F00023F04C50D9264D50DA22DECF60F0DECFFB
:1015000061F0DECF62F0DECF63F04EC064F04FC01A
:1015100065F050C066F051C067F065C064F066C009
:1015200065F067C066F0676B60516425436E61517A
:101530006521446E62516621456E63516721466E96
:1015400069ECB3F00001766F7651D8B4AAEF8AF057
:10155000ACEF8AF0AEEF8AF0B2EF8BF0FF0E606F67
:10156000010E616F4EC062F04FC063F0D8906237D9
:10157000633760516217615163174CC064F04DC00E
:1015800065F06251642763516523330E6425056E4F
:10159000000E6521066E52C007F053C008F0C1EC82
:1015A000BFF020EE03F04C50D9264D50DA22010E48
:1015B000DF6EB2EF8BF04CC041F04DC042F020EE38
:1015C00023F04C50D9264D50DA22DECF60F0DECF2A
:1015D00061F0DECF62F0DECF63F04EC064F04FC04A
:1015E00065F050C066F051C067F0080EFDEF8AF05C
:1015F000D8906733663365336433E82EF8EF8AF0AA
:1016000060516425436E61516521446E62516621CB
:10161000456E63516721466E69ECB3F00001766F49
:101620007651D8B416EF8BF018EF8BF01AEF8BF0E1
:10163000B2EF8BF0FF0E606F010E616F4EC062F073
:101640004FC063F0D89062376337D8906237633702
:1016500060516217615163174CC064F04DC065F072
:101660006251642763516523330E6425056E000EB5
:101670006521066ECBECB3F0000E05140001666F19
:10168000000E0614676F000E0714686FF00E081442
:10169000696FFF0E52146A6FFF0E53146B6FFF0ECB
:1016A00054146C6F0F0E55146D6F66516A11526EA3
:1016B00067516B11536E68516C11546E69516D1105
:1016C000556EFF0E606F010E616F4EC062F04FC02D
:1016D00063F0D89062376337D890623763376051D0
:1016E0006217615163174CC064F04DC065F06251E0
:1016F000642763516523330E6425056E000E652152
:10170000066E52C007F053C008F054C009F055C02F
:101710000AF0AFECBBF020EE03F04C50D9264D5050
:10172000DA22010EDF6EB2EF8BF04CC0D9FF4DC054
:10173000DAFFDF50606F616B6151000AD8B4A3EF2C
:101740008BF0B2EF8BF06051010AD8B441EF89F011
:10175000030AD8B473EF8AF0010AD8B4DBEF8AF039
:10176000B2EF8BF00001765112000FC0D9FF10C00C
:10177000DAFFDECF1CF0DDCF1DF01C0E0D24206E35
:10178000000E0E20216E20C005F021C006F0000ED4
:10179000086E200E076E000E0A6E0B0E096E19EC15
:1017A000BFF0000E1F6E000E1E6E1EC022F01FC086
:1017B00023F0000E1B6E080E1A6E22501C24116EB0
:1017C00023501D20126E11C0F6FF12C0F7FF000E4D
:1017D000F86E0800F5502E0AD8A4F1EF8BF0F3EF65
:1017E0008BF06EEF8CF022501C24116E23501D20C4
:1017F000126E11C0F6FF12C0F7FF000EF86E08005F
:10180000F5CF24F0224A232A2E0E2418D8A40BEF59
:101810008CF00DEF8CF026EF8CF0235009E1030ED5
:10182000225CD8A016EF8CF018EF8CF01AEF8CF039
:1018300026EF8CF01E502024D96E1F502120DA6E26
:1018400024C0DFFF1E4A1F2AF3EF8BF02F0E24184F
:10185000D8B42DEF8CF02FEF8CF043EF8CF05C0EB2
:101860002418D8B436EF8CF038EF8CF043EF8CF0BE
:10187000200E24643EEF8CF040EF8CF043EF8CF0B0
:10188000060EEAEF8DF022501C24116E23501D200D
:10189000126E0FC0D9FF10C0DAFF11C0DEFF12C0F8
:1018A000DDFF200E246457EF8CF059EF8CF05FEFD2
:1018B0008CF0000E166E200E156E63EF8CF0000E8D
:1018C000166E240E156E20EE0BF02050D9262150F6
:1018D000DA2215C0DFFF000EEAEF8DF022501C2443
:1018E000116E23501D20126E11C0F6FF12C0F7FFBB
:1018F000000EF86E0800F5CF24F0224A232A210EAC
:10190000246085EF8CF087EF8CF089EF8CF0A2EFEC
:101910008DF02F0E2418D8B490EF8CF092EF8CF04D
:101920009FEF8CF05C0E2418D8A499EF8CF09BEFFD
:101930008CF0CDEF8CF09FEF8CF0224A232A2250BE
:101940001C24116E23501D20126E11C0F6FF12C010
:10195000F7FF000EF86E0800F5502F0AD8B4B3EF69
:101960008CF0B5EF8CF09DEF8CF022501C24116EA2
:1019700023501D20126E11C0F6FF12C0F7FF000E9B
:10198000F86E0800F5505C0AD8B4C9EF8CF0CBEFC4
:101990008CF09DEF8CF0A2EF8DF02E0E2418D8B4B1
:1019A000D4EF8CF0D6EF8CF0E1EF8CF01A501E5C87
:1019B0001B501F58D8A0DFEF8CF0E1EF8CF000EF48
:1019C0008DF00B0E1A181B10D8B4E9EF8CF0EBEF6A
:1019D0008CF040EF8CF02E0E2418D8B4F2EF8CF07F
:1019E000F4EF8CF0F6EF8CF040EF8CF0000E1F6EF1
:1019F000080E1E6E000E1B6E0B0E1A6E6EEF8CF034
:101A00007F0E246406EF8DF008EF8DF018EF8DF057
:101A100024507F0B116E126AA10E1124F66EFE0E79
:101A20001220F76EF86A000EF8220800F5CF24F0B5
:101A3000245030ECC1F005500610D8B422EF8DF0E0
:101A400024EF8DF070EF8DF022501C24116E235086
:101A50001D20126E11C0F6FF12C0F7FF000EF86EC7
:101A60000800F5CF19F0224A232A19502BECC1F0B7
:101A700005500610D8B43FEF8DF041EF8DF040EFE8
:101A80008CF0FF0E116EFF0E126E1AC013F01BC009
:101A900014F0115013261250142213501E5C1450CF
:101AA0001F58D8A056EF8DF058EF8DF05AEF8DF0FB
:101AB00040EF8CF01E502024D96E1F502120DA6E8A
:101AC00024C0DFFF1E4A1F2A1E502024D96E1F503B
:101AD0002120DA6E19C0DFFF1E4A1F2A6EEF8CF03C
:101AE000B70E056EFF0E066E24C007F0086AE5EC1F
:101AF000BBF005500610D8B480EF8DF082EF8DF06A
:101B000084EF8DF040EF8CF0600E24648AEF8DF04E
:101B10008CEF8DF096EF8DF07B0E246092EF8DF0C0
:101B200094EF8DF096EF8DF0200E245E1E50202451
:101B3000D96E1F502120DA6E24C0DFFF1E4A1F2AF3
:101B40006EEF8CF022501C24116E23501D20126E5B
:101B50000FC0D9FF10C0DAFF11C0DEFF12C0DDFFD9
:101B60001E501F10D8A4B7EF8DF0B9EF8DF0BBEF6A
:101B70008DF040EF8CF020C0D9FF21C0DAFFE50ED8
:101B8000DE18D8A4C6EF8DF0C8EF8DF0CEEF8DF043
:101B900020C0D9FF21C0DAFF050EDF6E200E2464BD
:101BA000D4EF8DF0D6EF8DF0DCEF8DF0000E186ED7
:101BB000000E176EE0EF8DF0000E186E040E176E1B
:101BC00020EE0BF02050D9262150DA2217C0DFFF7B
:101BD0006BEF8CF012004CC0D9FF4DC0DAFFDECFA6
:101BE00073F0DDCF74F0515050104F1009E1020E28
:101BF0004E5CD8A0FEEF8DF000EF8EF016EF8EF069
:101C0000000120EE17F07351D9267451DA22DE500C
:101C10004E5CDE504F58DE505058DE505158D8A020
:101C200014EF8EF016EF8EF021EF8EF0010E000112
:101C30006D6F000E6E6F000E6F6F000E706FFBEF1A
:101C40008FF06D696E696F697069DEEF8FF04EC05D
:101C500071F04FC072F0D8907231616F7131606F66
:101C6000605171276151722373C041F074C042F01A
:101C700020EE23F07351D9267451DA22DECF60F0C2
:101C8000DECF61F0DECF62F0DECF63F071C064F0D2
:101C900072C065F0090E666FD89065336433662FA5
:101CA0004CEF8EF064516025436E65516121446EA6
:101CB000000E6221456E000E6321466E69ECB3F0A2
:101CC0000009D8B466EF8EF068EF8EF06AEF8EF000
:101CD000FBEF8FF0FF0E0001606F010E616F71C0AE
:101CE00062F072C063F0605162176151631773C094
:101CF00064F074C065F06251642763516523330E4C
:101D00006425D96E000E6521DA6EDF50666F66516C
:101D10006B6F6C6B714B722B73C041F074C042F0EF
:101D200020EE23F07351D9267451DA22DECF60F011
:101D3000DECF61F0DECF62F0DECF63F071C064F021
:101D400072C065F0090E666FD89065336433662FF4
:101D5000A4EF8EF064516025436E65516121446E9D
:101D6000000E6221456E000E6321466E69ECB3F0F1
:101D70000009D8B4BEEF8EF0C0EF8EF0C2EF8EF047
:101D8000FBEF8FF0FF0E0001606F010E616F71C0FD
:101D900062F072C063F0605162176151631773C0E3
:101DA00064F074C065F06251642763516523330E9B
:101DB0006425D96E000E6521DA6EDF50666F6651BC
:101DC000686F676B67516B1368516C134EB0EBEF24
:101DD0008EF0EDEF8EF0F5EF8EF0FF0E6B15696F64
:101DE0000F0E6C156A6F05EF8FF06BC060F06CC062
:101DF00061F0040E626FD89061336033622FFBEFA5
:101E00008EF060C069F061C06AF069C06DF06AC0B0
:101E10006EF06F6B706BFBEF8FF073C041F074C0AE
:101E200042F020EE23F07351D9267451DA22DECF2E
:101E300060F0DECF61F0DECF62F0DECF63F04EC047
:101E400064F04FC065F050C066F051C067F065C0E7
:101E500064F066C065F067C066F0676B605164252A
:101E6000436E61516521446E62516621456E635136
:101E70006721466E69ECB3F00009D8B442EF8FF0E9
:101E800044EF8FF046EF8FF0FBEF8FF0FF0E000175
:101E9000606F010E616F4EC062F04FC063F0D8906A
:101EA00062376337605162176151631773C064F022
:101EB00074C065F06251642763516523330E642555
:101EC000056E000E6521066EC7ECBEF005C06DF014
:101ED00006C06EF000016F6B706BFBEF8FF073C08C
:101EE00041F074C042F020EE23F07351D9267451B2
:101EF000DA22DECF60F0DECF61F0DECF62F0DECF3F
:101F000063F04EC064F04FC065F050C066F051C041
:101F100067F0080E91EF8FF0D89067336633653322
:101F20006433E82E8CEF8FF060516425436E61516D
:101F30006521446E62516621456E63516721466E8C
:101F400069ECB3F00009D8B4A8EF8FF0AAEF8FF0D6
:101F5000ACEF8FF0FBEF8FF0FF0E0001606F010E12
:101F6000616F4EC062F04FC063F0D8906237633744
:101F7000D89062376337605162176151631773C03D
:101F800064F074C065F06251642763516523330EB9
:101F90006425056E000E6521066ECBECB3F0FF0ED6
:101FA000051400016D6FFF0E06146E6FFF0E07140F
:101FB0006F6F0F0E0814706FFBEF8FF073C0D9FFB7
:101FC00074C0DAFFDF50606F616B6151000AD8B4F2
:101FD000ECEF8FF016EF8EF06051010AD8B427EFC6
:101FE0008EF0030AD8B40DEF8FF0010AD8B46FEF6A
:101FF0008FF016EF8EF06DC04CF06EC04DF06FC0DC
:102000004EF070C04FF0120094C0D9FF95C0DAFFB7
:10201000DECFA8F0DDCFA9F0000120EE0EF0945144
:10202000D9269551DA22DECF98F0DECF99F0DECFB7
:102030009AF0DECF9BF0200E9825A46F000E992118
:10204000A56F000E9A21A66F000E9B21A76F20EEB0
:1020500016F09451D9269551DA22DE50DE10DE10AA
:10206000DE10D8B436EF90F038EF90F043EF90F0F8
:10207000A75109E1200EA65DD8A041EF90F043EFF3
:1020800090F046EF90F0040E18EF92F0FF0EA415BA
:10209000986F010EA515996F000EA6159A6F000E88
:1020A000A7159B6F985199119A119B11D8A45BEFBA
:1020B00090F05DEF90F0E7EF91F020EE16F0945184
:1020C000D9269551DA22DE2A000EDE22DE22DE2219
:1020D00020EE12F09451D9269551DA22DE50DE100E
:1020E000DE10DE10D8A477EF90F079EF90F0B7EF24
:1020F00090F020EE07F0A851D926A951DA22DECFC0
:1021000098F0DDCF99F098519A6F99519B6F9C6B25
:102110009D6BA4C09EF0A5C09FF0A6C0A0F0A7C074
:10212000A1F0060E99EF90F0D890A133A0339F3321
:102130009E33E82E94EF90F09A519E5D9B519F59EB
:102140009C51A0599D51A159D8A0A9EF90F0ABEF97
:1021500090F0E7EF91F020EE16F09451D9269551CA
:10216000DA22DE6ADE6ADE6ADD6A43EF90F0FF0E95
:10217000986FFF0E996F20EE09F0A851D926A9514A
:10218000DA22DECF9AF0DDCF9BF098519A27995151
:102190009B23A4C09CF0A5C09DF0A6C09EF0A7C044
:1021A0009FF00A0ED9EF90F0D8909F339E339D3365
:1021B0009C33E82ED4EF90F09A519C15A06F9B5160
:1021C0009D15A16F000E9E15A26F000E9F15A36FA7
:1021D000A051A111A211A311D8A4F1EF90F0F3EF37
:1021E00090F0E7EF91F094C04CF095C04DF020EEE8
:1021F00012F09451D9269551DA22DECF4EF0DECF7F
:102200004FF0DECF50F0DECF51F0EBEC8DF04CC054
:10221000AAF04DC0ABF04EC0ACF04FC0ADF0000125
:10222000AD51AC11AB1107E1020EAA5DD8B01BEFA6
:1022300091F01DEF91F020EF91F0020E18EF92F067
:10224000AA290AE1AB2908E1AC2906E1AD29D8A405
:102250002CEF91F02EEF91F031EF91F0010E18EF8D
:1022600092F020EE17F0A851D926A951DA22DE50BB
:10227000AA5DDE50AB59DE50AC59DE50AD59D8A046
:1022800044EF91F046EF91F0BBEF91F0965197112A
:10229000D8A44DEF91F04FEF91F05BEF91F020EE6D
:1022A00016F09451D9269551DA22DE6ADE6ADE6A8A
:1022B000DD6A43EF90F094C077F095C078F020EE9F
:1022C00012F09451D9269551DA22DECF79F0DECF83
:1022D0007AF0DECF7BF0DECF7CF042EC86F077C088
:1022E000AAF078C0ABF079C0ACF07AC0ADF00001D4
:1022F000AA51AB11AC11AD11D8A481EF91F083EFCD
:1023000091F086EF91F0070E18EF92F0AA05AB114D
:10231000AC11AD11D8A48FEF91F091EF91F093EF44
:1023200091F01DEF91F0AA290AE1AB2908E1AC294F
:1023300006E1AD29D8A49FEF91F0A1EF91F0A3EFB2
:1023400091F02EEF91F0A8C041F0A9C042F0AAC0D0
:1023500043F0ABC044F0ACC045F0ADC046F0E9EC92
:10236000ABF00009D8B4B7EF91F0B9EF91F0BBEF43
:1023700091F02EEF91F0000120EE12F09451D92649
:102380009551DA22AAC0DEFFABC0DEFFACC0DEFF93
:10239000ADC0DEFFA8C011F0A9C012F0AAC013F0B2
:1023A000ABC014F0ACC015F0ADC016F075ECB1F0D8
:1023B000000120EE16F09451D9269551DA2211C071
:1023C000DEFF12C0DEFF13C0DEFF14C0DEFF20EE12
:1023D0000EF09451D9269551DA22A4C0DEFFA5C093
:1023E000DEFFA6C0DEFFA7C0DEFFFF0E986F010E66
:1023F000996FA4C09AF0A5C09BF098519A17995173
:102400009B17A8C09CF0A9C09DF09A519C279B5196
:102410009D23330E9C27000E9D2320EE1AF094512D
:10242000D9269551DA229CC0DEFF9DC0DDFF000E4B
:10243000120042C0D9FF43C0DAFFDECFF6FFDDCF86
:10244000F7FF000EF86E0800F550250AD8A42BEF10
:1024500092F02DEF92F007EF94F042C0D9FF43C005
:10246000DAFFDE2A000EDD22000E0201396F000EB7
:10247000386F38C23CF239C23DF23A693B6942C01A
:10248000D9FF43C0DAFFDECFF6FFDDCFF7FF000E46
:10249000F86E0800F5502A0AD8A451EF92F053EFD5
:1024A00092F07CEF92F042C0D9FF43C0DAFFDE2AFF
:1024B000000EDD2244C0D9FF45C0DAFFDFCF46F071
:1024C000020EDE26DFCF47F0000EDD2246C0D9FF28
:1024D00047C0DAFFDECF38F2DDCF39F239BF75EF12
:1024E00092F073EF92F0B4EF92F03C81386D391FA7
:1024F000D8B0392BB4EF92F042C0D9FF43C0DAFF15
:10250000DECF0CF0DDCF0DF0D8ECA7F00CC038F228
:102510000DC039F293EF92F042C0D9FF43C0DAFF09
:10252000DE2A000EDD22D00E466EFF0E476E42C040
:10253000D9FF43C0DAFFDECFF6FFDDCFF7FF000E95
:10254000F86E0800F550486E496A465048264750D4
:102550004922495009E10A0E485CD8A0B2EF92F036
:10256000B4EF92F08CEF92F042C0D9FF43C0DAFF93
:10257000DECFF6FFDDCFF7FF000EF86E0800F55056
:10258000730AD8B4C6EF92F0C8EF92F0E3EF92F07E
:1025900042C0D9FF43C0DAFFDECF05F0DDCF06F041
:1025A000F10E076EFF0E086E000E0A6E030E096E26
:1025B000C3ECAEF005500610D8A4E1EF92F0E3EFC3
:1025C00092F02FEF93F042C0D9FF43C0DAFFDECF85
:1025D000F6FFDDCFF7FF000EF86E0800F550730A26
:1025E000D8B4F5EF92F0F7EF92F0FEEF92F0000E14
:1025F0000001636F030E626F03EF93F0000E0001A2
:10260000636F010E626F42C0D9FF43C0DAFF6251AF
:10261000DE266351DD2244C0D9FF45C0DAFFDFCF9B
:1026200046F0020EDE26DFCF47F0000EDD2246C068
:10263000D9FF47C0DAFFDECF60F0DDCF61F040C0E8
:102640000EF041C00FF060C010F061C011F021EC3D
:10265000A4F00EC040F00FC041F024EF94F042C04F
:10266000D9FF43C0DAFFDECFF6FFDDCFF7FF000E64
:10267000F86E0800F550750AD8A441EF93F043EFC7
:1026800093F085EF93F042C0D9FF43C0DAFFDE2A12
:10269000000EDD2244C0D9FF45C0DAFFDFCF46F08F
:1026A000020EDE26DFCF47F0000EDD2246C0D9FF46
:1026B00047C0DAFFDECF48F0DDCF49F048C064F014
:1026C00049C065F00001666B676B686B696B6A6B8C
:1026D0006B6B40C020F041C021F064C022F065C0A7
:1026E00023F066C024F067C025F068C026F069C0FA
:1026F00027F06AC028F06BC029F0B2EC9FF020C030
:1027000040F021C041F024EF94F042C0D9FF43C013
:10271000DAFFDECF05F0DDCF06F0F90E076EFF0E13
:10272000086E000E0A6E020E096EC3ECAEF0055084
:102730000610D8A49EEF93F0A0EF93F0CFEF93F0A4
:10274000020E42C0D9FF43C0DAFFDE26000EDD22B2
:1027500044C0D9FF45C0DAFFDFCF46F0040EDE26C5
:10276000DFCF47F0000EDD2246C0D9FF47C0DAFFB9
:10277000DECF48F0DECF49F0DECF4AF0DECF4BF0BF
:1027800048500001646F4950656F4A50666F4B5066
:10279000676F686B696B6A6B6B6B69EF93F042C034
:1027A000D9FF43C0DAFFDECFF6FFDDCFF7FF000E23
:1027B000F86E0800F550250AD8A4E1EF93F0E3EF96
:1027C00093F0FAEF93F042C0D9FF43C0DAFFDE2A5C
:1027D000000EDD22000E066E250E056E40C007F0CD
:1027E00041C008F0DBECB1F0000E416E010E406E0E
:1027F00024EF94F042C0D9FF43C0DAFFDE2A000E76
:10280000DD22000E416E000E406E24EF94F042C0B7
:10281000D9FF43C0DAFFDECFF6FFDDCFF7FF000EB2
:10282000F86E0800F550056E066A40C007F041C01A
:1028300008F0DBECB1F042C0D9FF43C0DAFFDE2A7A
:10284000000EDD22F4EF93F01200E8ECC0F0000976
:10285000D8B42DEF94F02FEF94F003EF96F0220E02
:102860000001A76F070EA86FFC0EA96FFF0EAA6FDD
:10287000010EAB6FA1ECB0F00009D8A442EF94F0C8
:1028800044EF94F003EF96F021EE00F0FF0EDE6AC5
:10289000E806FDE222EEB0F0210EDE6AE806FDE277
:1028A000000E0001FF6F000EFE6F530EC46F020E8C
:1028B000C56FD30EC66FFF0EC76FA6ECA5F0530E03
:1028C0000001BB6F020EBC6F980EBD6F020EBE6F93
:1028D0002FECB0F00201A151D8A471EF94F073EF86
:1028E00094F075EF94F085EF94F0985199119A1146
:1028F0009B11D8A47EEF94F080EF94F082EF94F0D7
:1029000085EF94F00001FE4BFF2B0201A151D8A4EA
:102910008CEF94F08EEF94F05FEF94F0530E000183
:10292000BB6F020EBC6F000EBD6F000EBE6F2FECB2
:10293000B0F0060E0001FE25196E000EFF211A6E82
:10294000FCECBFF0D30E096EFF0E0A6E000E0C6E8B
:10295000010E0B6EB7ECADF0D30E0001BB6FFF0E96
:10296000BC6FB00EBD6F020EBE6F000EBF6F000ECB
:10297000C06F5EEC9DF0000E0001726F010E736F70
:10298000C60E746FFF0E756FB00E766F020E776F06
:102990000CECBDF0000E096E010E0A6E000E056E05
:1029A000010E066EE3ECBEF0010E05240B6E000E68
:1029B00006200C6EB7ECADF0D30E096EFF0E0A6E5A
:1029C000000E0C6E010E0B6EB7ECADF0530E000155
:1029D000BB6F020EBC6F980EBD6F020EBE6F2FEC68
:1029E000B0F00201A151D8A4F8EF94F0FAEF94F0FE
:1029F000FCEF94F040EF95F0985199119A119B11CA
:102A0000D8A405EF95F007EF95F009EF95F040EFAA
:102A100095F0000E056E010E066E000E086E000E9B
:102A2000076E010E0A6E000E096E67ECA6F0000E2E
:102A30000001726F010E736FA60E746FFF0E756F3B
:102A4000A10E766F020E776F98C278F099C279F076
:102A50009AC27AF09BC27BF00CECBDF0000E096EBE
:102A6000010E0A6E000E056E010E066EE3ECBEF05E
:102A7000010E05240B6E000E06200C6EB7ECADF0B7
:102A80000201A151D8A447EF95F049EF95F0E6EF88
:102A900094F0D30E096EFF0E0A6E000E0C6E010E3E
:102AA0000B6EB7ECADF0000E056E010E066E000E5B
:102AB000086E000E076E010E0A6E000E096E67ECBE
:102AC000A6F0D30E0001A76FFF0EA86FD20EA96F5C
:102AD000020EAA6FAE0EAB6F020EAC6FD7EC97F082
:102AE000020120EE17F0AE51D926AF51DA22FE0EC8
:102AF000DE24056EFF0EDE20066EFF0EDE20076E62
:102B0000FF0EDE20086E20EE09F0AE51D926AF513F
:102B1000DA22DECFF6F0DDCFF7F0F6C009F0F7C02D
:102B20000AF00B6A0C6A1AECBCF0020120EE09F004
:102B3000AE51D926AF51DA22DECFF6F0DDCFF7F075
:102B4000F6C005F0F7C006F0076A086AD2C209F0BD
:102B5000D3C20AF0D4C20BF0D5C20CF01AECBCF010
:102B600005C0FAF006C0FBF007C0FCF008C0FDF09D
:102B7000000E0001726F010E736FD40E746FFF0EA2
:102B8000756FFAC0F6F0FBC0F7F0FCC0F8F0FDC0BE
:102B9000F9F0D890F933F833F733F633F6C076F01E
:102BA000F7C077F0F8C078F0F9C079F00CECBDF020
:102BB000000E096E010E0A6E000E056E010E066E05
:102BC000E3ECBEF0010E05240B6E000E06200C6E29
:102BD000B7ECADF0D30E096EFF0E0A6E000E0C6E50
:102BE000010E0B6EB7ECADF0000E0001A76F000EEA
:102BF000A86FFC0EA96FFF0EAA6F000EAB6FA1ECC1
:102C0000B0F009EF96F0000E1A6E000E196EFCEC93
:102C1000BFF0120075C0D9FF76C0DAFFDECF8DF0AD
:102C2000DDCF8EF000017A5107E1200E795DD8B03A
:102C30001CEF96F01EEF96F035EF96F01F0E77150D
:102C40007B6F000E78157C6F000E79157D6F000E7E
:102C50007A157E6F7B517C117D117E11D8B433EFD4
:102C600096F035EF96F038EF96F0020ED6EF97F02B
:102C700020EE0EF07551D9267651DA2277C0DEFFAC
:102C800078C0DEFF79C0DEFF7AC0DEFF20EE06F0FE
:102C90007551D9267651DA22DECF89F0DECF8AF05F
:102CA000DECF8BF0DECF8CF089518A118B118C1125
:102CB000D8A45DEF96F05FEF96F079EF96F08DC0B7
:102CC000D9FF8EC0DAFF020EDF6469EF96F06BEF7A
:102CD00096F079EF96F020EE27F08D51D9268E519F
:102CE000DA22DECF89F0DECF8AF0DECF8BF0DECFC6
:102CF0008CF089518A118B118C11D8A482EF96F037
:102D000084EF96F0CEEF96F020EE07F08D51D926A5
:102D10008E51DA22DECF7BF0DDCF7CF07B517D6FF0
:102D20007C517E6F7F6B806B77C081F078C082F0C2
:102D300079C083F07AC084F0060EA4EF96F0D890A4
:102D40008433833382338133E82E9FEF96F07D51B5
:102D5000815D7E5182597F51835980518459D8A019
:102D6000B4EF96F0B6EF96F0B8EF96F035EF96F038
:102D700020EE27F08D51D9268E51DA2210EE16F072
:102D80007551E1267651E222DECFE6FFDECFE6FF87
:102D9000DECFE6FFDECFE6FF71EF97F020EE09F021
:102DA0008D51D9268E51DA22DECF7BF0DDCF7CF03B
:102DB0007B517D6F7C517E6F7F6B806B090ED8904D
:102DC0007D377E377F378037E82EDFEF96F07DC086
:102DD00085F07EC086F07FC087F080C088F045EF28
:102DE00097F075C04CF076C04DF089C04EF08AC0A7
:102DF0004FF08BC050F08CC051F0EBEC8DF04CC01C
:102E000089F04DC08AF04EC08BF04FC08CF00001AD
:102E100089290AE18A2908E18B2906E18C29D8A4AD
:102E200014EF97F016EF97F019EF97F0010ED6EF29
:102E300097F08C518B118A1109E1020E895DD8A09F
:102E400024EF97F026EF97F035EF96F020EE17F08D
:102E50008D51D9268E51DA22DE50895DDE508A5995
:102E6000DE508B59DE508C59D8A039EF97F03BEFEC
:102E700097F03DEF97F035EF96F08551775F8651EB
:102E8000785B8751795B88517A5B8551775D865194
:102E900078598751795988517A59D8B052EF97F0BB
:102EA00054EF97F0F1EF96F08DC011F08EC012F054
:102EB00089C013F08AC014F08BC015F08CC016F0D6
:102EC00075ECB1F0000120EE16F07551D92676515F
:102ED000DA2211C0DEFF12C0DEFF13C0DEFF14C015
:102EE000DEFF20EE12F07551D9267651DA2289C024
:102EF000DEFF8AC0DEFF8BC0DEFF8CC0DEFF20EE6F
:102F000016F07551D9267651DA22DE50DE10DE1029
:102F1000DE10D8A48EEF97F090EF97F092EF97F035
:102F200035EF96F077C07BF078C07CF079C07DF00B
:102F30007AC07EF00A0EA2EF97F0D8907E337D33F0
:102F40007C337B33E82E9DEF97F020EE16F0755121
:102F5000D9267651DA227B51DE267C51DE227D5144
:102F6000DE227E51DE22FF0E7B6F010E7C6F77C06A
:102F70007DF078C07EF07B517D177C517E178DC02F
:102F80007FF08EC080F07D517F277E518023330EED
:102F90007F27000E802320EE1AF07551D926765136
:102FA000DA227FC0DEFF80C0DDFF000E1200A70E18
:102FB0000001606F000E616FD60E626F000E636FCE
:102FC000000E646F00EC80F00001D36FD351D8A4E1
:102FD000ECEF97F0EEEF97F094EF99F0ABC0D9FFDC
:102FE000ACC0DAFFD6C0DEFFD7C0DDFF20EE0FF0A9
:102FF000D651D926D751DA2210EE17F0D651E12654
:10300000D751E222FE0EE624B16FFF0EE620B26F2A
:10301000FF0EE620B36FFF0EE620B46FDE50B15D09
:10302000DE50B259DE50B359DE50B459D8A01BEF70
:1030300098F01DEF98F031EF98F020EE0FF0D65198
:10304000D926D751DA22A9C0E1FFAAC0E2FFDECF1C
:10305000E6FFDECFE6FFDECFE6FFDECFE6FF94EF52
:1030600099F0000EC76F000EC86F000EC96F000EFA
:10307000CA6FD6C0D9FFD7C0DAFFDE04D8A443EFA9
:1030800098F045EF98F0B3EF98F0020ECF6F000E76
:10309000D06F000ED16F000ED26FD6C0B5F0D7C082
:1030A000B6F0B50E4C6E000E4D6ECFC04EF0D0C0D7
:1030B0004FF0D1C050F0D2C051F0EBEC8DF04CC0CD
:1030C000CBF04DC0CCF04EC0CDF04FC0CEF00001E3
:1030D000CB290AE1CC2908E1CD2906E1CE29D8A4E3
:1030E00074EF98F076EF98F078EF98F072EF99F02F
:1030F000CB05CC11CD11CE11D8A481EF98F083EF80
:1031000098F085EF98F072EF99F0CB51CC11CD117A
:10311000CE11D8A48EEF98F090EF98F096EF98F03B
:10312000010EC727000EC823C923CA2320EE17F0BB
:10313000D651D926D751DA22010ECF27000ED0233F
:10314000D123D223DE50CF5DDE50D059DE50D1598D
:10315000DE50D259D8A0AFEF98F0B1EF98F051EF10
:1031600098F072EF99F020EE17F0D651D926D7518A
:10317000DA22DECFCFF0DECFD0F0DECFD1F0DECF5F
:10318000D2F020EE23F0D651D926D751DA22DECF65
:10319000C3F0DECFC4F0DECFC5F0DECFC6F0000E48
:1031A000D56F000ED46FD451D511D8A4DAEF98F0B2
:1031B000DCEF98F0FCEF98F0D6C041F0D7C042F0B9
:1031C000C3C043F0C4C044F0C5C045F0C6C046F01B
:1031D00069ECB3F00001D36F010EC327000EC423C6
:1031E000C523C623D351D8B4F8EF98F0FAEF98F07E
:1031F000FCEF98F072EF99F0D6C0D9FFD7C0DAFF94
:10320000020EDE18D8A407EF99F009EF99F02EEF1F
:1032100099F0D451D625AD6FD551D721AE6F330E6D
:10322000AD25056E000EAE21066EC7ECBEF0055052
:103230000610D8A41EEF99F020EF99F027EF99F02F
:10324000010E0001C727000EC823C923CA23020E9E
:103250000001D427000ED5235EEF99F0D451D62576
:10326000AD6FD551D721AE6F330EAD25056E000E73
:10327000AE21066ECBECB3F0FF0E05140001AF6F6C
:10328000FF0E0614B06FFF0E0714B16F0F0E081477
:10329000B26FAF51B011B111B211D8A452EF99F081
:1032A00054EF99F05AEF99F0010EC727000EC8238A
:1032B000C923CA23040ED427000ED523FF0ED4172A
:1032C000010ED517CF07000ED05BD15BD25BCF517B
:1032D000D011D111D211D8A470EF99F072EF99F0FA
:1032E000D3EF98F0A9C0D9FFAAC0DAFFC7C0DEFFAC
:1032F000C8C0DEFFC9C0DEFFCAC0DEFF20EE0FF08F
:10330000D651D926D751DA22C7C0DEFFC8C0DEFFAA
:10331000C9C0DEFFCAC0DEFF20EE04F0D651D926B8
:10332000D751DA22000EDB801200E8ECC0F0000971
:10333000D8A49DEF99F09FEF99F0A2EF99F0000EBD
:10334000DBEF9AF0000ED7ECB4F00A0E1D6EADEF75
:1033500099F0FF0E7EECC0F01D061D50D8A4B3EF0F
:1033600099F0B5EF99F0A9EF99F0000E1C6E000EE0
:103370000D6E000E0E6E000E0F6E000E106E000E23
:103380003EECAFF0E806D8A4C8EF99F0CAEF99F088
:10339000C3EF9AF0030E5A6EE80E596EAA0E0D6E28
:1033A000010E0E6E000E0F6E000E106E080E3EEC3B
:1033B000AFF0E806D8A4DFEF99F0E1EF99F069EFFC
:1033C0009AF0000E1D6E150E1D24D96EDA6A000EDD
:1033D000DA22FF0E7EECC0F0DF6E1D2A030E1D64A4
:1033E000F4EF99F0F6EF99F0E3EF99F01704D8A411
:1033F000FCEF99F0FEEF99F0C3EF9AF0AA0E1818BF
:10340000D8A405EF9AF007EF9AF0C3EF9AF059505D
:103410005A10D8B40EEF9AF010EF9AF023EF9AF00A
:10342000000E0D6E000E0E6E000E0F6E400E106E32
:10343000A90E3EECAFF00009D8A421EF9AF023EFDB
:103440009AF007EF9AF059505A10D8B42AEF9AF030
:103450002CEF9AF0C3EF9AF0000E0D6E000E0E6E78
:10346000000E0F6E000E106E3A0E3EECAFF000092B
:10347000D8A43DEF9AF03FEF9AF0C3EF9AF0000E18
:103480001D6E150E1D24D96EDA6A000EDA22FF0EAB
:103490007EECC0F0DF6E1D2A030E1D6452EF9AF021
:1034A00054EF9AF041EF9AF015BC59EF9AF05BEFA8
:1034B0009AF061EF9AF0000E1A6E040E196E65EF25
:1034C0009AF0000E1A6E0C0E196E19C01CF0C3EFA4
:1034D0009AF0000E0D6E000E0E6E000E0F6E000EB6
:1034E000106EA90E3EECAFF0146E020E14607BEF6E
:1034F0009AF07DEF9AF083EF9AF0020E1C6EA90EFF
:103500001B6E87EF9AF0010E1C6E010E1B6E595058
:103510005A10D8B48EEF9AF090EF9AF0A3EF9AF089
:10352000000E0D6E000E0E6E000E0F6E000E106E71
:103530001B503EECAFF00009D8A4A1EF9AF0A3EF26
:103540009AF087EF9AF059505A10D8B4AAEF9AF02F
:10355000ACEF9AF0BFEF9AF0000E0D6E020E0E6EF9
:10356000000E0F6E000E106E100E3EECAFF0000954
:10357000D8B4BDEF9AF0BFEF9AF0C3EF9AF0000E07
:103580001C6EC3EF9AF01CC04CF202014D6B35EC7F
:10359000C1F01C50D8B4CFEF9AF0D1EF9AF0D7EF2A
:1035A0009AF0010E0201526F010EDBEF9AF075ECFA
:1035B000C1F09FEF99F01200B6C0D9FFB7C0DAFF93
:1035C000DECFC0F0DDCFC1F0B8C0F6FFB9C0F7FF65
:1035D000000EF86E0800F5502F0AD8B4F2EF9AF0FA
:1035E000F4EF9AF01EEF9BF0B8C0F6FFB9C0F7FFFA
:1035F000000EF86E0800F5505C0AD8B402EF9BF09C
:1036000004EF9BF01EEF9BF0000120EE13F0C05181
:10361000D926C151DA2210EE06F0B651E126B75193
:10362000E222DECFE6FFDECFE6FFDECFE6FFDECF33
:10363000E6FF49EF9BF00001B84BB92BB8C0F6FF8D
:10364000B9C0F7FF000EF86E0800F5502F0AD8B485
:103650002CEF9BF02EEF9BF01BEF9BF0B8C0F6FF1A
:10366000B9C0F7FF000EF86E0800F5505C0AD8B438
:103670003CEF9BF03EEF9BF01BEF9BF0000120EE38
:1036800006F0B651D926B751DA22DE6ADE6ADE6A62
:10369000DD6AB8C0F6FFB9C0F7FF000EF86E200E65
:1036A0000800F56056EF9BF058EF9BF072EF9BF02F
:1036B00020EE27F0B651D926B751DA22800EDF6E00
:1036C000B6C075F0B7C076F0000E776F000E786F59
:1036D000000E796F000E7A6F0AEC96F00001C36F4E
:1036E0001FEF9CF0B6C00DF0B7C00EF0B80E0F6E15
:1036F000000E106EB5EC8BF00001C36FC351D8B44F
:1037000084EF9BF086EF9BF088EF9BF01FEF9CF01F
:10371000B6C0AEF0B7C0AFF0E4ECA4F00001C36FE8
:1037200020EE27F0B651D926B751DA22DF50C26F0A
:10373000C351D8B49EEF9BF0A0EF9BF0D0EF9BF06D
:10374000040EC319D8A4A7EF9BF0A9EF9BF01FEFBD
:103750009CF0C2ABAEEF9BF0B0EF9BF0C5EF9BF0DF
:10376000C2B5B5EF9BF0B7EF9BF0B9EF9BF072EFEE
:103770009BF020EE27F0B651D926B751DA22800E01
:10378000DF6E000EC36F1FEF9CF0C2B5CAEF9BF057
:10379000CCEF9BF01FEF9CF0050EC36F1FEF9CF06A
:1037A000C2A5D5EF9BF0D7EF9BF0D9EF9BF01FEFB1
:1037B0009CF020EE04F0B651D926B751DA22DFB8DA
:1037C000E4EF9BF0E6EF9BF0E8EF9BF0CCEF9BF093
:1037D000C0C00CF0C1C00DF0FF0EBA6F010EBB6F80
:1037E00020EE0EF0B651D926B751DA22DECFBCF06A
:1037F000DDCFBDF0BA51BC17BB51BD17C0C0BEF084
:10380000C1C0BFF0BC51BE27BD51BF23330EBE2582
:103810000E6E000EBF210F6EABECB8F0000120EE73
:1038200006F0B651D926B751DA220CC0DEFF0DC022
:10383000DEFF0EC0DEFF0FC0DEFF72EF9BF0C35154
:103840001200000E176E000E186E000E0D6E000EA8
:103850000E6E000E116E000E126E57505810D8A446
:1038600034EF9CF036EF9CF03CEF9CF0000E056EC0
:10387000000E066E5DEF9DF057C015F058C016F0B3
:10388000C2EF9CF015C0D9FF16C0DAFF0550DE1854
:1038900007E10650DE18D8A450EF9CF052EF9CF0E0
:1038A0007FEF9CF011501210D8B459EF9CF05BEFF1
:1038B0009CF06DEF9CF020EE02F01550D9261650CA
:1038C000DA2210EE02F01150E1261250E222DECF91
:1038D000E6FFDDCFE5FF77EF9CF020EE02F015501C
:1038E000D9261650DA22DECF57F0DDCF58F0020E7F
:1038F0001524056E000E1620066E5DEF9DF015C0B6
:10390000D9FF16C0DAFFDE50055CDE500658D8B08D
:103910008CEF9CF08EEF9CF0B4EF9CF017501810D9
:10392000D8B495EF9CF097EF9CF0ACEF9CF017C0EB
:10393000D9FF18C0DAFF15C0E1FF16C0E2FFDE5064
:10394000E65CDE50E658D8A0A8EF9CF0AAEF9CF009
:10395000ACEF9CF0B4EF9CF015C017F016C018F057
:1039600011C00DF012C00EF015C011F016C012F00B
:1039700020EE02F01550D9261650DA22DECF15F0CF
:10398000DDCF16F015501610D8A4C9EF9CF0CBEF80
:103990009CF042EF9CF017501810D8B4D2EF9CF076
:1039A000D4EF9CF036EF9CF020EE02F01750D926B1
:1039B0001850DA22DECF13F0DDCF14F017C0D9FF94
:1039C00018C0DAFFDECF07F0DDCF08F00550075E44
:1039D0000650085A085009E1050E075CD8A0F3EF1D
:1039E0009CF0F5EF9CF03BEF9DF017C0D9FF18C09D
:1039F000DAFFDECF07F0DDCF08F00550075E065096
:103A0000085AFE0E07240B6EFF0E08200C6E17C01E
:103A1000D9FF18C0DAFF05C0DEFF06C0DDFF17C002
:103A2000D9FF18C0DAFFDECF07F0DDCF08F017C0EE
:103A300009F018C00AF00750092608500A22020EA1
:103A400009240F6E000E0A20106E0FC0D9FF10C09F
:103A5000DAFF0BC0DEFF0CC0DDFF20EE02F00F50DE
:103A6000D9261050DA2213C0DEFF14C0DDFF0FC0CC
:103A700013F010C014F01750571807E118505818D9
:103A8000D8A445EF9DF047EF9DF04DEF9DF013C09A
:103A900057F014C058F057EF9DF020EE02F00D5093
:103AA000D9260E50DA2213C0DEFF14C0DDFF020E4D
:103AB0001724056E000E1820066E1200BB0E0001C2
:103AC000606F000E616FC90E626F000E636F000EB3
:103AD000646F00EC80F00001CB6FCB51D8A473EF82
:103AE0009DF075EF9DF018EF9EF0BD51BE11D8B45A
:103AF0007CEF9DF07EEF9DF018EF9EF0C9C0CCF0FA
:103B0000CAC0CDF0000ED26F000ED36F000ED46F7E
:103B1000000ED56FCC0E756F000E766F000E776FAE
:103B2000000E786F000E796F000E7A6F0AEC96F037
:103B30000001CB6FCB51D8A4A0EF9DF0A2EF9DF078
:103B400007EF9EF0CC0EAE6F000EAF6F000EB16FA0
:103B5000010EB06FB1ECA1F00001CB6FCB51D8A436
:103B6000B4EF9DF0B6EF9DF007EF9EF0000EC86F2A
:103B7000000EC76FC7C0C5F0C8C0C6F0D7EF9DF034
:103B8000C551E625D96EC651E721DA6EDF50C16F07
:103B9000C151C36FC46BC54BC62BC751BD25D96E70
:103BA000C851BE21DA6EC3C0DFFFC74BC82BC65158
:103BB00009E10B0EC55DD8A0E0EF9DF0E2EF9DF0AE
:103BC000C0EF9DF0C751BD25D96EC851BE21DA6E38
:103BD000000EDF6EC751C811D8A4F1EF9DF0F3EFCE
:103BE0009DF0F5EF9DF007EF9EF0C707D8A0C8073E
:103BF000C751BD25D96EC851BE21DA6E200EDE1820
:103C0000D8B405EF9EF007EF9EF0E2EF9DF0040EB2
:103C1000CB19D8A40EEF9EF010EF9EF018EF9EF097
:103C2000BDC0D9FFBEC0DAFF000EDF6E000ECB6F45
:103C3000CB51D8A41EEF9EF020EF9EF08EEF9EF0A9
:103C4000BF51C011D8B427EF9EF029EF9EF08EEF40
:103C50009EF0C9C041F0CAC042F020EE1FF0C95129
:103C6000D926CA51DA22DECF43F0DECF44F0DECFD0
:103C700045F0DECF46F069ECB3F00001CB6FCB51DD
:103C8000D8A445EF9EF047EF9EF08EEF9EF05BEFDD
:103C90009EF0000EC86F640EC76F74EF9EF0000EAA
:103CA000C86F430EC76F74EF9EF0000EC86F270EEB
:103CB000C76F74EF9EF0C9C0D9FFCAC0DAFFDF50EA
:103CC000C16FC26BC251000AD8B469EF9EF055EFC4
:103CD0009EF0C151030AD8B44FEF9EF0070AD8B442
:103CE00049EF9EF055EF9EF0C751C925C16FC851ED
:103CF000CA21C26F330EC125056E000EC221066EA9
:103D0000CBECB3F0BFC0D9FFC0C0DAFF05C0DEFF07
:103D100006C0DEFF07C0DEFF08C0DEFF120020EE97
:103D20000CF01250D9261350DA22DECF05F0DDCF89
:103D300006F0000E086E030E076EE9ECBFF0900E61
:103D40000524166EFF0E0620176E7D0E186E020EED
:103D5000196E16C0F6FF17C0F7FF000EF86E18C0F8
:103D6000D9FF19C0DAFF0800F5CFDFFF164A172A7E
:103D7000184A192A16C0F6FF17C0F7FF000EF86E92
:103D800018C0D9FF19C0DAFF0800F5CFDFFF164AC7
:103D9000172A184A192A16C0F6FF17C0F7FF000E97
:103DA000F86E18C0D9FF19C0DAFF0800F5CFDFFFA1
:103DB000184A192A18C0D9FF19C0DAFF200EDF6E81
:103DC000184A192A20EE08F01250D9261350DA2288
:103DD000DECF05F0DDCF06F0000E086E030E076E95
:103DE000E9ECBFF06B0E0524166EFF0E0620176E71
:103DF00016C0F6FF17C0F7FF000EF86E18C0D9FF07
:103E000019C0DAFF0800F5CFDFFF164A172A184A53
:103E1000192A16C0F6FF17C0F7FF000EF86E18C07B
:103E2000D9FF19C0DAFF0800F5CFDFFF164A172ABD
:103E3000184A192A16C0F6FF17C0F7FF000EF86ED1
:103E400018C0D9FF19C0DAFF0800F5CFDFFF200E38
:103E50000201846F870E0D6E020E0E6E20EE06F0CC
:103E60001250D9261350DA22DF500F6E200E106E3A
:103E7000200E116EE5ECB7F08A0E0D6E020E0E6E7E
:103E800020EE04F01250D9261350DA22DF500F6EC4
:103E9000300E106E3A0E116EE5ECB7F08D0E0D6E11
:103EA000020E0E6E20EE02F01250D9261350DA22C6
:103EB000DF500F6E300E106E3A0E116EE5ECB7F05B
:103EC000900E0D6E020E0E6E12C0D9FF13C0DAFFF7
:103ED000DF500F6E300E106E200E116EE5ECB7F055
:103EE00020EE0AF01250D9261350DA22DECF05F068
:103EF000DDCF06F0000E086E640E076E07ECB3F01F
:103F00000550130F146E930E0D6E020E0E6E14C03C
:103F10000FF0200E106E000E116EE5ECB7F020EEE3
:103F20000AF01250D9261350DA22DECF05F0DDCF89
:103F300006F0000E086E640E076E27ECB4F0055014
:103F4000156E950E0D6E020E0E6E15C00FF0300E32
:103F5000106E0A0E116EE5ECB7F07D0E126E020EB9
:103F6000136E120002013BBFB8EF9FF0BAEF9FF053
:103F7000BBEF9FF03C933BBFC8EF9FF03B5106E186
:103F80003A05D8B0C6EF9FF0C8EF9FF0CEEF9FF094
:103F9000000E336E010E326ED2EF9FF03AC232F055
:103FA0003BC233F038C234F039C235F022C036F0AB
:103FB00023C037F024C038F025C039F026C03AF0CD
:103FC00027C03BF028C03CF029C03DF0000E3F6EFA
:103FD0001F0E3E6E000E0301416F65EFA0F03E061E
:103FE000D8A03F06220E3E24D96E030E3F20DA6E83
:103FF00036C005F037C006F038C007F039C008F009
:104000003AC009F03BC00AF03CC00BF03DC00CF0D8
:104010000A0E0D6E000E0E6E000E0F6E000E106E6C
:10402000000E116E000E126E000E136E000E146E56
:104030000DECB1F005C02AF006C02BF007C02CF043
:1040400008C02DF009C02EF00AC02FF00BC030F0D0
:104050000CC031F02A50300FDF6E3206D8A0330684
:104060003406D8A0350636C005F037C006F038C093
:1040700007F039C008F03AC009F03BC00AF03CC074
:104080000BF03DC00CF00A0E0D6E000E0E6E000E11
:104090000F6E000E106E000E116E000E126E000EEE
:1040A000136E000E146EB7ECAFF005C036F006C00C
:1040B00037F007C038F008C039F009C03AF00AC03C
:1040C0003BF00BC03CF00CC03DF03E503F10D8B46C
:1040D0006CEFA0F06EEFA0F09FEFA0F0365037101D
:1040E000381039103A103B103C103D10D8A47BEF2B
:1040F000A0F07DEFA0F0EFEF9FF033BE8AEFA0F0CD
:10410000335006E13204D8B088EFA0F08AEFA0F077
:10411000EFEF9FF035BE95EFA0F0355008E1340485
:10412000D8A095EFA0F097EFA0F09FEFA0F00201CC
:104130003CB39DEFA0F09FEFA0F0EFEF9FF020C009
:1041400015F021C016F0220E3E24176E030E3F20FC
:10415000186E34C019F035C01AF0A4ECB2F015C0D6
:1041600020F016C021F0120020EE09F01450D926DC
:104170001550DA22000EDF6E20EE16F01250D9260E
:104180001350DA22DE50DE10DE10DE10D8A4CBEFA2
:10419000A0F0CDEFA0F0CFEFA0F0B0EFA1F0000EB7
:1041A0001E6E000E1D6E1DC01AF01EC01BF02DEFFE
:1041B000A1F020EE1AF01250D9261350DA22DECFE9
:1041C00016F0DDCF17F01A501624D96E1B501720A9
:1041D000DA6EDF501C6E1A4A1B2A200E1C18D8A457
:1041E000F4EFA0F0F6EFA0F0F8EFA0F02DEFA1F0C3
:1041F000050E1C18D8A4FFEFA0F001EFA1F003EF0B
:10420000A1F0E50E1C6E090E1A181B10D8A40BEFB6
:10421000A1F00DEFA1F01DEFA1F01D501424166EBA
:104220001E501520176E090E1624D96E000E172089
:10423000DA6E2E0EDF6E1D4A1E2A1D501424166ED5
:104240001E501520176E090E1624D96E000E172069
:10425000DA6E1CC0DFFF1D4A1E2A1B5009E10B0E3F
:104260001A5CD8A036EFA1F038EFA1F0D9EFA0F09A
:104270001D501424166E1E501520176E090E16249C
:10428000D96E000E1720DA6E000EDF6E20EE1AF0E7
:104290001250D9261350DA2210EE0BF0DE50E12630
:1042A000DD50E22220EE08F01450D9261550DA2213
:1042B000E7CFDFFF20EE1AF01250D9261350DA2292
:1042C000DECF16F0DDCF17F01C0E1624056E000EA3
:1042D0001720066ECBECB3F014C0D9FF15C0DAFF7F
:1042E00005C0DEFF06C0DEFF07C0DEFF08C0DEFF40
:1042F00020EE1AF01250D9261350DA22DECF16F033
:10430000DDCF17F0160E1624056E000E1720066E70
:10431000C7ECBEF020EE06F01450D9261550DA2274
:1043200005C0DEFF06C0DDFF20EE1AF01250D926D0
:104330001350DA22DECF16F0DDCF17F0180E162458
:10434000056E000E1720066EC7ECBEF020EE04F0DE
:104350001450D9261550DA2205C0DEFF06C0DDFF55
:104360001200040E0001BA6FAEC0D9FFAFC0DAFF71
:10437000DECFB6F0DDCFB7F05EEFA2F0B6C041F011
:10438000B7C042F020EE16F0AE51D926AF51DA2276
:10439000DECF43F0DECF44F0DECF45F0DECF46F097
:1043A00069ECB3F00001BA6FBA51D8B4DAEFA1F0FA
:1043B000DCEFA1F0DEEFA1F06FEFA2F020EE1AF03B
:1043C000AE51D926AF51DA22DECFB2F0DDCFB3F055
:1043D000B2C0D9FFB3C0DAFFDF50B96FB951D8A46A
:1043E000F4EFA1F0F6EFA1F0FAEFA1F0040EBA6F2E
:1043F0006FEFA2F020EE1AF0AE51D926AF51DA22BB
:1044000010EE0BF0DE50E126DD50E222E7503F0BCC
:10441000B86F20EE04F0AE51D926AF51DA22B8C001
:10442000DFFFE50EB919D8B418EFA2F01AEFA2F029
:1044300048EFA2F02E0EB919D8B421EFA2F023EF65
:10444000A2F048EFA2F00F0EB819D8B42AEFA2F0EC
:104450002CEFA2F048EFA2F0B851DF0B080AD8B455
:1044600034EFA2F037EFA2F0010E38EFA2F0000E09
:10447000B26FB36BB051B21907E1B151B319D8A4FF
:1044800044EFA2F046EFA2F048EFA2F06FEFA2F0E7
:10449000AEC094F0AFC095F0000E976F000E966F0F
:1044A00004EC90F00001BA6FBA51D8B45AEFA2F000
:1044B0005CEFA2F05EEFA2F06FEFA2F020EE16F03C
:1044C000AE51D926AF51DA22DE50DE10DE10DE10FA
:1044D000D8A46DEFA2F06FEFA2F0BEEFA1F0BA5139
:1044E000D8B475EFA2F077EFA2F081EFA2F020EE42
:1044F00016F0AE51D926AF51DA22DE6ADE6ADE6AE4
:10450000DD6ABA511200000E166E680E2AECB9F080
:10451000366E010E166E680E2AECB9F0376E020E7A
:10452000166E680E2AECB9F0386E030E166E680E21
:104530002AECB9F0356E040E166E680E2AECB9F04E
:10454000396E050E166E680E2AECB9F03A6E060E3C
:10455000166E680E2AECB9F03B6E36C031F00F0EC5
:10456000311636C032F0323A0F0E3216070E3216BE
:1045700032500A0DF3CF33F0F4CF34F031503324FE
:104580003C6E000E34203D6E37C031F00F0E3116F8
:1045900037C032F0323A0F0E3216070E3216325052
:1045A0000A0DF3CF33F0F4CF34F0315033243E6EA4
:1045B000000E34203F6E38C031F00F0E311638C077
:1045C00032F0323A0F0E3216030E321632500A0D06
:1045D000F3CF33F0F4CF34F031503324406E000E7B
:1045E0003420416E35C031F0070E3116FF0E3124F4
:1045F000486E496AFF0E492239C031F00F0E31165C
:1046000039C032F0323A0F0E3216030E32163250E3
:104610000A0DF3CF33F0F4CF34F031503324426E2F
:10462000000E3420436E3AC031F0313A0F0E31168D
:10463000070E311631500A0DF3CF32F0F4CF33F0BC
:104640003AC034F00F0E341634503226000E3322A6
:10465000FF0E3224446EFF0E3320456E3BC031F016
:10466000313A0F0E31160F0E311631500A0DF3CFBD
:1046700032F0F4CF33F03BC034F00F0E3416345028
:104680003226000E3322640E3224466E000E332092
:10469000476E20EE3CF000EE19F0170EDBCFEBFF7B
:1046A000E806FCE21200000E406E20EE03F02E50F1
:1046B000D9262F50DA22DF50D8B461EFA3F063EF90
:1046C000A3F01FEFA4F0330E2E24226E000E2F2035
:1046D000236E20EE2FF02E50D9262F50DA22DECF77
:1046E00024F0DECF25F0DECF26F0DECF27F0000E5F
:1046F000296E010E286E20EE01F02E50D9262F5083
:10470000DA22DF5096ECBAF00009D8A48AEFA3F0C1
:104710008CEFA3F01DEFA4F020EE03F02E50D9266D
:104720002F50DA22000EDF6E20EE1BF02E50D9261D
:104730002F50DA2210EE23F02E50E1262F50E222E5
:10474000E6CF34F0E6CF35F0E6CF36F0E6CF37F0FF
:1047500010EE2FF02E50E1262F50E222E6CF38F057
:10476000E6CF39F0E6CF3AF0E6CF3BF03450385C94
:104770003C6E355039583D6E36503A583E6E375083
:104780003B583F6EDE503C5CDE503D58DE503E589C
:10479000DE503F58D8B0CFEFA3F0D1EFA3F01FEF1A
:1047A000A4F020EE02F02E50D9262F50DA22020E6D
:1047B000DE18D8A4DEEFA3F0E0EFA3F01FEFA4F023
:1047C000330E2E24226E000E2F20236E20EE1BF0BF
:1047D0002E50D9262F50DA22DECF30F0DECF31F046
:1047E000DECF32F0DECF33F020EE2FF02E50D92680
:1047F0002F50DA22DECF34F0DECF35F0DECF36F0C8
:10480000DECF37F030503424246E31503520256E01
:1048100032503620266E33503720276E000E296E18
:10482000010E286E20EE01F02E50D9262F50DA22EC
:10483000DF5096ECBAF01FEFA4F0010E406E40502E
:10484000120022EEEBF010EE13F0060EDBCFE3FFCA
:10485000E806FCE210C01EF011C01FF01E501F1031
:10486000D8A435EFA4F037EFA4F03BEFA4F0130E7B
:104870001E6E000E1F6E1EC005F01FC006F0E3EC9A
:10488000BEF005C022F006C023F03AC220F03BC2C1
:1048900021F021BE4EEFA4F050EFA4F065EFA4F09C
:1048A0002250205C2150800A126E2350800A125838
:1048B000D8A05DEFA4F05FEFA4F061EFA4F065EF86
:1048C000A4F020C022F021C023F022C020F023C099
:1048D00021F038C21CF039C21DF002013CB173EF67
:1048E000A4F075EFA4F092EFA4F083EFA4F0000E13
:1048F000066E200E056E0EC007F00FC008F0DBEC50
:10490000B1F0224A232A1C50225C2350800A126EE6
:104910001D50800A1258D8A090EFA4F092EFA4F096
:1049200077EFA4F0000E1B6E000E1A6EABEFA4F032
:104930001EC0D9FF1FC0DAFFDF50126E1250056E85
:10494000066A0EC007F00FC008F0DBECB1F01E4A9B
:104950001F2A1A4A1B2A20501A5C1B50800A126E0A
:104960002150800A1258D8A0B8EFA4F0BAEFA4F0F2
:1049700098EFA4F002013CA1C0EFA4F0C2EFA4F0B4
:10498000DFEFA4F0D0EFA4F0000E066E200E056E4F
:104990000EC007F00FC008F0DBECB1F0224A232A6A
:1049A0001C50225C2350800A126E1D50800A12583F
:1049B000D8A0DDEFA4F0DFEFA4F0C4EFA4F022C094
:1049C0000EF023C00FF01200AEC0D9FFAFC0DAFF67
:1049D000DECFB2F0DDCFB3F0AEC075F0AFC076F091
:1049E000000E0001776F000E786F000E796F000ED9
:1049F0007A6F0AEC96F00001B56FB551D8B403EFA9
:104A0000A5F005EFA5F009EFA5F00001B551A5EF60
:104A1000A5F0B2C041F0B3C042F020EE16F0AE51A6
:104A2000D926AF51DA22DECF43F0DECF44F0DECF1D
:104A300045F0DECF46F069ECB3F00001B56FB5513B
:104A4000D8B425EFA5F027EFA5F029EFA5F005EFE5
:104A5000A5F020EE1AF0AE51D926AF51DA22DECF02
:104A6000B0F0DDCFB1F0B0C0D9FFB1C0DAFFDF5098
:104A7000B46FB451D8A43FEFA5F041EFA5F045EFD6
:104A8000A5F0040EB56F05EFA5F020EE04F0AE51D1
:104A9000D926AF51DA2210EE1AF0AE51E126AF510D
:104AA000E22200EE0BF0E650E926E550EA22EF5054
:104AB0003F0BDF6E20EE1AF0AE51D926AF51DA224D
:104AC00010EE0BF0DE50E126DD50E222E7B66BEF90
:104AD000A5F06DEFA5F08EEFA5F020EE1AF0AE5127
:104AE000D926AF51DA22DECF05F0DDCF06F01C0E5D
:104AF000AE25076E000EAF21086E000E0A6E0B0E7B
:104B0000096E5FECB7F005500610D8A48AEFA5F047
:104B10008CEFA5F08EEFA5F005EFA5F0AEC094F0F8
:104B2000AFC095F0000E0001976F000E966F04EC79
:104B300090F00001B56FB551D8B4A1EFA5F0A3EF87
:104B4000A5F009EFA5F005EFA5F012000001C45192
:104B5000C511D8A4AEEFA5F0B0EFA5F0B3EFA5F066
:104B6000090E66EFA6F0C60E606F000E616FC80EEC
:104B7000626F000E636F000E646F00EC80F0000146
:104B8000CA6FCA51D8A4C7EFA5F0C9EFA5F055EF79
:104B9000A6F0C4C0D9FFC5C0DAFFC8C0DEFFC9C0D7
:104BA000DDFFC4C0B6F0C5C0B7F0C6C0B8F0C7C01E
:104BB000B9F0DCEC9AF00001CA6FCA51D8A4E3EF57
:104BC000A5F0E5EFA5F04AEFA6F020EE27F0C451DE
:104BD000D926C551DA22DFBEF0EFA5F0F2EFA5F03D
:104BE00022EFA6F020EE04F0C451D926C551DA22F6
:104BF000DFA8FDEFA5F0FFEFA5F020EFA6F0C8C0FD
:104C00000CF0C9C00DF020EE1AF0C451D926C551E0
:104C1000DA22DECF0EF0DDCF0FF0ABECB8F0000102
:104C200020EE06F0C451D926C551DA220CC0DEFFB1
:104C30000DC0DEFF0EC0DEFF0FC0DEFF22EFA6F0CC
:104C4000050ECA6FCA51D8A428EFA6F02AEFA6F025
:104C50004AEFA6F020EE05F0C851D926C951DA2254
:104C600010EE02F0C451E126C551E222DECFE6FF8C
:104C7000DDCFE5FFC4C075F0C5C076F0000E776FDC
:104C8000000E786F000E796F000E7A6F0AEC96F0C6
:104C90000001CA6F040ECA19D8A451EFA6F053EF51
:104CA000A6F055EFA6F0050ECA6FCA51D8B45BEF57
:104CB000A6F05DEFA6F065EFA6F0C4C0D9FFC5C0B1
:104CC000DAFF000EDE6E000EDD6ECA51120005C066
:104CD0000FF006C010F009500A10D8A472EFA6F029
:104CE00074EFA6F076EFA6F021EFA7F00FC0D9FF82
:104CF00010C0DAFF07C0DFFF09500F240B6E0A5007
:104D000010200C6EFF0E0B24D96EFF0E0C20DA6EF5
:104D100007C0DFFF0A5007E1030E095CD8B093EF2C
:104D2000A6F095EFA6F097EFA6F021EFA7F020EE02
:104D300001F00F50D9261050DA2207C0DFFF20EE15
:104D400002F00F50D9261050DA2207C0DFFF0950B9
:104D50000F240B6E0A5010200C6EFE0E0B24D96E21
:104D6000FF0E0C20DA6E07C0DFFF09500F240B6E18
:104D70000A5010200C6EFD0E0B24D96EFF0E0C2075
:104D8000DA6E07C0DFFF0A5007E1070E095CD8B0F2
:104D9000CCEFA6F0CEEFA6F0D0EFA6F021EFA7F073
:104DA00020EE03F00F50D9261050DA2207C0DFFFA3
:104DB00009500F240B6E0A5010200C6EFC0E0B24B1
:104DC000D96EFF0E0C20DA6E07C0DFFF0A5007E134
:104DD000090E095CD8B0EFEFA6F0F1EFA6F0F3EF03
:104DE000A6F021EFA7F00FC00BF010C00CF00B1EC7
:104DF0000C1E0B4A0C2A030E0B140D6E0E6A0D507E
:104E00000F260E5010220D50095E0E500A5AFC0E4D
:104E10000916FF0E0A1618EFA7F00FC0D9FF10C031
:104E2000DAFF07C0DFFF0906D8A00A060F4A102ADA
:104E300009500A10D8A41FEFA7F021EFA7F00DEF3B
:104E4000A7F0120014C01EF015C01FF016C020F00D
:104E500017C021F078ECC1F00009D8A432EFA7F018
:104E600034EFA7F037EFA7F0000ED7EFA7F002015D
:104E70004CB73DEFA7F03FEFA7F048EFA7F0090EC2
:104E8000D8901E361F3620362136E82E40EFA7F088
:104E90001A041B10D8A44FEFA7F051EFA7F077EF3B
:104EA000A7F01EC00DF01FC00EF020C00FF021C0F3
:104EB00010F0180E3EECAFF00009D8A462EFA7F096
:104EC00064EFA7F0D4EFA7F018C00CF019C00DF0F4
:104ED000FE0E0E6E69ECB8F00C500D10D8B473EFE6
:104EE000A7F075EFA7F0D4EFA7F0D4EFA7F0060E68
:104EF0004C151C6E000E4D151D6E1C501D10D8B4A7
:104F000084EFA7F086EFA7F08FEFA7F01AC00DF09F
:104F10001BC00EF00F6A106A970E3EECAFF01EC079
:104F20000DF01FC00EF020C00FF021C010F0190EC0
:104F30003EECAFF00009D8A4A0EFA7F0A2EFA7F0D5
:104F4000D4EFA7F018C00CF019C00DF0FC0E0E6ED7
:104F500069ECB8F00C500D10D8A4B1EFA7F0B3EF86
:104F6000A7F0B5EFA7F0C3EFA7F0020E19261A06B7
:104F7000D8A01B061A501B10D8A4C1EFA7F0C3EF8E
:104F8000A7F0A2EFA7F0000E0C6E000E0D6EFD0E46
:104F90000E6E69ECB8F00C500D10D8A4D2EFA7F04B
:104FA000D4EFA7F0D4EFA7F035ECC1F0010E12005A
:104FB000000E156E000E146E000E136E000E126EB3
:104FC000E4EFA7F00C4A0D2A0CC0F6FF0DC0F7FF66
:104FD000000EF86E0800F550200AD8B4F2EFA7F0E2
:104FE000F4EFA7F0E2EFA7F0F70E0E6EFF0E0F6ED4
:104FF0000CC0F6FF0DC0F7FF000EF86E0800F5506C
:10500000106E116A0E5010260F501122115009E136
:10501000050E105CD8A00FEFA8F011EFA8F0E2EF9A
:10502000A7F01BEFA8F0000E136E010E126E0C4AD3
:105030000D2A54EFA8F00CC0F6FF0DC0F7FF000ECC
:10504000F86E0800F5500E6E0F6A0F50000AD8B4C3
:105050002CEFA8F054EFA8F00E502B0AD8B417EF9D
:10506000A8F0060AD8B413EFA8F054EFA8F014C0C3
:1050700005F015C006F0000E086E0A0E076EE9EC8A
:10508000BFF00CC0F6FF0DC0F7FF000EF86E080071
:10509000F550055E000E065A300E0524146E000E03
:1050A0000620156E17EFA8F0D00E0E6EFF0E0F6ED5
:1050B0000CC0F6FF0DC0F7FF000EF86E0800F550AB
:1050C000106E116A0E5010260F501122115009E176
:1050D0000A0E105CD8A06FEFA8F071EFA8F037EFC0
:1050E000A8F012501310D8A478EFA8F07AEFA8F027
:1050F00088EFA8F014C00EF015C00FF00E1E0F1EA2
:105100000E4A0F2A0EC00CF00FC00DF08CEFA8F065
:1051100014C00CF015C00DF0120005C00BF006C055
:105120000CF005500610D8A498EFA8F09AEFA8F05C
:105130009CEFA8F03FEFA9F0FE0E0B240D6EFF0EC2
:105140000C200E6E57505810D8B4A9EFA8F0ABEF52
:10515000A8F033EFA9F00DC0D9FF0EC0DAFFDECF03
:1051600007F0DDCF08F00BC009F00CC00AF00750C3
:10517000092608500A225750091807E158500A1802
:10518000D8A4C5EFA8F0C7EFA8F0F1EFA8F020EE83
:1051900002F05750D9265850DA2210EE02F00D5086
:1051A000E1260E50E222DECFE6FFDDCFE5FF57C05D
:1051B000D9FF58C0DAFFDECF07F0DDCF08F0020ECE
:1051C0000726000E08220DC0D9FF0EC0DAFF0750D7
:1051D000DE260850DD220DC057F00EC058F03FEF1C
:1051E000A9F057C0D9FF58C0DAFFDECF07F0DDCFF6
:1051F00008F057C009F058C00AF0075009260850B7
:105200000A22020E0926000E0A220D50091807E193
:105210000E500A18D8A40FEFA9F011EFA9F027EF4C
:10522000A9F00DC0D9FF0EC0DAFFDECF07F0DDCF49
:1052300008F0020E0726000E082257C0D9FF58C0FA
:10524000DAFF0750DE260850DD223FEFA9F020EEFE
:1052500002F00D50D9260E50DA2257C0DEFF58C09A
:10526000DDFFEBEFA8F020EE02F00D50D9260E5036
:10527000DA22000EDE6E000EDD6EEBEFA8F01200FB
:10528000D00E195E070E1A5A20C005F0066A000EED
:10529000086E0A0E076E07ECB3F005502D6E2D5008
:1052A000F60DF3502024216E1FC005F0066A000E93
:1052B000086E0A0E076E07ECB3F005502E6E2E50E6
:1052C000F60DF3501F24226E1EC005F0066A000E74
:1052D000086E0A0E076E07ECB3F005502F6E2F50C4
:1052E000F60DF3501E24236E1CC005F0066A000E56
:1052F000086E0A0E076E07ECB3F00550306E3050A2
:10530000F60DF3501C24246E1BC005F0066A000E37
:10531000086E0A0E076E07ECB3F00550316E31507F
:10532000F60DF3501B24256E19C005F01AC006F0C7
:10533000000E086E0A0E076E5CECBAF00550326E75
:105340003250F60DF3501924266E2D38F00B211033
:10535000276E2E38F00B2210286E2F38F00B2310FA
:10536000296E3038F00B24102A6E3138F00B2510DE
:105370002B6E3238F00B26102C6E000E166E27C0E6
:1053800017F0680E21ECBAF0010E166E28C017F067
:10539000680E21ECBAF0020E166E29C017F0680EE6
:1053A00021ECBAF0030E166E1DC017F0680E21EC4A
:1053B000BAF0040E166E2AC017F0680E21ECBAF08F
:1053C000050E166E2BC017F0680E21ECBAF0060E13
:1053D000166E2CC017F0680E21ECBAF0120020EE09
:1053E00003F04C50D9264D50DA22000EDF6E20EE2D
:1053F0002FF04C50D9264D50DA22FF0EDE6EFF0EF4
:10540000DE6EFF0EDE6EFF0EDD6E4CC041F04DC055
:1054100042F04EC043F04FC044F050C045F051C080
:1054200046F069ECB3F00009D8B419EFAAF01BEF0D
:10543000AAF01EEFAAF0040E9AEFAAF0310E4C2447
:10544000056E020E4D20066EC7ECBEF0550E051817
:1054500009E1AA0E0618D8B430EFAAF032EFAAF08C
:1054600035EFAAF0030E9AEFAAF020EE33F04C507D
:10547000D9264D50DA22E90EDE18D8B442EFAAF050
:1054800044EFAAF062EFAAF020EE33F04C50D92698
:105490004D50DA22EB0EDE18D8B451EFAAF053EFDC
:1054A000AAF062EFAAF020EE33F04C50D9264D500E
:1054B000DA22E80EDE18D8A460EFAAF062EFAAF0B4
:1054C00099EFAAF0690E4C24056E000E4D20066E71
:1054D000F50E076EFF0E086E000E0A6E030E096EC3
:1054E0005FECB7F005500610D8A479EFAAF07BEF77
:1054F000AAF07EEFAAF0000E9AEFAAF0850E4C24D7
:10550000056E000E4D20066EEB0E076EFF0E086E48
:10551000000E0A6E050E096E5FECB7F0055006101E
:10552000D8A495EFAAF097EFAAF099EFAAF07BEF35
:10553000AAF0020E12000E680F6805C0D9FF06C05F
:10554000DAFFDECF10F0DDCF11F010C00CF011C08B
:105550000DF010501110D8A4B0EFAAF0B2EFAAF0DD
:10556000B6EFAAF00568066844EFABF00CC0F6FF92
:105570000DC0F7FF000EF86E0800F5CF0BF00C4AD7
:105580000D2A200E0B64C7EFAAF0C9EFAAF0D2EFE4
:10559000AAF03A0E0B18D8A4D0EFAAF0D2EFAAF0D6
:1055A000B6EFAAF03A0E0B18D8A4D9EFAAF0DBEFA9
:1055B000AAF03DEFABF0000E0A6E010E096E10C0AE
:1055C000F6FF11C0F7FF000EF86E2F0E0800F5640D
:1055D000ECEFAAF0EEEFAAF01EEFABF010C0F6FF72
:1055E00011C0F7FF000EF86E3A0E0800F560FBEFF1
:1055F000AAF0FDEFAAF01EEFABF0020E1024076E2A
:10560000000E1120086E0C50071807E10D50081805
:10561000D8A40DEFABF00FEFABF01EEFABF010C066
:10562000F6FF11C0F7FF000EF86E0800F5CF07F087
:10563000D00E0724096E0A6AFF0E0A220ABE2BEF5B
:10564000ABF00A5006E10904D8B029EFABF02BEF1C
:10565000ABF037EFABF009C00EF00AC00FF005C099
:10566000D9FF06C0DAFF0CC0DEFF0DC0DDFF0EC0A3
:1056700005F00FC006F044EFABF050C20EF00F6A19
:105680000EC005F00FC006F0120019501A10D8A471
:105690004CEFABF04EEFABF050EFABF0194A1A2ADB
:1056A00044C244F245C245F21A5007E1040E195CA7
:1056B000D8B05DEFABF05FEFABF063EFABF0000E97
:1056C0001A6E040E196E19C005F01AC006F021EC0E
:1056D0009CF005C021F006C022F021502210D8A471
:1056E00074EFABF076EFABF0E4EFABF002014451B6
:1056F000425D1B6E455143591C6E19501B5C1A507C
:105700001C58D8B086EFABF088EFABF0C2EFABF02F
:10571000020E19241D6E000E1A201E6E1D0E056E3F
:10572000000E066E7FECB4F005C023F006C024F036
:1057300023502410D8A49FEFABF0A1EFABF0A7EF5C
:10574000ABF0000E196E000E1A6EE8EFABF023C03E
:1057500023F024C024F002014251231809E14351EF
:105760002418D8B4B6EFABF0B8EFABF0BCEFABF0A9
:1057700023C044F224C045F21D502324426F1E5022
:105780002420436F44C221F045C222F021C01FF003
:1057900022C020F01FC0D9FF20C0DAFF19C0DEFFF1
:1057A0001AC0DDFF020E1F26000E20221FC021F0AE
:1057B00020C022F0020E19241B6E000E1A201C6E4F
:1057C0001B5044271C50452321C019F022C01AF059
:1057D000120041C02EF042C02FF053ECA3F000099C
:1057E000D8B4F5EFABF0F7EFABF0FAEFABF0010E9A
:1057F0008CEFACF041C011F042C012F043C013F086
:1058000044C014F045C015F046C016F075ECB1F078
:1058100011C04BF012C04CF013C04DF014C04EF04C
:1058200020EE2FF04150D9264250DA224BC0DEFF45
:105830004CC0DEFF4DC0DEFF4EC0DEFF330E412404
:10584000056E000E4220066E000E086E000E076EFA
:10585000020E0A6E000E096E19ECBFF0330E4124E1
:10586000496E000E42204A6E000E506E010E4F6EC1
:10587000000E526E000E516E42EFACF04F505126AA
:105880005050522220EE09F04150D9264250DA22DF
:10589000DE50515CDE505258D8B051EFACF053EFAF
:1058A000ACF078EFACF049C022F04AC023F0515080
:1058B0004B24246E52504C20256E000E4D20266E37
:1058C000000E4E20276E4FC028F050C029F020EE69
:1058D00001F04150D9264250DA22DF5096ECBAF05E
:1058E0000009D8B476EFACF078EFACF03EEFACF056
:1058F00020EE09F04150D9264250DA225150DE18EC
:1059000007E15250DE18D8A488EFACF08BEFACF072
