:0400000020EF00F0FD
:100008005A82FACF03F0FBCF04F00E01C2AB0FEF18
:1000180000F011EF00F01AEF00F0CAAB16EF00F095
:1000280018EF00F01AEF00F09EECA6F004C0FBFFFA
:0C00380003C0FAFF5A921100C1EFA4F0BF
:10FEBE0000809A45418E418F804545454949498E7E
:10FECE008F9092924F994F555559999A9B9C9D9E02
:10FEDE009F41494F55A5A5A6A7A8A9AAABACADAE03
:10FEEE00AFB0B1B2B3B4B5B6B7B8B9BABBBCBDBE9C
:10FEFE00BFC0C1C2C3C4C5C6C7C8C9CACBCCCDCE8C
:10FF0E00CFD0D1D2D3D4D5D6D7D8D9DADBDCDDDE7B
:10FF1E00DFE0E1E2E3E4E5E6E7E8E9EAEBECEDEE6B
:10FF2E00EFF0F1F2F3F4F5F6F7F8F9FAFBFCFDFE5B
:10FF3E00FF000000000000000000000000000000B4
:10FF4E0000000000000000000000000000000000A3
:10FF5E000000000000000000000000000000000093
:10FF6E000001000200040008001000200000000143
:10FF7E00000400100040000001000200000A409F33
:10FF8E000000409F002B2E2C3B3D5B5D2F5C222AF8
:10FF9E003A3C3E3F7C7F004E4F204E414D45202047
:10FFAE0020204641542020202020004E4F204E413C
:10FFBE004D4520202020464154333220202000225F
:10FFCE002A2B2C3A3B3C3D3E3F5B5D7C7F00EBFE9B
:10FFDE00904D53444F53352E300048454C4C4F2EC8
:10FFEE005458540046415433320046415400303A7E
:02FFFE00000001
:020000040001F9
:1000000062C0D9FF63C0DAFF000EDE6E000EDD6E47
:1000100060C005F061C006F0F3EC9BF005C08DF008
:1000200006C08EF000018EBF1AEF80F018EF80F04E
:100030001DEF80F00B0E40EF86F0D8908D35D96E15
:100040008E35DA6E560ED926000EDA22DECFA5F0F6
:10005000DDCFA6F0A551A611D8A431EF80F033EF83
:1000600080F036EF80F00C0E40EF86F062C0D9FFD2
:1000700063C0DAFFA5C0DEFFA6C0DDFF6491A5C0A6
:10008000D9FFA6C0DAFFDF50D8B449EF80F04BEFBC
:1000900080F072EF80F020EE01F0A551D926A65134
:1000A000DA22DF509CECA2F00001956F95B15BEF76
:1000B00080F05DEF80F072EF80F06451D8B463EFB0
:1000C00080F065EF80F06FEF80F095A56AEF80F02B
:1000D0006CEF80F06FEF80F00A0E40EF86F0000EBC
:1000E00040EF86F0A5C0D9FFA6C0DAFF000EDF6E94
:1000F00020EE01F0A551D926A651DA228DC0DFFFEE
:1001000020EE01F0A551D926A651DA22DF5097EC56
:10011000A4F00001956F95A190EF80F092EF80F030
:1001200095EF80F0030E40EF86F06451D8B49BEF5A
:1001300080F09DEF80F0A6EF80F095A5A2EF80F013
:10014000A4EF80F0A6EF80F06CEF80F0000E9E6FC1
:10015000000E9F6F000EA06F000EA16FA5C04CF0A7
:10016000A6C04DF09EC04EF09FC04FF0A0C050F012
:10017000A1C051F047EC9BF00001A46F020EA4193E
:10018000D8B4C5EF80F0C7EF80F0C9EF80F09DEFE5
:1001900081F0000EA36F000EA26FA35109E1040EBF
:1001A000A25DD8A0D6EF80F0D8EF80F0DAEF80F033
:1001B0003AEF81F0A2C065F0A3C066F0653B663BF4
:1001C000F00E661765510F0B6613F00E6517A5C08C
:1001D00067F0A6C068F06551672766516823F10E85
:1001E0006725876F010E6821886F20EE04F0875124
:1001F000D9268851DA22DF50D8A401EF81F003EF2D
:1002000081F00DEF81F0000E7D6F000E7E6F000E0D
:100210007F6F000E806F1DEF81F0080E8725056E41
:10022000000E8821066E7BECA0F005C07DF006C0B4
:100230007EF007C07FF008C080F06D0E0001656F92
:10024000000E666FD890A235D96EA335DA6ED890BD
:10025000D936DA366551D9266651DA227DC0DEFFFD
:100260007EC0DEFF7FC0DEFF80C0DEFFA24BA32B7F
:10027000CDEF80F0000EA36F000EA26FA251A3116C
:10028000D8B445EF81F047EF81F04AEF81F0A20743
:10029000D8A0A3076D0E656F000E666FD890A235CB
:1002A000D96EA335DA6ED890D936DA366551D926AB
:1002B0006651DA22DECF9EF0DECF9FF0DECFA0F0D7
:1002C000DECFA1F09E519F11A011A111D8A46BEF18
:1002D00081F06DEF81F073EF81F0000E826F030EFD
:1002E000816F86EF81F0A5C04CF0A6C04DF09EC096
:1002F0004EF09FC04FF0A0C050F0A1C051F047ECAD
:100300009BF00001656F6551816F826B81C0A4F025
:10031000010EA4658EEF81F090EF81F09DEF81F0EA
:10032000A24BA32BA35109E1040EA25DD8A09BEF21
:1003300081F09DEF81F04AEF81F0040EA419D8A45A
:10034000A4EF81F0A6EF81F0A9EF81F0010E40EF5C
:1003500086F0010EA465AFEF81F0B1EF81F0B4EF4C
:1003600081F00D0E40EF86F03E0EA525056E000EC5
:10037000A621066E92ECA5F0020E06180510D8B460
:10038000C4EF81F0C6EF81F0C8EF81F0B1EF81F0EA
:10039000490E0001A525056E000EA621066E92EC01
:1003A000A5F005C09AF006C09BF000019C6B9D6B08
:1003B0009A519B119C119D11D8A4E1EF81F0E3EFBC
:1003C00081F0F3EF81F0570EA525056E000EA621F2
:1003D000066E7BECA0F005C09AF006C09BF007C04B
:1003E0009CF008C09DF0000120EE1BF0A551D9261D
:1003F000A651DA229AC0DEFF9BC0DEFF9CC0DEFF62
:100400009DC0DEFF20EE43F0A551D926A651DA2289
:1004100010EE02F0A551E126A651E222DFCFE7FF60
:1004200020EE02F0A551D926A651DA22DE04D8B476
:100430001CEF82F01EEF82F02FEF82F020EE02F030
:10044000A551D926A651DA22020EDE18D8B42BEF18
:1004500082F02DEF82F02FEF82F0B1EF81F09AC0A1
:1004600005F09BC006F09CC007F09DC008F020EE90
:1004700002F0A551D926A651DA22DF50656F6551E9
:10048000096E0A6A0B6A0C6A2EECA4F005C09AF099
:1004900006C09BF007C09CF008C09DF0000120EE54
:1004A00040F0A551D926A651DA22DF50656F666B60
:1004B00020EE09F0A551D926A651DA2265C0DEFF4B
:1004C00066C0DDFF20EE09F0A551D926A651DA223B
:1004D000DE50DE10D8B46FEF82F071EF82F0B1EF32
:1004E00081F020EE09F0A551D926A651DA22DECFFF
:1004F00065F0DDCF66F0FF0E676FFF0E686F20EED0
:1005000009F0A551D926A651DA22DECF69F0DDCF58
:100510006AF06751692768516A2365516917665106
:100520006A1769516A11D8B498EF82F09AEF82F095
:100530009CEF82F0B1EF81F0440EA525056E000E10
:10054000A621066E92ECA5F0000120EE07F0A55161
:10055000D926A651DA2205C0DEFF06C0DDFF20EE57
:1005600007F0A551D926A651DA22DECF65F0DDCFFE
:1005700066F00F0E6517000E661765516611D8B448
:10058000C4EF82F0C6EF82F0C8EF82F0B1EF81F0E5
:10059000460EA525056E000EA621066E92ECA5F06E
:1005A00005C091F006C092F00001936B946B9151DD
:1005B000921193119411D8A4E0EF82F0E2EF82F04F
:1005C000F2EF82F0530EA525056E000EA621066EF1
:1005D0007BECA0F005C091F006C092F007C093F04C
:1005E00008C094F0410E0001A525056E000EA6215D
:1005F000066E92ECA5F005C08FF006C090F00001E9
:100600008F519011D8A407EF83F009EF83F00BEF1F
:1006100083F0B1EF81F020EE07F0A551D926A65165
:10062000DA22DECF65F0DDCF66F0040E676FD8907A
:1006300066336533672F17EF83F08F516525686F39
:1006400090516621696F6A6BD8B06A2B6B6B9A51B7
:100650006825896F9B5169218A6F9C516A218B6F34
:100660009D516B218C6F8951915D8A5192598B51AB
:1006700093598C519459D8B040EF83F042EF83F0F6
:1006800044EF83F0B1EF81F08951915D056E8A519D
:100690009259066E8B519359076E8C519459086E7E
:1006A00020EE09F0A551D926A651DA22DECF65F059
:1006B000DDCF66F065C009F066C00AF00B6A0C6A0F
:1006C00084ECA1F005C096F006C097F007C098F042
:1006D00008C099F000019651971198119911D8A46A
:1006E00074EF83F076EF83F078EF83F0B1EF81F071
:1006F000000EA46FF60E965DFF0E9759FF0E9859E7
:100700000F0E9959D8B087EF83F089EF83F08BEF04
:1007100083F0030EA46F9951981109E1F60E965DCE
:10072000FF0E9759D8B097EF83F099EF83F09BEFC6
:1007300083F0020EA46F9951981109E1F60E965DAF
:100740000F0E9759D8B0A7EF83F0A9EF83F0ABEF66
:1007500083F0010EA46FA451D8A4B1EF83F0B3EFDE
:1007600083F0B5EF83F0B1EF81F0020E9625656F4F
:10077000000E9721666F000E9821676F000E992179
:10078000686F20EE17F0A551D926A651DA2265C070
:10079000DEFF66C0DEFF67C0DEFF68C0DEFF20EE62
:1007A0001FF0A551D926A651DA229EC0DEFF9FC0B8
:1007B000DEFFA0C0DEFFA1C0DEFF8F519E25656F6A
:1007C00090519F21666F000EA021676F000EA1213E
:1007D000686F20EE23F0A551D926A651DA2265C014
:1007E000DEFF66C0DEFF67C0DEFF68C0DEFF895146
:1007F0009E25656F8A519F21666F8B51A021676F7F
:100800008C51A121686F20EE2BF0A551D926A6515D
:10081000DA2265C0DEFF66C0DEFF67C0DEFF68C0AB
:10082000DEFF030EA419D8A418EF84F01AEF84F0A9
:1008300077EF84F05D0EA525056E000EA621066EED
:1008400092ECA5F005500610D8B429EF84F02BEFF8
:1008500084F02DEF84F0B1EF81F0000120EE07F07D
:10086000A551D926A651DA22DE50DE10D8B43BEFCE
:1008700084F03DEF84F03FEF84F0B1EF81F05F0E44
:10088000A525056E000EA621066E7BECA0F00001EA
:1008900020EE27F0A551D926A651DA2205C0DEFFA9
:1008A00006C0DEFF07C0DEFF08C0DEFF20EE17F047
:1008B000A551D926A651DA22DECF65F0DECF66F04B
:1008C000DECF67F0DECF68F0020ED890653766376E
:1008D00067376837E82E65EF84F065C083F066C03F
:1008E00084F067C085F068C086F016EF85F020EED2
:1008F00007F0A551D926A651DA22DE50DE10D8A481
:1009000084EF84F086EF84F088EF84F0B1EF81F01B
:1009100020EE23F0A551D926A651DA22DECF65F0CC
:10092000DECF66F0DECF67F0DECF68F09A51652546
:10093000696F9B5166216A6F9C5167216B6F9D5156
:1009400068216C6F20EE27F0A551D926A651DA2236
:1009500069C0DEFF6AC0DEFF6BC0DEFF6CC0DEFF79
:10096000020EA419D8B4B7EF84F0B9EF84F0FFEF0A
:1009700084F020EE17F0A551D926A651DA22DECF59
:1009800065F0DECF66F0DECF67F0DECF68F0010EF7
:100990006515696F000E66156A6F000E67156B6F3F
:1009A000000E68156C6F20EE17F0A551D926A651E0
:1009B000DA22DECF05F0DECF06F0DECF07F0DECFA5
:1009C00008F0030E096E000E0A6E000E0B6E000E8C
:1009D0000C6E2EECA4F0D8900832073206320532A5
:1009E000000169510524836F6A510620846F6B51A1
:1009F0000720856F6C510820866F16EF85F020EE7A
:100A000017F0A551D926A651DA22DECF65F0DECF48
:100A100066F0DECF67F0DECF68F0D8906535836F83
:100A20006635846F6735856F6835866FFF0E832561
:100A3000656F010E8421666F000E8521676F000EC1
:100A40008621686F0A0E2AEF85F0D89068336733E5
:100A500066336533E82E25EF85F020EE1BF0A551B7
:100A6000D926A651DA226551DE5C6651DE586751FF
:100A7000DE586851DE58D8B040EF85F042EF85F07F
:100A800044EF85F0B1EF81F020EE0FF0A551D926AB
:100A9000A651DA22FF0EDE6EFF0EDE6EFF0EDE6E58
:100AA000FF0EDD6EDD52DD5210EE0BF0A551E1269A
:100AB000A651E222DECFE6FFDECFE6FFDECFE6FF85
:100AC000DECFE6FF20EE04F0A551D926A651DA22AA
:100AD000800EDF6E030EA419D8A471EF85F073EFBA
:100AE00085F021EF86F0630EA525056E000EA62188
:100AF000066E92ECA5F005040610D8A482EF85F0EE
:100B000084EF85F021EF86F0A5C041F0A6C042F049
:100B1000010E00019E25436E000E9F21446E000EC3
:100B2000A021456E000EA121466E19ECA0F000092F
:100B3000D8A49DEF85F09FEF85F021EF86F00001AE
:100B400020EE04F0A551D926A651DA22000EDF6E60
:100B5000310EA525056E020EA621066E92ECA5F0BB
:100B6000550E051807E1AA0E0618D8A4BAEF85F0AD
:100B7000BCEF85F021EF86F0330E0001A525056E50
:100B8000000EA621066E7BECA0F0520E05180DE1BA
:100B9000520E06180AE1610E071807E1410E081807
:100BA000D8A4D5EF85F0D7EF85F021EF86F0170EAA
:100BB0000001A525056E020EA621066E7BECA0F0B5
:100BC000720E05180DE1720E06180AE1410E0718A3
:100BD00007E1610E0818D8A4F0EF85F0F2EF85F078
:100BE00021EF86F01B0E0001A525056E020EA62141
:100BF000066E7BECA0F0000120EE0FF0A551D92687
:100C0000A651DA2205C0DEFF06C0DEFF07C0DEFF08
:100C100008C0DEFF1F0EA525056E020EA621066E7A
:100C20007BECA0F0000120EE0BF0A551D926A651D7
:100C3000DA2205C0DEFF06C0DEFF07C0DEFF08C007
:100C4000DEFFA5C0D9FFA6C0DAFFA4C0DFFF000108
:100C5000F54BF62B20EE05F0A551D926A651DA2248
:100C6000F5C0DEFFF6C0DDFF20EE13F0A551D9265A
:100C7000A651DA22DE6ADE6ADE6ADD6A6FEF80F094
:100C8000120077C0D9FF78C0DAFFDECF8EF0DDCF5B
:100C90008FF0000179517A117B117C11D8A453EFA8
:100CA00086F055EF86F08DEF86F020EE0BF08E513A
:100CB000D9268F51DA22DECF86F0DECF87F0DECF65
:100CC00088F0DECF89F08651871188118911D8B458
:100CD0006CEF86F06EEF86F083EF86F020EE17F073
:100CE0008E51D9268F51DA22DE50865DDE5087592B
:100CF000DE508859DE508959D8A081EF86F083EF05
:100D000086F0F2EF86F0010E866F000E876F000E00
:100D1000886F000E896FF2EF86F077C04CF078C0D4
:100D20004DF079C04EF07AC04FF07BC050F07CC0DF
:100D300051F0EAEC8DF04CC090F04DC091F04EC0F7
:100D400092F04FC093F0000193519211911107E17D
:100D5000020E905DD8B0AFEF86F0B1EF86F0BBEF3A
:100D600086F0010E776F000E786F000E796F000E1F
:100D70007A6F18EF89F090290AE1912908E1922908
:100D800006E19329D8A4C7EF86F0C9EF86F0D3EF28
:100D900086F090C077F091C078F092C079F093C05F
:100DA0007AF018EF89F020EE17F08E51D9268F5186
:100DB000DA22DE50905DDE509159DE509259DE50BD
:100DC0009359D8B0E6EF86F0E8EF86F0EAEF86F0C8
:100DD000C9EF86F079C086F07AC087F07BC088F0D2
:100DE0007CC089F020EE0FF08E51D9268F51DA2287
:100DF000DE50DE10DE10DE10D8A401EF87F003EF26
:100E000087F00DEF87F0000E776F000E786F000E01
:100E1000796F000E7A6F18EF89F0000E8A6F000E5E
:100E20008B6F000E8C6F000E8D6F795186190DE15E
:100E30007A5187190AE17B51881907E17C51891998
:100E4000D8A425EF87F027EF87F0CDEF87F0010ECC
:100E500086258A6F000E87218B6F000E88218C6F8C
:100E6000000E89218D6F20EE17F08E51D9268F51FB
:100E7000DA22DE508A5DDE508B59DE508C59DE500E
:100E80008D59D8A046EF87F048EF87F050EF87F0F4
:100E9000020E8A6F000E8B6F000E8C6F000E8D6F2E
:100EA00077C04CF078C04DF08AC04EF08BC04FF048
:100EB0008CC050F08DC051F0EAEC8DF04CC090F039
:100EC0004DC091F04EC092F04FC093F000019005DC
:100ED000911192119311D8B470EF87F072EF87F0EF
:100EE000C9EF86F090290AE1912908E1922906E1EB
:100EF0009329D8A47EEF87F080EF87F082EF87F008
:100F0000C9EF86F09051911192119311D8B48BEFE3
:100F100087F08DEF87F0CDEF87F020EE0BF08E514C
:100F2000D9268F51DA22DECF90F0DECF91F0DECFDE
:100F300092F0DECF93F093519211911109E1020EDC
:100F4000905DD8A0A6EF87F0A8EF87F0C5EF87F0F7
:100F500020EE17F08E51D9268F51DA22DE50905DA7
:100F6000DE509159DE509259DE509359D8B0BBEF04
:100F700087F0BDEF87F0C5EF87F090C086F091C095
:100F800087F092C088F093C089F0000E8A6F000E3F
:100F90008B6F000E8C6F000E8D6F8A518B118C1130
:100FA0008D11D8A4D6EF87F0D8EF87F065EF88F0E1
:100FB00086C08AF087C08BF088C08CF089C08DF025
:100FC000010E8A27000E8B238C238D2320EE17F031
:100FD0008E51D9268F51DA22DE508A5DDE508B5930
:100FE000DE508C59DE508D59D8A0F9EF87F0FBEF19
:100FF00087F012EF88F0020E8A6F000E8B6F000EE2
:101000008C6F000E8D6F89518811871107E1020ED8
:10101000865DD8B00EEF88F010EF88F012EF88F000
:1010200003EF87F077C04CF078C04DF08AC04EF0E7
:101030008BC04FF08CC050F08DC051F0EAEC8DF0B9
:101040004CC090F04DC091F04EC092F04FC093F064
:1010500000019051911192119311D8A432EF88F0B0
:1010600034EF88F036EF88F065EF88F09005911145
:1010700092119311D8B43FEF88F041EF88F0C9EF97
:1010800086F090290AE1912908E1922906E1932945
:10109000D8A44DEF88F04FEF88F051EF88F0C9EFFA
:1010A00086F086518A190DE187518B190AE1885122
:1010B0008C1907E189518D19D8A461EF88F063EF8D
:1010C00088F0E0EF87F003EF87F08EC04CF08FC020
:1010D0004DF08AC04EF08BC04FF08CC050F08DC0E8
:1010E00051F0FF0E526EFF0E536EFF0E546EFF0E48
:1010F000556E19EC89F00001856F8551D8A483EFF6
:1011000088F085EF88F0A8EF88F079517A117B118B
:101110007C11D8B48EEF88F090EF88F0A8EF88F0BB
:101120008EC04CF08FC04DF079C04EF07AC04FF0B9
:101130007BC050F07CC051F08AC052F08BC053F09D
:101140008CC054F08DC055F019EC89F00001856F0A
:101150008551D8A4AEEF88F0B0EF88F0FAEF88F0B0
:1011600020EE0BF08E51D9268F51DA228AC0DEFF95
:101170008BC0DEFF8CC0DEFF8DC0DEFF20EE0FF0E7
:101180008E51D9268F51DA2210EE17F08E51E126BA
:101190008F51E222FE0EE624816FFF0EE620826F61
:1011A000FF0EE620836FFF0EE620846FDE50815D28
:1011B000DE508259DE508359DE508459D8A0E3EFC7
:1011C00088F0E5EF88F0F0EF88F020EE0FF08E5118
:1011D000D9268F51DA22DE06000EDE5ADE5ADE5A9A
:1011E00020EE04F08E51D9268F51DA22000EDB80DA
:1011F00010EF89F08505D8B400EF89F002EF89F08F
:101200000CEF89F0010E8A6F000E8B6F000E8C6F51
:10121000000E8D6F10EF89F08A698B698C698D697A
:101220008AC077F08BC078F08CC079F08DC07AF0EE
:101230001200020E0001766F515050104F1009E15C
:10124000020E4E5CD8A027EF89F029EF89F0B1EFAC
:101250008BF020EE17F04C50D9264D50DA22DE509C
:101260004E5CDE504F58DE505058DE505158D8B0CA
:101270003CEF89F03EEF89F0B1EF8BF094EF8BF00B
:101280004EC074F04FC075F0D8907531616F7431F5
:10129000606F60517427615175234CC041F04DC09F
:1012A00042F020EE23F04C50D9264D50DA22DECF0A
:1012B00060F0DECF61F0DECF62F0DECF63F074C0AD
:1012C00064F075C065F0090E666FD89065336433BD
:1012D000662F65EF89F064516025436E6551612189
:1012E000446E000E6221456E000E6321466E19ECBD
:1012F000A0F00001766F7651D8B481EF89F083EFCA
:1013000089F085EF89F0B1EF8BF0FF0E606F010E71
:10131000616F74C062F075C063F060516217615113
:1013200063174CC064F04DC065F06251642763518F
:101330006523330E6425726F000E6521736F744B45
:10134000752B4EB0A6EF89F0A8EF89F0ADEF89F0CC
:1013500052C06EF06F6BC7EF89F05250606F616BD7
:10136000603B613BF00E611760510F0B6113F00E93
:10137000601772C0D9FF73C0DAFFDF500F0B626FC6
:10138000636B605162116E6F615163116F6F72C058
:10139000D9FF73C0DAFF6EC0DFFF20EE03F04C50C0
:1013A000D9264D50DA22010EDF6E4CC041F04DC0FF
:1013B00042F020EE23F04C50D9264D50DA22DECFF9
:1013C00060F0DECF61F0DECF62F0DECF63F074C09C
:1013D00064F075C065F0090E666FD89065336433AC
:1013E000662FEDEF89F064516025436E65516121F0
:1013F000446E000E6221456E000E6321466E19ECAC
:10140000A0F00001766F7651D8B409EF8AF00BEFA7
:101410008AF00DEF8AF0B1EF8BF0FF0E606F010ED6
:10142000616F74C062F075C063F060516217615102
:1014300063174CC064F04DC065F06251642763517E
:101440006523330E6425726F000E6521736F4EB0F5
:101450002CEF8AF02EEF8AF04CEF8AF052C060F049
:1014600053C061F054C062F055C063F061C060F0D9
:1014700062C061F063C062F0636B0F0E601772C0F0
:10148000D9FF73C0DAFFDF50F00B6011646F645155
:10149000706F716B62EF8AF052C060F053C061F000
:1014A00054C062F055C063F0050E5CEF8AF0D8902E
:1014B0006333623361336033E82E57EF8AF0605153
:1014C000706F716B72C0D9FF73C0DAFF70C0DFFF3D
:1014D00020EE03F04C50D9264D50DA22010EDF6E7B
:1014E000B1EF8BF04CC041F04DC042F020EE23F044
:1014F0004C50D9264D50DA22DECF60F0DECF61F0BD
:10150000DECF62F0DECF63F04EC064F04FC065F016
:1015100050C066F051C067F065C064F066C065F009
:1015200067C066F0676B60516425436E6151652149
:10153000446E62516621456E63516721466E19EC17
:10154000A0F00001766F7651D8B4A9EF8AF0ABEF26
:101550008AF0ADEF8AF0B1EF8BF0FF0E606F010EF5
:10156000616F4EC062F04FC063F0D890623763374E
:1015700060516217615163174CC064F04DC065F053
:101580006251642763516523330E6425056E000E96
:101590006521066E52C007F053C008F008ECA6F0B3
:1015A00020EE03F04C50D9264D50DA22010EDF6EAA
:1015B000B1EF8BF04CC041F04DC042F020EE23F073
:1015C0004C50D9264D50DA22DECF60F0DECF61F0EC
:1015D000DECF62F0DECF63F04EC064F04FC065F046
:1015E00050C066F051C067F0080EFCEF8AF0D8904A
:1015F0006733663365336433E82EF7EF8AF0605162
:101600006425436E61516521446E62516621456EC9
:1016100063516721466E19ECA0F00001766F765198
:10162000D8B415EF8BF017EF8BF019EF8BF0B1EF0B
:101630008BF0FF0E606F010E616F4EC062F04FC005
:1016400063F0D89062376337D89062376337605160
:101650006217615163174CC064F04DC065F0625170
:10166000642763516523330E6425056E000E6521E2
:10167000066E7BECA0F0000E05140001666F000EF4
:101680000614676F000E0714686FF00E0814696F78
:10169000FF0E52146A6FFF0E53146B6FFF0E54143B
:1016A0006C6F0F0E55146D6F66516A11526E675153
:1016B0006B11536E68516C11546E69516D11556EFA
:1016C000FF0E606F010E616F4EC062F04FC063F09D
:1016D000D89062376337D8906237633760516217AA
:1016E000615163174CC064F04DC065F062516427CE
:1016F00063516523330E6425056E000E6521066E69
:1017000052C007F053C008F054C009F055C00AF0A9
:10171000C3ECA3F020EE03F04C50D9264D50DA2252
:10172000010EDF6EB1EF8BF04CC0D9FF4DC0DAFF78
:10173000DF50606F616B6151000AD8B4A2EF8BF08B
:10174000B1EF8BF06051010AD8B440EF89F0030A81
:10175000D8B472EF8AF0010AD8B4DAEF8AF0B1EFA8
:101760008BF00001765112000FC0D9FF10C0DAFFD4
:10177000DECF1CF0DDCF1DF01C0E0D24206E000E00
:101780000E20216E20C005F021C006F0000E086E6C
:10179000200E076E000E0A6E0B0E096EAEECA5F061
:1017A000000E1F6E000E1E6E1EC022F01FC023F022
:1017B000000E1B6E080E1A6E22501C24116E235050
:1017C0001D20126E11C0F6FF12C0F7FF000EF86E5A
:1017D0000800F5502E0AD8A4F0EF8BF0F2EF8BF052
:1017E0006DEF8CF022501C24116E23501D20126EC0
:1017F00011C0F6FF12C0F7FF000EF86E0800F5CF1B
:1018000024F0224A232A2E0E2418D8A40AEF8CF0A2
:101810000CEF8CF025EF8CF0235009E1030E225CD5
:10182000D8A015EF8CF017EF8CF019EF8CF025EFA6
:101830008CF01E502024D96E1F502120DA6E24C057
:10184000DFFF1E4A1F2AF2EF8BF02F0E2418D8B4A8
:101850002CEF8CF02EEF8CF042EF8CF05C0E241805
:10186000D8B435EF8CF037EF8CF042EF8CF0200ECF
:1018700024643DEF8CF03FEF8CF042EF8CF0060ECD
:10188000E9EF8DF022501C24116E23501D20126EA2
:101890000FC0D9FF10C0DAFF11C0DEFF12C0DDFF9C
:1018A000200E246456EF8CF058EF8CF05EEF8CF035
:1018B000000E166E200E156E62EF8CF0000E166E86
:1018C000240E156E20EE0BF02050D9262150DA227E
:1018D00015C0DFFF000EE9EF8DF022501C24116EC1
:1018E00023501D20126E11C0F6FF12C0F7FF000E2C
:1018F000F86E0800F5CF24F0224A232A210E246036
:1019000084EF8CF086EF8CF088EF8CF0A1EF8DF0F7
:101910002F0E2418D8B48FEF8CF091EF8CF09EEF3F
:101920008CF05C0E2418D8A498EF8CF09AEF8CF011
:10193000CCEF8CF09EEF8CF0224A232A22501C24FC
:10194000116E23501D20126E11C0F6FF12C0F7FF5A
:10195000000EF86E0800F5502F0AD8B4B2EF8CF0E4
:10196000B4EF8CF09CEF8CF022501C24116E2350AD
:101970001D20126E11C0F6FF12C0F7FF000EF86EA8
:101980000800F5505C0AD8B4C8EF8CF0CAEF8CF0B0
:101990009CEF8CF0A1EF8DF02E0E2418D8B4D3EF6D
:1019A0008CF0D5EF8CF0E0EF8CF01A501E5C1B50E1
:1019B0001F58D8A0DEEF8CF0E0EF8CF0FFEF8CF03A
:1019C0000B0E1A181B10D8B4E8EF8CF0EAEF8CF06D
:1019D0003FEF8CF02E0E2418D8B4F1EF8CF0F3EF1B
:1019E0008CF0F5EF8CF03FEF8CF0000E1F6E080EC0
:1019F0001E6E000E1B6E0B0E1A6E6DEF8CF07F0EBE
:101A0000246405EF8DF007EF8DF017EF8DF0245073
:101A10007F0B116E126ABF0E1124F66EFE0E12209D
:101A2000F76EF86A000EF8220800F5CF24F0245073
:101A300094ECA6F005500610D8B421EF8DF023EFFA
:101A40008DF06FEF8DF022501C24116E23501D205D
:101A5000126E11C0F6FF12C0F7FF000EF86E0800FC
:101A6000F5CF19F0224A232A19508FECA6F0055021
:101A70000610D8B43EEF8DF040EF8DF03FEF8CF0C4
:101A8000FF0E116EFF0E126E1AC013F01BC014F081
:101A9000115013261250142213501E5C14501F585C
:101AA000D8A055EF8DF057EF8DF059EF8DF03FEF47
:101AB0008CF01E502024D96E1F502120DA6E24C0D5
:101AC000DFFF1E4A1F2A1E502024D96E1F502120DE
:101AD000DA6E19C0DFFF1E4A1F2A6DEF8CF0CD0EA3
:101AE000056EFF0E066E24C007F0086AF9ECA3F03D
:101AF00005500610D8B47FEF8DF081EF8DF083EFA5
:101B00008DF03FEF8CF0600E246489EF8DF08BEF49
:101B10008DF095EF8DF07B0E246091EF8DF093EFBB
:101B20008DF095EF8DF0200E245E1E502024D96E8E
:101B30001F502120DA6E24C0DFFF1E4A1F2A6DEFDE
:101B40008CF022501C24116E23501D20126E0FC0E9
:101B5000D9FF10C0DAFF11C0DEFF12C0DDFF1E503A
:101B60001F10D8A4B6EF8DF0B8EF8DF0BAEF8DF05E
:101B70003FEF8CF020C0D9FF21C0DAFFE50EDE1860
:101B8000D8A4C5EF8DF0C7EF8DF0CDEF8DF020C05C
:101B9000D9FF21C0DAFF050EDF6E200E2464D3EFDB
:101BA0008DF0D5EF8DF0DBEF8DF0000E186E000E8E
:101BB000176EDFEF8DF0000E186E040E176E20EE1C
:101BC0000BF02050D9262150DA2217C0DFFF6AEF30
:101BD0008CF012004CC0D9FF4DC0DAFFDECF73F09D
:101BE000DDCF74F0515050104F1009E1020E4E5CE1
:101BF000D8A0FDEF8DF0FFEF8DF015EF8EF0000116
:101C000020EE17F07351D9267451DA22DE504E5C63
:101C1000DE504F58DE505058DE505158D8A013EFC8
:101C20008EF015EF8EF020EF8EF0010E00016D6F3B
:101C3000000E6E6F000E6F6F000E706FFAEF8FF078
:101C40006D696E696F697069DDEF8FF04EC071F07C
:101C50004FC072F0D8907231616F7131606F605116
:101C600071276151722373C041F074C042F020EEBD
:101C700023F07351D9267451DA22DECF60F0DECF23
:101C800061F0DECF62F0DECF63F071C064F072C04D
:101C900065F0090E666FD89065336433662F4BEF9D
:101CA0008EF064516025436E65516121446E000ED3
:101CB0006221456E000E6321466E19ECA0F000090A
:101CC000D8B465EF8EF067EF8EF069EF8EF0FAEF23
:101CD0008FF0FF0E0001606F010E616F71C062F046
:101CE00072C063F0605162176151631773C064F092
:101CF00074C065F06251642763516523330E642517
:101D0000D96E000E6521DA6EDF50666F66516B6F1B
:101D10006C6B714B722B73C041F074C042F020EEBB
:101D200023F07351D9267451DA22DECF60F0DECF72
:101D300061F0DECF62F0DECF63F071C064F072C09C
:101D400065F0090E666FD89065336433662FA3EF94
:101D50008EF064516025436E65516121446E000E22
:101D60006221456E000E6321466E19ECA0F0000959
:101D7000D8B4BDEF8EF0BFEF8EF0C1EF8EF0FAEF6A
:101D80008FF0FF0E0001606F010E616F71C062F095
:101D900072C063F0605162176151631773C064F0E1
:101DA00074C065F06251642763516523330E642566
:101DB000D96E000E6521DA6EDF50666F6651686F6E
:101DC000676B67516B1368516C134EB0EAEF8EF07E
:101DD000ECEF8EF0F4EF8EF0FF0E6B15696F0F0EC7
:101DE0006C156A6F04EF8FF06BC060F06CC061F02F
:101DF000040E626FD89061336033622FFAEF8EF079
:101E000060C069F061C06AF069C06DF06AC06EF0D0
:101E10006F6B706BFAEF8FF073C041F074C042F0DB
:101E200020EE23F07351D9267451DA22DECF60F010
:101E3000DECF61F0DECF62F0DECF63F04EC064F043
:101E40004FC065F050C066F051C067F065C064F0E7
:101E500066C065F067C066F0676B60516425436ECD
:101E600061516521446E62516621456E635167215F
:101E7000466E19ECA0F00009D8B441EF8FF043EFA3
:101E80008FF045EF8FF0FAEF8FF0FF0E0001606FDB
:101E9000010E616F4EC062F04FC063F0D8906237A0
:101EA0006337605162176151631773C064F074C087
:101EB00065F06251642763516523330E6425056E16
:101EC000000E6521066E92ECA5F005C06DF006C00F
:101ED0006EF000016F6B706BFAEF8FF073C041F022
:101EE00074C042F020EE23F07351D9267451DA22E7
:101EF000DECF60F0DECF61F0DECF62F0DECF63F0E8
:101F00004EC064F04FC065F050C066F051C067F03D
:101F1000080E90EF8FF0D8906733663365336433E3
:101F2000E82E8BEF8FF060516425436E615165217F
:101F3000446E62516621456E63516721466E19EC0D
:101F4000A0F00009D8B4A7EF8FF0A9EF8FF0ABEFA6
:101F50008FF0FAEF8FF0FF0E0001606F010E616FDE
:101F60004EC062F04FC063F0D89062376337D890AC
:101F700062376337605162176151631773C064F051
:101F800074C065F06251642763516523330E642584
:101F9000056E000E6521066E7BECA0F0FF0E0514A9
:101FA00000016D6FFF0E06146E6FFF0E07146F6F4A
:101FB0000F0E0814706FFAEF8FF073C0D9FF74C062
:101FC000DAFFDF50606F616B6151000AD8B4EBEF4C
:101FD0008FF015EF8EF06051010AD8B426EF8EF025
:101FE000030AD8B40CEF8FF0010AD8B46EEF8FF06B
:101FF00015EF8EF06DC04CF06EC04DF06FC04EF01E
:1020000070C04FF0120094C0D9FF95C0DAFFDECF48
:10201000A8F0DDCFA9F0000120EE0EF09451D926F2
:102020009551DA22DECF98F0DECF99F0DECF9AF02C
:10203000DECF9BF0200E9825A46F000E9921A56F8E
:10204000000E9A21A66F000E9B21A76F20EE16F0BE
:102050009451D9269551DA22DE50DE10DE10DE10C2
:10206000D8B435EF90F037EF90F042EF90F0A751F1
:1020700009E1200EA65DD8A040EF90F042EF90F06D
:1020800045EF90F0040E17EF92F0FF0EA415986F35
:10209000010EA515996F000EA6159A6F000EA715D3
:1020A0009B6F985199119A119B11D8A45AEF90F0F7
:1020B0005CEF90F0E6EF91F020EE16F09451D92607
:1020C0009551DA22DE2A000EDE22DE22DE2220EE0A
:1020D00012F09451D9269551DA22DE50DE10DE102E
:1020E000DE10D8A476EF90F078EF90F0B6EF90F095
:1020F00020EE07F0A851D926A951DA22DECF98F0B8
:10210000DDCF99F098519A6F99519B6F9C6B9D6BA5
:10211000A4C09EF0A5C09FF0A6C0A0F0A7C0A1F0EB
:10212000060E98EF90F0D890A133A0339F339E33E2
:10213000E82E93EF90F09A519E5D9B519F599C51D0
:10214000A0599D51A159D8A0A8EF90F0AAEF90F006
:10215000E6EF91F020EE16F09451D9269551DA224F
:10216000DE6ADE6ADE6ADD6A42EF90F0FF0E986F8B
:10217000FF0E996F20EE09F0A851D926A951DA2255
:10218000DECF9AF0DDCF9BF098519A2799519B238F
:10219000A4C09CF0A5C09DF0A6C09EF0A7C09FF073
:1021A0000A0ED8EF90F0D8909F339E339D339C3326
:1021B000E82ED3EF90F09A519C15A06F9B519D157E
:1021C000A16F000E9E15A26F000E9F15A36FA05168
:1021D000A111A211A311D8A4F0EF90F0F2EF90F0AA
:1021E000E6EF91F094C04CF095C04DF020EE12F067
:1021F0009451D9269551DA22DECF4EF0DECF4FF042
:10220000DECF50F0DECF51F0EAEC8DF04CC0AAF0FA
:102210004DC0ABF04EC0ACF04FC0ADF00001AD51C1
:10222000AC11AB1107E1020EAA5DD8B01AEF91F024
:102230001CEF91F01FEF91F0020E17EF92F0AA2918
:102240000AE1AB2908E1AC2906E1AD29D8A42BEFBE
:1022500091F02DEF91F030EF91F0010E17EF92F029
:1022600020EE17F0A851D926A951DA22DE50AA5D36
:10227000DE50AB59DE50AC59DE50AD59D8A043EF1B
:1022800091F045EF91F0BAEF91F096519711D8A4E3
:102290004CEF91F04EEF91F05AEF91F020EE16F0E6
:1022A0009451D9269551DA22DE6ADE6ADE6ADD6A49
:1022B00042EF90F094C077F095C078F020EE12F0E5
:1022C0009451D9269551DA22DECF79F0DECF7AF01B
:1022D000DECF7BF0DECF7CF041EC86F077C0AAF059
:1022E00078C0ABF079C0ACF07AC0ADF00001AA5173
:1022F000AB11AC11AD11D8A480EF91F082EF91F049
:1023000085EF91F0070E17EF92F0AA05AB11AC1113
:10231000AD11D8A48EEF91F090EF91F092EF91F083
:102320001CEF91F0AA290AE1AB2908E1AC2906E1EA
:10233000AD29D8A49EEF91F0A0EF91F0A2EF91F01B
:102340002DEF91F0A8C041F0A9C042F0AAC043F01F
:10235000ABC044F0ACC045F0ADC046F09DEC9CF085
:102360000009D8B4B6EF91F0B8EF91F0BAEF91F060
:102370002DEF91F0000120EE12F09451D9269551E5
:10238000DA22AAC0DEFFABC0DEFFACC0DEFFADC00C
:10239000DEFFA8C011F0A9C012F0AAC013F0ABC0B4
:1023A00014F0ACC015F0ADC016F0B3EC9FF0000116
:1023B00020EE16F09451D9269551DA2211C0DEFF95
:1023C00012C0DEFF13C0DEFF14C0DEFF20EE0EF0F1
:1023D0009451D9269551DA22A4C0DEFFA5C0DEFFB4
:1023E000A6C0DEFFA7C0DEFFFF0E986F010E996F3B
:1023F000A4C09AF0A5C09BF098519A1799519B17C9
:10240000A8C09CF0A9C09DF09A519C279B519D2388
:10241000330E9C27000E9D2320EE1AF09451D926EE
:102420009551DA229CC0DEFF9DC0DDFF000E120038
:1024300075C0D9FF76C0DAFFDECF8DF0DDCF8EF02C
:1024400000017A5107E1200E795DD8B02AEF92F0B1
:102450002CEF92F043EF92F01F0E77157B6F000E7A
:1024600078157C6F000E79157D6F000E7A157E6FE2
:102470007B517C117D117E11D8B441EF92F043EF76
:1024800092F046EF92F0020EE4EF93F020EE0EF0A1
:102490007551D9267651DA2277C0DEFF78C0DEFF8B
:1024A00079C0DEFF7AC0DEFF20EE06F07551D92636
:1024B0007651DA22DECF89F0DECF8AF0DECF8BF0E4
:1024C000DECF8CF089518A118B118C11D8A46BEF5F
:1024D00092F06DEF92F087EF92F08DC0D9FF8EC031
:1024E000DAFF020EDF6477EF92F079EF92F087EF78
:1024F00092F020EE27F08D51D9268E51DA22DECFD0
:1025000089F0DECF8AF0DECF8BF0DECF8CF0895100
:102510008A118B118C11D8A490EF92F092EF92F067
:10252000DCEF92F020EE07F08D51D9268E51DA22A1
:10253000DECF7BF0DDCF7CF07B517D6F7C517E6FF9
:102540007F6B806B77C081F078C082F079C083F0B8
:102550007AC084F0060EB2EF92F0D89084338333C1
:1025600082338133E82EADEF92F07D51815D7E5153
:1025700082597F51835980518459D8A0C2EF92F07B
:10258000C4EF92F0C6EF92F043EF92F020EE27F006
:102590008D51D9268E51DA2210EE16F07551E126B2
:1025A0007651E222DECFE6FFDECFE6FFDECFE6FFAA
:1025B000DECFE6FF7FEF93F020EE09F08D51D926B4
:1025C0008E51DA22DECF7BF0DDCF7CF07B517D6F48
:1025D0007C517E6F7F6B806B090ED8907D377E3784
:1025E0007F378037E82EEDEF92F07DC085F07EC01A
:1025F00086F07FC087F080C088F053EF93F075C0FD
:102600004CF076C04DF089C04EF08AC04FF08BC0C0
:1026100050F08CC051F0EAEC8DF04CC089F04DC008
:102620008AF04EC08BF04FC08CF0000189290AE17E
:102630008A2908E18B2906E18C29D8A422EF93F09E
:1026400024EF93F027EF93F0010EE4EF93F08C5119
:102650008B118A1109E1020E895DD8A032EF93F047
:1026600034EF93F043EF92F020EE17F08D51D9261E
:102670008E51DA22DE50895DDE508A59DE508B5948
:10268000DE508C59D8A047EF93F049EF93F04BEF11
:1026900093F043EF92F08551775F8651785B8751D5
:1026A000795B88517A5B8551775D8651785987517E
:1026B000795988517A59D8B060EF93F062EF93F06E
:1026C000FFEF92F08DC011F08EC012F089C013F0B0
:1026D0008AC014F08BC015F08CC016F0B3EC9FF0DC
:1026E000000120EE16F07551D9267651DA2211C07C
:1026F000DEFF12C0DEFF13C0DEFF14C0DEFF20EEDF
:1027000012F07551D9267651DA2289C0DEFF8AC0CF
:10271000DEFF8BC0DEFF8CC0DEFF20EE16F07551B1
:10272000D9267651DA22DE50DE10DE10DE10D8A473
:102730009CEF93F09EEF93F0A0EF93F043EF92F0B5
:1027400077C07BF078C07CF079C07DF07AC07EF0F5
:102750000A0EB0EF93F0D8907E337D337C337B3319
:10276000E82EABEF93F020EE16F07551D926765196
:10277000DA227B51DE267C51DE227D51DE227E5123
:10278000DE22FF0E7B6F010E7C6F77C07DF078C07C
:102790007EF07B517D177C517E178DC07FF08EC0FF
:1027A00080F07D517F277E518023330E7F27000EDE
:1027B000802320EE1AF07551D9267651DA227FC097
:1027C000DEFF80C0DDFF000E12007EECA6F00009E7
:1027D000D8A4EDEF93F0EFEF93F0F2EF93F0000E4B
:1027E0002BEF95F0000ED7ECA0F00A0E1D6EFDEF5A
:1027F00093F0FF0E4BECA6F01D061D50D8A403EF7E
:1028000094F005EF94F0F9EF93F0000E1C6E000EBB
:102810000D6E000E0E6E000E0F6E000E106E000E8E
:102820005CEC9EF0E806D8A418EF94F01AEF94F050
:1028300013EF95F0030E596EE80E586EAA0E0D6E4A
:10284000010E0E6E000E0F6E000E106E080E5CEC88
:102850009EF0E806D8A42FEF94F031EF94F0B9EF92
:1028600094F0000E1D6E150E1D24D96EDA6A000E4E
:10287000DA22FF0E4BECA6F0DF6E1D2A030E1D645C
:1028800044EF94F046EF94F033EF94F01704D8A49B
:102890004CEF94F04EEF94F013EF95F0AA0E181849
:1028A000D8A455EF94F057EF94F013EF95F05850EB
:1028B0005910D8B45EEF94F060EF94F073EF94F099
:1028C000000E0D6E000E0E6E000E0F6E400E106E9E
:1028D000A90E5CEC9EF00009D8A471EF94F073EFA0
:1028E00094F057EF94F058505910D8B47AEF94F010
:1028F0007CEF94F013EF95F0000E0D6E000E0E6E4F
:10290000000E0F6E000E106E3A0E5CEC9EF0000989
:10291000D8A48DEF94F08FEF94F013EF95F0000EA4
:102920001D6E150E1D24D96EDA6A000EDA22FF0E16
:102930004BECA6F0DF6E1D2A030E1D64A2EF94F08F
:10294000A4EF94F091EF94F015BCA9EF94F0ABEFE5
:1029500094F0B1EF94F0000E1A6E040E196EB5EFFC
:1029600094F0000E1A6E0C0E196E19C01CF013EFC5
:1029700095F0000E0D6E000E0E6E000E0F6E000E26
:10298000106EA90E5CEC9EF0146E020E1460CBEF7C
:1029900094F0CDEF94F0D3EF94F0020E1C6EA90EDC
:1029A0001B6ED7EF94F0010E1C6E010E1B6E58507B
:1029B0005910D8B4DEEF94F0E0EF94F0F3EF94F018
:1029C000000E0D6E000E0E6E000E0F6E000E106EDD
:1029D0001B505CEC9EF00009D8A4F1EF94F0F3EFEB
:1029E00094F0D7EF94F058505910D8B4FAEF94F00F
:1029F000FCEF94F00FEF95F0000E0D6E020E0E6ED0
:102A0000000E0F6E000E106E100E5CEC9EF00009B2
:102A1000D8B40DEF95F00FEF95F013EF95F0000E91
:102A20001C6E13EF95F01CC0F7F00001F86B99ECE9
:102A3000A6F01C50D8B41FEF95F021EF95F027EFCA
:102A400095F0010E0001FD6F010E2BEF95F0A6EC45
:102A5000A6F0EFEF93F01200B6C0D9FFB7C0DAFFCF
:102A6000DECFC0F0DDCFC1F0B8C0F6FFB9C0F7FFD0
:102A7000000EF86E0800F5502F0AD8B442EF95F01A
:102A800044EF95F06EEF95F0B8C0F6FFB9C0F7FFD0
:102A9000000EF86E0800F5505C0AD8B452EF95F0BD
:102AA00054EF95F06EEF95F0000120EE13F0C05159
:102AB000D926C151DA2210EE06F0B651E126B751FF
:102AC000E222DECFE6FFDECFE6FFDECFE6FFDECF9F
:102AD000E6FF99EF95F00001B84BB92BB8C0F6FFAF
:102AE000B9C0F7FF000EF86E0800F5502F0AD8B4F1
:102AF0007CEF95F07EEF95F06BEF95F0B8C0F6FFA8
:102B0000B9C0F7FF000EF86E0800F5505C0AD8B4A3
:102B10008CEF95F08EEF95F06BEF95F0000120EEC5
:102B200006F0B651D926B751DA22DE6ADE6ADE6ACD
:102B3000DD6AB8C0F6FFB9C0F7FF000EF86E200ED0
:102B40000800F560A6EF95F0A8EF95F0C2EF95F0BC
:102B500020EE27F0B651D926B751DA22800EDF6E6B
:102B6000B6C075F0B7C076F0000E776F000E786FC4
:102B7000000E796F000E7A6F18EC92F00001C36FAF
:102B80006FEF96F0B6C00DF0B7C00EF0B80E0F6E36
:102B9000000E106EB4EC8BF00001C36FC351D8B4BB
:102BA000D4EF95F0D6EF95F0D8EF95F06FEF96F063
:102BB000B6C0AEF0B7C0AFF00EEC99F00001C36F35
:102BC00020EE27F0B651D926B751DA22DF50C26F76
:102BD000C351D8B4EEEF95F0F0EF95F020EF96F0FA
:102BE000040EC319D8A4F7EF95F0F9EF95F06FEF45
:102BF00096F0C2ABFEEF95F000EF96F015EF96F071
:102C0000C2B505EF96F007EF96F009EF96F0C2EF28
:102C100095F020EE27F0B651D926B751DA22800E72
:102C2000DF6E000EC36F6FEF96F0C2B51AEF96F02D
:102C30001CEF96F06FEF96F0050EC36F6FEF96F0F6
:102C4000C2A525EF96F027EF96F029EF96F06FEFEB
:102C500096F020EE04F0B651D926B751DA22DFB84B
:102C600034EF96F036EF96F038EF96F01CEF96F0D2
:102C7000C0C00CF0C1C00DF0FF0EBA6F010EBB6FEB
:102C800020EE0EF0B651D926B751DA22DECFBCF0D5
:102C9000DDCFBDF0BA51BC17BB51BD17C0C0BEF0EF
:102CA000C1C0BFF0BC51BE27BD51BF23330EBE25EE
:102CB0000E6E000EBF210F6E5CECA2F0000120EE44
:102CC00006F0B651D926B751DA220CC0DEFF0DC08E
:102CD000DEFF0EC0DEFF0FC0DEFFC2EF95F0C35176
:102CE000120020EE09F01450D9261550DA22000EF9
:102CF000DF6E20EE16F01250D9261350DA22DE5085
:102D0000DE10DE10DE10D8A488EF96F08AEF96F081
:102D10008CEF96F06DEF97F0000E1D6E000E1C6E9E
:102D20001CC01AF01DC01BF0EAEF96F020EE1AF05E
:102D30001250D9261350DA22DECF16F0DDCF17F06D
:102D40001A501624D96E1B501720DA6EDF501E6EF3
:102D50001A4A1B2A200E1E18D8A4B1EF96F0B3EF22
:102D600096F0B5EF96F0EAEF96F0050E1E18D8A48F
:102D7000BCEF96F0BEEF96F0C0EF96F0E50E1E6E3B
:102D8000090E1A181B10D8A4C8EF96F0CAEF96F0D7
:102D9000DAEF96F01C501424166E1D501520176E95
:102DA000090E1624D96E000E1720DA6E2E0EDF6E75
:102DB0001C4A1D2A1C501424166E1D501520176E17
:102DC000090E1624D96E000E1720DA6E1EC0DFFF22
:102DD0001C4A1D2A1B5009E10B0E1A5CD8A0F3EF08
:102DE00096F0F5EF96F096EF96F01C501424166EC0
:102DF0001D501520176E090E1624D96E000E1720CF
:102E0000DA6E000EDF6E20EE1AF01250D926135043
:102E1000DA2210EE0BF0DE50E126DD50E22220EE49
:102E200008F01450D9261550DA22E7CFDFFF20EE44
:102E30001AF01250D9261350DA22DECF16F0DDCF69
:102E400017F01C0E1624056E000E1720066E7BEC84
:102E5000A0F014C0D9FF15C0DAFF05C0DEFF06C020
:102E6000DEFF07C0DEFF08C0DEFF20EE1AF01250C2
:102E7000D9261350DA22DECF16F0DDCF17F0160E6A
:102E80001624056E000E1720066E92ECA5F020EEBB
:102E900006F01450D9261550DA2205C0DEFF06C010
:102EA000DDFF20EE1AF01250D9261350DA22DECFC1
:102EB00016F0DDCF17F0180E1624056E000E172041
:102EC000066E92ECA5F020EE04F01450D9261550B1
:102ED000DA2205C0DEFF06C0DDFF1200040E00018D
:102EE000BA6FAEC0D9FFAFC0DAFFDECFB6F0DDCF2C
:102EF000B7F01BEF98F0B6C041F0B7C042F020EE3B
:102F000016F0AE51D926AF51DA22DECF43F0DECF34
:102F100044F0DECF45F0DECF46F019ECA0F0000122
:102F2000BA6FBA51D8B497EF97F099EF97F09BEF3B
:102F300097F02CEF98F020EE1AF0AE51D926AF5151
:102F4000DA22DECFB2F0DDCFB3F0B2C0D9FFB3C02A
:102F5000DAFFDF50B96FB951D8A4B1EF97F0B3EFF2
:102F600097F0B7EF97F0040EBA6F2CEF98F020EEC1
:102F70001AF0AE51D926AF51DA2210EE0BF0DE5026
:102F8000E126DD50E222E7503F0BB86F20EE04F05F
:102F9000AE51D926AF51DA22B8C0DFFFE50EB9191C
:102FA000D8B4D5EF97F0D7EF97F005EF98F02E0E45
:102FB000B919D8B4DEEF97F0E0EF97F005EF98F08D
:102FC0000F0EB819D8B4E7EF97F0E9EF97F005EFD7
:102FD00098F0B851DF0B080AD8B4F1EF97F0F4EF8E
:102FE00097F0010EF5EF97F0000EB26FB36BB05192
:102FF000B21907E1B151B319D8A401EF98F003EF6A
:1030000098F005EF98F02CEF98F0AEC094F0AFC0B8
:1030100095F0000E976F000E966F03EC90F0000194
:10302000BA6FBA51D8B417EF98F019EF98F01BEFB8
:1030300098F02CEF98F020EE16F0AE51D926AF5153
:10304000DA22DE50DE10DE10DE10D8A42AEF98F06F
:103050002CEF98F07BEF97F0BA51D8B432EF98F09C
:1030600034EF98F03EEF98F020EE16F0AE51D926EE
:10307000AF51DA22DE6ADE6ADE6ADD6ABA51120018
:10308000000E406E20EE03F02E50D9262F50DA228B
:10309000DF50D8B44EEF98F050EF98F00CEF99F065
:1030A000330E2E24226E000E2F20236E20EE2FF0E2
:1030B0002E50D9262F50DA22DECF24F0DECF25F095
:1030C000DECF26F0DECF27F0000E296E010E286E2F
:1030D00020EE01F02E50D9262F50DA22DF5017ECC7
:1030E000A3F00009D8A477EF98F079EF98F00AEFF1
:1030F00099F020EE03F02E50D9262F50DA22000E40
:10310000DF6E20EE1BF02E50D9262F50DA2210EE63
:1031100023F02E50E1262F50E222E6CF34F0E6CF06
:1031200035F0E6CF36F0E6CF37F010EE2FF02E5028
:10313000E1262F50E222E6CF38F0E6CF39F0E6CF95
:103140003AF0E6CF3BF03450385C3C6E355039589D
:103150003D6E36503A583E6E37503B583F6EDE500B
:103160003C5CDE503D58DE503E58DE503F58D8B0F3
:10317000BCEF98F0BEEF98F00CEF99F020EE02F063
:103180002E50D9262F50DA22020EDE18D8A4CBEF0B
:1031900098F0CDEF98F00CEF99F0330E2E24226EBC
:1031A000000E2F20236E20EE1BF02E50D9262F501C
:1031B000DA22DECF30F0DECF31F0DECF32F0DECFFC
:1031C00033F020EE2FF02E50D9262F50DA22DECF0A
:1031D00034F0DECF35F0DECF36F0DECF37F03050D2
:1031E0003424246E31503520256E32503620266E20
:1031F00033503720276E000E296E010E286E20EE08
:1032000001F02E50D9262F50DA22DF5017ECA3F010
:103210000CEF99F0010E406E40501200AEC0D9FF85
:10322000AFC0DAFFDECFB2F0DDCFB3F0AEC075F0E5
:10323000AFC076F0000E0001776F000E786F000EC1
:10324000796F000E7A6F18EC92F00001B56FB551EE
:10325000D8B42DEF99F02FEF99F033EF99F00001EA
:10326000B551CFEF99F0B2C041F0B3C042F020EEBB
:1032700016F0AE51D926AF51DA22DECF43F0DECFC1
:1032800044F0DECF45F0DECF46F019ECA0F00001AF
:10329000B56FB551D8B44FEF99F051EF99F053EFA6
:1032A00099F02FEF99F020EE1AF0AE51D926AF51D8
:1032B000DA22DECFB0F0DDCFB1F0B0C0D9FFB1C0BF
:1032C000DAFFDF50B46FB451D8A469EF99F06BEF17
:1032D00099F06FEF99F0040EB56F2FEF99F020EE93
:1032E00004F0AE51D926AF51DA2210EE1AF0AE51E9
:1032F000E126AF51E22200EE0BF0E650E926E55060
:10330000EA22EF503F0BDF6E20EE1AF0AE51D926C5
:10331000AF51DA2210EE0BF0DE50E126DD50E22252
:10332000E7B695EF99F097EF99F0B8EF99F020EEA6
:103330001AF0AE51D926AF51DA22DECF05F0DDCF3B
:1033400006F01C0EAE25076E000EAF21086E000EB3
:103350000A6E0B0E096ED6ECA1F005500610D8A42B
:10336000B4EF99F0B6EF99F0B8EF99F02FEF99F02C
:10337000AEC094F0AFC095F0000E0001976F000E44
:10338000966F03EC90F00001B56FB551D8B4CBEF58
:1033900099F0CDEF99F033EF99F02FEF99F01200FB
:1033A0000001C451C511D8A4D8EF99F0DAEF99F013
:1033B000DDEF99F0090E90EF9AF0C60E606F000EE7
:1033C000616FC80E626F000E636F000E646F00ECD9
:1033D00080F00001CA6FCA51D8A4F1EF99F0F3EF61
:1033E00099F07FEF9AF0C4C0D9FFC5C0DAFFC8C01A
:1033F000DEFFC9C0DDFFC4C0B6F0C5C0B7F0C6C0AF
:10340000B8F0C7C0B9F02CEC95F00001CA6FCA51F2
:10341000D8A40DEF9AF00FEF9AF074EF9AF020EE27
:1034200027F0C451D926C551DA22DFBE1AEF9AF02F
:103430001CEF9AF04CEF9AF020EE04F0C451D9261C
:10344000C551DA22DFA827EF9AF029EF9AF04AEF68
:103450009AF0C8C00CF0C9C00DF020EE1AF0C451AB
:10346000D926C551DA22DECF0EF0DDCF0FF05CECAD
:10347000A2F0000120EE06F0C451D926C551DA228F
:103480000CC0DEFF0DC0DEFF0EC0DEFF0FC0DEFF92
:103490004CEF9AF0050ECA6FCA51D8A452EF9AF0B9
:1034A00054EF9AF074EF9AF020EE05F0C851D92647
:1034B000C951DA2210EE02F0C451E126C551E222D0
:1034C000DECFE6FFDDCFE5FFC4C075F0C5C076F006
:1034D000000E776F000E786F000E796F000E7A6F16
:1034E00018EC92F00001CA6F040ECA19D8A47BEF41
:1034F0009AF07DEF9AF07FEF9AF0050ECA6FCA51ED
:10350000D8B485EF9AF087EF9AF08FEF9AF0C4C0A5
:10351000D9FFC5C0DAFF000EDE6E000EDD6ECA51A7
:10352000120014C01EF015C01FF016C020F017C006
:1035300021F0A9ECA6F00009D8A4A1EF9AF0A3EF1E
:103540009AF0A6EF9AF0000E46EF9BF00001F7B755
:10355000ACEF9AF0AEEF9AF0B7EF9AF0090ED89070
:103560001E361F3620362136E82EAFEF9AF01A04A9
:103570001B10D8A4BEEF9AF0C0EF9AF0E6EF9AF0D5
:103580001EC00DF01FC00EF020C00FF021C010F0C3
:10359000180E5CEC9EF00009D8A4D1EF9AF0D3EF9E
:1035A0009AF043EF9BF018C00CF019C00DF0FE0E1E
:1035B0000E6E1AECA2F00C500D10D8B4E2EF9AF097
:1035C000E4EF9AF043EF9BF043EF9BF0060EF71504
:1035D0001C6E000EF8151D6E1C501D10D8B4F3EFB4
:1035E0009AF0F5EF9AF0FEEF9AF01AC00DF01BC0BA
:1035F0000EF00F6A106A970E5CEC9EF01EC00DF084
:103600001FC00EF020C00FF021C010F0190E5CECAE
:103610009EF00009D8A40FEF9BF011EF9BF043EF51
:103620009BF018C00CF019C00DF0FC0E0E6E1AECD9
:10363000A2F00C500D10D8A420EF9BF022EF9BF0CD
:1036400024EF9BF032EF9BF0020E19261A06D8A049
:103650001B061A501B10D8A430EF9BF032EF9BF0E2
:1036600011EF9BF0000E0C6E000E0D6EFD0E0E6E37
:103670001AECA2F00C500D10D8A441EF9BF043EFD0
:103680009BF043EF9BF099ECA6F0010E120020EEA8
:1036900003F04C50D9264D50DA22000EDF6E20EE9A
:1036A0002FF04C50D9264D50DA22FF0EDE6EFF0E61
:1036B000DE6EFF0EDE6EFF0EDD6E4CC041F04DC0C3
:1036C00042F04EC043F04FC044F050C045F051C0EE
:1036D00046F019ECA0F00009D8B471EF9BF073EF3D
:1036E0009BF076EF9BF0040EF2EF9BF0310E4C2432
:1036F000056E020E4D20066E92ECA5F0550E0518D3
:1037000009E1AA0E0618D8B488EF9BF08AEF9BF067
:103710008DEF9BF0030EF2EF9BF020EE33F04C5058
:10372000D9264D50DA22E90EDE18D8B49AEF9BF074
:103730009CEF9BF0BAEF9BF020EE33F04C50D92673
:103740004D50DA22EB0EDE18D8B4A9EF9BF0ABEFA8
:103750009BF0BAEF9BF020EE33F04C50D9264D5041
:10376000DA22E80EDE18D8A4B8EF9BF0BAEF9BF08F
:10377000F1EF9BF0690E4C24056E000E4D20066E95
:10378000F80E076EFF0E086E000E0A6E030E096E2D
:10379000D6ECA1F005500610D8A4D1EF9BF0D3EFE2
:1037A0009BF0D6EF9BF0000EF2EF9BF0850E4C24C1
:1037B000056E000E4D20066EF20E076EFF0E086EAF
:1037C000000E0A6E050E096ED6ECA1F0055006102B
:1037D000D8A4EDEF9BF0EFEF9BF0F1EF9BF0D3EF70
:1037E0009BF0020E12000E680F6805C0D9FF06C0DC
:1037F000DAFFDECF10F0DDCF11F010C00BF011C0FA
:103800000CF010501110D8A408EF9CF00AEF9CF0B7
:103810000EEF9CF0056806689CEF9CF00BC0F6FF6D
:103820000CC0F7FF000EF86E0800F5CF0DF00B4A44
:103830000C2A200E0D641FEF9CF021EF9CF02AEF64
:103840009CF03A0E0D18D8A428EF9CF02AEF9CF0BB
:103850000EEF9CF03A0E0D18D8A431EF9CF033EF28
:103860009CF095EF9CF0000E0A6E010E096E10C0E0
:10387000F6FF11C0F7FF000EF86E2F0E0800F5647A
:1038800044EF9CF046EF9CF076EF9CF010C0F6FF02
:1038900011C0F7FF000EF86E3A0E0800F56053EF06
:1038A0009CF055EF9CF076EF9CF0020E1024076E12
:1038B000000E1120086E0B50071807E10C50081875
:1038C000D8A465EF9CF067EF9CF076EF9CF010C0F9
:1038D000F6FF11C0F7FF000EF86E0800F5CF07F0F5
:1038E000D00E0724096E0A6AFF0E0A220ABE83EF71
:1038F0009CF00A5006E10904D8B081EF9CF083EFF8
:103900009CF08FEF9CF009C00EF00AC00FF005C0CC
:10391000D9FF06C0DAFF0BC0DEFF0CC0DDFF0EC012
:1039200005F00FC006F09CEF9CF0FBC00EF00F6A94
:103930000EC005F00FC006F0120041C02EF042C0CC
:103940002FF040EC98F00009D8B4A9EF9CF0ABEF51
:103950009CF0AEEF9CF0010E40EF9DF041C011F0E5
:1039600042C012F043C013F044C014F045C015F03B
:1039700046C016F0B3EC9FF011C04BF012C04CF0F3
:1039800013C04DF014C04EF020EE2FF04150D92658
:103990004250DA224BC0DEFF4CC0DEFF4DC0DEFFDE
:1039A0004EC0DEFF330E4124056E000E4220066E2F
:1039B000000E086E000E076E020E0A6E000E096EF3
:1039C000AEECA5F0330E4124496E000E42204A6E43
:1039D000000E506E010E4F6E000E526E000E516EB4
:1039E000F6EF9CF04F5051265050522220EE09F035
:1039F0004150D9264250DA22DE50515CDE505258F6
:103A0000D8B005EF9DF007EF9DF02CEF9DF049C079
:103A100022F04AC023F051504B24246E52504C20C7
:103A2000256E000E4D20266E000E4E20276E4FC0D4
:103A300028F050C029F020EE01F04150D926425024
:103A4000DA22DF5017ECA3F00009D8B42AEF9DF07A
:103A50002CEF9DF0F2EF9CF020EE09F04150D926BA
:103A60004250DA225150DE1807E15250DE18D8A435
:103A70003CEF9DF03FEF9DF0010E40EF9DF0000EFA
:103A8000120014C01CF015C01DF016C01EF017C0A7
:103A90001FF0A9ECA6F00009D8A451EF9DF053EF58
:103AA0009DF056EF9DF0000EDCEF9DF00001F7B7A2
:103AB0005CEF9DF05EEF9DF067EF9DF0090ED890F2
:103AC0001C361D361E361F36E82E5FEF9DF01A0499
:103AD0001B10D8A46EEF9DF070EF9DF098EF9DF055
:103AE0001CC00DF01DC00EF01EC00FF01FC010F066
:103AF000110E5CEC9EF00009D8A481EF9DF083EFDD
:103B00009DF0D9EF9DF018C00CF019C00DF0020E19
:103B10000F6E000E0E6EDAECA2F00C500D10D8B441
:103B200094EF9DF096EF9DF0D9EF9DF0D9EF9DF0C9
:103B30001CC00DF01DC00EF01EC00FF01FC010F015
:103B4000120E5CEC9EF00009D8A4A9EF9DF0ABEF3B
:103B50009DF0D9EF9DF018C00CF019C00DF0020EC9
:103B60000F6E000E0E6EDAECA2F00C500D10D8A401
:103B7000BCEF9DF0BEEF9DF0C0EF9DF0CEEF9DF04D
:103B8000020E19261A06D8A01B061A501B10D8A41C
:103B9000CCEF9DF0CEEF9DF0ABEF9DF0000E0D6EE3
:103BA000000E0E6E000E0F6E000E106E0C0E5CEC12
:103BB0009EF099ECA6F0010E1200090E136E09504A
:103BC0000A10D8B4E6EF9DF0E8EF9DF03CEF9EF0D0
:103BD00009C0D9FF0AC0DAFFDE50DE10D8B4F3EF17
:103BE0009DF0F5EF9DF03CEF9EF009C0D9FF0AC0B3
:103BF000DAFFDECF0DF0DDCF0EF00DC0D9FF0EC025
:103C0000DAFFDF50D8B407EF9EF009EF9EF03CEFEB
:103C10009EF009C0D9FF0AC0DAFF10EE05F0DE50B1
:103C2000E126DD50E22220EE02F00950D9260A50AA
:103C3000DA22E650DE1807E1E650DE18D8A423EFBA
:103C40009EF025EF9EF03CEF9EF009C0D9FF0AC020
:103C5000DAFF10EE01F0DE50E126DD50E222E750FF
:103C60009CECA2F00D6E0DB038EF9EF03AEF9EF096
:103C70003CEF9EF0000E136E1350D8B442EF9EF04E
:103C800044EF9EF04AEF9EF0000E116E000E126E91
:103C900052EF9EF009C0D9FF0AC0DAFFDECF11F063
:103CA000DDCF12F00BC0D9FF0CC0DAFF11C0DEFF70
:103CB00012C0DDFF13501200136E13AE62EF9EF0C0
:103CC00064EF9EF073EF9EF0139E63ECA4F0126E0F
:103CD000010E12646EEF9EF070EF9EF073EF9EF097
:103CE0001250D4EF9EF00C0E1318D8B47AEF9EF059
:103CF0007CEF9EF08CEF9EF099ECA6F076ECA5F0B0
:103D000009500A10D8A487EF9EF089EF9EF08CEF3F
:103D10009EF0FF0ED4EF9EF0135040094BECA6F03E
:103D200010504BECA6F00F504BECA6F00E504BECA5
:103D3000A6F00D504BECA6F0010E116E1350D8A456
:103D4000A4EF9EF0A6EF9EF0A8EF9EF0950E116EE8
:103D5000080E1318D8A4AFEF9EF0B1EF9EF0B3EFAA
:103D60009EF0870E116E11504BECA6F00C0E13183E
:103D7000D8A4BDEF9EF0BFEF9EF0C2EF9EF0FF0E05
:103D80004BECA6F00A0E116EFF0E4BECA6F0126E75
:103D900012AECDEF9EF0CFEF9EF070EF9EF0112EA1
:103DA000C4EF9EF070EF9EF01200BBC009F0BCC0E3
:103DB0000AF0BF0E0B6E000E0C6EDDEC9DF00001E4
:103DC000C16FC151D8A4E7EF9EF0E9EF9EF045EF37
:103DD0009FF0BD51BE11D8A4F0EF9EF0F2EF9EF01F
:103DE00004EF9FF0BBC075F0BCC076F0000E776F9B
:103DF000000E786F000E796F000E7A6F18EC92F05B
:103E00000001C16F45EF9FF0BBC0AEF0BCC0AFF08A
:103E1000000EB16F000EB06F6EEC97F00001C16F35
:103E2000040EC119D8A417EF9FF019EF9FF01BEFF4
:103E30009FF0000EC16FC151D8A421EF9FF023EF76
:103E40009FF045EF9FF0BBC012F0BCC013F0BDC0A7
:103E500014F0BEC015F071EC96F0BBC094F0BCC07D
:103E600095F0000E0001976F000E966F03EC90F036
:103E70000001C16F040EC119D8A441EF9FF043EFB8
:103E80009FF045EF9FF0000EC16FC1511200A9C015
:103E9000ADF0AAC0AEF0AD0E056E000E066EF3ECEE
:103EA0009BF005C0B1F006C0B2F00001B2BF5DEFFB
:103EB0009FF05BEF9FF060EF9FF00B0EB2EF9FF073
:103EC000D890B135D96EB235DA6E560ED926000EBD
:103ED000DA22DECFAFF0DDCFB0F0AF51B011D8B401
:103EE00074EF9FF076EF9FF07CEF9FF0AFC0D9FFAB
:103EF000B0C0DAFF000EDF6EA751A811D8B483EF6F
:103F00009FF085EF9FF08BEF9FF0A7C0D9FFA8C06F
:103F1000DAFF000EDF6ED890B135D96EB235DA6EA9
:103F2000560ED926000EDA22A7C0DEFFA8C0DDFF9C
:103F3000AB51D8A49EEF9FF0A0EF9FF0A3EF9FF0AE
:103F4000000EB2EF9FF0A90E606F000E616FA70E1A
:103F5000626F000E636F000E646F00EC80F0000172
:103F6000AC6FAC511200020E135E000E145A155ABB
:103F7000165A20EE17F01150D9261250DA22FE0EF2
:103F8000DE24176EFF0EDE20186EFF0EDE20196E87
:103F9000FF0EDE201A6E1750135C1850145819507B
:103FA00015581A501658D8A0D8EF9FF0DAEF9FF0A6
:103FB000E4EF9FF0000E116E000E126E000E136EF5
:103FC000000E146E18EFA0F020EE2BF01150D92641
:103FD0001250DA22DECF17F0DECF18F0DECF19F064
:103FE000DECF1AF020EE09F01150D9261250DA2255
:103FF000DECF1BF0DDCF1CF01BC005F01CC006F0AF
:10400000076A086A13C009F014C00AF015C00BF063
:1040100016C00CF02EECA4F017500524116E1850A9
:104020000620126E19500720136E1A500820146EC5
:104030001200000E4B6E20EE2FF04150D926425058
:10404000DA224350DE180FE14450DE180CE14550EF
:10405000DE1809E14650DE18D8B431EFA0F033EF96
:10406000A0F079EFA0F041C02EF042C02FF040EC5C
:1040700098F04B6E4B50D8A440EFA0F042EFA0F068
:1040800079EFA0F0330E4124206E000E4220216E05
:1040900043C022F044C023F045C024F046C025F0C0
:1040A000000E276E010E266E20EE01F04150D9263B
:1040B0004250DA22DF5051ECA3F00009D8B463EF8C
:1040C000A0F065EFA0F06BEFA0F04368446845688E
:1040D0004668010E4B6E20EE2FF04150D92642501B
:1040E000DA2243C0DEFF44C0DEFF45C0DEFF46C02B
:1040F000DEFF4B50120020EE03F00550D92606508B
:10410000DA22DF50096E09500E6E0F6A106A116ACA
:1041100020EE02F00550D9260650DA22DF50096E53
:1041200009500EC00BF00FC00CF010C00DF00A6A61
:104130000A100E6E0B500F6E0C50106E0D50116E5B
:1041400020EE01F00550D9260650DA22DF50096E24
:1041500009500EC00BF00FC00CF010C00DF00A6A31
:104160000A100E6E0B500F6E0C50106E0D50116E2B
:1041700005C0D9FF06C0DAFFDF50096E09500EC036
:104180000BF00FC00CF010C00DF00A6A0A100E6E92
:104190000B500F6E0C50106E0D50116E0EC005F0CE
:1041A0000FC006F010C007F011C008F01200066E34
:1041B0000E0196BBDEEFA0F0E0EFA0F02DEFA1F036
:1041C0000650040D010EF326000EF4228B0EF3248C
:1041D000F66EFF0EF420F76EF86A000EF822080063
:1041E000F5CF95FE0650040D8B0EF324F66EFF0EF0
:1041F000F420F76EF86A000EF8220800F5CF96FE5C
:10420000000E976F0650040D020EF326000EF422E6
:104210008B0EF324F66EFF0EF420F76EF86A000E94
:10422000F8220800F5CF93FE0650040D030EF32686
:10423000000EF4228B0EF324F66EFF0EF420F76EC0
:10424000F86A000EF8220800F5CF05F005468950FF
:104250000518FD0B0518896E968B120021EE4DF0A6
:1042600011EE00F00C0EDBCFE3FFE806FCE27EEC83
:10427000A6F00009D8B43FEFA1F041EFA1F083EF21
:10428000A1F08C0E0001A76F030EA86FFC0EA96FA2
:10429000FF0EAA6F010EAB6F47EC9FF00009D8A488
:1042A00054EFA1F056EFA1F082EFA1F0230E000130
:1042B000C46F010EC56FB80EC66FFF0EC76FD0EC8E
:1042C00099F0230E0001BB6F010EBC6F0D0EBD6F88
:1042D000010EBE6FD5EC9EF001011651D8A473EF0C
:1042E000A1F075EFA1F061EFA1F0000E0001A76F42
:1042F000000EA86FFC0EA96FFF0EAA6F000EAB6F29
:1043000047EC9FF000F01200000E0D6E000E0E6ED6
:10431000000E0F6E000E106E09500A100B100C10DC
:10432000D8B495EFA1F097EFA1F0CDEFA1F0010E79
:10433000116EA1EFA1F0D89009360A360B360C3673
:10434000112A0CAEA6EFA1F0A8EFA1F09BEFA1F00F
:10435000D8900D360E360F3610360950055C0A50CF
:1043600006580B5007580C500858D8A0BAEFA1F0C7
:10437000BCEFA1F0C5EFA1F00950055E0A50065A46
:104380000B50075A0C50085A0D80D8900C320B3243
:104390000A320932112EA8EFA1F00DC005F00EC0AF
:1043A00006F00FC007F010C008F0120005C00DF0B5
:1043B00006C00EF007C00FF008C010F00DC0D9FF06
:1043C0000EC0DAFFDF500B6E0FC0F6FF10C0F7FF14
:1043D000000EF86E0E0EF76403D00800F55005D0FD
:1043E000F6CFE9FFF7CFEAFFEF500C6E0C500B5CF5
:1043F000116E126AD8A012060F4A102A0D4A0E2A10
:104400000906D8A00A0609500A10D8B40AEFA2F08B
:104410000CEFA2F015EFA2F011501210D8B413EF68
:10442000A2F015EFA2F0DEEFA1F011C005F012C06E
:1044300006F0120013ECA5F006500710D8A423EFE5
:10444000A2F025EFA2F02BEFA2F0000E0D6E000EF1
:104450000C6E5BEFA2F00E504BECA6F0FD0E0E18AA
:10446000D8B435EFA2F037EFA2F057EFA2F00CC0AE
:1044700006F00DC007F0020E096E000E086E59EC32
:10448000A5F0FF0E4BECA6F0FF0E4BECA6F0FF0ED6
:104490004BECA6F00F6E0F501F0B050AD8B453EF6C
:1044A000A2F055EFA2F057EFA2F025EFA2F0000E18
:1044B0000D6E010E0C6E12001A0E0E24056E000E0B
:1044C0000F20066E92ECA5F005C014F006C015F0A2
:1044D000166A176A0CC0D9FF0DC0DAFF030EDE188A
:1044E000D8A475EFA2F077EFA2F093EFA2F0140E2C
:1044F0000E24056E000E0F20066E92ECA5F00550FE
:10450000106E0650116E126A136A11C013F010C0BB
:1045100012F0116A106A1050141211501512125034
:1045200016121350171214C00CF015C00DF016C05F
:104530000EF017C00FF01200076E010E086EC7EFE5
:10454000A2F07EECA6F00009D8A4A9EFA2F0ABEF90
:10455000A2F0AFEFA2F0020E086EBAEFA2F0A9EC43
:10456000A6F0E806D8A4B7EFA2F0B9EFA2F0BAEF30
:10457000A2F00890A3ECA6F0E806D8A4C2EFA2F03F
:10458000C4EFA2F0D8EFA2F00884D8EFA2F0075051
:10459000056E066A0650000AD8B4D1EFA2F0D8EF33
:1045A000A2F00550000AD8B4A1EFA2F0D8EFA2F013
:1045B00008501200000E596E640E586EFF0E4BEC40
:1045C000A6F0106E1028D8A4E8EFA2F0EAEFA2F04F
:1045D000F3EFA2F058505910D8A4F1EFA2F0F3EF86
:1045E000A2F0DEEFA2F0FE0E1018D8B4FAEFA2F09F
:1045F000FCEFA2F002EFA3F0000E0D6E000E0C6EA9
:1046000016EFA3F00CC006F00DC007F00EC008F0C6
:104610000FC009F03BECA5F0FF0E4BECA6F0FF0E2F
:104620004BECA6F0000E0D6E010E0C6E12002C6EFF
:10463000040E2D6E3EEFA3F024C014F025C015F03B
:1046400026C016F027C017F022C018F023C019F0BA
:1046500028C01AF029C01BF091EC9AF0E806D8A403
:1046600034EFA3F036EFA3F03AEFA3F0000E2D6E77
:104670004FEFA3F0010E2D6E4FEFA3F02C502A6EDA
:104680002B6A2B50000AD8B448EFA3F04FEFA3F0E9
:104690002A50000AD8B41CEFA3F04FEFA3F02D501E
:1046A00012002A6E040E2B6E78EFA3F022C014F0D5
:1046B00023C015F024C016F025C017F020C018F054
:1046C00021C019F026C01AF027C01BF041EC9DF064
:1046D000E806D8A46EEFA3F070EFA3F074EFA3F098
:1046E000000E2B6E89EFA3F0010E2B6E89EFA3F065
:1046F0002A50286E296A2950000AD8B482EFA3F004
:1047000089EFA3F02850000AD8B456EFA3F089EF40
:10471000A3F02B501200000E836E100E846E180E44
:10472000856E8868E50E896E8A68E70E0F01216F35
:10473000C10E196F1169000E2D6F000E186F000E5B
:10474000106F000E206F000E0F6F000E176F000E1F
:104750001F6F0E6916691E690D6915691D69080EBE
:104760002A6F0A0E0E01906F130EB76F110EF06FC5
:104770000F0EFA6F100EFB6F120EF26F140EB86F61
:10478000090E8F6F120005C0D9FF06C0DAFF07C0FF
:10479000DFFF054A062A08C007F009C008F00AC072
:1047A00009F00A6A05C0D9FF06C0DAFF07C0DFFFBB
:1047B000054A062A08C007F009C008F00AC009F037
:1047C0000A6A05C0D9FF06C0DAFF07C0DFFF054A45
:1047D000062A08C007F009C008F00AC009F00A6AF2
:1047E00005C0D9FF06C0DAFF07C0DFFF054A062A69
:1047F0001200FDEFA3F0054A062A05C0F6FF06C029
:10480000F7FF000EF86E0800F5500009D8B40BEF62
:10481000A4F00DEFA4F023EFA4F005C0F6FF06C04E
:10482000F7FF000EF86E0800F550096E0A6A07508F
:10483000091807E108500A18D8A421EFA4F023EFC3
:10484000A4F0FBEFA3F005C0F6FF06C0F7FF000ED3
:10485000F86E0800F550056E066A1200000E0D6E27
:10486000000E0E6E000E0F6E000E106E05A03BEFD8
:10487000A4F03DEFA4F045EFA4F009500D260A5036
:104880000E220B500F220C501022D89009360A36F7
:104890000B360C36D89008320732063205320550F6
:1048A000061007100810D8A458EFA4F05AEFA4F08F
:1048B00036EFA4F00DC005F00EC006F00FC007F0F3
:1048C00010C008F0120099ECA6F076ECA5F00950A3
:1048D0000A10D8A46EEFA4F070EFA4F073EFA4F068
:1048E000FF0E96EFA4F0770E4BECA6F0000E4BEC0B
:1048F000A6F0000E4BECA6F0000E4BECA6F0000E5E
:104900004BECA6F0010E4BECA6F00A0E0C6EFF0E5F
:104910004BECA6F00B6E0BAE90EFA4F092EFA4F070
:1049200095EFA4F00C2E87EFA4F00B501200206E30
:10493000010E216EAEEFA4F0E5EC93F0E806D8A4EA
:10494000A4EFA4F0A6EFA4F0AAEFA4F0000E216E4D
:10495000BFEFA4F0010E216EBFEFA4F020501E6E39
:104960001F6A1F50000AD8B4B8EFA4F0BFEFA4F03C
:104970001E50000AD8B49CEFA4F0BFEFA4F0215061
:104980001200B20EF66E4C0EF76E010EF86E01EECE
:104990004DF010EE1AF00900F5CFEEFFE550E150B2
:1049A000FAE101EE6AF018EEAAF0EE6AE550E15085
:1049B000FCE1E250FAE100EECBF0330EEE6AE806DD
:1049C000FDE1596A586A576A566A5A905A9200012C
:1049D000E0EFA5F058C001F059C002F001500210FC
:1049E000D8B4F5EFA4F0F7EFA4F0FEEFA4F00106C1
:1049F000D8A0020601C058F002C059F0F9C001F079
:104A0000FAC002F001500210D8B409EFA5F00BEF84
:104A1000A5F012EFA5F00106D8A0020601C0F9F03A
:104A200002C0FAF01200010E0001FA6FF40EF96FE5
:104A3000FF0E4BECA6F0086E0828D8B422EFA5F0C4
:104A400024EFA5F02EEFA5F00001F951FA11D8A43A
:104A50002CEFA5F02EEFA5F018EFA5F00828D8B49C
:104A600034EFA5F037EFA5F0010E38EFA5F0000EFA
:104A7000066E076A120006C00AF007C00BF04BEF83
:104A8000A5F0000E4BECA6F00AC0D9FF0BC0DAFF70
:104A9000DF6E0A4A0B2A0806D8A00906082806E194
:104AA0000928D8A456EFA5F058EFA5F041EFA5F0DE
:104AB000120006C00AF007C00BF068EFA5F00AC0AC
:104AC000D9FF0BC0DAFFDF504BECA6F00A4A0B2AE5
:104AD0000806D8A00906082806E10928D8A473EF1B
:104AE000A5F075EFA5F05FEFA5F012008498FF0E1A
:104AF0004BECA6F013ECA5F006500710D8B483EFEA
:104B0000A5F085EFA5F08BEFA5F0000E0A6E010E63
:104B1000096E91EFA5F099ECA6F0000E0A6E000E5A
:104B2000096E120020EE01F00550D9260650DA2257
:104B3000DF50076E07500A6E0B6A05C0D9FF06C02A
:104B4000DAFFDF50076E0A50086E07500A6E08C081
:104B50000BF00AC005F00BC006F0120005C00BF008
:104B600006C00CF00BC0D9FF0CC0DAFF07C0DFFF96
:104B70000B4A0C2A0906D8A00A0609500A10D8A424
:104B8000C4EFA5F0C6EFA5F0B2EFA5F01200010149
:104B9000675168116911D8B4D0EFA5F0D2EFA5F034
:104BA000DFEFA5F002D8DFEFA5F00500FA6E675140
:104BB000FD6E6851FE6E6951FF6EFA5012001200D0
:104BC0002EECA6F0D40E056E490E066E010E076E91
:104BD00088ECA6F0F28EF28CACECA6F02EECA1F0F4
:104BE000F0EFA5F020EF00F0800ED66E1E0ED46E12
:104BF000000ED36E0E01CA9BC28B600E056E4D0E69
:104C0000066E010E076E88ECA6F0800ED56E1200BF
:104C100005C0D9FF06C0DAFF07C0DFFF054A062A34
:104C20000850076E086A05C0D9FF06C0DAFF07C042
:104C3000DFFF054A062A1200090E0E018F6F0A0EC9
:104C4000906F110EF06F120EF26F400E956F0A0EFC
:104C5000966F9F0E936F8992969B1200AEECA6F012
:104C60003DECA6F072ECA6F01CECA6F08BECA3F0E9
:104C700066ECA6F0F4ECA5F01200000E0E01E16F58
:104C8000000EE26F000EE36F000EE46F000EE56FA2
:104C9000000EE66F1200056E05C092FE0E01CDA556
:104CA00054EFA6F056EFA6F04EEFA6F0CD95925138
:104CB000120048656C6C6F20576F726C642100485D
:104CC000656C6C6F20576F726C642100600E0E0172
:104CD000D86F000EDA6F000EDC6F080EDE6F000E6C
:104CE000DD6F1200800E956E080E966E000E976EA8
:104CF000080E986E9F0E936E969A12008EAA83EFFE
:104D0000A6F086EFA6F0010E87EFA6F0000E1200C7
:104D100005C067F106C068F107C069F11200000E16
:104D2000066E000E056E1200000E066E000E056E79
:104D300012008488FF0E4BECA6F012000E01CA9BF5
:104D4000C7ECA5F012000001FC5112000E01969B69
:104D500012000001FD511200D58E1200F29A1200CD
:024D600012003F
:020000040020DA
:10000000FF0FFF0FFF0FFF0FFF0FFF0FFF0FFF0F80
:020000040030CA
:0C0000008CFFFFFF9FFFFFFFFFFFFFFFD3
:00000001FF
