:0400000032EF00F0EB
:100008005C82FACF5AF0FBCF5BF00E01C2AB0FEF68
:1000180000F011EF00F01CEF00F0CAAB16EF00F093
:1000280018EF00F01CEF00F076EC09F02CEF00F070
:10003800C2A921EF00F023EF00F02CEF00F0CAA9CD
:1000480028EF00F02AEF00F02CEF00F05DEC09F04B
:100058005BC0FBFF5AC0FAFF5C92110046EF08F044
:100F000000809A45418E418F804545454949498E2B
:100F10008F9092924F994F555559999A9B9C9D9EAF
:100F20009F41494F55A5A5A6A7A8A9AAABACADAEB0
:100F3000AFB0B1B2B3B4B5B6B7B8B9BABBBCBDBE49
:100F4000BFC0C1C2C3C4C5C6C7C8C9CACBCCCDCE39
:100F5000CFD0D1D2D3D4D5D6D7D8D9DADBDCDDDE29
:100F6000DFE0E1E2E3E4E5E6E7E8E9EAEBECEDEE19
:100F7000EFF0F1F2F3F4F5F6F7F8F9FAFBFCFDFE09
:100F8000FF00000000000000000000000000000062
:100F90000000000000000000000000000000000051
:100FA0000000000000000000000000000000000041
:100FB000000A409F0000409F002B2E2C3B3D5B5DB4
:100FC0002F5C222A3A3C3E3F7C7F00222A2B2C3A7F
:100FD0003B3C3D3E3F5B5D7C7F00616E6F746865AE
:100FE000722E7478740048454C4C4F2E545854005F
:100FF00046415433320046415400303A0000000E5E
:10100000836E100E846E190E856E8868E50E896EEB
:10101000FE0E8A6EE40E0F01216FC10E196F000ED5
:10102000116F000E2D6F000E186F000E106F030E63
:10103000206F000E0F6F000E176F000E1F6F0E69EE
:1010400016691E690D6915691D69080E2A6F1A93C4
:101050001B831C93000E0001A06F130EA16F000EE6
:10106000A26F6FEC09F00E01C2890A0E906F130E89
:10107000B76F110EF06F0F0EFA6F100EFB6F120E9E
:10108000F26F140EB86F090E8F6F1200580EF66EC5
:10109000120EF76E000EF86E00EE38F010EE1AF039
:1010A0000900F5CFEEFFE550E150FAE100EEA3F0C4
:1010B00018EEAAF0EE6AE550E150FCE1E250FAE1E8
:1010C00000EE60F0400EEE6AE806FDE100EE01F091
:1010D000370EEE6AE806FDE15C905C9200019AEF43
:1010E00008F033C058F034C059F058505910D8B4F3
:1010F0007CEF08F07EEF08F085EF08F05806D8A0E6
:10110000590658C033F059C034F031C058F032C0DD
:1011100059F058505910D8B490EF08F092EF08F0F9
:1011200099EF08F05806D8A0590658C031F059C0B8
:1011300032F012000FEC09F0E20E0001A06F100E69
:10114000A16F000EA26F68EC09F0A20E0001A06F63
:10115000120EA16F000EA26F6FEC09F0F28EF28CEE
:101160007BEC09F0B2EF08F032EF00F0555056106A
:101170005710D8B4BEEF08F0C0EF08F0CDEF08F07C
:1011800002D8CDEF08F00500FA6E5550FD6E5650AE
:10119000FE6E5750FF6EFA5012000F011A931200A4
:1011A000525053105410D8B4D8EF08F0DAEF08F0CA
:1011B000E7EF08F002D8E7EF08F00500FA6E5250AA
:1011C000FD6E5350FE6E5450FF6EFA501200120026
:1011D000800ED66E1E0ED46E000ED36E0E01CA9B0C
:1011E000C28BFE0E0001A06F120EA16F000EA26F47
:1011F00068EC09F0800ED56E1200090E0E018F6F9B
:101200000A0E906F110EF06F120EF26F400E956F76
:101210000A0E966F9F0E936F8992969B12007DEC3B
:1012200009F01EEC09F045EC09F0FDEC08F0FFECCC
:1012300007F039EC09F0E8EC08F01200000E0E019E
:10124000E16F000EE26F000EE36F000EE46F000E20
:10125000E56F000EE66F120048656C6C6F20576FEB
:10126000726C64210048656C6C6F20576F726C64FF
:101270002100600E0E01D86F000EDA6F000EDC6FD9
:10128000080EDE6F000EDD6F1200800E956E080EE8
:10129000966E000E976E080E986E9F0E936E969A3D
:1012A000120000F08590000E596E000E586E00F08E
:1012B000584A592A57EF09F012000F011AA363EF99
:1012C00009F065EF09F067EF09F0B6EC08F01200DD
:1012D000A0C052F0A1C053F0A2C054F01200A0C0B0
:1012E00055F0A1C056F0A2C057F012000E01CA9BE3
:1012F000D0EC08F01200D58E1200F29A1200120003
:021300001200D9
:020000040020DA
:10000000FF0FFF0FFF0FFF0FFF0FFF0FFF0FFF0F80
:020000040030CA
:0C0000008CFFFFFF9FFFFFFFFFFFFFFFD3
:00000001FF
