:0400000032EF00F0EB
:100008005B82FACF03F0FBCF04F00E01C2AB0FEF17
:1000180000F011EF00F01CEF00F0CAAB16EF00F093
:1000280018EF00F01CEF00F001EC8EF02CEF00F060
:10003800C2A921EF00F023EF00F02CEF00F0CAA9CD
:1000480028EF00F02AEF00F02CEF00F04FEC8EF0D4
:1000580004C0FBFF03C0FAFF5B9211008FEF8BF027
:10FED20000809A45418E418F804545454949498E6A
:10FEE2008F9092924F994F555559999A9B9C9D9EEE
:10FEF2009F41494F55A5A5A6A7A8A9AAABACADAEEF
:10FF0200AFB0B1B2B3B4B5B6B7B8B9BABBBCBDBE87
:10FF1200BFC0C1C2C3C4C5C6C7C8C9CACBCCCDCE77
:10FF2200CFD0D1D2D3D4D5D6D7D8D9DADBDCDDDE67
:10FF3200DFE0E1E2E3E4E5E6E7E8E9EAEBECEDEE57
:10FF4200EFF0F1F2F3F4F5F6F7F8F9FAFBFCFDFE47
:10FF5200FFF61B01B21B01A21B015E0C01F40F0193
:10FF6200EA1B01081401441C013C1C01341C012C35
:10FF72001C01241C011C1C01141C01DE1B015A164D
:10FF8200010A409F0000409F002B2E2C3B3D5B5DF1
:10FF92002F5C222A3A3C3E3F7C7F004A616E4665D6
:10FFA200624D61724170724D61794A756E4A756C2B
:10FFB2004175675365704F63744E6F764465630095
:10FFC20053756E4D6F6E547565576564546875460A
:10FFD200726953617400222A2B2C3A3B3C3D3E3F0E
:10FFE2005B5D7C7F0048454C4C4F2E545854004674
:0DFFF200415433320046415400303A0000C3
:020000040001F9
:10000000000E176E000E186E000E0D6E000E0E6EB6
:10001000000E116E000E126E56505710D8A413EF3A
:1000200080F015EF80F01BEF80F0000E056E000EE3
:10003000066E3CEF81F056C015F057C016F0A1EFE8
:1000400080F015C0D9FF16C0DAFF0550DE1807E1B1
:100050000650DE18D8A42FEF80F031EF80F05EEF6D
:1000600080F011501210D8B438EF80F03AEF80F0E1
:100070004CEF80F020EE02F01550D9261650DA220F
:1000800010EE02F01150E1261250E222DECFE6FF20
:10009000DDCFE5FF56EF80F020EE02F01550D926B7
:1000A0001650DA22DECF56F0DDCF57F0020E1524BF
:1000B000056E000E1620066E3CEF81F015C0D9FFCC
:1000C00016C0DAFFDE50055CDE500658D8B06BEF84
:1000D00080F06DEF80F093EF80F017501810D8B4D7
:1000E00074EF80F076EF80F08BEF80F017C0D9FFCF
:1000F00018C0DAFF15C0E1FF16C0E2FFDE50E65C73
:10010000DE50E658D8A087EF80F089EF80F08BEFC3
:1001100080F093EF80F015C017F016C018F011C0F2
:100120000DF012C00EF015C011F016C012F020EE46
:1001300002F01550D9261650DA22DECF15F0DDCFA9
:1001400016F015501610D8A4A8EF80F0AAEF80F092
:1001500021EF80F017501810D8B4B1EF80F0B3EF52
:1001600080F015EF80F020EE02F01750D9261850DD
:10017000DA22DECF13F0DDCF14F017C0D9FF18C09C
:10018000DAFFDECF07F0DDCF08F00550075E06503E
:10019000085A085009E1050E075CD8A0D2EF80F09C
:1001A000D4EF80F01AEF81F017C0D9FF18C0DAFF42
:1001B000DECF07F0DDCF08F00550075E0650085A85
:1001C000FE0E07240B6EFF0E08200C6E17C0D9FF21
:1001D00018C0DAFF05C0DEFF06C0DDFF17C0D9FF7B
:1001E00018C0DAFFDECF07F0DDCF08F017C009F046
:1001F00018C00AF00750092608500A22020E0924E6
:100200000F6E000E0A20106E0FC0D9FF10C0DAFF6B
:100210000BC0DEFF0CC0DDFF20EE02F00F50D92630
:100220001050DA2213C0DEFF14C0DDFF0FC013F040
:1002300010C014F01750561807E118505718D8A4DA
:1002400024EF81F026EF81F02CEF81F013C056F0FF
:1002500014C057F036EF81F020EE02F00D50D92691
:100260000E50DA2213C0DEFF14C0DDFF020E172489
:10027000056E000E1820066E120020EE0CF01250D3
:10028000D9261350DA22DECF05F0DDCF06F0000EBE
:10029000086E030E076E0BEC8DF0C20E0524166E71
:1002A000FF0E0620176EAB0E186E000E196E16C0EC
:1002B000F6FF17C0F7FF000EF86E18C0D9FF19C07F
:1002C000DAFF0800F5CFDFFF164A172A184A192A65
:1002D00016C0F6FF17C0F7FF000EF86E18C0D9FF62
:1002E00019C0DAFF0800F5CFDFFF164A172A184AAF
:1002F000192A16C0F6FF17C0F7FF000EF86E18C0D7
:10030000D9FF19C0DAFF0800F5CFDFFF184A192A14
:1003100018C0D9FF19C0DAFF200EDF6E184A192A5B
:1003200020EE08F01250D9261350DA22DECF05F065
:10033000DDCF06F0000E086E030E076E0BEC8DF09D
:100340009D0E0524166EFF0E0620176E16C0F6FFD2
:1003500017C0F7FF000EF86E18C0D9FF19C0DAFFFA
:100360000800F5CFDFFF164A172A184A192A16C0C7
:10037000F6FF17C0F7FF000EF86E18C0D9FF19C0BE
:10038000DAFF0800F5CFDFFF164A172A184A192AA4
:1003900016C0F6FF17C0F7FF000EF86E18C0D9FFA1
:1003A00019C0DAFF0800F5CFDFFF200E0001B26FA1
:1003B000B50E0D6E000E0E6E20EE06F01250D92610
:1003C0001350DA22DF500F6E200E106E200E116EC9
:1003D00080EC89F0B80E0D6E000E0E6E20EE04F06B
:1003E0001250D9261350DA22DF500F6E300E106EE5
:1003F0003A0E116E80EC89F0BB0E0D6E000E0E6E83
:1004000020EE02F01250D9261350DA22DF500F6E80
:10041000300E106E3A0E116E80EC89F0BE0E0D6E2D
:10042000000E0E6E12C0D9FF13C0DAFFDF500F6E40
:10043000300E106E200E116E80EC89F020EE0AF066
:100440001250D9261350DA22DECF05F0DDCF06F0A8
:10045000000E086E640E076E93EC86F00550130FC5
:10046000146EC10E0D6E000E0E6E14C00FF0200E35
:10047000106E000E116E80EC89F020EE0AF0125022
:10048000D9261350DA22DECF05F0DDCF06F0000EBC
:10049000086E640E076E4DEC87F00550156EC30EA6
:1004A0000D6E000E0E6E15C00FF0300E106E0A0E9F
:1004B000116E80EC89F0AB0E126E000E136E1200FE
:1004C000000E166E680E43EC8AF0366E010E166E44
:1004D000680E43EC8AF0376E020E166E680E43EC1F
:1004E0008AF0386E030E166E680E43EC8AF0356E95
:1004F000040E166E680E43EC8AF0396E050E166E09
:10050000680E43EC8AF03A6E060E166E680E43ECE7
:100510008AF03B6E36C031F00F0E311636C032F025
:10052000323A0F0E3216070E321632500A0DF3CF42
:1005300033F0F4CF34F0315033243C6E000E3420CD
:100540003D6E37C031F00F0E311637C032F0323AFF
:100550000F0E3216070E321632500A0DF3CF33F05B
:10056000F4CF34F0315033243E6E000E34203F6E11
:1005700038C031F00F0E311638C032F0323A0F0E5B
:100580003216030E321632500A0DF3CF33F0F4CF89
:1005900034F031503324406E000E3420416E35C0AB
:1005A00031F0070E3116FF0E3124486E496AFF0EF6
:1005B000492239C031F00F0E311639C032F0323ACB
:1005C0000F0E3216030E321632500A0DF3CF33F0EF
:1005D000F4CF34F031503324426E000E3420436E99
:1005E0003AC031F0313A0F0E3116070E3116315044
:1005F0000A0DF3CF32F0F4CF33F03AC034F00F0EDF
:10060000341634503226000E3322FF0E3224446E4C
:10061000FF0E3320456E3BC031F0313A0F0E3116DC
:100620000F0E311631500A0DF3CF32F0F4CF33F004
:100630003BC034F00F0E341634503226000E3322F5
:10064000640E3224466E000E3320476E20EE3CF0DE
:1006500000EE19F0170EDBCFEBFFE806FCE212000C
:1006600005C00BF006C00CF005500610D8A43BEFF7
:1006700083F03DEF83F03FEF83F0E2EF83F0FE0E77
:100680000B240D6EFF0E0C200E6E56505710D8B472
:100690004CEF83F04EEF83F0D6EF83F00DC0D9FF1F
:1006A0000EC0DAFFDECF07F0DDCF08F00BC009F097
:1006B0000CC00AF00750092608500A2256500918A3
:1006C00007E157500A18D8A468EF83F06AEF83F067
:1006D00094EF83F020EE02F05650D9265750DA22DC
:1006E00010EE02F00D50E1260E50E222DECFE6FFC2
:1006F000DDCFE5FF56C0D9FF57C0DAFFDECF07F0E8
:10070000DDCF08F0020E0726000E08220DC0D9FF2B
:100710000EC0DAFF0750DE260850DD220DC056F06D
:100720000EC057F0E2EF83F056C0D9FF57C0DAFF92
:10073000DECF07F0DDCF08F056C009F057C00AF051
:100740000750092608500A22020E0926000E0A2226
:100750000D50091807E10E500A18D8A4B2EF83F023
:10076000B4EF83F0CAEF83F00DC0D9FF0EC0DAFFFB
:10077000DECF07F0DDCF08F0020E0726000E0822BC
:1007800056C0D9FF57C0DAFF0750DE260850DD22D9
:10079000E2EF83F020EE02F00D50D9260E50DA225F
:1007A00056C0DEFF57C0DDFF8EEF83F020EE02F073
:1007B0000D50D9260E50DA22000EDE6E000EDD6ED0
:1007C0008EEF83F012002B6E1EC005F0066A000E3D
:1007D000086E0A0E076E93EC86F005502C6E2C50B6
:1007E000F60DF3501E241F6E1DC005F0066A000EA4
:1007F000086E0A0E076E93EC86F005502D6E2D5094
:10080000F60DF3501D24206E1CC005F0066A000E84
:10081000086E0A0E076E93EC86F005502E6E2E5071
:10082000F60DF3501C24216E1AC005F0066A000E66
:10083000086E0A0E076E93EC86F005502F6E2F504F
:10084000F60DF3501A24226E19C005F0066A000E48
:10085000086E0A0E076E93EC86F00550306E30502D
:10086000F60DF3501924236E2BC005F0066A000E16
:10087000086E0A0E076E93EC86F00550316E31500B
:10088000F60DF3502B24246E2C38F00B1F10256E20
:100890002D38F00B2010266E2E38F00B2110276E0D
:1008A0002F38F00B2210286E3038F00B2310296EF1
:1008B0003138F00B24102A6E000E166E25C017F08A
:1008C000680E81EC8AF0010E166E26C017F0680ED5
:1008D00081EC8AF0020E166E27C017F0680E81ECCC
:1008E0008AF0030E166E1BC017F0680E81EC8AF0BA
:1008F000040E166E28C017F0680E81EC8AF0050E03
:10090000166E29C017F0680E81EC8AF0060E166E7E
:100910002AC017F0680E81EC8AF0120019501A10E4
:10092000D8A495EF84F097EF84F099EF84F0194AFA
:100930001A2A9CC09CF09DC09DF01A5007E1040E3D
:10094000195CD8B0A6EF84F0A8EF84F0ACEF84F087
:10095000000E1A6E040E196E19C005F01AC006F0CA
:1009600000EC80F005C021F006C022F021502210DA
:10097000D8A4BDEF84F0BFEF84F02DEF85F0000127
:100980009C519A5D1B6E9D519B591C6E19501B5CAE
:100990001A501C58D8B0CFEF84F0D1EF84F00BEF91
:1009A00085F0020E19241D6E000E1A201E6E1D0EFB
:1009B000056E000E066EF5EC86F005C023F006C04D
:1009C00024F023502410D8A4E8EF84F0EAEF84F058
:1009D000F0EF84F0000E196E000E1A6E31EF85F004
:1009E00023C023F024C024F000019A51231809E108
:1009F0009B512418D8B4FFEF84F001EF85F005EF88
:100A000085F023C09CF024C09DF01D5023249A6FD4
:100A10001E5024209B6F9CC021F09DC022F021C05D
:100A20001FF022C020F01FC0D9FF20C0DAFF19C07C
:100A3000DEFF1AC0DDFF020E1F26000E20221FC09F
:100A400021F020C022F0020E19241B6E000E1A2085
:100A50001C6E1B509C271C509D2321C019F022C0E6
:100A60001AF01200336E33C019F01A6A8EEC84F05B
:100A700019C034F01AC035F033C00FF0106A34C01A
:100A800011F035C012F0B3EC8DF034C0D9FF35C091
:100A9000DAFFDF50326E3250196E1A6A8EEC84F033
:100AA00019C036F01AC037F034C0D9FF35C0DAFFAC
:100AB000DF50326E3250056E066A36C007F037C01E
:100AC00008F09FEC88F020EE02F03650D92637501F
:100AD000DA22DF50196E20EE03F03650D926375057
:100AE000DA22DF501A6E20EE04F03650D926375045
:100AF000DA22DF501B6E20EE05F03650D926375033
:100B0000DA22DF501C6E20EE06F03650D926375020
:100B1000DA22DF501D6E20EE07F03650D92637500E
:100B2000DA22DF501E6E20EE01F03650D926375003
:100B3000DA22DF50326E36C0D9FF37C0DAFFDF501D
:100B4000640DF3503224E3EC83F034C005F035C07B
:100B500006F030EC83F036C005F037C006F030EC1C
:100B600083F01200000E886E000E0A6E000E096EF1
:100B7000F7EF85F009500524D96E0A500620DA6E89
:100B8000DF508D6E094A0A2A000E0C6E000E0B6EA5
:100B900000F00B4A0C2A0CBED7EF85F0F40E0B5C6C
:100BA000010E0C58D8A0D7EF85F0D9EF85F0C8EF2B
:100BB00085F08590000E0E6E000E0D6E00F00D4A51
:100BC0000E2A0EBEEDEF85F0F40E0D5C010E0E58F0
:100BD000D8A0EDEF85F0EFEF85F0DEEF85F08580B2
:100BE0008FB2F5EF85F0F7EF85F0F0EF85F0075065
:100BF000095C08500A58D8A000EF86F002EF86F092
:100C0000BAEF85F0000E106E000E0F6E00F00F4A66
:100C1000102A10BE15EF86F0F40E0F5C010E10586E
:100C2000D8A015EF86F017EF86F006EF86F08590D6
:100C3000000E126E000E116E00F0114A122A12BE42
:100C40002BEF86F0F40E115C010E1258D8A02BEF9A
:100C500086F02DEF86F01CEF86F085801200BEEC4A
:100C60008DF00009D8B437EF86F039EF86F076EFD3
:100C700086F047EF86F022EC8EF092EF86F01EECC5
:100C80008EF092EF86F016EC8EF092EF86F078C040
:100C900010F079C011F020EE69F002D85AEF86F01A
:100CA0000500FA6EDE50FD6EDE50FE6EDE50FF6E09
:100CB000FA501200126E136A1350000AD8B463EF90
:100CC00086F043EF86F01250010AD8B443EF86F065
:100CD000030AD8B43BEF86F0010AD8B43FEF86F0A0
:100CE000070AD8B443EF86F043EF86F000018991FC
:100CF00083C0D9FF84C0DAFF834B842BDF5026ECFE
:100D00008EF000018507D8A0860785518611D8A4EA
:100D10008CEF86F08EEF86F091EF86F0060E92EF64
:100D200086F0030E1200000E0A6E08BE9CEF86F0DD
:100D30009AEF86F0A2EF86F0076C081ED8B0082A5A
:100D4000010E0A6E06BEA9EF86F0A7EF86F0AFEFA0
:100D500086F0056C061ED8B0062A010E0A1A000E8F
:100D60000C6E000E0B6E07500810D8B4BAEF86F068
:100D7000BCEF86F0E4EF86F0010E096EC4EF86F05A
:100D8000D89007360836092A08AEC9EF86F0CBEFAF
:100D900086F0C0EF86F0D8900B360C360750055C15
:100DA00008500658D8A0D7EF86F0D9EF86F0DEEFCE
:100DB00086F00750055E0850065A0B80D89008321E
:100DC0000732092ECBEF86F00A50D8B4EAEF86F04E
:100DD000ECEF86F0F0EF86F00B6C0C1ED8B00C2A0E
:100DE0000BC005F00CC006F0120005C0D9FF06C00C
:100DF000DAFFDECF09F0DDCF0AF00001965197113E
:100E0000D8A405EF87F007EF87F00BEF87F0880E87
:100E1000966F0E0E976F0A5007E1060E095CD8B068
:100E200014EF87F016EF87F01AEF87F0000E0A6EC6
:100E3000060E096E0950965D0B6E0A5097590C6E9E
:100E4000540E076E050E086E07500B5C08500C58C8
:100E5000D8A02DEF87F02FEF87F03AEF87F096516B
:100E60000B5C97510C58D8A038EF87F03AEF87F019
:100E700044EF87F0000E996F0C0E986F000E056E10
:100E8000000E066E4CEF87F00BC096F00CC097F08A
:100E900096C005F097C006F01200000E0A6E06BE5E
:100EA00056EF87F054EF87F05CEF87F0056C061E75
:100EB000D8B0062A010E0A6E08BE63EF87F061EF14
:100EC00087F067EF87F0076C081ED8B0082A075034
:100ED0000810D8B46EEF87F070EF87F094EF87F0CA
:100EE000010E096E78EF87F0D89007360836092A88
:100EF00008AE7DEF87F07FEF87F074EF87F0075043
:100F0000055C08500658D8A088EF87F08AEF87F074
:100F10008EEF87F00750055E0850065AD8900832C9
:100F20000732092E7FEF87F00A50D8B49AEF87F086
:100F30009CEF87F0A0EF87F0056C061ED8B0062A5C
:100F400005C005F006C006F012008FB2AAEF87F0C8
:100F5000ACEF87F0F9EF87F08DCFEEF0000E0001D7
:100F6000EB6F000EEA6F00F00001EA4BEB2BEBBFDA
:100F7000C3EF87F0F40EEA5D010EEB59D8A0C3EF82
:100F800087F0C5EF87F0B3EF87F08590000EED6F27
:100F9000000EEC6F00F00001EC4BED2BEDBFDAEF33
:100FA00087F0F40EEC5D010EED59D8A0DAEF87F072
:100FB000DCEF87F0CAEF87F08580EEAFE2EF87F0D5
:100FC000E4EF87F0EFEF87F0EE51070BE66FEE31BD
:100FD000E832E8320F0B63EC8BF0F8EF87F0EE515C
:100FE000070B056EEE31E832E8320F0B4DEC8EF058
:100FF0008868120039EC8EF083C0D9FF84C0DAFF14
:10100000DF6E0001834B842B8507D8A086078551AE
:101010008611D8B40EEF88F010EF88F015EF88F045
:101020002DEC8EF0050E4DEF88F0898720EF88F0CB
:101030000AEC8EF04DEF88F00EEC8EF04DEF88F05C
:1010400072C010F073C011F002D831EF88F00500C3
:10105000FA6E6051FD6E6151FE6E6251FF6EFA5084
:101060001200126E136A1350000AD8B43AEF88F0D7
:101070001CEF88F01250010AD8B41CEF88F0030A64
:10108000D8B418EF88F0010AD8B418EF88F0070A2E
:10109000D8B41CEF88F01CEF88F01200056E010E2A
:1010A000066E000189B557EF88F059EF88F09DEF83
:1010B00088F005C082F08993898589910E0E876F2B
:1010C000010E816FF40E806F89877E0E606F1C0E9B
:1010D000616F010E626F000E726F000E736F7E0EF5
:1010E000636F1C0E646F010E656F000E746F000E4F
:1010F000756F7E0E666F1C0E676F010E686F000EB7
:10110000766F000E776F7E0E696F1C0E6A6F010E90
:101110006B6F000E786F000E796F7A0E6C6F1C0E7D
:101120006D6F010E6E6F000E7A6F000E7B6F36ECE6
:101130008EF042EC8DF0000E066E065012008868AC
:10114000000E0A6E000E096EE3EF88F08FB2ABEF6F
:1011500088F0ADEF88F0A6EF88F009500724D96E2B
:101160000A500820DA6E8DCFDFFF094A0A2A000EE6
:101170000C6E000E0B6E00F00B4A0C2A0CBECAEF70
:1011800088F0F40E0B5C010E0C58D8A0CAEF88F062
:10119000CCEF88F0BBEF88F08590000E0E6E000E4D
:1011A0000D6E00F00D4A0E2A0EBEE0EF88F0F40E30
:1011B0000D5C010E0E58D8A0E0EF88F0E2EF88F049
:1011C000D1EF88F085800550095C06500A58D8A0F8
:1011D000ECEF88F0EEEF88F0A6EF88F0120060ECFC
:1011E00082F020EECEF0170EEBCFDBFFE806FCE23C
:1011F00020EEC6F0070EDE6AE806FDE26C0E000186
:10120000D825056E070ED921066E000E086E640EF5
:10121000076E93EC86F005500001C66F6C0ED82562
:10122000056E070ED921066E030E086EE80E076ED6
:1012300093EC86F00550180DF3500001D8256C0F83
:10124000C76FD629C86FD4C0C9F0DA29CA6FD2C017
:10125000CBF0D0C0CCF0CEC0CDF0000E146E080E96
:10126000136EF8EC8CF0C60E056E000E066E000EC6
:10127000086E080E076EB2EC85F0120060EC82F08A
:1012800020EECAF0170EEBCFDBFFE806FCE2CA0E39
:10129000126E000E136E3DEC81F012C0C6F013C04A
:1012A000C7F0C6C005F0C7C006F026EC8CF0010EF2
:1012B00005240001C86F000E0620C96FC807D8A01A
:1012C000C907C851C625546EC951C721556EFF0EB6
:1012D0005424D96EFF0E5520DA6E000EDF6EC8C0A2
:1012E00013F0C9C014F0F8EC8CF0C6C005F0C7C00C
:1012F00006F0C8C007F0C9C008F0B2EC85F01200D3
:101300000DC0D9FF0EC0DAFF11C0DFFF0FC005F01E
:10131000066A000E086E0A0E076E4DEC87F0055047
:10132000300F0D06D8A00E060DC0D9FF0EC0DAFF93
:10133000DF6E0FC005F0066A000E086E0A0E076E1B
:1013400093EC86F005500F6E0F50D8B4AAEF89F0D9
:10135000ACEF89F0B8EF89F00F50300F0D06D8A030
:101360000E060DC0D9FF0EC0DAFFDF6EC1EF89F0A7
:101370000D06D8A00E060DC0D9FF0EC0DAFF10C0B2
:10138000DFFF12000A6E055006100710D8B4CBEF2D
:1013900089F0CDEF89F0E9EF89F00A50030D600E76
:1013A000F324D96E000EF420DA6E05C0DEFF06C00D
:1013B000DEFF07C0DEFF0A50020D720EF324D96E65
:1013C000000EF420DA6E08C0DEFF09C0DDFF03EF77
:1013D0008AF00A50030D600EF324D96E000EF4203B
:1013E000DA6E7E0EDE6E1C0EDE6E010EDE6E0A50B2
:1013F000020D720EF324D96E000EF420DA6E000E88
:10140000DE6E000EDD6E12000001898715EF8AF096
:101410001AEC8EF042EF8AF02AEC8EF0030E42EFC7
:101420008AF016EC8EF042EF8AF072C010F073C0B2
:1014300011F002D826EF8AF00500FA6E6051FD6EB9
:101440006151FE6E6251FF6EFA501200126E136A05
:101450001350000AD8B42FEF8AF011EF8AF012501F
:10146000010AD8B411EF8AF0030AD8B408EF8AF061
:10147000010AD8B408EF8AF0070AD8B40CEF8AF052
:1014800011EF8AF01200176E000E186E17504EEC16
:1014900088F00009D8B44FEF8AF051EF8AF046EF98
:1014A0008AF0140E0B6E190E0C6E010E0D6E180ED6
:1014B0000E6E000E0F6E7FEC8DF0160E056E000E98
:1014C000066E000E086E010E076E1EEC8DF0000E0B
:1014D0000B6E000E0C6E000E0D6E000E0E6E000EEA
:1014E0000F6E71EC8DF006EC8EF0BAEC8CF0E80625
:1014F000D8B47DEF8AF07FEF8AF075EF8AF018504C
:101500001200186E18504EEC88F00009D8B48BEF1A
:101510008AF08DEF8AF082EF8AF0B40E0B6E180E0F
:101520000C6E010E0D6E170E0E6E000E0F6E7FEC20
:101530008DF0160E056E000E066E000E086E010E82
:10154000076E1EEC8DF0000E0B6E000E0C6E000E82
:101550000D6E000E0E6E000E0F6E71EC8DF006EC2F
:101560008EF0BAEC8CF0E806D8B4B9EF8AF0BBEF95
:101570008AF0B1EF8AF01200000E836E100E846EB6
:10158000190E856E8868E50E896EFE0E8A6EE40E71
:101590000F01216FC10E196F000E116F000E2D6F1C
:1015A000000E186F000E106F000E206F000E0F6FF0
:1015B000000E176F000E1F6F0E6916691E690D6908
:1015C00015691D69080E2A6F0E01C2890A0E906FF7
:1015D000130EB76F110EF06F0F0EFA6F100EFB6F38
:1015E000120EF26F140EB86F090E8F6F120036ECE8
:1015F0008EF0000189A1FFEF8AF001EF8BF00EEF72
:101600008BF0BEEC8DF00009D8B409EF8BF00BEF36
:101610008BF00EEF8BF00F0E0001876F00018751EA
:10162000030D530EF324F66EFF0EF420F76EF86AE6
:10163000000EF82202D82AEF8BF00500FA6E09009E
:10164000F550FD6E0900F550FE6E0900F550FF6E75
:10165000FA5012000001876F120000018991020EFA
:10166000886F3BEF8BF01AEC8EF062EF8BF016EC8C
:101670008EF062EF8BF076C010F077C011F020EEA4
:1016800066F002D84EEF8BF00500FA6EDE50FD6E6C
:10169000DE50FE6EDE50FF6EFA501200126E136ABC
:1016A0001350000AD8B457EF8BF037EF8BF012507D
:1016B000020AD8B433EF8BF0010AD8B433EF8BF0C1
:1016C00037EF8BF012000001E96F74EF8BF03EEC06
:1016D00089F08EEF8BF0EFEC88F08EEF8BF0E65117
:1016E00032EC85F08EEF8BF00001E951E76FE86B8B
:1016F000E851000AD8B47FEF8BF08EEF8BF0E75102
:10170000000AD8B467EF8BF0010AD8B46BEF8BF006
:10171000090AD8B46FEF8BF08EEF8BF01200D00E69
:10172000F66E1B0EF76E010EF86E00EEEFF010EE87
:101730000DF00900F5CFEEFFE550E150FAE100EEC3
:10174000FFF014EE55F0EE6AE550E150FCE1E25096
:10175000FAE100EE60F0660EEE6AE806FDE15A6A14
:10176000596A586A576A566A5B905B920001D0EFDB
:101770008CF058C001F059C002F001500210D8B4EA
:10178000C4EF8BF0C6EF8BF0CDEF8BF00106D8A045
:10179000020601C058F002C059F0A6C001F0A7C06F
:1017A00002F001500210D8B4D8EF8BF0DAEF8BF0D2
:1017B000E1EF8BF00106D8A0020601C0A6F002C03E
:1017C000A7F01200146E010E156E000189B3EBEF45
:1017D0008BF0EDEF8BF002EF8CF08983000E156E2D
:1017E0001450D8B4F6EF8BF0F8EF8BF0FCEF8BF0E1
:1017F000010E876FFEEF8BF0020E876F45EC8EF0C7
:1018000053EC8DF01550120020EE02F01050D92646
:101810001150DA22DECF05F0DDCF06F010C0D9FF7F
:1018200011C0DAFFDECF07F0DDCF08F01EEC8DF03F
:10183000000E0B6E000E0C6E000E0D6E000E0E6E86
:10184000000E0F6E7FEC8DF0020E120005C007F047
:1018500006C008F02EEF8CF0054A062A05C0D9FF15
:1018600006C0DAFFDF50D8A438EF8CF03AEF8CF0E6
:101870002CEF8CF00750055C056E08500658066E7C
:1018800012000001FC51FD11FE11D8B44AEF8CF09A
:101890004CEF8CF059EF8CF002D859EF8CF005002A
:1018A000FA6EFC51FD6EFD51FE6EFE51FF6EFA5058
:1018B0001200120010C005F011C006F0000E086EF4
:1018C000010E076E1EEC8DF0000E0B6E000E0C6EFE
:1018D000000E0D6E000E0E6E000E0F6E7FEC8DF082
:1018E000040E120010C005F011C006F0000E086EC4
:1018F000020E076E1EEC8DF0000E0B6E000E0C6ECD
:10190000000E0D6E000E0E6E000E0F6E7FEC8DF051
:10191000020E120010C005F011C006F0000E086E95
:10192000010E076E1EEC8DF0000E0B6E000E0C6E9D
:10193000000E0D6E000E0E6E000E0F6E7FEC8DF021
:10194000020E120010C005F011C006F0000E086E65
:10195000020E076E1EEC8DF0000E0B6E000E0C6E6C
:10196000000E0D6E000E0E6E000E0F6E7FEC8DF0F1
:10197000040E1200010E056E000189B3C2EF8CF057
:10198000C4EF8CF0CEEF8CF08995826936EC8EF046
:1019900033EC8EF047EC8EF088C005F00550120055
:1019A00062EC8DF0720E056E170E066E010E076E5C
:1019B000E1EC8DF0F28EF28C49EC8EF0A5EC87F024
:1019C000DEEF8CF032EF00F0800ED66E1E0ED46E7D
:1019D000000ED36E0E01CA9BC28B9C0E056E1C0EB0
:1019E000066E010E076EE1EC8DF0800ED56E1200D2
:1019F000000E166E000E156E13C015F01450166E04
:101A0000150E056E000E066E000E086E020E076EB5
:101A1000B2EC85F0120005500702F3CF09F0F4CFC5
:101A20000AF005500802F3500A2606500702F35048
:101A30000A2609C005F00AC006F01200000189A7B5
:101A400024EF8DF026EF8DF02FEF8DF005C083F0A1
:101A500006C084F007C085F008C086F089971200A0
:101A6000090E0E018F6F0A0E906F110EF06F120E9D
:101A7000F26F400E956F0A0E966F9F0E936F8992CC
:101A8000969B120096BA47EF8DF049EF8DF052EF1A
:101A90008DF0800E956E080E966E000E976E9F0E5E
:101AA000936E968A120059EF8DF0C8EC8DF0F7EC2A
:101AB0008AF0000189B35FEF8DF061EF8DF055EF93
:101AC0008DF012004BEC8EF08DEC8DF0A7EC8DF0CC
:101AD00030EC8DF0BCEC8AF09BEC8DF0E4EC8CF0FB
:101AE00012000BC005F00CC006F00DC007F00EC0D0
:101AF00008F00FC009F0020EC2EC89F012000BC012
:101B000005F00CC006F00DC007F00EC008F00FC0C5
:101B100009F0000EC2EC89F01200000E0E01E16F18
:101B2000000EE26F000EE36F000EE46F000EE56F33
:101B3000000EE66F1200600E0E01D86F000EDA6F15
:101B4000000EDC6F080EDE6F000EDD6F1200800EDF
:101B5000956E080E966E000E976E080E986E9F0E8C
:101B6000936E969A12000FC005F010C006F011C0D7
:101B700007F012C008F09FEC88F0120097BCC3EF8A
:101B80008DF0C6EF8DF0010EC7EF8DF0000E120044
:101B90000E01CDA1CEEF8DF0D0EF8DF0C8EF8DF01E
:101BA0001200000189818251822526EC8EF0030EFD
:101BB000120000018981D880823526EC8EF0050E56
:101BC000120005C0FCF006C0FDF007C0FEF01200D8
:0D1BD00048656C6C6F20576F726C642100CB
:101BDE0000018993000E886F0E0E1200000189918C
:101BEE003BEC8EF0040E120000018993000E886FFC
:101BFE000E0E12000E01CA9B41EC8CF01200000E6C
:101C0E00E2EC8BF0120030EC8EF0090E120030EC8C
:101C1E008EF00A0E12002DEC8EF0050E120041EC25
:101C2E008EF0000E120043EC8EF0010E120043EC0B
:101C3E008EF0020E120043EC8EF0010E1200056EB5
:101C4E0005C092FF12000E01CD811200979A97885F
:101C5E001200978A978812000E01C59112000E018C
:101C6E00CD9112009250120097861200050E1200AE
:101C7E00010E1200978412009782120097801200B4
:101C8E00969A1200D58E1200F29A120012001200CD
:021C9E00120032
:020000040020DA
:10000000FF0FFF0FFF0FFF0FFF0FFF0FFF0FFF0F80
:020000040030CA
:0C0000008CFFFFFF9FFFFFFFFFFFFFFFD3
:00000001FF
