:0400000020EF00F0FD
:100008005A82FACF03F0FBCF04F00E01C2AB0FEF18
:1000180000F011EF00F01AEF00F0CAAB16EF00F095
:1000280018EF00F01AEF00F091EC2EF004C0FBFF7F
:0C00380003C0FAFF5A921100B4EF2CF044
:100F000000809A45418E418F804545454949498E2B
:100F10008F9092924F994F555559999A9B9C9D9EAF
:100F20009F41494F55A5A5A6A7A8A9AAABACADAEB0
:100F3000AFB0B1B2B3B4B5B6B7B8B9BABBBCBDBE49
:100F4000BFC0C1C2C3C4C5C6C7C8C9CACBCCCDCE39
:100F5000CFD0D1D2D3D4D5D6D7D8D9DADBDCDDDE29
:100F6000DFE0E1E2E3E4E5E6E7E8E9EAEBECEDEE19
:100F7000EFF0F1F2F3F4F5F6F7F8F9FAFBFCFDFE09
:100F8000FF00000000000000000000000000000062
:100F90000000000000000000000000000000000051
:100FA0000000000000000000000000000000000041
:100FB000000A409F0000409F002B2E2C3B3D5B5DB4
:100FC0002F5C222A3A3C3E3F7C7F00222A2B2C3A7F
:100FD0003B3C3D3E3F5B5D7C7F0048454C4C4F2E8B
:100FE0005458540046415433320046415400303A7C
:100FF000000062C0D9FF63C0DAFF000EDE6E000E93
:10100000DD6E60C005F061C006F0E9EC23F005C0BC
:101010008DF006C08EF000018EBF13EF08F011EFC7
:1010200008F016EF08F00B0E39EF0EF0D8908D3562
:10103000D96E8E35DA6EF70ED926000EDA22DECFA3
:10104000A5F0DDCFA6F0A551A611D8A42AEF08F08F
:101050002CEF08F02FEF08F00C0E39EF0EF062C005
:10106000D9FF63C0DAFFA5C0DEFFA6C0DDFF649133
:10107000A5C0D9FFA6C0DAFFDF50D8B442EF08F010
:1010800044EF08F06BEF08F020EE01F0A551D926EF
:10109000A651DA22DF508FEC2AF00001956F95B14E
:1010A00054EF08F056EF08F06BEF08F06451D8B435
:1010B0005CEF08F05EEF08F068EF08F095A563EFCD
:1010C00008F065EF08F068EF08F00A0E39EF0EF04F
:1010D000000E39EF0EF0A5C0D9FFA6C0DAFF000E52
:1010E000DF6E20EE01F0A551D926A651DA228DC07F
:1010F000DFFF20EE01F0A551D926A651DA22DF50FC
:101100008AEC2CF00001956F95A189EF08F08BEF28
:1011100008F08EEF08F0030E39EF0EF06451D8B4EA
:1011200094EF08F096EF08F09FEF08F095A59BEF7D
:1011300008F09DEF08F09FEF08F065EF08F0000E53
:101140009E6F000E9F6F000EA06F000EA16FA5C0D6
:101150004CF0A6C04DF09EC04EF09FC04FF0A0C016
:1011600050F0A1C051F03DEC23F00001A46F020E3D
:10117000A419D8B4BEEF08F0C0EF08F0C2EF08F031
:1011800096EF09F0000EA36F000EA26FA35109E1C4
:10119000040EA25DD8A0CFEF08F0D1EF08F0D3EF96
:1011A00008F033EF09F0A2C065F0A3C066F0653B1C
:1011B000663BF00E661765510F0B6613F00E651750
:1011C000A5C067F0A6C068F065516727665168231F
:1011D000F10E6725876F010E6821886F20EE04F0FD
:1011E0008751D9268851DA22DF50D8A4FAEF08F0C7
:1011F000FCEF08F006EF09F0000E7D6F000E7E6F29
:10120000000E7F6F000E806F16EF09F0080E872525
:10121000056E000E8821066E6EEC28F005C07DF08C
:1012200006C07EF007C07FF008C080F06D0E0001A0
:10123000656F000E666FD890A235D96EA335DA6E51
:10124000D890D936DA366551D9266651DA227DC072
:10125000DEFF7EC0DEFF7FC0DEFF80C0DEFFA24B70
:10126000A32BC6EF08F0000EA36F000EA26FA251D1
:10127000A311D8B43EEF09F040EF09F043EF09F0B5
:10128000A207D8A0A3076D0E656F000E666FD890F9
:10129000A235D96EA335DA6ED890D936DA366551D3
:1012A000D9266651DA22DECF9EF0DECF9FF0DECF68
:1012B000A0F0DECFA1F09E519F11A011A111D8A4E2
:1012C00064EF09F066EF09F06CEF09F0000E826F31
:1012D000030E816F7FEF09F0A5C04CF0A6C04DF062
:1012E0009EC04EF09FC04FF0A0C050F0A1C051F082
:1012F0003DEC23F00001656F6551816F826B81C009
:10130000A4F0010EA46587EF09F089EF09F096EFCC
:1013100009F0A24BA32BA35109E1040EA25DD8A0B2
:1013200094EF09F096EF09F043EF09F0040EA419C9
:10133000D8A49DEF09F09FEF09F0A2EF09F0010E8C
:1013400039EF0EF0010EA465A8EF09F0AAEF09F03D
:10135000ADEF09F00D0E39EF0EF03E0EA525056E2E
:10136000000EA621066E85EC2DF0020E0618051063
:10137000D8B4BDEF09F0BFEF09F0C1EF09F0AAEF53
:1013800009F0490E0001A525056E000EA621066E86
:1013900085EC2DF005C09AF006C09BF000019C6B17
:1013A0009D6B9A519B119C119D11D8A4DAEF09F005
:1013B000DCEF09F0ECEF09F0570EA525056E000EE5
:1013C000A621066E6EEC28F005C09AF006C09BF0D0
:1013D00007C09CF008C09DF0000120EE1BF0A55155
:1013E000D926A651DA229AC0DEFF9BC0DEFF9CC040
:1013F000DEFF9DC0DEFF20EE43F0A551D926A651A9
:10140000DA2210EE02F0A551E126A651E222DFCF4A
:10141000E7FF20EE02F0A551D926A651DA22DE041C
:10142000D8B415EF0AF017EF0AF028EF0AF020EE13
:1014300002F0A551D926A651DA22020EDE18D8B440
:1014400024EF0AF026EF0AF028EF0AF0AAEF09F0DD
:101450009AC005F09BC006F09CC007F09DC008F044
:1014600020EE02F0A551D926A651DA22DF50656F91
:101470006551096E0A6A0B6A0C6A21EC2CF005C0F2
:101480009AF006C09BF007C09CF008C09DF00001D8
:1014900020EE40F0A551D926A651DA22DF50656F23
:1014A000666B20EE09F0A551D926A651DA2265C057
:1014B000DEFF66C0DDFF20EE09F0A551D926A6515A
:1014C000DA22DE50DE10D8B468EF0AF06AEF0AF0D4
:1014D000AAEF09F020EE09F0A551D926A651DA228B
:1014E000DECF65F0DDCF66F0FF0E676FFF0E686F31
:1014F00020EE09F0A551D926A651DA22DECF69F0F7
:10150000DDCF6AF06751692768516A236551691711
:1015100066516A1769516A11D8B491EF0AF093EFD6
:101520000AF095EF0AF0AAEF09F0440EA525056E22
:10153000000EA621066E85EC2DF0000120EE07F0CE
:10154000A551D926A651DA2205C0DEFF06C0DDFF6F
:1015500020EE07F0A551D926A651DA22DECF65F09C
:10156000DDCF66F00F0E6517000E66176551661128
:10157000D8B4BDEF0AF0BFEF0AF0C1EF0AF0AAEF4E
:1015800009F0460EA525056E000EA621066E85EC17
:101590002DF005C091F006C092F00001936B946BA2
:1015A0009151921193119411D8A4D9EF0AF0DBEF65
:1015B0000AF0EBEF0AF0530EA525056E000EA621EA
:1015C000066E6EEC28F005C091F006C092F007C0E0
:1015D00093F008C094F0410E0001A525056E000EA1
:1015E000A621066E85EC2DF005C08FF006C090F0A8
:1015F00000018F519011D8A400EF0BF002EF0BF017
:1016000004EF0BF0AAEF09F020EE07F0A551D92660
:10161000A651DA22DECF65F0DDCF66F0040E676FEB
:10162000D89066336533672F10EF0BF08F51652527
:10163000686F90516621696F6A6BD8B06A2B6B6BCB
:101640009A516825896F9B5169218A6F9C516A2143
:101650008B6F9D516B218C6F8951915D8A5192598D
:101660008B5193598C519459D8B039EF0BF03BEF13
:101670000BF03DEF0BF0AAEF09F08951915D056E7B
:101680008A519259066E8B519359076E8C51945919
:10169000086E20EE09F0A551D926A651DA22DECF38
:1016A00065F0DDCF66F065C009F066C00AF00B6A30
:1016B0000C6A77EC29F005C096F006C097F007C0D9
:1016C00098F008C099F0000196519711981199115E
:1016D000D8A46DEF0BF06FEF0BF071EF0BF0AAEFEA
:1016E00009F0000EA46FF60E965DFF0E9759FF0EDF
:1016F00098590F0E9959D8B080EF0BF082EF0BF08C
:1017000084EF0BF0030EA46F9951981109E1F60EC6
:10171000965DFF0E9759D8B090EF0BF092EF0BF05B
:1017200094EF0BF0020EA46F9951981109E1F60E97
:10173000965D0F0E9759D8B0A0EF0BF0A2EF0BF00B
:10174000A4EF0BF0010EA46FA451D8A4AAEF0BF0E4
:10175000ACEF0BF0AEEF0BF0AAEF09F0020E9625FE
:10176000656F000E9721666F000E9821676F000E5F
:101770009921686F20EE17F0A551D926A651DA22DB
:1017800065C0DEFF66C0DEFF67C0DEFF68C0DEFF4B
:1017900020EE1FF0A551D926A651DA229EC0DEFF09
:1017A0009FC0DEFFA0C0DEFFA1C0DEFF8F519E25DF
:1017B000656F90519F21666F000EA021676F000E2C
:1017C000A121686F20EE23F0A551D926A651DA2277
:1017D00065C0DEFF66C0DEFF67C0DEFF68C0DEFFFB
:1017E00089519E25656F8A519F21666F8B51A0217B
:1017F000676F8C51A121686F20EE2BF0A551D9267F
:10180000A651DA2265C0DEFF66C0DEFF67C0DEFFDC
:1018100068C0DEFF030EA419D8A411EF0CF013EF7B
:101820000CF070EF0CF05D0EA525056E000EA621E4
:10183000066E85EC2DF005500610D8B422EF0CF0A2
:1018400024EF0CF026EF0CF0AAEF09F0000120EED7
:1018500007F0A551D926A651DA22DE50DE10D8B401
:1018600034EF0CF036EF0CF038EF0CF0AAEF09F083
:101870005F0EA525056E000EA621066E6EEC28F003
:10188000000120EE27F0A551D926A651DA2205C085
:10189000DEFF06C0DEFF07C0DEFF08C0DEFF20EE71
:1018A00017F0A551D926A651DA22DECF65F0DECF9A
:1018B00066F0DECF67F0DECF68F0020ED8906537B5
:1018C000663767376837E82E5EEF0CF065C083F047
:1018D00066C084F067C085F068C086F00FEF0DF039
:1018E00020EE07F0A551D926A651DA22DE50DE10EF
:1018F000D8A47DEF0CF07FEF0CF081EF0CF0AAEF95
:1019000009F020EE23F0A551D926A651DA22DECF28
:1019100065F0DECF66F0DECF67F0DECF68F09A517B
:101920006525696F9B5166216A6F9C5167216B6FBA
:101930009D5168216C6F20EE27F0A551D926A65144
:10194000DA2269C0DEFF6AC0DEFF6BC0DEFF6CC05A
:10195000DEFF020EA419D8B4B0EF0CF0B2EF0CF019
:10196000F8EF0CF020EE17F0A551D926A651DA2297
:10197000DECF65F0DECF66F0DECF67F0DECF68F059
:10198000010E6515696F000E66156A6F000E67150A
:101990006B6F000E68156C6F20EE17F0A551D926FD
:1019A000A651DA22DECF05F0DECF06F0DECF07F05B
:1019B000DECF08F0030E096E000E0A6E000E0B6EED
:1019C000000E0C6E21EC2CF0D89008320732063253
:1019D0000532000169510524836F6A510620846F26
:1019E0006B510720856F6C510820866F0FEF0DF04B
:1019F00020EE17F0A551D926A651DA22DECF65F0E8
:101A0000DECF66F0DECF67F0DECF68F0D8906535C8
:101A1000836F6635846F6735856F6835866FFF0E17
:101A20008325656F010E8421666F000E8521676F27
:101A3000000E8621686F0A0E23EF0DF0D8906833F0
:101A4000673366336533E82E1EEF0DF020EE1BF092
:101A5000A551D926A651DA226551DE5C6651DE58C1
:101A60006751DE586851DE58D8B039EF0DF03BEFC2
:101A70000DF03DEF0DF0AAEF09F020EE0FF0A551AB
:101A8000D926A651DA22FF0EDE6EFF0EDE6EFF0EA5
:101A9000DE6EFF0EDD6EDD52DD5210EE0BF0A55155
:101AA000E126A651E222DECFE6FFDECFE6FFDECF63
:101AB000E6FFDECFE6FF20EE04F0A551D926A651C1
:101AC000DA22800EDF6E030EA419D8A46AEF0DF09F
:101AD0006CEF0DF01AEF0EF0630EA525056E000EEB
:101AE000A621066E85EC2DF005040610D8A47BEF28
:101AF0000DF07DEF0DF01AEF0EF0A5C041F0A6C07D
:101B000042F0010E00019E25436E000E9F21446E9F
:101B1000000EA021456E000EA121466E0CEC28F0AF
:101B20000009D8A496EF0DF098EF0DF01AEF0EF023
:101B3000000120EE04F0A551D926A651DA22000EAC
:101B4000DF6E310EA525056E020EA621066E85EC10
:101B50002DF0550E051807E1AA0E0618D8A4B3EF0C
:101B60000DF0B5EF0DF01AEF0EF0330E0001A525C4
:101B7000056E000EA621066E6EEC28F0520E0518BA
:101B80000DE1520E06180AE1610E071807E1410E39
:101B90000818D8A4CEEF0DF0D0EF0DF01AEF0EF02C
:101BA000170E0001A525056E020EA621066E6EEC2D
:101BB00028F0720E05180DE1720E06180AE1410EAA
:101BC000071807E1610E0818D8A4E9EF0DF0EBEF54
:101BD0000DF01AEF0EF01B0E0001A525056E020E8A
:101BE000A621066E6EEC28F0000120EE0FF0A55144
:101BF000D926A651DA2205C0DEFF06C0DEFF07C0E7
:101C0000DEFF08C0DEFF1F0EA525056E020EA62111
:101C1000066E6EEC28F0000120EE0BF0A551D926DF
:101C2000A651DA2205C0DEFF06C0DEFF07C0DEFFD8
:101C300008C0DEFFA5C0D9FFA6C0DAFFA4C0DFFF41
:101C40000001F54BF62B20EE05F0A551D926A65143
:101C5000DA22F5C0DEFFF6C0DDFF20EE13F0A5515D
:101C6000D926A651DA22DE6ADE6ADE6ADD6A68EF0C
:101C700008F0120077C0D9FF78C0DAFFDECF8EF00F
:101C8000DDCF8FF0000179517A117B117C11D8A43E
:101C90004CEF0EF04EEF0EF086EF0EF020EE0BF054
:101CA0008E51D9268F51DA22DECF86F0DECF87F033
:101CB000DECF88F0DECF89F0865187118811891137
:101CC000D8B465EF0EF067EF0EF07CEF0EF020EE6B
:101CD00017F08E51D9268F51DA22DE50865DDE5004
:101CE0008759DE508859DE508959D8A07AEF0EF016
:101CF0007CEF0EF0EBEF0EF0010E866F000E876F9B
:101D0000000E886F000E896FEBEF0EF077C04CF07D
:101D100078C04DF079C04EF07AC04FF07BC050F0E3
:101D20007CC051F0E3EC15F04CC090F04DC091F048
:101D30004EC092F04FC093F0000193519211911157
:101D400007E1020E905DD8B0A8EF0EF0AAEF0EF0FA
:101D5000B4EF0EF0010E776F000E786F000E796F02
:101D6000000E7A6F11EF11F090290AE1912908E134
:101D7000922906E19329D8A4C0EF0EF0C2EF0EF02D
:101D8000CCEF0EF090C077F091C078F092C079F06F
:101D900093C07AF011EF11F020EE17F08E51D92692
:101DA0008F51DA22DE50905DDE509159DE5092590B
:101DB000DE509359D8B0DFEF0EF0E1EF0EF0E3EF15
:101DC0000EF0C2EF0EF079C086F07AC087F07BC0CB
:101DD00088F07CC089F020EE0FF08E51D9268F510B
:101DE000DA22DE50DE10DE10DE10D8A4FAEF0EF09C
:101DF000FCEF0EF006EF0FF0000E776F000E786F1D
:101E0000000E796F000E7A6F11EF11F0000E8A6FDD
:101E1000000E8B6F000E8C6F000E8D6F795186193E
:101E20000DE17A5187190AE17B51881907E17C514C
:101E30008919D8A41EEF0FF020EF0FF0C6EF0FF0B6
:101E4000010E86258A6F000E87218B6F000E882178
:101E50008C6F000E89218D6F20EE17F08E51D926E0
:101E60008F51DA22DE508A5DDE508B59DE508C595C
:101E7000DE508D59D8A03FEF0FF041EF0FF049EF42
:101E80000FF0020E8A6F000E8B6F000E8C6F000E2B
:101E90008D6F77C04CF078C04DF08AC04EF08BC08B
:101EA0004FF08CC050F08DC051F0E3EC15F04CC0F9
:101EB00090F04DC091F04EC092F04FC093F00001F1
:101EC0009005911192119311D8B469EF0FF06BEF57
:101ED0000FF0C2EF0EF090290AE1912908E1922952
:101EE00006E19329D8A477EF0FF079EF0FF07BEF9D
:101EF0000FF0C2EF0EF09051911192119311D8B4DE
:101F000084EF0FF086EF0FF0C6EF0FF020EE0BF02E
:101F10008E51D9268F51DA22DECF90F0DECF91F0AC
:101F2000DECF92F0DECF93F093519211911109E13F
:101F3000020E905DD8A09FEF0FF0A1EF0FF0BEEF63
:101F40000FF020EE17F08E51D9268F51DA22DE5095
:101F5000905DDE509159DE509259DE509359D8B0C1
:101F6000B4EF0FF0B6EF0FF0BEEF0FF090C086F0B9
:101F700091C087F092C088F093C089F0000E8A6FFC
:101F8000000E8B6F000E8C6F000E8D6F8A518B11BF
:101F90008C118D11D8A4CFEF0FF0D1EF0FF05EEFC1
:101FA00010F086C08AF087C08BF088C08CF089C0A2
:101FB0008DF0010E8A27000E8B238C238D2320EEBB
:101FC00017F08E51D9268F51DA22DE508A5DDE500D
:101FD0008B59DE508C59DE508D59D8A0F2EF0FF09E
:101FE000F4EF0FF00BEF10F0020E8A6F000E8B6F04
:101FF000000E8C6F000E8D6F89518811871107E1DB
:10200000020E865DD8B007EF10F009EF10F00BEF6D
:1020100010F0FCEF0EF077C04CF078C04DF08AC0A5
:102020004EF08BC04FF08CC050F08DC051F0E3ECFF
:1020300015F04CC090F04DC091F04EC092F04FC0E2
:1020400093F000019051911192119311D8A42BEFAC
:1020500010F02DEF10F02FEF10F05EEF10F0900564
:10206000911192119311D8B438EF10F03AEF10F0AB
:10207000C2EF0EF090290AE1912908E1922906E1C8
:102080009329D8A446EF10F048EF10F04AEF10F073
:10209000C2EF0EF086518A190DE187518B190AE1C2
:1020A00088518C1907E189518D19D8A45AEF10F085
:1020B0005CEF10F0D9EF0FF0FCEF0EF08EC04CF09B
:1020C0008FC04DF08AC04EF08BC04FF08CC050F0E6
:1020D0008DC051F0FF0E526EFF0E536EFF0E546E08
:1020E000FF0E556E12EC11F00001856F8551D8A4DA
:1020F0007CEF10F07EEF10F0A1EF10F079517A1123
:102100007B117C11D8B487EF10F089EF10F0A1EFAC
:1021100010F08EC04CF08FC04DF079C04EF07AC0F8
:102120004FF07BC050F07CC051F08AC052F08BC0A1
:1021300053F08CC054F08DC055F012EC11F000013A
:10214000856F8551D8A4A7EF10F0A9EF10F0F3EF39
:1021500010F020EE0BF08E51D9268F51DA228AC072
:10216000DEFF8BC0DEFF8CC0DEFF8DC0DEFF20EE09
:102170000FF08E51D9268F51DA2210EE17F08E51C2
:10218000E1268F51E222FE0EE624816FFF0EE6204B
:10219000826FFF0EE620836FFF0EE620846FDE5015
:1021A000815DDE508259DE508359DE508459D8A0BB
:1021B000DCEF10F0DEEF10F0E9EF10F020EE0FF0A2
:1021C0008E51D9268F51DA22DE06000EDE5ADE5AF3
:1021D000DE5A20EE04F08E51D9268F51DA22000EFD
:1021E000DB8009EF11F08505D8B4F9EF10F0FBEFB3
:1021F00010F005EF11F0010E8A6F000E8B6F000ECC
:102200008C6F000E8D6F09EF11F08A698B698C69F4
:102210008D698AC077F08BC078F08CC079F08DC062
:102220007AF01200020E0001766F515050104F10DC
:1022300009E1020E4E5CD8A020EF11F022EF11F060
:10224000AAEF13F020EE17F04C50D9264D50DA22A9
:10225000DE504E5CDE504F58DE505058DE50515824
:10226000D8B035EF11F037EF11F0AAEF13F08DEF82
:1022700013F04EC074F04FC075F0D8907531616F97
:102280007431606F60517427615175234CC041F007
:102290004DC042F020EE23F04C50D9264D50DA22AA
:1022A000DECF60F0DECF61F0DECF62F0DECF63F034
:1022B00074C064F075C065F0090E666FD890653320
:1022C0006433662F5EEF11F064516025436E6551F3
:1022D0006121446E000E6221456E000E6321466E40
:1022E0000CEC28F00001766F7651D8B47AEF11F03B
:1022F0007CEF11F07EEF11F0AAEF13F0FF0E606F8C
:10230000010E616F74C062F075C063F060516217B6
:10231000615163174CC064F04DC065F06251642791
:1023200063516523330E6425726F000E6521736F50
:10233000744B752B4EB09FEF11F0A1EF11F0A6EF8B
:1023400011F052C06EF06F6BC0EF11F05250606F21
:10235000616B603B613BF00E611760510F0B6113C5
:10236000F00E601772C0D9FF73C0DAFFDF500F0B99
:10237000626F636B605162116E6F615163116F6FB9
:1023800072C0D9FF73C0DAFF6EC0DFFF20EE03F02A
:102390004C50D9264D50DA22010EDF6E4CC041F070
:1023A0004DC042F020EE23F04C50D9264D50DA2299
:1023B000DECF60F0DECF61F0DECF62F0DECF63F023
:1023C00074C064F075C065F0090E666FD89065330F
:1023D0006433662FE6EF11F064516025436E65515A
:1023E0006121446E000E6221456E000E6321466E2F
:1023F0000CEC28F00001766F7651D8B402EF12F0A1
:1024000004EF12F006EF12F0AAEF13F0FF0E606F68
:10241000010E616F74C062F075C063F060516217A5
:10242000615163174CC064F04DC065F06251642780
:1024300063516523330E6425726F000E6521736F3F
:102440004EB025EF12F027EF12F045EF12F052C018
:1024500060F053C061F054C062F055C063F061C0D9
:1024600060F062C061F063C062F0636B0F0E6017D2
:1024700072C0D9FF73C0DAFFDF50F00B6011646FD8
:102480006451706F716B5BEF12F052C060F053C01B
:1024900061F054C062F055C063F0050E55EF12F0C4
:1024A000D8906333623361336033E82E50EF12F01B
:1024B0006051706F716B72C0D9FF73C0DAFF70C06A
:1024C000DFFF20EE03F04C50D9264D50DA22010EEA
:1024D000DF6EAAEF13F04CC041F04DC042F020EE89
:1024E00023F04C50D9264D50DA22DECF60F0DECFFB
:1024F00061F0DECF62F0DECF63F04EC064F04FC01B
:1025000065F050C066F051C067F065C064F066C009
:1025100065F067C066F0676B60516425436E61517A
:102520006521446E62516621456E63516721466E96
:102530000CEC28F00001766F7651D8B4A2EF12F0BF
:10254000A4EF12F0A6EF12F0AAEF13F0FF0E606FE7
:10255000010E616F4EC062F04FC063F0D8906237D9
:10256000633760516217615163174CC064F04DC00E
:1025700065F06251642763516523330E6425056E4F
:10258000000E6521066E52C007F053C008F0FBEC48
:102590002DF020EE03F04C50D9264D50DA22010EDA
:1025A000DF6EAAEF13F04CC041F04DC042F020EEB8
:1025B00023F04C50D9264D50DA22DECF60F0DECF2A
:1025C00061F0DECF62F0DECF63F04EC064F04FC04A
:1025D00065F050C066F051C067F0080EF5EF12F0DC
:1025E000D8906733663365336433E82EF0EF12F02A
:1025F00060516425436E61516521446E62516621CC
:10260000456E63516721466E0CEC28F00001766F31
:102610007651D8B40EEF13F010EF13F012EF13F061
:10262000AAEF13F0FF0E606F010E616F4EC062F0F3
:102630004FC063F0D89062376337D8906237633702
:1026400060516217615163174CC064F04DC065F072
:102650006251642763516523330E6425056E000EB5
:102660006521066E6EEC28F0000E05140001666F01
:10267000000E0614676F000E0714686FF00E081442
:10268000696FFF0E52146A6FFF0E53146B6FFF0ECB
:1026900054146C6F0F0E55146D6F66516A11526EA3
:1026A00067516B11536E68516C11546E69516D1105
:1026B000556EFF0E606F010E616F4EC062F04FC02D
:1026C00063F0D89062376337D890623763376051D0
:1026D0006217615163174CC064F04DC065F06251E0
:1026E000642763516523330E6425056E000E652152
:1026F000066E52C007F053C008F054C009F055C030
:102700000AF0B6EC2BF020EE03F04C50D9264D50D9
:10271000DA22010EDF6EAAEF13F04CC0D9FF4DC0D4
:10272000DAFFDF50606F616B6151000AD8B49BEF34
:1027300013F0AAEF13F06051010AD8B439EF11F089
:10274000030AD8B46BEF12F0010AD8B4D3EF12F039
:10275000AAEF13F00001765112000FC0D9FF10C08C
:10276000DAFFDECF1CF0DDCF1DF01C0E0D24206E35
:10277000000E0E20216E20C005F021C006F0000ED4
:10278000086E200E076E000E0A6E0B0E096EA1EC8D
:102790002DF0000E1F6E000E1E6E1EC022F01FC018
:1027A00023F0000E1B6E080E1A6E22501C24116EB0
:1027B00023501D20126E11C0F6FF12C0F7FF000E4D
:1027C000F86E0800F5502E0AD8A4E9EF13F0EBEFED
:1027D00013F066EF14F022501C24116E23501D20BC
:1027E000126E11C0F6FF12C0F7FF000EF86E08005F
:1027F000F5CF24F0224A232A2E0E2418D8A403EF62
:1028000014F005EF14F01EEF14F0235009E1030E4D
:10281000225CD8A00EEF14F010EF14F012EF14F0B9
:102820001EEF14F01E502024D96E1F502120DA6EA6
:1028300024C0DFFF1E4A1F2AEBEF13F02F0E2418CF
:10284000D8B425EF14F027EF14F03BEF14F05C0E32
:102850002418D8B42EEF14F030EF14F03BEF14F03E
:10286000200E246436EF14F038EF14F03BEF14F030
:10287000060EE2EF15F022501C24116E23501D208D
:10288000126E0FC0D9FF10C0DAFF11C0DEFF12C0F8
:10289000DDFF200E24644FEF14F051EF14F057EFDA
:1028A00014F0000E166E200E156E5BEF14F0000E85
:1028B000166E240E156E20EE0BF02050D9262150F6
:1028C000DA2215C0DFFF000EE2EF15F022501C24C3
:1028D000116E23501D20126E11C0F6FF12C0F7FFBB
:1028E000000EF86E0800F5CF24F0224A232A210EAC
:1028F00024607DEF14F07FEF14F081EF14F09AEF75
:1029000015F02F0E2418D8B488EF14F08AEF14F0C5
:1029100097EF14F05C0E2418D8A491EF14F093EF05
:1029200014F0C5EF14F097EF14F0224A232A225036
:102930001C24116E23501D20126E11C0F6FF12C010
:10294000F7FF000EF86E0800F5502F0AD8B4ABEF71
:1029500014F0ADEF14F095EF14F022501C24116E1A
:1029600023501D20126E11C0F6FF12C0F7FF000E9B
:10297000F86E0800F5505C0AD8B4C1EF14F0C3EF4C
:1029800014F095EF14F09AEF15F02E0E2418D8B429
:10299000CCEF14F0CEEF14F0D9EF14F01A501E5C07
:1029A0001B501F58D8A0D7EF14F0D9EF14F0F8EF50
:1029B00014F00B0E1A181B10D8B4E1EF14F0E3EF6B
:1029C00014F038EF14F02E0E2418D8B4EAEF14F0F7
:1029D000ECEF14F0EEEF14F038EF14F0000E1F6E71
:1029E000080E1E6E000E1B6E0B0E1A6E66EF14F0B4
:1029F0007F0E2464FEEF14F000EF15F010EF15F0D9
:102A000024507F0B116E126A010E1124F66E0F0E08
:102A10001220F76EF86A000EF8220800F5CF24F0B5
:102A2000245087EC2EF005500610D8B41AEF15F09C
:102A30001CEF15F068EF15F022501C24116E235086
:102A40001D20126E11C0F6FF12C0F7FF000EF86EC7
:102A50000800F5CF19F0224A232A195082EC2EF0F3
:102A600005500610D8B437EF15F039EF15F038EFF0
:102A700014F0FF0E116EFF0E126E1AC013F01BC081
:102A800014F0115013261250142213501E5C1450CF
:102A90001F58D8A04EEF15F050EF15F052EF15F07B
:102AA00038EF14F01E502024D96E1F502120DA6E0A
:102AB00024C0DFFF1E4A1F2A1E502024D96E1F503B
:102AC0002120DA6E19C0DFFF1E4A1F2A66EF14F0BC
:102AD000CB0E056E0F0E066E24C007F0086AECECF4
:102AE0002BF005500610D8B478EF15F07AEF15F0FA
:102AF0007CEF15F038EF14F0600E246482EF15F0CF
:102B000084EF15F08EEF15F07B0E24608AEF15F040
:102B10008CEF15F08EEF15F0200E245E1E50202451
:102B2000D96E1F502120DA6E24C0DFFF1E4A1F2AF3
:102B300066EF14F022501C24116E23501D20126EDB
:102B40000FC0D9FF10C0DAFF11C0DEFF12C0DDFFD9
:102B50001E501F10D8A4AFEF15F0B1EF15F0B3EF72
:102B600015F038EF14F020C0D9FF21C0DAFFE50ED0
:102B7000DE18D8A4BEEF15F0C0EF15F0C6EF15F0C3
:102B800020C0D9FF21C0DAFF050EDF6E200E2464BD
:102B9000CCEF15F0CEEF15F0D4EF15F0000E186E57
:102BA000000E176ED8EF15F0000E186E040E176E9B
:102BB00020EE0BF02050D9262150DA2217C0DFFF7B
:102BC00063EF14F012004CC0D9FF4DC0DAFFDECF26
:102BD00073F0DDCF74F0515050104F1009E1020E28
:102BE0004E5CD8A0F6EF15F0F8EF15F00EEF16F0EA
:102BF000000120EE17F07351D9267451DA22DE500D
:102C00004E5CDE504F58DE505058DE505158D8A020
:102C10000CEF16F00EEF16F019EF16F0010E000192
:102C20006D6F000E6E6F000E6F6F000E706FF3EF22
:102C300017F06D696E696F697069D6EF17F04EC055
:102C400071F04FC072F0D8907231616F7131606F66
:102C5000605171276151722373C041F074C042F01A
:102C600020EE23F07351D9267451DA22DECF60F0C2
:102C7000DECF61F0DECF62F0DECF63F071C064F0D2
:102C800072C065F0090E666FD89065336433662FA5
:102C900044EF16F064516025436E65516121446E26
:102CA000000E6221456E000E6321466E0CEC28F08A
:102CB0000009D8B45EEF16F060EF16F062EF16F080
:102CC000F3EF17F0FF0E0001606F010E616F71C02E
:102CD00062F072C063F0605162176151631773C094
:102CE00064F074C065F06251642763516523330E4C
:102CF0006425D96E000E6521DA6EDF50666F66516D
:102D00006B6F6C6B714B722B73C041F074C042F0EF
:102D100020EE23F07351D9267451DA22DECF60F011
:102D2000DECF61F0DECF62F0DECF63F071C064F021
:102D300072C065F0090E666FD89065336433662FF4
:102D40009CEF16F064516025436E65516121446E1D
:102D5000000E6221456E000E6321466E0CEC28F0D9
:102D60000009D8B4B6EF16F0B8EF16F0BAEF16F0C7
:102D7000F3EF17F0FF0E0001606F010E616F71C07D
:102D800062F072C063F0605162176151631773C0E3
:102D900064F074C065F06251642763516523330E9B
:102DA0006425D96E000E6521DA6EDF50666F6651BC
:102DB000686F676B67516B1368516C134EB0E3EF2C
:102DC00016F0E5EF16F0EDEF16F0FF0E6B15696FDC
:102DD0000F0E6C156A6FFDEF16F06BC060F06CC0E3
:102DE00061F0040E626FD89061336033622FF3EFAD
:102DF00016F060C069F061C06AF069C06DF06AC029
:102E00006EF06F6B706BF3EF17F073C041F074C02E
:102E100042F020EE23F07351D9267451DA22DECF2E
:102E200060F0DECF61F0DECF62F0DECF63F04EC047
:102E300064F04FC065F050C066F051C067F065C0E7
:102E400064F066C065F067C066F0676B605164252A
:102E5000436E61516521446E62516621456E635136
:102E60006721466E0CEC28F00009D8B43AEF17F051
:102E70003CEF17F03EEF17F0F3EF17F0FF0E0001F5
:102E8000606F010E616F4EC062F04FC063F0D8906A
:102E900062376337605162176151631773C064F022
:102EA00074C065F06251642763516523330E642555
:102EB000056E000E6521066E85EC2DF005C06DF0E7
:102EC00006C06EF000016F6B706BF3EF17F073C00C
:102ED00041F074C042F020EE23F07351D9267451B2
:102EE000DA22DECF60F0DECF61F0DECF62F0DECF3F
:102EF00063F04EC064F04FC065F050C066F051C042
:102F000067F0080E89EF17F0D890673366336533A2
:102F10006433E82E84EF17F060516425436E6151ED
:102F20006521446E62516621456E63516721466E8C
:102F30000CEC28F00009D8B4A0EF17F0A2EF17F0BE
:102F4000A4EF17F0F3EF17F0FF0E0001606F010E12
:102F5000616F4EC062F04FC063F0D8906237633744
:102F6000D89062376337605162176151631773C03D
:102F700064F074C065F06251642763516523330EB9
:102F80006425056E000E6521066E6EEC28F0FF0EBE
:102F9000051400016D6FFF0E06146E6FFF0E07140F
:102FA0006F6F0F0E0814706FF3EF17F073C0D9FF37
:102FB00074C0DAFFDF50606F616B6151000AD8B4F2
:102FC000E4EF17F00EEF16F06051010AD8B41FEFCE
:102FD00016F0030AD8B405EF17F0010AD8B467EF6A
:102FE00017F00EEF16F06DC04CF06EC04DF06FC0D4
:102FF0004EF070C04FF0120094C0D9FF95C0DAFFB8
:10300000DECFA8F0DDCFA9F0000120EE0EF0945144
:10301000D9269551DA22DECF98F0DECF99F0DECFB7
:103020009AF0DECF9BF0200E9825A46F000E992118
:10303000A56F000E9A21A66F000E9B21A76F20EEB0
:1030400016F09451D9269551DA22DE50DE10DE10AA
:10305000DE10D8B42EEF18F030EF18F03BEF18F078
:10306000A75109E1200EA65DD8A039EF18F03BEF7B
:1030700018F03EEF18F0040E10EF1AF0FF0EA41532
:10308000986F010EA515996F000EA6159A6F000E88
:10309000A7159B6F985199119A119B11D8A453EFC2
:1030A00018F055EF18F0DFEF19F020EE16F09451FC
:1030B000D9269551DA22DE2A000EDE22DE22DE2219
:1030C00020EE12F09451D9269551DA22DE50DE100E
:1030D000DE10DE10D8A46FEF18F071EF18F0AFEF2C
:1030E00018F020EE07F0A851D926A951DA22DECF38
:1030F00098F0DDCF99F098519A6F99519B6F9C6B26
:103100009D6BA4C09EF0A5C09FF0A6C0A0F0A7C074
:10311000A1F0060E91EF18F0D890A133A0339F33A1
:103120009E33E82E8CEF18F09A519E5D9B519F596B
:103130009C51A0599D51A159D8A0A1EF18F0A3EF1F
:1031400018F0DFEF19F020EE16F09451D9269551C2
:10315000DA22DE6ADE6ADE6ADD6A3BEF18F0FF0E15
:10316000986FFF0E996F20EE09F0A851D926A9514A
:10317000DA22DECF9AF0DDCF9BF098519A27995151
:103180009B23A4C09CF0A5C09DF0A6C09EF0A7C044
:103190009FF00A0ED1EF18F0D8909F339E339D33E5
:1031A0009C33E82ECCEF18F09A519C15A06F9B51E0
:1031B0009D15A16F000E9E15A26F000E9F15A36FA7
:1031C000A051A111A211A311D8A4E9EF18F0EBEFBF
:1031D00018F0DFEF19F094C04CF095C04DF020EEE0
:1031E00012F09451D9269551DA22DECF4EF0DECF7F
:1031F0004FF0DECF50F0DECF51F0E3EC15F04CC0D5
:10320000AAF04DC0ABF04EC0ACF04FC0ADF0000125
:10321000AD51AC11AB1107E1020EAA5DD8B013EFAE
:1032200019F015EF19F018EF19F0020E10EF1AF05F
:10323000AA290AE1AB2908E1AC2906E1AD29D8A405
:1032400024EF19F026EF19F029EF19F0010E10EF15
:103250001AF020EE17F0A851D926A951DA22DE5033
:10326000AA5DDE50AB59DE50AC59DE50AD59D8A046
:103270003CEF19F03EEF19F0B3EF19F096519711AA
:10328000D8A445EF19F047EF19F053EF19F020EEED
:1032900016F09451D9269551DA22DE6ADE6ADE6A8A
:1032A000DD6A3BEF18F094C077F095C078F020EE1F
:1032B00012F09451D9269551DA22DECF79F0DECF83
:1032C0007AF0DECF7BF0DECF7CF03AEC0EF077C008
:1032D000AAF078C0ABF079C0ACF07AC0ADF00001D4
:1032E000AA51AB11AC11AD11D8A479EF19F07BEF55
:1032F00019F07EEF19F0070E10EF1AF0AA05AB11C6
:10330000AC11AD11D8A487EF19F089EF19F08BEF4C
:1033100019F015EF19F0AA290AE1AB2908E1AC2947
:1033200006E1AD29D8A497EF19F099EF19F09BEFBA
:1033300019F026EF19F0A8C041F0A9C042F0AAC0C8
:1033400043F0ABC044F0ACC045F0ADC046F093ECE8
:1033500024F00009D8B4AFEF19F0B1EF19F0B3EFD2
:1033600019F026EF19F0000120EE12F09451D92641
:103370009551DA22AAC0DEFFABC0DEFFACC0DEFF93
:10338000ADC0DEFFA8C011F0A9C012F0AAC013F0B2
:10339000ABC014F0ACC015F0ADC016F0A6EC27F031
:1033A000000120EE16F09451D9269551DA2211C071
:1033B000DEFF12C0DEFF13C0DEFF14C0DEFF20EE12
:1033C0000EF09451D9269551DA22A4C0DEFFA5C093
:1033D000DEFFA6C0DEFFA7C0DEFFFF0E986F010E66
:1033E000996FA4C09AF0A5C09BF098519A17995173
:1033F0009B17A8C09CF0A9C09DF09A519C279B5197
:103400009D23330E9C27000E9D2320EE1AF094512D
:10341000D9269551DA229CC0DEFF9DC0DDFF000E4B
:10342000120075C0D9FF76C0DAFFDECF8DF0DDCF98
:103430008EF000017A5107E1200E795DD8B023EFBC
:103440001AF025EF1AF03CEF1AF01F0E77157B6F7C
:10345000000E78157C6F000E79157D6F000E7A15C1
:103460007E6F7B517C117D117E11D8B43AEF1AF03A
:103470003CEF1AF03FEF1AF0020EDDEF1BF020EEEA
:103480000EF07551D9267651DA2277C0DEFF78C06A
:10349000DEFF79C0DEFF7AC0DEFF20EE06F0755158
:1034A000D9267651DA22DECF89F0DECF8AF0DECF60
:1034B0008BF0DECF8CF089518A118B118C11D8A43E
:1034C00064EF1AF066EF1AF080EF1AF08DC0D9FFA2
:1034D0008EC0DAFF020EDF6470EF1AF072EF1AF09E
:1034E00080EF1AF020EE27F08D51D9268E51DA2286
:1034F000DECF89F0DECF8AF0DECF8BF0DECF8CF02E
:1035000089518A118B118C11D8A489EF1AF08BEF95
:103510001AF0D5EF1AF020EE07F08D51D9268E5112
:10352000DA22DECF7BF0DDCF7CF07B517D6F7C51EA
:103530007E6F7F6B806B77C081F078C082F079C03E
:1035400083F07AC084F0060EABEF1AF0D890843383
:10355000833382338133E82EA6EF1AF07D51815DEB
:103560007E5182597F51835980518459D8A0BBEF35
:103570001AF0BDEF1AF0BFEF1AF03CEF1AF020EE90
:1035800027F08D51D9268E51DA2210EE16F07551A2
:10359000E1267651E222DECFE6FFDECFE6FFDECF88
:1035A000E6FFDECFE6FF78EF1BF020EE09F08D514D
:1035B000D9268E51DA22DECF7BF0DDCF7CF07B5135
:1035C0007D6F7C517E6F7F6B806B090ED8907D374D
:1035D0007E377F378037E82EE6EF1AF07DC085F022
:1035E0007EC086F07FC087F080C088F04CEF1BF073
:1035F00075C04CF076C04DF089C04EF08AC04FF0D7
:103600008BC050F08CC051F0E3EC15F04CC089F049
:103610004DC08AF04EC08BF04FC08CF0000189295C
:103620000AE18A2908E18B2906E18C29D8A41BEF3D
:103630001BF01DEF1BF020EF1BF0010EDDEF1BF068
:103640008C518B118A1109E1020E895DD8A02BEFF4
:103650001BF02DEF1BF03CEF1AF020EE17F08D5110
:10366000D9268E51DA22DE50895DDE508A59DE502D
:103670008B59DE508C59D8A040EF1BF042EF1BF065
:1036800044EF1BF03CEF1AF08551775F8651785B71
:103690008751795B88517A5B8551775D865178597E
:1036A0008751795988517A59D8B059EF1BF05BEF9F
:1036B0001BF0F8EF1AF08DC011F08EC012F089C027
:1036C00013F08AC014F08BC015F08CC016F0A6EC75
:1036D00027F0000120EE16F07551D9267651DA2236
:1036E00011C0DEFF12C0DEFF13C0DEFF14C0DEFF1C
:1036F00020EE12F07551D9267651DA2289C0DEFF0C
:103700008AC0DEFF8BC0DEFF8CC0DEFF20EE16F02D
:103710007551D9267651DA22DE50DE10DE10DE1029
:10372000D8A495EF1BF097EF1BF099EF1BF03CEF3F
:103730001AF077C07BF078C07CF079C07DF07AC059
:103740007EF00A0EA9EF1BF0D8907E337D337C33D8
:103750007B33E82EA4EF1BF020EE16F07551D9262E
:103760007651DA227B51DE267C51DE227D51DE222B
:103770007E51DE22FF0E7B6F010E7C6F77C07DF0E5
:1037800078C07EF07B517D177C517E178DC07FF015
:103790008EC080F07D517F277E518023330E7F279E
:1037A000000E802320EE1AF07551D9267651DA22C8
:1037B0007FC0DEFF80C0DDFF000E120071EC2EF036
:1037C0000009D8A4E6EF1BF0E8EF1BF0EBEF1BF0CD
:1037D000000E23EF1DF0000ECAEC28F00A0E1D6E3D
:1037E000F6EF1BF0FF0E3EEC2EF01D061D50D8A488
:1037F000FCEF1BF0FEEF1BF0F2EF1BF0000E1C6E57
:10380000000E0D6E000E0E6E000E0F6E000E106E8E
:10381000000E52EC26F0E806D8A411EF1CF013EFCE
:103820001CF00CEF1DF0030E576EE80E566EAA0E3C
:103830000D6E010E0E6E000E0F6E000E106E080E55
:1038400052EC26F0E806D8A428EF1CF02AEF1CF072
:10385000B2EF1CF0000E1D6E150E1D24D96EDA6A33
:10386000000EDA22FF0E3EEC2EF0DF6E1D2A030E54
:103870001D643DEF1CF03FEF1CF02CEF1CF0170413
:10388000D8A445EF1CF047EF1CF00CEF1DF0AA0E7A
:103890001818D8A44EEF1CF050EF1CF00CEF1DF0E0
:1038A00056505710D8B457EF1CF059EF1CF06CEF7E
:1038B0001CF0000E0D6E000E0E6E000E0F6E400E10
:1038C000106EA90E52EC26F00009D8A46AEF1CF085
:1038D0006CEF1CF050EF1CF056505710D8B473EF3B
:1038E0001CF075EF1CF00CEF1DF0000E0D6E000EBD
:1038F0000E6E000E0F6E000E106E3A0E52EC26F099
:103900000009D8A486EF1CF088EF1CF00CEF1DF026
:10391000000E1D6E150E1D24D96EDA6A000EDA2215
:10392000FF0E3EEC2EF0DF6E1D2A030E1D649BEF92
:103930001CF09DEF1CF08AEF1CF015BCA2EF1CF0F0
:10394000A4EF1CF0AAEF1CF0000E1A6E040E196E04
:10395000AEEF1CF0000E1A6E0C0E196E19C01CF0A2
:103960000CEF1DF0000E0D6E000E0E6E000E0F6EB1
:10397000000E106EA90E52EC26F0146E020E1460AA
:10398000C4EF1CF0C6EF1CF0CCEF1CF0020E1C6E56
:10399000A90E1B6ED0EF1CF0010E1C6E010E1B6EEB
:1039A00056505710D8B4D7EF1CF0D9EF1CF0ECEFFD
:1039B0001CF0000E0D6E000E0E6E000E0F6E000E4F
:1039C000106E1B5052EC26F00009D8A4EAEF1CF050
:1039D000ECEF1CF0D0EF1CF056505710D8B4F3EFBA
:1039E0001CF0F5EF1CF008EF1DF0000E0D6E020E3E
:1039F0000E6E000E0F6E000E106E100E52EC26F0C2
:103A00000009D8B406EF1DF008EF1DF00CEF1DF013
:103A1000000E1C6E0CEF1DF01CC0F9F00001FA6BDB
:103A20008CEC2EF01C50D8B418EF1DF01AEF1DF0DE
:103A30001FEF1DF0010E596E010E23EF1DF096ECE5
:103A40002EF0E8EF1BF01200B6C0D9FFB7C0DAFFC6
:103A5000DECFC0F0DDCFC1F0B8C0F6FFB9C0F7FFD0
:103A6000000EF86E0800F5502F0AD8B43AEF1DF09A
:103A70003CEF1DF066EF1DF0B8C0F6FFB9C0F7FFD0
:103A8000000EF86E0800F5505C0AD8B44AEF1DF03D
:103A90004CEF1DF066EF1DF0000120EE13F0C05159
:103AA000D926C151DA2210EE06F0B651E126B751FF
:103AB000E222DECFE6FFDECFE6FFDECFE6FFDECF9F
:103AC000E6FF91EF1DF00001B84BB92BB8C0F6FF2F
:103AD000B9C0F7FF000EF86E0800F5502F0AD8B4F1
:103AE00074EF1DF076EF1DF063EF1DF0B8C0F6FF28
:103AF000B9C0F7FF000EF86E0800F5505C0AD8B4A4
:103B000084EF1DF086EF1DF063EF1DF0000120EE45
:103B100006F0B651D926B751DA22DE6ADE6ADE6ACD
:103B2000DD6AB8C0F6FFB9C0F7FF000EF86E200ED0
:103B30000800F5609EEF1DF0A0EF1DF0BAEF1DF03C
:103B400020EE27F0B651D926B751DA22800EDF6E6B
:103B5000B6C075F0B7C076F0000E776F000E786FC4
:103B6000000E796F000E7A6F11EC1AF00001C36F2E
:103B700067EF1EF0B6C00DF0B7C00EF0B80E0F6EB6
:103B8000000E106EADEC13F00001C36FC351D8B43A
:103B9000CCEF1DF0CEEF1DF0D0EF1DF067EF1EF063
:103BA000B6C0AEF0B7C0AFF006EC21F00001C36FB5
:103BB00020EE27F0B651D926B751DA22DF50C26F76
:103BC000C351D8B4E6EF1DF0E8EF1DF018EF1EF07A
:103BD000040EC319D8A4EFEF1DF0F1EF1DF067EF4D
:103BE0001EF0C2ABF6EF1DF0F8EF1DF00DEF1EF06A
:103BF000C2B5FDEF1DF0FFEF1DF001EF1EF0BAEFB3
:103C00001DF020EE27F0B651D926B751DA22800EEA
:103C1000DF6E000EC36F67EF1EF0C2B512EF1EF02D
:103C200014EF1EF067EF1EF0050EC36F67EF1EF076
:103C3000C2A51DEF1EF01FEF1EF021EF1EF067EF73
:103C40001EF020EE04F0B651D926B751DA22DFB8C3
:103C50002CEF1EF02EEF1EF030EF1EF014EF1EF0D2
:103C6000C0C00CF0C1C00DF0FF0EBA6F010EBB6FEB
:103C700020EE0EF0B651D926B751DA22DECFBCF0D5
:103C8000DDCFBDF0BA51BC17BB51BD17C0C0BEF0EF
:103C9000C1C0BFF0BC51BE27BD51BF23330EBE25EE
:103CA0000E6E000EBF210F6E4FEC2AF0000120EEC9
:103CB00006F0B651D926B751DA220CC0DEFF0DC08E
:103CC000DEFF0EC0DEFF0FC0DEFFBAEF1DF0C351F6
:103CD000120020EE09F01450D9261550DA22000EF9
:103CE000DF6E20EE16F01250D9261350DA22DE5085
:103CF000DE10DE10DE10D8A480EF1EF082EF1EF082
:103D000084EF1EF065EF1FF0000E1D6E000E1C6E9E
:103D10001CC01AF01DC01BF0E2EF1EF020EE1AF0DE
:103D20001250D9261350DA22DECF16F0DDCF17F06D
:103D30001A501624D96E1B501720DA6EDF501E6EF3
:103D40001A4A1B2A200E1E18D8A4A9EF1EF0ABEFAA
:103D50001EF0ADEF1EF0E2EF1EF0050E1E18D8A407
:103D6000B4EF1EF0B6EF1EF0B8EF1EF0E50E1E6EBB
:103D7000090E1A181B10D8A4C0EF1EF0C2EF1EF0D7
:103D8000D2EF1EF01C501424166E1D501520176E15
:103D9000090E1624D96E000E1720DA6E2E0EDF6E75
:103DA0001C4A1D2A1C501424166E1D501520176E17
:103DB000090E1624D96E000E1720DA6E1EC0DFFF22
:103DC0001C4A1D2A1B5009E10B0E1A5CD8A0EBEF10
:103DD0001EF0EDEF1EF08EEF1EF01C501424166E38
:103DE0001D501520176E090E1624D96E000E1720CF
:103DF000DA6E000EDF6E20EE1AF01250D926135044
:103E0000DA2210EE0BF0DE50E126DD50E22220EE49
:103E100008F01450D9261550DA22E7CFDFFF20EE44
:103E20001AF01250D9261350DA22DECF16F0DDCF69
:103E300017F01C0E1624056E000E1720066E6EEC91
:103E400028F014C0D9FF15C0DAFF05C0DEFF06C098
:103E5000DEFF07C0DEFF08C0DEFF20EE1AF01250C2
:103E6000D9261350DA22DECF16F0DDCF17F0160E6A
:103E70001624056E000E1720066E85EC2DF020EE40
:103E800006F01450D9261550DA2205C0DEFF06C010
:103E9000DDFF20EE1AF01250D9261350DA22DECFC1
:103EA00016F0DDCF17F0180E1624056E000E172041
:103EB000066E85EC2DF020EE04F01450D926155036
:103EC000DA2205C0DEFF06C0DDFF1200040E00018D
:103ED000BA6FAEC0D9FFAFC0DAFFDECFB6F0DDCF2C
:103EE000B7F013EF20F0B6C041F0B7C042F020EEBB
:103EF00016F0AE51D926AF51DA22DECF43F0DECF35
:103F000044F0DECF45F0DECF46F00CEC28F00001A7
:103F1000BA6FBA51D8B48FEF1FF091EF1FF093EF43
:103F20001FF024EF20F020EE1AF0AE51D926AF5149
:103F3000DA22DECFB2F0DDCFB3F0B2C0D9FFB3C02A
:103F4000DAFFDF50B96FB951D8A4A9EF1FF0ABEF7A
:103F50001FF0AFEF1FF0040EBA6F24EF20F020EE39
:103F60001AF0AE51D926AF51DA2210EE0BF0DE5026
:103F7000E126DD50E222E7503F0BB86F20EE04F05F
:103F8000AE51D926AF51DA22B8C0DFFFE50EB9191C
:103F9000D8B4CDEF1FF0CFEF1FF0FDEF1FF02E0EC6
:103FA000B919D8B4D6EF1FF0D8EF1FF0FDEF1FF00E
:103FB0000F0EB819D8B4DFEF1FF0E1EF1FF0FDEFDF
:103FC0001FF0B851DF0B080AD8B4E9EF1FF0ECEF8F
:103FD0001FF0010EEDEF1FF0000EB26FB36BB0518A
:103FE000B21907E1B151B319D8A4F9EF1FF0FBEFF3
:103FF0001FF0FDEF1FF024EF20F0AEC094F0AFC033
:1040000095F0000E976F000E966FFCEC17F0000114
:10401000BA6FBA51D8B40FEF20F011EF20F013EFC0
:1040200020F024EF20F020EE16F0AE51D926AF514B
:10403000DA22DE50DE10DE10DE10D8A422EF20F0EF
:1040400024EF20F073EF1FF0BA51D8B42AEF20F01C
:104050002CEF20F036EF20F020EE16F0AE51D926EE
:10406000AF51DA22DE6ADE6ADE6ADD6ABA51120018
:10407000000E406E20EE03F02E50D9262F50DA228B
:10408000DF50D8B446EF20F048EF20F004EF21F0E5
:10409000330E2E24226E000E2F20236E20EE2FF0E2
:1040A0002E50D9262F50DA22DECF24F0DECF25F095
:1040B000DECF26F0DECF27F0000E296E010E286E2F
:1040C00020EE01F02E50D9262F50DA22DF500AECD4
:1040D0002BF00009D8A46FEF20F071EF20F002EF71
:1040E00021F020EE03F02E50D9262F50DA22000EB8
:1040F000DF6E20EE1BF02E50D9262F50DA2210EE64
:1041000023F02E50E1262F50E222E6CF34F0E6CF06
:1041100035F0E6CF36F0E6CF37F010EE2FF02E5028
:10412000E1262F50E222E6CF38F0E6CF39F0E6CF95
:104130003AF0E6CF3BF03450385C3C6E355039589D
:104140003D6E36503A583E6E37503B583F6EDE500B
:104150003C5CDE503D58DE503E58DE503F58D8B0F3
:10416000B4EF20F0B6EF20F004EF21F020EE02F0E3
:104170002E50D9262F50DA22020EDE18D8A4C3EF13
:1041800020F0C5EF20F004EF21F0330E2E24226E34
:10419000000E2F20236E20EE1BF02E50D9262F501C
:1041A000DA22DECF30F0DECF31F0DECF32F0DECFFC
:1041B00033F020EE2FF02E50D9262F50DA22DECF0A
:1041C00034F0DECF35F0DECF36F0DECF37F03050D2
:1041D0003424246E31503520256E32503620266E20
:1041E00033503720276E000E296E010E286E20EE08
:1041F00001F02E50D9262F50DA22DF500AEC2BF096
:1042000004EF21F0010E406E40501200AEC0D9FF05
:10421000AFC0DAFFDECFB2F0DDCFB3F0AEC075F0E5
:10422000AFC076F0000E0001776F000E786F000EC1
:10423000796F000E7A6F11EC1AF00001B56FB5516D
:10424000D8B425EF21F027EF21F02BEF21F000016A
:10425000B551C7EF21F0B2C041F0B3C042F020EE3B
:1042600016F0AE51D926AF51DA22DECF43F0DECFC1
:1042700044F0DECF45F0DECF46F00CEC28F0000134
:10428000B56FB551D8B447EF21F049EF21F04BEFAE
:1042900021F027EF21F020EE1AF0AE51D926AF51D0
:1042A000DA22DECFB0F0DDCFB1F0B0C0D9FFB1C0BF
:1042B000DAFFDF50B46FB451D8A461EF21F063EF9F
:1042C00021F067EF21F0040EB56F27EF21F020EE0B
:1042D00004F0AE51D926AF51DA2210EE1AF0AE51E9
:1042E000E126AF51E22200EE0BF0E650E926E55060
:1042F000EA22EF503F0BDF6E20EE1AF0AE51D926C6
:10430000AF51DA2210EE0BF0DE50E126DD50E22252
:10431000E7B68DEF21F08FEF21F0B0EF21F020EE26
:104320001AF0AE51D926AF51DA22DECF05F0DDCF3B
:1043300006F01C0EAE25076E000EAF21086E000EB3
:104340000A6E0B0E096EC9EC29F005500610D8A4B0
:10435000ACEF21F0AEEF21F0B0EF21F027EF21F02C
:10436000AEC094F0AFC095F0000E0001976F000E44
:10437000966FFCEC17F00001B56FB551D8B4C3EFE0
:1043800021F0C5EF21F02BEF21F027EF21F01200F3
:104390000001C451C511D8A4D0EF21F0D2EF21F013
:1043A000D4EF21F086EF22F0C60E606F000E616F31
:1043B000C80E626F000E636F000E646FF9EC07F0B9
:1043C0000001CA6FCA51D8A4E8EF21F0EAEF21F04A
:1043D00076EF22F0C4C0D9FFC5C0DAFFC8C0DEFF47
:1043E000C9C0DDFFC4C0B6F0C5C0B7F0C6C0B8F0E4
:1043F000C7C0B9F024EC1DF00001CA6FCA51D8A49F
:1044000004EF22F006EF22F06BEF22F020EE27F00F
:10441000C451D926C551DA22DFBE11EF22F013EFC5
:1044200022F043EF22F020EE04F0C451D926C5510A
:10443000DA22DFA81EEF22F020EF22F041EF22F077
:10444000C8C00CF0C9C00DF020EE1AF0C451D92636
:10445000C551DA22DECF0EF0DDCF0FF04FEC2AF09F
:10446000000120EE06F0C451D926C551DA220CC055
:10447000DEFF0DC0DEFF0EC0DEFF0FC0DEFF43EF2C
:1044800022F0050ECA6FCA51D8A449EF22F04BEFB3
:1044900022F06BEF22F020EE05F0C851D926C95169
:1044A000DA2210EE02F0C451E126C551E222DECF3D
:1044B000E6FFDDCFE5FFC4C075F0C5C076F0000EA5
:1044C000776F000E786F000E796F000E7A6F11EC27
:1044D0001AF00001CA6F040ECA19D8A472EF22F0B4
:1044E00074EF22F076EF22F0050ECA6FCA51D8B4ED
:1044F0007CEF22F07EEF22F086EF22F0C4C0D9FFDD
:10450000C5C0DAFF000EDE6E000EDD6E120014C0B4
:104510001EF015C01FF016C020F017C021F09FEC50
:104520002EF00009D8A497EF22F099EF22F09CEF2B
:1045300022F0000E3CEF23F00001F9B7A2EF22F0C9
:10454000A4EF22F0ADEF22F0090ED8901E361F36F0
:1045500020362136E82EA5EF22F01A041B10D8A42D
:10456000B4EF22F0B6EF22F0DCEF22F01EC00DF027
:104570001FC00EF020C00FF021C010F0180E52EC3A
:1045800026F00009D8A4C7EF22F0C9EF22F039EFD6
:1045900023F018C00CF019C00DF0FE0E0E6E0DECDD
:1045A0002AF00C500D10D8B4D8EF22F0DAEF22F038
:1045B00039EF23F039EF23F0060EF9151C6E000ECB
:1045C000FA151D6E1C501D10D8B4E9EF22F0EBEF68
:1045D00022F0F4EF22F01AC00DF01BC00EF00F6AAB
:1045E000106A970E52EC26F01EC00DF01FC00EF0A0
:1045F00020C00FF021C010F0190E52EC26F0000977
:10460000D8A405EF23F007EF23F039EF23F018C00B
:104610000CF019C00DF0FC0E0E6E0DEC2AF00C50D3
:104620000D10D8A416EF23F018EF23F01AEF23F0A3
:1046300028EF23F0020E19261A06D8A01B061A50DE
:104640001B10D8A426EF23F028EF23F007EF23F068
:10465000000E0C6E000E0D6EFD0E0E6E0DEC2AF0AF
:104660000C500D10D8A437EF23F039EF23F039EFB9
:1046700023F08CEC2EF0010E120020EE03F04C50D3
:10468000D9264D50DA22000EDF6E20EE2FF04C506E
:10469000D9264D50DA22FF0EDE6EFF0EDE6EFF0EC3
:1046A000DE6EFF0EDD6E4CC041F04DC042F04EC0DC
:1046B00043F04FC044F050C045F051C046F00CEC00
:1046C00028F00009D8B467EF23F069EF23F06CEF0E
:1046D00023F0040EE8EF23F0310E4C24056E020E99
:1046E0004D20066E85EC2DF0550E051809E1AA0E39
:1046F0000618D8B47EEF23F080EF23F083EF23F089
:10470000030EE8EF23F020EE33F04C50D9264D5045
:10471000DA22E90EDE18D8B490EF23F092EF23F0FE
:10472000B0EF23F020EE33F04C50D9264D50DA2272
:10473000EB0EDE18D8B49FEF23F0A1EF23F0B0EF1B
:1047400023F020EE33F04C50D9264D50DA22E80EFB
:10475000DE18D8A4AEEF23F0B0EF23F0E7EF23F09C
:10476000690E4C24056E000E4D20066EEA0E076E93
:104770000F0E086E000E0A6E030E096EC9EC29F0CA
:1047800005500610D8A4C7EF23F0C9EF23F0CCEFF3
:1047900023F0000EE8EF23F0850E4C24056E000E8A
:1047A0004D20066EE40E076E0F0E086E000E0A6EA8
:1047B000050E096EC9EC29F005500610D8A4E3EFE8
:1047C00023F0E5EF23F0E7EF23F0C9EF23F0020E2B
:1047D00012000E680F6805C0D9FF06C0DAFFDECFF1
:1047E00010F0DDCF11F010C00BF011C00CF0105024
:1047F0001110D8A4FEEF23F000EF24F004EF24F012
:104800000568066892EF24F00BC0F6FF0CC0F7FFB6
:10481000000EF86E0800F5CF0DF00B4A0C2A200EA2
:104820000D6415EF24F017EF24F020EF24F03A0E7A
:104830000D18D8A41EEF24F020EF24F004EF24F08C
:104840003A0E0D18D8A427EF24F029EF24F08BEFAF
:1048500024F0000E0A6E010E096E10C0F6FF11C0A2
:10486000F7FF000EF86E2F0E0800F5643AEF24F003
:104870003CEF24F06CEF24F010C0F6FF11C0F7FFFE
:10488000000EF86E3A0E0800F56049EF24F04BEF89
:1048900024F06CEF24F0020E1024076E000E11209D
:1048A000086E0B50071807E10C500818D8A45BEFEE
:1048B00024F05DEF24F06CEF24F010C0F6FF11C07F
:1048C000F7FF000EF86E0800F5CF07F0D00E0724B2
:1048D000096E0A6AFF0E0A220ABE79EF24F00A5016
:1048E00006E10904D8B077EF24F079EF24F085EFE2
:1048F00024F009C00EF00AC00FF005C0D9FF06C0B1
:10490000DAFF0BC0DEFF0CC0DDFF0EC005F00FC0EC
:1049100006F092EF24F0FDC00EF00F6A0EC005F015
:104920000FC006F0120041C02EF042C02FF038EC4C
:1049300020F00009D8B49FEF24F0A1EF24F0A4EFF9
:1049400024F0010E36EF25F041C011F042C012F004
:1049500043C013F044C014F045C015F046C016F033
:10496000A6EC27F011C04BF012C04CF013C04DF074
:1049700014C04EF020EE2FF04150D9264250DA22DA
:104980004BC0DEFF4CC0DEFF4DC0DEFF4EC0DEFF81
:10499000330E4124056E000E4220066E000E086E96
:1049A000000E076E020E0A6E000E096EA1EC2DF0CD
:1049B000330E4124496E000E42204A6E000E506EA6
:1049C000010E4F6E000E526E000E516EECEF24F091
:1049D0004F5051265050522220EE09F04150D92616
:1049E0004250DA22DE50515CDE505258D8B0FBEF14
:1049F00024F0FDEF24F022EF25F049C022F04AC058
:104A000023F051504B24246E52504C20256E000E42
:104A10004D20266E000E4E20276E4FC028F050C04D
:104A200029F020EE01F04150D9264250DA22DF5021
:104A30000AEC2BF00009D8B420EF25F022EF25F086
:104A4000E8EF24F020EE09F04150D9264250DA2256
:104A50005150DE1807E15250DE18D8A432EF25F08D
:104A600035EF25F0010E36EF25F0000E120014C0D0
:104A70001CF015C01DF016C01EF017C01FF09FECF3
:104A80002EF00009D8A447EF25F049EF25F04CEFB0
:104A900025F0000ED2EF25F00001F9B752EF25F016
:104AA00054EF25F05DEF25F0090ED8901C361D3629
:104AB0001E361F36E82E55EF25F01A041B10D8A419
:104AC00064EF25F066EF25F08EEF25F01CC00DF0A9
:104AD0001DC00EF01EC00FF01FC010F0110E52ECE2
:104AE00026F00009D8A477EF25F079EF25F0CFEF75
:104AF00025F018C00CF019C00DF0020E0F6E000E5C
:104B00000E6ECDEC2AF00C500D10D8B48AEF25F0C3
:104B10008CEF25F0CFEF25F0CFEF25F01CC00DF086
:104B20001DC00EF01EC00FF01FC010F0120E52EC90
:104B300026F00009D8A49FEF25F0A1EF25F0CFEFD4
:104B400025F018C00CF019C00DF0020E0F6E000E0B
:104B50000E6ECDEC2AF00C500D10D8A4B2EF25F05B
:104B6000B4EF25F0B6EF25F0C4EF25F0020E1926BC
:104B70001A06D8A01B061A501B10D8A4C2EF25F0A5
:104B8000C4EF25F0A1EF25F0000E0D6E000E0E6EA5
:104B9000000E0F6E000E106E0C0E52EC26F08CEC18
:104BA0002EF0010E1200090E136E09500A10D8B42F
:104BB000DCEF25F0DEEF25F032EF26F009C0D9FF5B
:104BC0000AC0DAFFDE50DE10D8B4E9EF25F0EBEFD3
:104BD00025F032EF26F009C0D9FF0AC0DAFFDECF98
:104BE0000DF0DDCF0EF00DC0D9FF0EC0DAFFDF50A3
:104BF000D8B4FDEF25F0FFEF25F032EF26F009C025
:104C0000D9FF0AC0DAFF10EE05F0DE50E126DD50D4
:104C1000E22220EE02F00950D9260A50DA22E650AC
:104C2000DE1807E1E650DE18D8A419EF26F01BEFD6
:104C300026F032EF26F009C0D9FF0AC0DAFF10EEE5
:104C400001F0DE50E126DD50E222E7508FEC2AF041
:104C50000D6E0DB02EEF26F030EF26F032EF26F07D
:104C6000000E136E1350D8B438EF26F03AEF26F04A
:104C700040EF26F0000E116E000E126E48EF26F087
:104C800009C0D9FF0AC0DAFFDECF11F0DDCF12F084
:104C90000BC0D9FF0CC0DAFF11C0DEFF12C0DDFF70
:104CA00013501200136E13AE58EF26F05AEF26F091
:104CB00069EF26F0139E56EC2CF0126E010E126472
:104CC00064EF26F066EF26F069EF26F01250CAEF87
:104CD00026F00C0E1318D8B470EF26F072EF26F001
:104CE00082EF26F08CEC2EF069EC2DF009500A10C2
:104CF000D8A47DEF26F07FEF26F082EF26F0FF0E9E
:104D0000CAEF26F0135040093EEC2EF010503EEC56
:104D10002EF00F503EEC2EF00E503EEC2EF00D50CB
:104D20003EEC2EF0010E116E1350D8A49AEF26F02F
:104D30009CEF26F09EEF26F0950E116E080E1318CC
:104D4000D8A4A5EF26F0A7EF26F0A9EF26F0870E4E
:104D5000116E11503EEC2EF00C0E1318D8A4B3EFC8
:104D600026F0B5EF26F0B8EF26F0FF0E3EEC2EF061
:104D70000A0E116EFF0E3EEC2EF0126E12AEC3EF55
:104D800026F0C5EF26F066EF26F0112EBAEF26F0DA
:104D900066EF26F01200BBC009F0BCC00AF0BF0EDF
:104DA0000B6E000E0C6ED3EC25F00001C16FC151EB
:104DB000D8A4DDEF26F0DFEF26F039EF27F0BD5164
:104DC000BE11D8A4E6EF26F0E8EF26F0F8EF26F0C3
:104DD000BBC075F0BCC076F0000E776F000E786F28
:104DE000000E796F000E7A6F11EC1AF039EF27F090
:104DF000BBC0AEF0BCC0AFF0000EB16F000EB06F24
:104E000066EC1FF00001C16F040EC119D8A40BEFAE
:104E100027F00DEF27F00FEF27F0000EC16FC15103
:104E2000D8A415EF27F017EF27F039EF27F0BBC014
:104E300012F0BCC013F0BDC014F0BEC015F069EC98
:104E40001EF0BBC094F0BCC095F0000E0001976F3F
:104E5000000E966FFCEC17F00001C16F040EC11933
:104E6000D8A435EF27F037EF27F039EF27F039EFE7
:104E700027F01200A9C0ADF0AAC0AEF0AD0E056ECD
:104E8000000E066EE9EC23F005C0B1F006C0B2F0EA
:104E90000001B2BF50EF27F04EEF27F053EF27F09D
:104EA0000B0EA5EF27F0D890B135D96EB235DA6E7A
:104EB000F70ED926000EDA22DECFAFF0DDCFB0F04C
:104EC000AF51B011D8B467EF27F069EF27F06FEF5B
:104ED00027F0AFC0D9FFB0C0DAFF000EDF6EA751D8
:104EE000A811D8B476EF27F078EF27F07EEF27F0FF
:104EF000A7C0D9FFA8C0DAFF000EDF6ED890B13589
:104F0000D96EB235DA6EF70ED926000EDA22A7C0B6
:104F1000DEFFA8C0DDFFAB51D8A491EF27F093EFDF
:104F200027F096EF27F0000EA5EF27F0A90E606F8F
:104F3000000E616FA70E626F000E636F000E646F4C
:104F4000F9EC07F00001AC6FAC511200020E135ED9
:104F5000000E145A155A165A20EE17F01150D92681
:104F60001250DA22FE0EDE24176EFF0EDE20186EBF
:104F7000FF0EDE20196EFF0EDE201A6E1750135C36
:104F800018501458195015581A501658D8A0CBEF6D
:104F900027F0CDEF27F0D7EF27F0000E116E000EAF
:104FA000126E000E136E000E146E0BEF28F020EE42
:104FB0002BF01150D9261250DA22DECF17F0DECFB7
:104FC00018F0DECF19F0DECF1AF020EE09F0115004
:104FD000D9261250DA22DECF1BF0DDCF1CF01BC029
:104FE00005F01CC006F0076A086A13C009F014C077
:104FF0000AF015C00BF016C00CF021EC2CF0175085
:105000000524116E18500620126E19500720136ED9
:105010001A500820146E1200000E4B6E20EE2FF076
:105020004150D9264250DA224350DE180FE1445055
:10503000DE180CE14550DE1809E14650DE18D8B400
:1050400024EF28F026EF28F06CEF28F041C02EF076
:1050500042C02FF038EC20F04B6E4B50D8A433EF09
:1050600028F035EF28F06CEF28F0330E4124206E45
:10507000000E4220216E43C022F044C023F045C000
:1050800024F046C025F0000E276E010E266E20EE9D
:1050900001F04150D9264250DA22DF5044EC2BF087
:1050A0000009D8B456EF28F058EF28F05EEF28F04A
:1050B0004368446845684668010E4B6E20EE2FF049
:1050C0004150D9264250DA2243C0DEFF44C0DEFF01
:1050D00045C0DEFF46C0DEFF4B50120020EE03F05D
:1050E0000550D9260650DA22DF50096E09500E6E9F
:1050F0000F6A106A116A20EE02F00550D926065098
:10510000DA22DF50096E09500EC00BF00FC00CF010
:1051100010C00DF00A6A0A100E6E0B500F6E0C5084
:10512000106E0D50116E20EE01F00550D92606507C
:10513000DA22DF50096E09500EC00BF00FC00CF0E0
:1051400010C00DF00A6A0A100E6E0B500F6E0C5054
:10515000106E0D50116E05C0D9FF06C0DAFFDF508A
:10516000096E09500EC00BF00FC00CF010C00DF00E
:105170000A6A0A100E6E0B500F6E0C50106E0D5016
:10518000116E0EC005F00FC006F010C007F011C080
:1051900008F01200066E0E0196BBD1EF28F0D3EF97
:1051A00028F020EF29F00650040D010EF326000E22
:1051B000F422B10EF324F66E0F0EF420F76EF86AA7
:1051C000000EF8220800F5CF95FE0650040DB10E32
:1051D000F324F66E0F0EF420F76EF86A000EF82234
:1051E0000800F5CF96FE000E976F0650040D020ED4
:1051F000F326000EF422B10EF324F66E0F0EF42007
:10520000F76EF86A000EF8220800F5CF93FE0650FC
:10521000040D030EF326000EF422B10EF324F66EF5
:105220000F0EF420F76EF86A000EF8220800F5CF92
:1052300005F0054689500518FD0B0518896E968BFB
:10524000120021EE58F011EE00F00C0EDBCFE3FF60
:10525000E806FCE271EC2EF00009D8B432EF29F038
:1052600034EF29F076EF29F0BD0E0001A76F050E8F
:10527000A86FEE0EA96F0F0EAA6F010EAB6F3AEC7E
:1052800027F00009D8A447EF29F049EF29F075EF7E
:1052900029F0230E0001C46F010EC56FE90EC66F21
:1052A0000F0EC76FC8EC21F0230E0001BB6F010E7B
:1052B000BC6F0D0EBD6F010EBE6FCBEC26F0010171
:1052C0001651D8A466EF29F068EF29F054EF29F0C1
:1052D000000E0001A76F000EA86FEE0EA96F0F0E53
:1052E000AA6F000EAB6F3AEC27F000F01200000E30
:1052F0000D6E000E0E6E000E0F6E000E106E095039
:105300000A100B100C10D8B488EF29F08AEF29F09E
:10531000C0EF29F0010E116E94EF29F0D8900936F4
:105320000A360B360C36112A0CAE99EF29F09BEF9A
:1053300029F08EEF29F0D8900D360E360F36103644
:105340000950055C0A5006580B5007580C50085875
:10535000D8A0ADEF29F0AFEF29F0B8EF29F0095050
:10536000055E0A50065A0B50075A0C50085A0D8019
:10537000D8900C320B320A320932112E9BEF29F0F1
:105380000DC005F00EC006F00FC007F010C008F009
:10539000120005C00DF006C00EF007C00FF008C0E7
:1053A00010F00DC0D9FF0EC0DAFFDF500B6E0FC03A
:1053B000F6FF10C0F7FF000EF86E0E0EF76403D074
:1053C0000800F55005D0F6CFE9FFF7CFEAFFEF5020
:1053D0000C6E0C500B5C116E126AD8A012060F4AAC
:1053E000102A0D4A0E2A0906D8A00A0609500A10EA
:1053F000D8B4FDEF29F0FFEF29F008EF2AF01150A3
:105400001210D8B406EF2AF008EF2AF0D1EF29F0F5
:1054100011C005F012C006F0120006EC2DF0065087
:105420000710D8A416EF2AF018EF2AF01EEF2AF082
:10543000000E0D6E000E0C6E4EEF2AF00E503EEC7C
:105440002EF0FD0E0E18D8B428EF2AF02AEF2AF01D
:105450004AEF2AF00CC006F00DC007F0020E096EEC
:10546000000E086E4CEC2DF0FF0E3EEC2EF0FF0E01
:105470003EEC2EF0FF0E3EEC2EF00F6E0F501F0B89
:10548000050AD8B446EF2AF048EF2AF04AEF2AF08E
:1054900018EF2AF0000E0D6E010E0C6E12001A0E9F
:1054A0000E24056E000E0F20066E85EC2DF005C053
:1054B00014F006C015F0166A176A0CC0D9FF0DC0AB
:1054C000DAFF030EDE18D8A468EF2AF06AEF2AF09C
:1054D00086EF2AF0140E0E24056E000E0F20066EC5
:1054E00085EC2DF00550106E0650116E126A136A8D
:1054F00011C013F010C012F0116A106A105014128B
:1055000011501512125016121350171214C00CF02D
:1055100015C00DF016C00EF017C00FF01200076E88
:10552000010E086EBAEF2AF071EC2EF00009D8A433
:105530009CEF2AF09EEF2AF0A2EF2AF0020E086EEE
:10554000ADEF2AF09FEC2EF0E806D8A4AAEF2AF0DF
:10555000ACEF2AF0ADEF2AF008909DEC2EF0E806B3
:10556000D8A4B5EF2AF0B7EF2AF0CBEF2AF00884E1
:10557000CBEF2AF00750056E066A0650000AD8B431
:10558000C4EF2AF0CBEF2AF00550000AD8B494EF0C
:105590002AF0CBEF2AF008501200000E576E640E6E
:1055A000566EFF0E3EEC2EF0106E1028D8A4DBEFE6
:1055B0002AF0DDEF2AF0E6EF2AF056505710D8A473
:1055C000E4EF2AF0E6EF2AF0D1EF2AF0FE0E1018F1
:1055D000D8B4EDEF2AF0EFEF2AF0F5EF2AF0000E45
:1055E0000D6E000E0C6E09EF2BF00CC006F00DC016
:1055F00007F00EC008F00FC009F02EEC2DF0FF0EE2
:105600003EEC2EF0FF0E3EEC2EF0000E0D6E010E65
:105610000C6E12002C6E040E2D6E31EF2BF024C098
:1056200014F025C015F026C016F027C017F022C0D0
:1056300018F023C019F028C01AF029C01BF087EC1D
:1056400022F0E806D8A427EF2BF029EF2BF02DEF5E
:105650002BF0000E2D6E42EF2BF0010E2D6E42EF5F
:105660002BF02C502A6E2B6A2B50000AD8B43BEF3B
:105670002BF042EF2BF02A50000AD8B40FEF2BF09A
:1056800042EF2BF02D5012002A6E040E2B6E6BEFA2
:105690002BF022C014F023C015F024C016F025C052
:1056A00017F020C018F021C019F026C01AF027C04A
:1056B0001BF037EC25F0E806D8A461EF2BF063EF80
:1056C0002BF067EF2BF0000E2B6E7CEF2BF0010E12
:1056D0002B6E7CEF2BF02A50286E296A2950000A85
:1056E000D8B475EF2BF07CEF2BF02850000AD8B41B
:1056F00049EF2BF07CEF2BF02B501200000E836E45
:10570000100E846E180E856E8868E50E896E8A68A4
:10571000E70E0F01216FC10E196F1169000E2D6F79
:10572000000E186F000E106F000E206F000E0F6F2E
:10573000000E176F000E1F6F0E6916691E690D6946
:1057400015691D69080E2A6F0A0E0E01906F130E5F
:10575000B76F110EF06F0F0EFA6F100EFB6F120E77
:10576000F26F140EB86F090E8F6F120005C0D9FFCB
:1057700006C0DAFF07C0DFFF054A062A08C007F0A7
:1057800009C008F00AC009F00A6A05C0D9FF06C0BE
:10579000DAFF07C0DFFF054A062A08C007F009C084
:1057A00008F00AC009F00A6A05C0D9FF06C0DAFF8E
:1057B00007C0DFFF054A062A08C007F009C008F045
:1057C0000AC009F00A6A05C0D9FF06C0DAFF07C09F
:1057D000DFFF054A062A1200F0EF2BF0054A062AE1
:1057E00005C0F6FF06C0F7FF000EF86E0800F55082
:1057F0000009D8B4FEEF2BF000EF2CF016EF2CF0E0
:1058000005C0F6FF06C0F7FF000EF86E0800F55061
:10581000096E0A6A0750091807E108500A18D8A447
:1058200014EF2CF016EF2CF0EEEF2BF005C0F6FF86
:1058300006C0F7FF000EF86E0800F550056E066A08
:105840001200000E0D6E000E0E6E000E0F6E000E9A
:10585000106E05A02EEF2CF030EF2CF038EF2CF06E
:1058600009500D260A500E220B500F220C50102208
:10587000D89009360A360B360C36D89008320732E3
:10588000063205320550061007100810D8A44BEF59
:105890002CF04DEF2CF029EF2CF00DC005F00EC0D0
:1058A00006F00FC007F010C008F012008CEC2EF0CC
:1058B00069EC2DF009500A10D8A461EF2CF063EFC9
:1058C0002CF066EF2CF0FF0E89EF2CF0770E3EECFB
:1058D0002EF0000E3EEC2EF0000E3EEC2EF0000EF0
:1058E0003EEC2EF0000E3EEC2EF0010E3EEC2EF0C3
:1058F0000A0E0C6EFF0E3EEC2EF00B6E0BAE83EF1D
:105900002CF085EF2CF088EF2CF00C2E7AEF2CF099
:105910000B501200206E010E216EA1EF2CF0DEEC78
:105920001BF0E806D8A497EF2CF099EF2CF09DEF30
:105930002CF0000E216EB2EF2CF0010E216EB2EFB2
:105940002CF020501E6E1F6A1F50000AD8B4ABEF17
:105950002CF0B2EF2CF01E50000AD8B48FEF2CF0D0
:10596000B2EF2CF021501200980EF66E5C0EF76E1E
:10597000000EF86E01EE4BF010EE1AF00900F5CFB4
:10598000EEFFE550E150FAE101EE68F018EEAAF002
:10599000EE6AE550E150FCE1E250FAE100EECBF0B6
:1059A000330EEE6AE806FDE1596A586A576A566A8C
:1059B0005A905A920001D3EF2DF056C001F057C013
:1059C00002F001500210D8B4E8EF2CF0EAEF2CF00E
:1059D000F1EF2CF00106D8A0020601C056F002C07B
:1059E00057F0FBC001F0FCC002F001500210D8B427
:1059F000FCEF2CF0FEEF2CF005EF2DF00106D8A007
:105A0000020601C0FBF002C0FCF01200010E000112
:105A1000FC6FF40EFB6FFF0E3EEC2EF0086E0828B4
:105A2000D8B415EF2DF017EF2DF021EF2DF0000178
:105A3000FB51FC11D8A41FEF2DF021EF2DF00BEF3F
:105A40002DF00828D8B427EF2DF02AEF2DF0010E05
:105A50002BEF2DF0000E066E076A120006C00AF04A
:105A600007C00BF03EEF2DF0000E3EEC2EF00AC00A
:105A7000D9FF0BC0DAFFDF6E0A4A0B2A0806D8A04E
:105A80000906082806E10928D8A449EF2DF04BEFB4
:105A90002DF034EF2DF0120006C00AF007C00BF015
:105AA0005BEF2DF00AC0D9FF0BC0DAFFDF503EECF0
:105AB0002EF00A4A0B2A0806D8A00906082806E193
:105AC0000928D8A466EF2DF068EF2DF052EF2DF0E5
:105AD00012008498FF0E3EEC2EF006EC2DF00650DE
:105AE0000710D8B476EF2DF078EF2DF07EEF2DF083
:105AF000000E0A6E010E096E84EF2DF08CEC2EF074
:105B0000000E0A6E000E096E120020EE01F0055024
:105B1000D9260650DA22DF50076E07500A6E0B6A4C
:105B200005C0D9FF06C0DAFFDF50076E0A50086EC5
:105B300007500A6E08C00BF00AC005F00BC006F053
:105B4000120005C00BF006C00CF00BC0D9FF0CC052
:105B5000DAFF07C0DFFF0B4A0C2A0906D8A00A06A5
:105B600009500A10D8A4B7EF2DF0B9EF2DF0A5EF2A
:105B70002DF012000101655166116711D8B4C3EF11
:105B80002DF0C5EF2DF0D2EF2DF002D8D2EF2DF091
:105B90000500FA6E6551FD6E6651FE6E6751FF6E2F
:105BA000FA501200120021EC2EF0BA0E056E590EBA
:105BB000066E000E076E7BEC2EF0F28EF28C99ECE6
:105BC0002EF021EC29F0E3EF2DF020EF00F0800E15
:105BD000D66E1E0ED46E000ED36E0E01CA9BC28B03
:105BE000420E056E5D0E066E000E076E7BEC2EF00B
:105BF000800ED56E120005C0D9FF06C0DAFF07C0BF
:105C0000DFFF054A062A0850076E086A05C0D9FF5B
:105C100006C0DAFF07C0DFFF054A062A1200090E98
:105C20000E018F6F0A0E906F110EF06F120EF26F51
:105C3000400E956F0A0E966F9F0E936F8992969BFA
:105C400012009BEC2EF030EC2EF065EC2EF00FECF9
:105C50002EF07EEC2BF059EC2EF0E7EC2DF012003C
:105C6000000E0E01E16F000EE26F000EE36F000EFA
:105C7000E46F000EE56F000EE66F1200056E05C0C2
:105C800092FE0E01CDA547EF2EF049EF2EF041EF29
:105C90002EF0CD959251120048656C6C6F20576FB5
:105CA000726C64210048656C6C6F20576F726C6475
:105CB0002100600E0E01D86F000EDA6F000EDC6F4F
:105CC000080EDE6F000EDD6F1200800E956E080E5E
:105CD000966E000E976E080E986E9F0E936E969AB3
:105CE00012008EAA76EF2EF079EF2EF0010E7AEFE9
:105CF0002EF0000E120005C065F106C066F107C067
:105D000067F11200000E066E000E056E1200000E06
:105D1000066E000E056E12008488FF0E3EEC2EF01B
:105D200012000E01CA9BBAEC2DF012000E01969BD8
:105D30001200D58E1200F29A1200585012005950DB
:045D4000120012003B
:020000040020DA
:10000000FF0FFF0FFF0FFF0FFF0FFF0FFF0FFF0F80
:020000040030CA
:0C0000008CFFFFFF9FFFFFFFFFFFFFFFD3
:00000001FF
